{
	"compilerInput": "{\"language\":\"Solidity\",\"sources\":{\"update.sol\":{\"content\":\"// SPDX-License-Identifier: MIT\\r\\npragma solidity ^0.8.0;\\r\\n\\r\\ncontract Marketplace {\\r\\n    struct Item {\\r\\n        uint id;\\r\\n        address payable seller;\\r\\n        address payable owner;\\r\\n        string title;\\r\\n        string description;\\r\\n        string imageHash; // IPFS hash of the image\\r\\n        uint price;\\r\\n        bool sold;\\r\\n    }\\r\\n\\r\\n    Item[] public items;\\r\\n    uint public itemCount = 0;\\r\\n\\r\\n    event ItemListed(uint itemId, address indexed seller, address indexed owner, string title, string imageHash, uint price);\\r\\n    event ItemSold(uint itemId, address indexed oldOwner, address indexed newOwner, uint price);\\r\\n    event PaymentSent(address indexed from, address indexed to, uint256 amount);\\r\\n\\r\\n    function listItem(string memory _title, string memory _description, string memory _imageHash, uint _price) public {\\r\\n        require(_price > 0, \\\"Price must be greater than zero\\\");\\r\\n        \\r\\n        items.push(Item({\\r\\n            id: itemCount,\\r\\n            seller: payable(msg.sender),\\r\\n            owner: payable(msg.sender), // Owner set as the seller initially\\r\\n            title: _title,\\r\\n            description: _description,\\r\\n            imageHash: _imageHash,\\r\\n            price: _price,\\r\\n            sold: false\\r\\n        }));\\r\\n        \\r\\n        emit ItemListed(itemCount, msg.sender, msg.sender, _title, _imageHash, _price);\\r\\n        itemCount++;\\r\\n    }\\r\\n\\r\\n    function buyItem(uint _id) public payable {\\r\\n        require(_id < itemCount, \\\"Item ID does not exist\\\");\\r\\n        Item storage item = items[_id];\\r\\n        require(msg.value == item.price, \\\"Please submit the asking price in order to complete the purchase\\\");\\r\\n        require(!item.sold, \\\"This item has already been sold\\\");\\r\\n        require(msg.sender != item.owner, \\\"Owner cannot buy their own item\\\");\\r\\n\\r\\n        // Safer method to transfer funds using call\\r\\n        (bool success, ) = item.owner.call{value: msg.value}(\\\"\\\");\\r\\n        require(success, \\\"Failed to send Ether\\\");\\r\\n\\r\\n        address prevOwner = item.owner; // Track previous owner for event\\r\\n        item.owner = payable(msg.sender); // Update owner to the new buyer\\r\\n        item.sold = true;\\r\\n\\r\\n        emit PaymentSent(msg.sender, prevOwner, msg.value);\\r\\n        emit ItemSold(_id, prevOwner, msg.sender, item.price);\\r\\n    }\\r\\n\\r\\n    function getAllItems() public view returns (Item[] memory) {\\r\\n        return items;\\r\\n    }\\r\\n\\r\\n    function getItemById(uint _id) public view returns (Item memory) {\\r\\n        require(_id < itemCount, \\\"Item ID does not exist\\\");\\r\\n        return items[_id];}\\r\\n}\\r\\n\"}},\"settings\":{\"optimizer\":{\"enabled\":false,\"runs\":200},\"outputSelection\":{\"*\":{\"\":[\"ast\"],\"*\":[\"abi\",\"metadata\",\"devdoc\",\"userdoc\",\"storageLayout\",\"evm.legacyAssembly\",\"evm.bytecode\",\"evm.deployedBytecode\",\"evm.methodIdentifiers\",\"evm.gasEstimates\",\"evm.assembly\"]}},\"remappings\":[]}}",
	"name": "Marketplace",
	"bytecode": {
		"linkReferences": {},
		"object": "60806040525f6001553480156012575f80fd5b50611db5806100205f395ff3fe608060405260043610610054575f3560e01c80634ba1d6aa146100585780636bfb0d0114610082578063bfb231d2146100ac578063cd2f0710146100ef578063d65274c91461012b578063e7fb74c714610153575b5f80fd5b348015610063575f80fd5b5061006c61016f565b6040516100799190611262565b60405180910390f35b34801561008d575f80fd5b50610096610452565b6040516100a39190611291565b60405180910390f35b3480156100b7575f80fd5b506100d260048036038101906100cd91906112e5565b610458565b6040516100e6989796959493929190611376565b60405180910390f35b3480156100fa575f80fd5b50610115600480360381019061011091906112e5565b610686565b60405161012291906114c2565b60405180910390f35b348015610136575f80fd5b50610151600480360381019061014c919061160e565b61098b565b005b61016d600480360381019061016891906112e5565b610be9565b005b60605f805480602002602001604051908101604052809291908181526020015f905b82821015610449578382905f5260205f209060080201604051806101000160405290815f8201548152602001600182015f9054906101000a900473ffffffffffffffffffffffffffffffffffffffff1673ffffffffffffffffffffffffffffffffffffffff1673ffffffffffffffffffffffffffffffffffffffff168152602001600282015f9054906101000a900473ffffffffffffffffffffffffffffffffffffffff1673ffffffffffffffffffffffffffffffffffffffff1673ffffffffffffffffffffffffffffffffffffffff168152602001600382018054610276906116f3565b80601f01602080910402602001604051908101604052809291908181526020018280546102a2906116f3565b80156102ed5780601f106102c4576101008083540402835291602001916102ed565b820191905f5260205f20905b8154815290600101906020018083116102d057829003601f168201915b50505050508152602001600482018054610306906116f3565b80601f0160208091040260200160405190810160405280929190818152602001828054610332906116f3565b801561037d5780601f106103545761010080835404028352916020019161037d565b820191905f5260205f20905b81548152906001019060200180831161036057829003601f168201915b50505050508152602001600582018054610396906116f3565b80601f01602080910402602001604051908101604052809291908181526020018280546103c2906116f3565b801561040d5780601f106103e45761010080835404028352916020019161040d565b820191905f5260205f20905b8154815290600101906020018083116103f057829003601f168201915b5050505050815260200160068201548152602001600782015f9054906101000a900460ff16151515158152505081526020019060010190610191565b50505050905090565b60015481565b5f8181548110610466575f80fd5b905f5260205f2090600802015f91509050805f015490806001015f9054906101000a900473ffffffffffffffffffffffffffffffffffffffff1690806002015f9054906101000a900473ffffffffffffffffffffffffffffffffffffffff16908060030180546104d5906116f3565b80601f0160208091040260200160405190810160405280929190818152602001828054610501906116f3565b801561054c5780601f106105235761010080835404028352916020019161054c565b820191905f5260205f20905b81548152906001019060200180831161052f57829003601f168201915b505050505090806004018054610561906116f3565b80601f016020809104026020016040519081016040528092919081815260200182805461058d906116f3565b80156105d85780601f106105af576101008083540402835291602001916105d8565b820191905f5260205f20905b8154815290600101906020018083116105bb57829003601f168201915b5050505050908060050180546105ed906116f3565b80601f0160208091040260200160405190810160405280929190818152602001828054610619906116f3565b80156106645780601f1061063b57610100808354040283529160200191610664565b820191905f5260205f20905b81548152906001019060200180831161064757829003601f168201915b505050505090806006015490806007015f9054906101000a900460ff16905088565b61068e610f9d565b60015482106106d2576040517f08c379a00000000000000000000000000000000000000000000000000000000081526004016106c99061176d565b60405180910390fd5b5f82815481106106e5576106e461178b565b5b905f5260205f209060080201604051806101000160405290815f8201548152602001600182015f9054906101000a900473ffffffffffffffffffffffffffffffffffffffff1673ffffffffffffffffffffffffffffffffffffffff1673ffffffffffffffffffffffffffffffffffffffff168152602001600282015f9054906101000a900473ffffffffffffffffffffffffffffffffffffffff1673ffffffffffffffffffffffffffffffffffffffff1673ffffffffffffffffffffffffffffffffffffffff1681526020016003820180546107c0906116f3565b80601f01602080910402602001604051908101604052809291908181526020018280546107ec906116f3565b80156108375780601f1061080e57610100808354040283529160200191610837565b820191905f5260205f20905b81548152906001019060200180831161081a57829003601f168201915b50505050508152602001600482018054610850906116f3565b80601f016020809104026020016040519081016040528092919081815260200182805461087c906116f3565b80156108c75780601f1061089e576101008083540402835291602001916108c7565b820191905f5260205f20905b8154815290600101906020018083116108aa57829003601f168201915b505050505081526020016005820180546108e0906116f3565b80601f016020809104026020016040519081016040528092919081815260200182805461090c906116f3565b80156109575780601f1061092e57610100808354040283529160200191610957565b820191905f5260205f20905b81548152906001019060200180831161093a57829003601f168201915b5050505050815260200160068201548152602001600782015f9054906101000a900460ff1615151515815250509050919050565b5f81116109cd576040517f08c379a00000000000000000000000000000000000000000000000000000000081526004016109c490611802565b60405180910390fd5b5f60405180610100016040528060015481526020013373ffffffffffffffffffffffffffffffffffffffff1681526020013373ffffffffffffffffffffffffffffffffffffffff1681526020018681526020018581526020018481526020018381526020015f1515815250908060018154018082558091505060019003905f5260205f2090600802015f909190919091505f820151815f01556020820151816001015f6101000a81548173ffffffffffffffffffffffffffffffffffffffff021916908373ffffffffffffffffffffffffffffffffffffffff1602179055506040820151816002015f6101000a81548173ffffffffffffffffffffffffffffffffffffffff021916908373ffffffffffffffffffffffffffffffffffffffff1602179055506060820151816003019081610b0791906119bd565b506080820151816004019081610b1d91906119bd565b5060a0820151816005019081610b3391906119bd565b5060c0820151816006015560e0820151816007015f6101000a81548160ff02191690831515021790555050503373ffffffffffffffffffffffffffffffffffffffff163373ffffffffffffffffffffffffffffffffffffffff167fc8cafa36072a4a4aef47b5164eef855aa92fac71ff751e55217e14982720c7fe600154878686604051610bc49493929190611a8c565b60405180910390a360015f815480929190610bde90611b0a565b919050555050505050565b6001548110610c2d576040517f08c379a0000000000000000000000000000000000000000000000000000000008152600401610c249061176d565b60405180910390fd5b5f808281548110610c4157610c4061178b565b5b905f5260205f209060080201905080600601543414610c95576040517f08c379a0000000000000000000000000000000000000000000000000000000008152600401610c8c90611bc1565b60405180910390fd5b806007015f9054906101000a900460ff1615610ce6576040517f08c379a0000000000000000000000000000000000000000000000000000000008152600401610cdd90611c29565b60405180910390fd5b806002015f9054906101000a900473ffffffffffffffffffffffffffffffffffffffff1673ffffffffffffffffffffffffffffffffffffffff163373ffffffffffffffffffffffffffffffffffffffff1603610d77576040517f08c379a0000000000000000000000000000000000000000000000000000000008152600401610d6e90611c91565b60405180910390fd5b5f816002015f9054906101000a900473ffffffffffffffffffffffffffffffffffffffff1673ffffffffffffffffffffffffffffffffffffffff1634604051610dbf90611cdc565b5f6040518083038185875af1925050503d805f8114610df9576040519150601f19603f3d011682016040523d82523d5f602084013e610dfe565b606091505b5050905080610e42576040517f08c379a0000000000000000000000000000000000000000000000000000000008152600401610e3990611d3a565b60405180910390fd5b5f826002015f9054906101000a900473ffffffffffffffffffffffffffffffffffffffff16905033836002015f6101000a81548173ffffffffffffffffffffffffffffffffffffffff021916908373ffffffffffffffffffffffffffffffffffffffff1602179055506001836007015f6101000a81548160ff0219169083151502179055508073ffffffffffffffffffffffffffffffffffffffff163373ffffffffffffffffffffffffffffffffffffffff167fd52bd61f7c422d441e024604f4517878fd3305d6acf0fe37baef23ed21af6bc934604051610f249190611291565b60405180910390a33373ffffffffffffffffffffffffffffffffffffffff168173ffffffffffffffffffffffffffffffffffffffff167f04ddd54c6b746e69ba87f862311f7670bd1d7276846778ac81cd38747b27a746868660060154604051610f8f929190611d58565b60405180910390a350505050565b6040518061010001604052805f81526020015f73ffffffffffffffffffffffffffffffffffffffff1681526020015f73ffffffffffffffffffffffffffffffffffffffff1681526020016060815260200160608152602001606081526020015f81526020015f151581525090565b5f81519050919050565b5f82825260208201905092915050565b5f819050602082019050919050565b5f819050919050565b61104681611034565b82525050565b5f73ffffffffffffffffffffffffffffffffffffffff82169050919050565b5f6110758261104c565b9050919050565b6110858161106b565b82525050565b5f81519050919050565b5f82825260208201905092915050565b8281835e5f83830152505050565b5f601f19601f8301169050919050565b5f6110cd8261108b565b6110d78185611095565b93506110e78185602086016110a5565b6110f0816110b3565b840191505092915050565b5f8115159050919050565b61110f816110fb565b82525050565b5f61010083015f83015161112b5f86018261103d565b50602083015161113e602086018261107c565b506040830151611151604086018261107c565b506060830151848203606086015261116982826110c3565b9150506080830151848203608086015261118382826110c3565b91505060a083015184820360a086015261119d82826110c3565b91505060c08301516111b260c086018261103d565b5060e08301516111c560e0860182611106565b508091505092915050565b5f6111db8383611115565b905092915050565b5f602082019050919050565b5f6111f98261100b565b6112038185611015565b93508360208202850161121585611025565b805f5b85811015611250578484038952815161123185826111d0565b945061123c836111e3565b925060208a01995050600181019050611218565b50829750879550505050505092915050565b5f6020820190508181035f83015261127a81846111ef565b905092915050565b61128b81611034565b82525050565b5f6020820190506112a45f830184611282565b92915050565b5f604051905090565b5f80fd5b5f80fd5b6112c481611034565b81146112ce575f80fd5b50565b5f813590506112df816112bb565b92915050565b5f602082840312156112fa576112f96112b3565b5b5f611307848285016112d1565b91505092915050565b6113198161106b565b82525050565b5f82825260208201905092915050565b5f6113398261108b565b611343818561131f565b93506113538185602086016110a5565b61135c816110b3565b840191505092915050565b611370816110fb565b82525050565b5f6101008201905061138a5f83018b611282565b611397602083018a611310565b6113a46040830189611310565b81810360608301526113b6818861132f565b905081810360808301526113ca818761132f565b905081810360a08301526113de818661132f565b90506113ed60c0830185611282565b6113fa60e0830184611367565b9998505050505050505050565b5f61010083015f83015161141d5f86018261103d565b506020830151611430602086018261107c565b506040830151611443604086018261107c565b506060830151848203606086015261145b82826110c3565b9150506080830151848203608086015261147582826110c3565b91505060a083015184820360a086015261148f82826110c3565b91505060c08301516114a460c086018261103d565b5060e08301516114b760e0860182611106565b508091505092915050565b5f6020820190508181035f8301526114da8184611407565b905092915050565b5f80fd5b5f80fd5b7f4e487b71000000000000000000000000000000000000000000000000000000005f52604160045260245ffd5b611520826110b3565b810181811067ffffffffffffffff8211171561153f5761153e6114ea565b5b80604052505050565b5f6115516112aa565b905061155d8282611517565b919050565b5f67ffffffffffffffff82111561157c5761157b6114ea565b5b611585826110b3565b9050602081019050919050565b828183375f83830152505050565b5f6115b26115ad84611562565b611548565b9050828152602081018484840111156115ce576115cd6114e6565b5b6115d9848285611592565b509392505050565b5f82601f8301126115f5576115f46114e2565b5b81356116058482602086016115a0565b91505092915050565b5f805f8060808587031215611626576116256112b3565b5b5f85013567ffffffffffffffff811115611643576116426112b7565b5b61164f878288016115e1565b945050602085013567ffffffffffffffff8111156116705761166f6112b7565b5b61167c878288016115e1565b935050604085013567ffffffffffffffff81111561169d5761169c6112b7565b5b6116a9878288016115e1565b92505060606116ba878288016112d1565b91505092959194509250565b7f4e487b71000000000000000000000000000000000000000000000000000000005f52602260045260245ffd5b5f600282049050600182168061170a57607f821691505b60208210810361171d5761171c6116c6565b5b50919050565b7f4974656d20494420646f6573206e6f74206578697374000000000000000000005f82015250565b5f61175760168361131f565b915061176282611723565b602082019050919050565b5f6020820190508181035f8301526117848161174b565b9050919050565b7f4e487b71000000000000000000000000000000000000000000000000000000005f52603260045260245ffd5b7f5072696365206d7573742062652067726561746572207468616e207a65726f005f82015250565b5f6117ec601f8361131f565b91506117f7826117b8565b602082019050919050565b5f6020820190508181035f830152611819816117e0565b9050919050565b5f819050815f5260205f209050919050565b5f6020601f8301049050919050565b5f82821b905092915050565b5f6008830261187c7fffffffffffffffffffffffffffffffffffffffffffffffffffffffffffffffff82611841565b6118868683611841565b95508019841693508086168417925050509392505050565b5f819050919050565b5f6118c16118bc6118b784611034565b61189e565b611034565b9050919050565b5f819050919050565b6118da836118a7565b6118ee6118e6826118c8565b84845461184d565b825550505050565b5f90565b6119026118f6565b61190d8184846118d1565b505050565b5b81811015611930576119255f826118fa565b600181019050611913565b5050565b601f8211156119755761194681611820565b61194f84611832565b8101602085101561195e578190505b61197261196a85611832565b830182611912565b50505b505050565b5f82821c905092915050565b5f6119955f198460080261197a565b1980831691505092915050565b5f6119ad8383611986565b9150826002028217905092915050565b6119c68261108b565b67ffffffffffffffff8111156119df576119de6114ea565b5b6119e982546116f3565b6119f4828285611934565b5f60209050601f831160018114611a25575f8415611a13578287015190505b611a1d85826119a2565b865550611a84565b601f198416611a3386611820565b5f5b82811015611a5a57848901518255600182019150602085019450602081019050611a35565b86831015611a775784890151611a73601f891682611986565b8355505b6001600288020188555050505b505050505050565b5f608082019050611a9f5f830187611282565b8181036020830152611ab1818661132f565b90508181036040830152611ac5818561132f565b9050611ad46060830184611282565b95945050505050565b7f4e487b71000000000000000000000000000000000000000000000000000000005f52601160045260245ffd5b5f611b1482611034565b91507fffffffffffffffffffffffffffffffffffffffffffffffffffffffffffffffff8203611b4657611b45611add565b5b600182019050919050565b7f506c65617365207375626d6974207468652061736b696e6720707269636520695f8201527f6e206f7264657220746f20636f6d706c65746520746865207075726368617365602082015250565b5f611bab60408361131f565b9150611bb682611b51565b604082019050919050565b5f6020820190508181035f830152611bd881611b9f565b9050919050565b7f54686973206974656d2068617320616c7265616479206265656e20736f6c64005f82015250565b5f611c13601f8361131f565b9150611c1e82611bdf565b602082019050919050565b5f6020820190508181035f830152611c4081611c07565b9050919050565b7f4f776e65722063616e6e6f7420627579207468656972206f776e206974656d005f82015250565b5f611c7b601f8361131f565b9150611c8682611c47565b602082019050919050565b5f6020820190508181035f830152611ca881611c6f565b9050919050565b5f81905092915050565b50565b5f611cc75f83611caf565b9150611cd282611cb9565b5f82019050919050565b5f611ce682611cbc565b9150819050919050565b7f4661696c656420746f2073656e642045746865720000000000000000000000005f82015250565b5f611d2460148361131f565b9150611d2f82611cf0565b602082019050919050565b5f6020820190508181035f830152611d5181611d18565b9050919050565b5f604082019050611d6b5f830185611282565b611d786020830184611282565b939250505056fea26469706673582212208099d79f8125cf6b2058c789dde57172b6597597cb855de9c074a533d753755964736f6c63430008190033",
		"opcodes": "PUSH1 0x80 PUSH1 0x40 MSTORE PUSH0 PUSH1 0x1 SSTORE CALLVALUE DUP1 ISZERO PUSH1 0x12 JUMPI PUSH0 DUP1 REVERT JUMPDEST POP PUSH2 0x1DB5 DUP1 PUSH2 0x20 PUSH0 CODECOPY PUSH0 RETURN INVALID PUSH1 0x80 PUSH1 0x40 MSTORE PUSH1 0x4 CALLDATASIZE LT PUSH2 0x54 JUMPI PUSH0 CALLDATALOAD PUSH1 0xE0 SHR DUP1 PUSH4 0x4BA1D6AA EQ PUSH2 0x58 JUMPI DUP1 PUSH4 0x6BFB0D01 EQ PUSH2 0x82 JUMPI DUP1 PUSH4 0xBFB231D2 EQ PUSH2 0xAC JUMPI DUP1 PUSH4 0xCD2F0710 EQ PUSH2 0xEF JUMPI DUP1 PUSH4 0xD65274C9 EQ PUSH2 0x12B JUMPI DUP1 PUSH4 0xE7FB74C7 EQ PUSH2 0x153 JUMPI JUMPDEST PUSH0 DUP1 REVERT JUMPDEST CALLVALUE DUP1 ISZERO PUSH2 0x63 JUMPI PUSH0 DUP1 REVERT JUMPDEST POP PUSH2 0x6C PUSH2 0x16F JUMP JUMPDEST PUSH1 0x40 MLOAD PUSH2 0x79 SWAP2 SWAP1 PUSH2 0x1262 JUMP JUMPDEST PUSH1 0x40 MLOAD DUP1 SWAP2 SUB SWAP1 RETURN JUMPDEST CALLVALUE DUP1 ISZERO PUSH2 0x8D JUMPI PUSH0 DUP1 REVERT JUMPDEST POP PUSH2 0x96 PUSH2 0x452 JUMP JUMPDEST PUSH1 0x40 MLOAD PUSH2 0xA3 SWAP2 SWAP1 PUSH2 0x1291 JUMP JUMPDEST PUSH1 0x40 MLOAD DUP1 SWAP2 SUB SWAP1 RETURN JUMPDEST CALLVALUE DUP1 ISZERO PUSH2 0xB7 JUMPI PUSH0 DUP1 REVERT JUMPDEST POP PUSH2 0xD2 PUSH1 0x4 DUP1 CALLDATASIZE SUB DUP2 ADD SWAP1 PUSH2 0xCD SWAP2 SWAP1 PUSH2 0x12E5 JUMP JUMPDEST PUSH2 0x458 JUMP JUMPDEST PUSH1 0x40 MLOAD PUSH2 0xE6 SWAP9 SWAP8 SWAP7 SWAP6 SWAP5 SWAP4 SWAP3 SWAP2 SWAP1 PUSH2 0x1376 JUMP JUMPDEST PUSH1 0x40 MLOAD DUP1 SWAP2 SUB SWAP1 RETURN JUMPDEST CALLVALUE DUP1 ISZERO PUSH2 0xFA JUMPI PUSH0 DUP1 REVERT JUMPDEST POP PUSH2 0x115 PUSH1 0x4 DUP1 CALLDATASIZE SUB DUP2 ADD SWAP1 PUSH2 0x110 SWAP2 SWAP1 PUSH2 0x12E5 JUMP JUMPDEST PUSH2 0x686 JUMP JUMPDEST PUSH1 0x40 MLOAD PUSH2 0x122 SWAP2 SWAP1 PUSH2 0x14C2 JUMP JUMPDEST PUSH1 0x40 MLOAD DUP1 SWAP2 SUB SWAP1 RETURN JUMPDEST CALLVALUE DUP1 ISZERO PUSH2 0x136 JUMPI PUSH0 DUP1 REVERT JUMPDEST POP PUSH2 0x151 PUSH1 0x4 DUP1 CALLDATASIZE SUB DUP2 ADD SWAP1 PUSH2 0x14C SWAP2 SWAP1 PUSH2 0x160E JUMP JUMPDEST PUSH2 0x98B JUMP JUMPDEST STOP JUMPDEST PUSH2 0x16D PUSH1 0x4 DUP1 CALLDATASIZE SUB DUP2 ADD SWAP1 PUSH2 0x168 SWAP2 SWAP1 PUSH2 0x12E5 JUMP JUMPDEST PUSH2 0xBE9 JUMP JUMPDEST STOP JUMPDEST PUSH1 0x60 PUSH0 DUP1 SLOAD DUP1 PUSH1 0x20 MUL PUSH1 0x20 ADD PUSH1 0x40 MLOAD SWAP1 DUP2 ADD PUSH1 0x40 MSTORE DUP1 SWAP3 SWAP2 SWAP1 DUP2 DUP2 MSTORE PUSH1 0x20 ADD PUSH0 SWAP1 JUMPDEST DUP3 DUP3 LT ISZERO PUSH2 0x449 JUMPI DUP4 DUP3 SWAP1 PUSH0 MSTORE PUSH1 0x20 PUSH0 KECCAK256 SWAP1 PUSH1 0x8 MUL ADD PUSH1 0x40 MLOAD DUP1 PUSH2 0x100 ADD PUSH1 0x40 MSTORE SWAP1 DUP2 PUSH0 DUP3 ADD SLOAD DUP2 MSTORE PUSH1 0x20 ADD PUSH1 0x1 DUP3 ADD PUSH0 SWAP1 SLOAD SWAP1 PUSH2 0x100 EXP SWAP1 DIV PUSH20 0xFFFFFFFFFFFFFFFFFFFFFFFFFFFFFFFFFFFFFFFF AND PUSH20 0xFFFFFFFFFFFFFFFFFFFFFFFFFFFFFFFFFFFFFFFF AND PUSH20 0xFFFFFFFFFFFFFFFFFFFFFFFFFFFFFFFFFFFFFFFF AND DUP2 MSTORE PUSH1 0x20 ADD PUSH1 0x2 DUP3 ADD PUSH0 SWAP1 SLOAD SWAP1 PUSH2 0x100 EXP SWAP1 DIV PUSH20 0xFFFFFFFFFFFFFFFFFFFFFFFFFFFFFFFFFFFFFFFF AND PUSH20 0xFFFFFFFFFFFFFFFFFFFFFFFFFFFFFFFFFFFFFFFF AND PUSH20 0xFFFFFFFFFFFFFFFFFFFFFFFFFFFFFFFFFFFFFFFF AND DUP2 MSTORE PUSH1 0x20 ADD PUSH1 0x3 DUP3 ADD DUP1 SLOAD PUSH2 0x276 SWAP1 PUSH2 0x16F3 JUMP JUMPDEST DUP1 PUSH1 0x1F ADD PUSH1 0x20 DUP1 SWAP2 DIV MUL PUSH1 0x20 ADD PUSH1 0x40 MLOAD SWAP1 DUP2 ADD PUSH1 0x40 MSTORE DUP1 SWAP3 SWAP2 SWAP1 DUP2 DUP2 MSTORE PUSH1 0x20 ADD DUP3 DUP1 SLOAD PUSH2 0x2A2 SWAP1 PUSH2 0x16F3 JUMP JUMPDEST DUP1 ISZERO PUSH2 0x2ED JUMPI DUP1 PUSH1 0x1F LT PUSH2 0x2C4 JUMPI PUSH2 0x100 DUP1 DUP4 SLOAD DIV MUL DUP4 MSTORE SWAP2 PUSH1 0x20 ADD SWAP2 PUSH2 0x2ED JUMP JUMPDEST DUP3 ADD SWAP2 SWAP1 PUSH0 MSTORE PUSH1 0x20 PUSH0 KECCAK256 SWAP1 JUMPDEST DUP2 SLOAD DUP2 MSTORE SWAP1 PUSH1 0x1 ADD SWAP1 PUSH1 0x20 ADD DUP1 DUP4 GT PUSH2 0x2D0 JUMPI DUP3 SWAP1 SUB PUSH1 0x1F AND DUP3 ADD SWAP2 JUMPDEST POP POP POP POP POP DUP2 MSTORE PUSH1 0x20 ADD PUSH1 0x4 DUP3 ADD DUP1 SLOAD PUSH2 0x306 SWAP1 PUSH2 0x16F3 JUMP JUMPDEST DUP1 PUSH1 0x1F ADD PUSH1 0x20 DUP1 SWAP2 DIV MUL PUSH1 0x20 ADD PUSH1 0x40 MLOAD SWAP1 DUP2 ADD PUSH1 0x40 MSTORE DUP1 SWAP3 SWAP2 SWAP1 DUP2 DUP2 MSTORE PUSH1 0x20 ADD DUP3 DUP1 SLOAD PUSH2 0x332 SWAP1 PUSH2 0x16F3 JUMP JUMPDEST DUP1 ISZERO PUSH2 0x37D JUMPI DUP1 PUSH1 0x1F LT PUSH2 0x354 JUMPI PUSH2 0x100 DUP1 DUP4 SLOAD DIV MUL DUP4 MSTORE SWAP2 PUSH1 0x20 ADD SWAP2 PUSH2 0x37D JUMP JUMPDEST DUP3 ADD SWAP2 SWAP1 PUSH0 MSTORE PUSH1 0x20 PUSH0 KECCAK256 SWAP1 JUMPDEST DUP2 SLOAD DUP2 MSTORE SWAP1 PUSH1 0x1 ADD SWAP1 PUSH1 0x20 ADD DUP1 DUP4 GT PUSH2 0x360 JUMPI DUP3 SWAP1 SUB PUSH1 0x1F AND DUP3 ADD SWAP2 JUMPDEST POP POP POP POP POP DUP2 MSTORE PUSH1 0x20 ADD PUSH1 0x5 DUP3 ADD DUP1 SLOAD PUSH2 0x396 SWAP1 PUSH2 0x16F3 JUMP JUMPDEST DUP1 PUSH1 0x1F ADD PUSH1 0x20 DUP1 SWAP2 DIV MUL PUSH1 0x20 ADD PUSH1 0x40 MLOAD SWAP1 DUP2 ADD PUSH1 0x40 MSTORE DUP1 SWAP3 SWAP2 SWAP1 DUP2 DUP2 MSTORE PUSH1 0x20 ADD DUP3 DUP1 SLOAD PUSH2 0x3C2 SWAP1 PUSH2 0x16F3 JUMP JUMPDEST DUP1 ISZERO PUSH2 0x40D JUMPI DUP1 PUSH1 0x1F LT PUSH2 0x3E4 JUMPI PUSH2 0x100 DUP1 DUP4 SLOAD DIV MUL DUP4 MSTORE SWAP2 PUSH1 0x20 ADD SWAP2 PUSH2 0x40D JUMP JUMPDEST DUP3 ADD SWAP2 SWAP1 PUSH0 MSTORE PUSH1 0x20 PUSH0 KECCAK256 SWAP1 JUMPDEST DUP2 SLOAD DUP2 MSTORE SWAP1 PUSH1 0x1 ADD SWAP1 PUSH1 0x20 ADD DUP1 DUP4 GT PUSH2 0x3F0 JUMPI DUP3 SWAP1 SUB PUSH1 0x1F AND DUP3 ADD SWAP2 JUMPDEST POP POP POP POP POP DUP2 MSTORE PUSH1 0x20 ADD PUSH1 0x6 DUP3 ADD SLOAD DUP2 MSTORE PUSH1 0x20 ADD PUSH1 0x7 DUP3 ADD PUSH0 SWAP1 SLOAD SWAP1 PUSH2 0x100 EXP SWAP1 DIV PUSH1 0xFF AND ISZERO ISZERO ISZERO ISZERO DUP2 MSTORE POP POP DUP2 MSTORE PUSH1 0x20 ADD SWAP1 PUSH1 0x1 ADD SWAP1 PUSH2 0x191 JUMP JUMPDEST POP POP POP POP SWAP1 POP SWAP1 JUMP JUMPDEST PUSH1 0x1 SLOAD DUP2 JUMP JUMPDEST PUSH0 DUP2 DUP2 SLOAD DUP2 LT PUSH2 0x466 JUMPI PUSH0 DUP1 REVERT JUMPDEST SWAP1 PUSH0 MSTORE PUSH1 0x20 PUSH0 KECCAK256 SWAP1 PUSH1 0x8 MUL ADD PUSH0 SWAP2 POP SWAP1 POP DUP1 PUSH0 ADD SLOAD SWAP1 DUP1 PUSH1 0x1 ADD PUSH0 SWAP1 SLOAD SWAP1 PUSH2 0x100 EXP SWAP1 DIV PUSH20 0xFFFFFFFFFFFFFFFFFFFFFFFFFFFFFFFFFFFFFFFF AND SWAP1 DUP1 PUSH1 0x2 ADD PUSH0 SWAP1 SLOAD SWAP1 PUSH2 0x100 EXP SWAP1 DIV PUSH20 0xFFFFFFFFFFFFFFFFFFFFFFFFFFFFFFFFFFFFFFFF AND SWAP1 DUP1 PUSH1 0x3 ADD DUP1 SLOAD PUSH2 0x4D5 SWAP1 PUSH2 0x16F3 JUMP JUMPDEST DUP1 PUSH1 0x1F ADD PUSH1 0x20 DUP1 SWAP2 DIV MUL PUSH1 0x20 ADD PUSH1 0x40 MLOAD SWAP1 DUP2 ADD PUSH1 0x40 MSTORE DUP1 SWAP3 SWAP2 SWAP1 DUP2 DUP2 MSTORE PUSH1 0x20 ADD DUP3 DUP1 SLOAD PUSH2 0x501 SWAP1 PUSH2 0x16F3 JUMP JUMPDEST DUP1 ISZERO PUSH2 0x54C JUMPI DUP1 PUSH1 0x1F LT PUSH2 0x523 JUMPI PUSH2 0x100 DUP1 DUP4 SLOAD DIV MUL DUP4 MSTORE SWAP2 PUSH1 0x20 ADD SWAP2 PUSH2 0x54C JUMP JUMPDEST DUP3 ADD SWAP2 SWAP1 PUSH0 MSTORE PUSH1 0x20 PUSH0 KECCAK256 SWAP1 JUMPDEST DUP2 SLOAD DUP2 MSTORE SWAP1 PUSH1 0x1 ADD SWAP1 PUSH1 0x20 ADD DUP1 DUP4 GT PUSH2 0x52F JUMPI DUP3 SWAP1 SUB PUSH1 0x1F AND DUP3 ADD SWAP2 JUMPDEST POP POP POP POP POP SWAP1 DUP1 PUSH1 0x4 ADD DUP1 SLOAD PUSH2 0x561 SWAP1 PUSH2 0x16F3 JUMP JUMPDEST DUP1 PUSH1 0x1F ADD PUSH1 0x20 DUP1 SWAP2 DIV MUL PUSH1 0x20 ADD PUSH1 0x40 MLOAD SWAP1 DUP2 ADD PUSH1 0x40 MSTORE DUP1 SWAP3 SWAP2 SWAP1 DUP2 DUP2 MSTORE PUSH1 0x20 ADD DUP3 DUP1 SLOAD PUSH2 0x58D SWAP1 PUSH2 0x16F3 JUMP JUMPDEST DUP1 ISZERO PUSH2 0x5D8 JUMPI DUP1 PUSH1 0x1F LT PUSH2 0x5AF JUMPI PUSH2 0x100 DUP1 DUP4 SLOAD DIV MUL DUP4 MSTORE SWAP2 PUSH1 0x20 ADD SWAP2 PUSH2 0x5D8 JUMP JUMPDEST DUP3 ADD SWAP2 SWAP1 PUSH0 MSTORE PUSH1 0x20 PUSH0 KECCAK256 SWAP1 JUMPDEST DUP2 SLOAD DUP2 MSTORE SWAP1 PUSH1 0x1 ADD SWAP1 PUSH1 0x20 ADD DUP1 DUP4 GT PUSH2 0x5BB JUMPI DUP3 SWAP1 SUB PUSH1 0x1F AND DUP3 ADD SWAP2 JUMPDEST POP POP POP POP POP SWAP1 DUP1 PUSH1 0x5 ADD DUP1 SLOAD PUSH2 0x5ED SWAP1 PUSH2 0x16F3 JUMP JUMPDEST DUP1 PUSH1 0x1F ADD PUSH1 0x20 DUP1 SWAP2 DIV MUL PUSH1 0x20 ADD PUSH1 0x40 MLOAD SWAP1 DUP2 ADD PUSH1 0x40 MSTORE DUP1 SWAP3 SWAP2 SWAP1 DUP2 DUP2 MSTORE PUSH1 0x20 ADD DUP3 DUP1 SLOAD PUSH2 0x619 SWAP1 PUSH2 0x16F3 JUMP JUMPDEST DUP1 ISZERO PUSH2 0x664 JUMPI DUP1 PUSH1 0x1F LT PUSH2 0x63B JUMPI PUSH2 0x100 DUP1 DUP4 SLOAD DIV MUL DUP4 MSTORE SWAP2 PUSH1 0x20 ADD SWAP2 PUSH2 0x664 JUMP JUMPDEST DUP3 ADD SWAP2 SWAP1 PUSH0 MSTORE PUSH1 0x20 PUSH0 KECCAK256 SWAP1 JUMPDEST DUP2 SLOAD DUP2 MSTORE SWAP1 PUSH1 0x1 ADD SWAP1 PUSH1 0x20 ADD DUP1 DUP4 GT PUSH2 0x647 JUMPI DUP3 SWAP1 SUB PUSH1 0x1F AND DUP3 ADD SWAP2 JUMPDEST POP POP POP POP POP SWAP1 DUP1 PUSH1 0x6 ADD SLOAD SWAP1 DUP1 PUSH1 0x7 ADD PUSH0 SWAP1 SLOAD SWAP1 PUSH2 0x100 EXP SWAP1 DIV PUSH1 0xFF AND SWAP1 POP DUP9 JUMP JUMPDEST PUSH2 0x68E PUSH2 0xF9D JUMP JUMPDEST PUSH1 0x1 SLOAD DUP3 LT PUSH2 0x6D2 JUMPI PUSH1 0x40 MLOAD PUSH32 0x8C379A000000000000000000000000000000000000000000000000000000000 DUP2 MSTORE PUSH1 0x4 ADD PUSH2 0x6C9 SWAP1 PUSH2 0x176D JUMP JUMPDEST PUSH1 0x40 MLOAD DUP1 SWAP2 SUB SWAP1 REVERT JUMPDEST PUSH0 DUP3 DUP2 SLOAD DUP2 LT PUSH2 0x6E5 JUMPI PUSH2 0x6E4 PUSH2 0x178B JUMP JUMPDEST JUMPDEST SWAP1 PUSH0 MSTORE PUSH1 0x20 PUSH0 KECCAK256 SWAP1 PUSH1 0x8 MUL ADD PUSH1 0x40 MLOAD DUP1 PUSH2 0x100 ADD PUSH1 0x40 MSTORE SWAP1 DUP2 PUSH0 DUP3 ADD SLOAD DUP2 MSTORE PUSH1 0x20 ADD PUSH1 0x1 DUP3 ADD PUSH0 SWAP1 SLOAD SWAP1 PUSH2 0x100 EXP SWAP1 DIV PUSH20 0xFFFFFFFFFFFFFFFFFFFFFFFFFFFFFFFFFFFFFFFF AND PUSH20 0xFFFFFFFFFFFFFFFFFFFFFFFFFFFFFFFFFFFFFFFF AND PUSH20 0xFFFFFFFFFFFFFFFFFFFFFFFFFFFFFFFFFFFFFFFF AND DUP2 MSTORE PUSH1 0x20 ADD PUSH1 0x2 DUP3 ADD PUSH0 SWAP1 SLOAD SWAP1 PUSH2 0x100 EXP SWAP1 DIV PUSH20 0xFFFFFFFFFFFFFFFFFFFFFFFFFFFFFFFFFFFFFFFF AND PUSH20 0xFFFFFFFFFFFFFFFFFFFFFFFFFFFFFFFFFFFFFFFF AND PUSH20 0xFFFFFFFFFFFFFFFFFFFFFFFFFFFFFFFFFFFFFFFF AND DUP2 MSTORE PUSH1 0x20 ADD PUSH1 0x3 DUP3 ADD DUP1 SLOAD PUSH2 0x7C0 SWAP1 PUSH2 0x16F3 JUMP JUMPDEST DUP1 PUSH1 0x1F ADD PUSH1 0x20 DUP1 SWAP2 DIV MUL PUSH1 0x20 ADD PUSH1 0x40 MLOAD SWAP1 DUP2 ADD PUSH1 0x40 MSTORE DUP1 SWAP3 SWAP2 SWAP1 DUP2 DUP2 MSTORE PUSH1 0x20 ADD DUP3 DUP1 SLOAD PUSH2 0x7EC SWAP1 PUSH2 0x16F3 JUMP JUMPDEST DUP1 ISZERO PUSH2 0x837 JUMPI DUP1 PUSH1 0x1F LT PUSH2 0x80E JUMPI PUSH2 0x100 DUP1 DUP4 SLOAD DIV MUL DUP4 MSTORE SWAP2 PUSH1 0x20 ADD SWAP2 PUSH2 0x837 JUMP JUMPDEST DUP3 ADD SWAP2 SWAP1 PUSH0 MSTORE PUSH1 0x20 PUSH0 KECCAK256 SWAP1 JUMPDEST DUP2 SLOAD DUP2 MSTORE SWAP1 PUSH1 0x1 ADD SWAP1 PUSH1 0x20 ADD DUP1 DUP4 GT PUSH2 0x81A JUMPI DUP3 SWAP1 SUB PUSH1 0x1F AND DUP3 ADD SWAP2 JUMPDEST POP POP POP POP POP DUP2 MSTORE PUSH1 0x20 ADD PUSH1 0x4 DUP3 ADD DUP1 SLOAD PUSH2 0x850 SWAP1 PUSH2 0x16F3 JUMP JUMPDEST DUP1 PUSH1 0x1F ADD PUSH1 0x20 DUP1 SWAP2 DIV MUL PUSH1 0x20 ADD PUSH1 0x40 MLOAD SWAP1 DUP2 ADD PUSH1 0x40 MSTORE DUP1 SWAP3 SWAP2 SWAP1 DUP2 DUP2 MSTORE PUSH1 0x20 ADD DUP3 DUP1 SLOAD PUSH2 0x87C SWAP1 PUSH2 0x16F3 JUMP JUMPDEST DUP1 ISZERO PUSH2 0x8C7 JUMPI DUP1 PUSH1 0x1F LT PUSH2 0x89E JUMPI PUSH2 0x100 DUP1 DUP4 SLOAD DIV MUL DUP4 MSTORE SWAP2 PUSH1 0x20 ADD SWAP2 PUSH2 0x8C7 JUMP JUMPDEST DUP3 ADD SWAP2 SWAP1 PUSH0 MSTORE PUSH1 0x20 PUSH0 KECCAK256 SWAP1 JUMPDEST DUP2 SLOAD DUP2 MSTORE SWAP1 PUSH1 0x1 ADD SWAP1 PUSH1 0x20 ADD DUP1 DUP4 GT PUSH2 0x8AA JUMPI DUP3 SWAP1 SUB PUSH1 0x1F AND DUP3 ADD SWAP2 JUMPDEST POP POP POP POP POP DUP2 MSTORE PUSH1 0x20 ADD PUSH1 0x5 DUP3 ADD DUP1 SLOAD PUSH2 0x8E0 SWAP1 PUSH2 0x16F3 JUMP JUMPDEST DUP1 PUSH1 0x1F ADD PUSH1 0x20 DUP1 SWAP2 DIV MUL PUSH1 0x20 ADD PUSH1 0x40 MLOAD SWAP1 DUP2 ADD PUSH1 0x40 MSTORE DUP1 SWAP3 SWAP2 SWAP1 DUP2 DUP2 MSTORE PUSH1 0x20 ADD DUP3 DUP1 SLOAD PUSH2 0x90C SWAP1 PUSH2 0x16F3 JUMP JUMPDEST DUP1 ISZERO PUSH2 0x957 JUMPI DUP1 PUSH1 0x1F LT PUSH2 0x92E JUMPI PUSH2 0x100 DUP1 DUP4 SLOAD DIV MUL DUP4 MSTORE SWAP2 PUSH1 0x20 ADD SWAP2 PUSH2 0x957 JUMP JUMPDEST DUP3 ADD SWAP2 SWAP1 PUSH0 MSTORE PUSH1 0x20 PUSH0 KECCAK256 SWAP1 JUMPDEST DUP2 SLOAD DUP2 MSTORE SWAP1 PUSH1 0x1 ADD SWAP1 PUSH1 0x20 ADD DUP1 DUP4 GT PUSH2 0x93A JUMPI DUP3 SWAP1 SUB PUSH1 0x1F AND DUP3 ADD SWAP2 JUMPDEST POP POP POP POP POP DUP2 MSTORE PUSH1 0x20 ADD PUSH1 0x6 DUP3 ADD SLOAD DUP2 MSTORE PUSH1 0x20 ADD PUSH1 0x7 DUP3 ADD PUSH0 SWAP1 SLOAD SWAP1 PUSH2 0x100 EXP SWAP1 DIV PUSH1 0xFF AND ISZERO ISZERO ISZERO ISZERO DUP2 MSTORE POP POP SWAP1 POP SWAP2 SWAP1 POP JUMP JUMPDEST PUSH0 DUP2 GT PUSH2 0x9CD JUMPI PUSH1 0x40 MLOAD PUSH32 0x8C379A000000000000000000000000000000000000000000000000000000000 DUP2 MSTORE PUSH1 0x4 ADD PUSH2 0x9C4 SWAP1 PUSH2 0x1802 JUMP JUMPDEST PUSH1 0x40 MLOAD DUP1 SWAP2 SUB SWAP1 REVERT JUMPDEST PUSH0 PUSH1 0x40 MLOAD DUP1 PUSH2 0x100 ADD PUSH1 0x40 MSTORE DUP1 PUSH1 0x1 SLOAD DUP2 MSTORE PUSH1 0x20 ADD CALLER PUSH20 0xFFFFFFFFFFFFFFFFFFFFFFFFFFFFFFFFFFFFFFFF AND DUP2 MSTORE PUSH1 0x20 ADD CALLER PUSH20 0xFFFFFFFFFFFFFFFFFFFFFFFFFFFFFFFFFFFFFFFF AND DUP2 MSTORE PUSH1 0x20 ADD DUP7 DUP2 MSTORE PUSH1 0x20 ADD DUP6 DUP2 MSTORE PUSH1 0x20 ADD DUP5 DUP2 MSTORE PUSH1 0x20 ADD DUP4 DUP2 MSTORE PUSH1 0x20 ADD PUSH0 ISZERO ISZERO DUP2 MSTORE POP SWAP1 DUP1 PUSH1 0x1 DUP2 SLOAD ADD DUP1 DUP3 SSTORE DUP1 SWAP2 POP POP PUSH1 0x1 SWAP1 SUB SWAP1 PUSH0 MSTORE PUSH1 0x20 PUSH0 KECCAK256 SWAP1 PUSH1 0x8 MUL ADD PUSH0 SWAP1 SWAP2 SWAP1 SWAP2 SWAP1 SWAP2 POP PUSH0 DUP3 ADD MLOAD DUP2 PUSH0 ADD SSTORE PUSH1 0x20 DUP3 ADD MLOAD DUP2 PUSH1 0x1 ADD PUSH0 PUSH2 0x100 EXP DUP2 SLOAD DUP2 PUSH20 0xFFFFFFFFFFFFFFFFFFFFFFFFFFFFFFFFFFFFFFFF MUL NOT AND SWAP1 DUP4 PUSH20 0xFFFFFFFFFFFFFFFFFFFFFFFFFFFFFFFFFFFFFFFF AND MUL OR SWAP1 SSTORE POP PUSH1 0x40 DUP3 ADD MLOAD DUP2 PUSH1 0x2 ADD PUSH0 PUSH2 0x100 EXP DUP2 SLOAD DUP2 PUSH20 0xFFFFFFFFFFFFFFFFFFFFFFFFFFFFFFFFFFFFFFFF MUL NOT AND SWAP1 DUP4 PUSH20 0xFFFFFFFFFFFFFFFFFFFFFFFFFFFFFFFFFFFFFFFF AND MUL OR SWAP1 SSTORE POP PUSH1 0x60 DUP3 ADD MLOAD DUP2 PUSH1 0x3 ADD SWAP1 DUP2 PUSH2 0xB07 SWAP2 SWAP1 PUSH2 0x19BD JUMP JUMPDEST POP PUSH1 0x80 DUP3 ADD MLOAD DUP2 PUSH1 0x4 ADD SWAP1 DUP2 PUSH2 0xB1D SWAP2 SWAP1 PUSH2 0x19BD JUMP JUMPDEST POP PUSH1 0xA0 DUP3 ADD MLOAD DUP2 PUSH1 0x5 ADD SWAP1 DUP2 PUSH2 0xB33 SWAP2 SWAP1 PUSH2 0x19BD JUMP JUMPDEST POP PUSH1 0xC0 DUP3 ADD MLOAD DUP2 PUSH1 0x6 ADD SSTORE PUSH1 0xE0 DUP3 ADD MLOAD DUP2 PUSH1 0x7 ADD PUSH0 PUSH2 0x100 EXP DUP2 SLOAD DUP2 PUSH1 0xFF MUL NOT AND SWAP1 DUP4 ISZERO ISZERO MUL OR SWAP1 SSTORE POP POP POP CALLER PUSH20 0xFFFFFFFFFFFFFFFFFFFFFFFFFFFFFFFFFFFFFFFF AND CALLER PUSH20 0xFFFFFFFFFFFFFFFFFFFFFFFFFFFFFFFFFFFFFFFF AND PUSH32 0xC8CAFA36072A4A4AEF47B5164EEF855AA92FAC71FF751E55217E14982720C7FE PUSH1 0x1 SLOAD DUP8 DUP7 DUP7 PUSH1 0x40 MLOAD PUSH2 0xBC4 SWAP5 SWAP4 SWAP3 SWAP2 SWAP1 PUSH2 0x1A8C JUMP JUMPDEST PUSH1 0x40 MLOAD DUP1 SWAP2 SUB SWAP1 LOG3 PUSH1 0x1 PUSH0 DUP2 SLOAD DUP1 SWAP3 SWAP2 SWAP1 PUSH2 0xBDE SWAP1 PUSH2 0x1B0A JUMP JUMPDEST SWAP2 SWAP1 POP SSTORE POP POP POP POP POP JUMP JUMPDEST PUSH1 0x1 SLOAD DUP2 LT PUSH2 0xC2D JUMPI PUSH1 0x40 MLOAD PUSH32 0x8C379A000000000000000000000000000000000000000000000000000000000 DUP2 MSTORE PUSH1 0x4 ADD PUSH2 0xC24 SWAP1 PUSH2 0x176D JUMP JUMPDEST PUSH1 0x40 MLOAD DUP1 SWAP2 SUB SWAP1 REVERT JUMPDEST PUSH0 DUP1 DUP3 DUP2 SLOAD DUP2 LT PUSH2 0xC41 JUMPI PUSH2 0xC40 PUSH2 0x178B JUMP JUMPDEST JUMPDEST SWAP1 PUSH0 MSTORE PUSH1 0x20 PUSH0 KECCAK256 SWAP1 PUSH1 0x8 MUL ADD SWAP1 POP DUP1 PUSH1 0x6 ADD SLOAD CALLVALUE EQ PUSH2 0xC95 JUMPI PUSH1 0x40 MLOAD PUSH32 0x8C379A000000000000000000000000000000000000000000000000000000000 DUP2 MSTORE PUSH1 0x4 ADD PUSH2 0xC8C SWAP1 PUSH2 0x1BC1 JUMP JUMPDEST PUSH1 0x40 MLOAD DUP1 SWAP2 SUB SWAP1 REVERT JUMPDEST DUP1 PUSH1 0x7 ADD PUSH0 SWAP1 SLOAD SWAP1 PUSH2 0x100 EXP SWAP1 DIV PUSH1 0xFF AND ISZERO PUSH2 0xCE6 JUMPI PUSH1 0x40 MLOAD PUSH32 0x8C379A000000000000000000000000000000000000000000000000000000000 DUP2 MSTORE PUSH1 0x4 ADD PUSH2 0xCDD SWAP1 PUSH2 0x1C29 JUMP JUMPDEST PUSH1 0x40 MLOAD DUP1 SWAP2 SUB SWAP1 REVERT JUMPDEST DUP1 PUSH1 0x2 ADD PUSH0 SWAP1 SLOAD SWAP1 PUSH2 0x100 EXP SWAP1 DIV PUSH20 0xFFFFFFFFFFFFFFFFFFFFFFFFFFFFFFFFFFFFFFFF AND PUSH20 0xFFFFFFFFFFFFFFFFFFFFFFFFFFFFFFFFFFFFFFFF AND CALLER PUSH20 0xFFFFFFFFFFFFFFFFFFFFFFFFFFFFFFFFFFFFFFFF AND SUB PUSH2 0xD77 JUMPI PUSH1 0x40 MLOAD PUSH32 0x8C379A000000000000000000000000000000000000000000000000000000000 DUP2 MSTORE PUSH1 0x4 ADD PUSH2 0xD6E SWAP1 PUSH2 0x1C91 JUMP JUMPDEST PUSH1 0x40 MLOAD DUP1 SWAP2 SUB SWAP1 REVERT JUMPDEST PUSH0 DUP2 PUSH1 0x2 ADD PUSH0 SWAP1 SLOAD SWAP1 PUSH2 0x100 EXP SWAP1 DIV PUSH20 0xFFFFFFFFFFFFFFFFFFFFFFFFFFFFFFFFFFFFFFFF AND PUSH20 0xFFFFFFFFFFFFFFFFFFFFFFFFFFFFFFFFFFFFFFFF AND CALLVALUE PUSH1 0x40 MLOAD PUSH2 0xDBF SWAP1 PUSH2 0x1CDC JUMP JUMPDEST PUSH0 PUSH1 0x40 MLOAD DUP1 DUP4 SUB DUP2 DUP6 DUP8 GAS CALL SWAP3 POP POP POP RETURNDATASIZE DUP1 PUSH0 DUP2 EQ PUSH2 0xDF9 JUMPI PUSH1 0x40 MLOAD SWAP2 POP PUSH1 0x1F NOT PUSH1 0x3F RETURNDATASIZE ADD AND DUP3 ADD PUSH1 0x40 MSTORE RETURNDATASIZE DUP3 MSTORE RETURNDATASIZE PUSH0 PUSH1 0x20 DUP5 ADD RETURNDATACOPY PUSH2 0xDFE JUMP JUMPDEST PUSH1 0x60 SWAP2 POP JUMPDEST POP POP SWAP1 POP DUP1 PUSH2 0xE42 JUMPI PUSH1 0x40 MLOAD PUSH32 0x8C379A000000000000000000000000000000000000000000000000000000000 DUP2 MSTORE PUSH1 0x4 ADD PUSH2 0xE39 SWAP1 PUSH2 0x1D3A JUMP JUMPDEST PUSH1 0x40 MLOAD DUP1 SWAP2 SUB SWAP1 REVERT JUMPDEST PUSH0 DUP3 PUSH1 0x2 ADD PUSH0 SWAP1 SLOAD SWAP1 PUSH2 0x100 EXP SWAP1 DIV PUSH20 0xFFFFFFFFFFFFFFFFFFFFFFFFFFFFFFFFFFFFFFFF AND SWAP1 POP CALLER DUP4 PUSH1 0x2 ADD PUSH0 PUSH2 0x100 EXP DUP2 SLOAD DUP2 PUSH20 0xFFFFFFFFFFFFFFFFFFFFFFFFFFFFFFFFFFFFFFFF MUL NOT AND SWAP1 DUP4 PUSH20 0xFFFFFFFFFFFFFFFFFFFFFFFFFFFFFFFFFFFFFFFF AND MUL OR SWAP1 SSTORE POP PUSH1 0x1 DUP4 PUSH1 0x7 ADD PUSH0 PUSH2 0x100 EXP DUP2 SLOAD DUP2 PUSH1 0xFF MUL NOT AND SWAP1 DUP4 ISZERO ISZERO MUL OR SWAP1 SSTORE POP DUP1 PUSH20 0xFFFFFFFFFFFFFFFFFFFFFFFFFFFFFFFFFFFFFFFF AND CALLER PUSH20 0xFFFFFFFFFFFFFFFFFFFFFFFFFFFFFFFFFFFFFFFF AND PUSH32 0xD52BD61F7C422D441E024604F4517878FD3305D6ACF0FE37BAEF23ED21AF6BC9 CALLVALUE PUSH1 0x40 MLOAD PUSH2 0xF24 SWAP2 SWAP1 PUSH2 0x1291 JUMP JUMPDEST PUSH1 0x40 MLOAD DUP1 SWAP2 SUB SWAP1 LOG3 CALLER PUSH20 0xFFFFFFFFFFFFFFFFFFFFFFFFFFFFFFFFFFFFFFFF AND DUP2 PUSH20 0xFFFFFFFFFFFFFFFFFFFFFFFFFFFFFFFFFFFFFFFF AND PUSH32 0x4DDD54C6B746E69BA87F862311F7670BD1D7276846778AC81CD38747B27A746 DUP7 DUP7 PUSH1 0x6 ADD SLOAD PUSH1 0x40 MLOAD PUSH2 0xF8F SWAP3 SWAP2 SWAP1 PUSH2 0x1D58 JUMP JUMPDEST PUSH1 0x40 MLOAD DUP1 SWAP2 SUB SWAP1 LOG3 POP POP POP POP JUMP JUMPDEST PUSH1 0x40 MLOAD DUP1 PUSH2 0x100 ADD PUSH1 0x40 MSTORE DUP1 PUSH0 DUP2 MSTORE PUSH1 0x20 ADD PUSH0 PUSH20 0xFFFFFFFFFFFFFFFFFFFFFFFFFFFFFFFFFFFFFFFF AND DUP2 MSTORE PUSH1 0x20 ADD PUSH0 PUSH20 0xFFFFFFFFFFFFFFFFFFFFFFFFFFFFFFFFFFFFFFFF AND DUP2 MSTORE PUSH1 0x20 ADD PUSH1 0x60 DUP2 MSTORE PUSH1 0x20 ADD PUSH1 0x60 DUP2 MSTORE PUSH1 0x20 ADD PUSH1 0x60 DUP2 MSTORE PUSH1 0x20 ADD PUSH0 DUP2 MSTORE PUSH1 0x20 ADD PUSH0 ISZERO ISZERO DUP2 MSTORE POP SWAP1 JUMP JUMPDEST PUSH0 DUP2 MLOAD SWAP1 POP SWAP2 SWAP1 POP JUMP JUMPDEST PUSH0 DUP3 DUP3 MSTORE PUSH1 0x20 DUP3 ADD SWAP1 POP SWAP3 SWAP2 POP POP JUMP JUMPDEST PUSH0 DUP2 SWAP1 POP PUSH1 0x20 DUP3 ADD SWAP1 POP SWAP2 SWAP1 POP JUMP JUMPDEST PUSH0 DUP2 SWAP1 POP SWAP2 SWAP1 POP JUMP JUMPDEST PUSH2 0x1046 DUP2 PUSH2 0x1034 JUMP JUMPDEST DUP3 MSTORE POP POP JUMP JUMPDEST PUSH0 PUSH20 0xFFFFFFFFFFFFFFFFFFFFFFFFFFFFFFFFFFFFFFFF DUP3 AND SWAP1 POP SWAP2 SWAP1 POP JUMP JUMPDEST PUSH0 PUSH2 0x1075 DUP3 PUSH2 0x104C JUMP JUMPDEST SWAP1 POP SWAP2 SWAP1 POP JUMP JUMPDEST PUSH2 0x1085 DUP2 PUSH2 0x106B JUMP JUMPDEST DUP3 MSTORE POP POP JUMP JUMPDEST PUSH0 DUP2 MLOAD SWAP1 POP SWAP2 SWAP1 POP JUMP JUMPDEST PUSH0 DUP3 DUP3 MSTORE PUSH1 0x20 DUP3 ADD SWAP1 POP SWAP3 SWAP2 POP POP JUMP JUMPDEST DUP3 DUP2 DUP4 MCOPY PUSH0 DUP4 DUP4 ADD MSTORE POP POP POP JUMP JUMPDEST PUSH0 PUSH1 0x1F NOT PUSH1 0x1F DUP4 ADD AND SWAP1 POP SWAP2 SWAP1 POP JUMP JUMPDEST PUSH0 PUSH2 0x10CD DUP3 PUSH2 0x108B JUMP JUMPDEST PUSH2 0x10D7 DUP2 DUP6 PUSH2 0x1095 JUMP JUMPDEST SWAP4 POP PUSH2 0x10E7 DUP2 DUP6 PUSH1 0x20 DUP7 ADD PUSH2 0x10A5 JUMP JUMPDEST PUSH2 0x10F0 DUP2 PUSH2 0x10B3 JUMP JUMPDEST DUP5 ADD SWAP2 POP POP SWAP3 SWAP2 POP POP JUMP JUMPDEST PUSH0 DUP2 ISZERO ISZERO SWAP1 POP SWAP2 SWAP1 POP JUMP JUMPDEST PUSH2 0x110F DUP2 PUSH2 0x10FB JUMP JUMPDEST DUP3 MSTORE POP POP JUMP JUMPDEST PUSH0 PUSH2 0x100 DUP4 ADD PUSH0 DUP4 ADD MLOAD PUSH2 0x112B PUSH0 DUP7 ADD DUP3 PUSH2 0x103D JUMP JUMPDEST POP PUSH1 0x20 DUP4 ADD MLOAD PUSH2 0x113E PUSH1 0x20 DUP7 ADD DUP3 PUSH2 0x107C JUMP JUMPDEST POP PUSH1 0x40 DUP4 ADD MLOAD PUSH2 0x1151 PUSH1 0x40 DUP7 ADD DUP3 PUSH2 0x107C JUMP JUMPDEST POP PUSH1 0x60 DUP4 ADD MLOAD DUP5 DUP3 SUB PUSH1 0x60 DUP7 ADD MSTORE PUSH2 0x1169 DUP3 DUP3 PUSH2 0x10C3 JUMP JUMPDEST SWAP2 POP POP PUSH1 0x80 DUP4 ADD MLOAD DUP5 DUP3 SUB PUSH1 0x80 DUP7 ADD MSTORE PUSH2 0x1183 DUP3 DUP3 PUSH2 0x10C3 JUMP JUMPDEST SWAP2 POP POP PUSH1 0xA0 DUP4 ADD MLOAD DUP5 DUP3 SUB PUSH1 0xA0 DUP7 ADD MSTORE PUSH2 0x119D DUP3 DUP3 PUSH2 0x10C3 JUMP JUMPDEST SWAP2 POP POP PUSH1 0xC0 DUP4 ADD MLOAD PUSH2 0x11B2 PUSH1 0xC0 DUP7 ADD DUP3 PUSH2 0x103D JUMP JUMPDEST POP PUSH1 0xE0 DUP4 ADD MLOAD PUSH2 0x11C5 PUSH1 0xE0 DUP7 ADD DUP3 PUSH2 0x1106 JUMP JUMPDEST POP DUP1 SWAP2 POP POP SWAP3 SWAP2 POP POP JUMP JUMPDEST PUSH0 PUSH2 0x11DB DUP4 DUP4 PUSH2 0x1115 JUMP JUMPDEST SWAP1 POP SWAP3 SWAP2 POP POP JUMP JUMPDEST PUSH0 PUSH1 0x20 DUP3 ADD SWAP1 POP SWAP2 SWAP1 POP JUMP JUMPDEST PUSH0 PUSH2 0x11F9 DUP3 PUSH2 0x100B JUMP JUMPDEST PUSH2 0x1203 DUP2 DUP6 PUSH2 0x1015 JUMP JUMPDEST SWAP4 POP DUP4 PUSH1 0x20 DUP3 MUL DUP6 ADD PUSH2 0x1215 DUP6 PUSH2 0x1025 JUMP JUMPDEST DUP1 PUSH0 JUMPDEST DUP6 DUP2 LT ISZERO PUSH2 0x1250 JUMPI DUP5 DUP5 SUB DUP10 MSTORE DUP2 MLOAD PUSH2 0x1231 DUP6 DUP3 PUSH2 0x11D0 JUMP JUMPDEST SWAP5 POP PUSH2 0x123C DUP4 PUSH2 0x11E3 JUMP JUMPDEST SWAP3 POP PUSH1 0x20 DUP11 ADD SWAP10 POP POP PUSH1 0x1 DUP2 ADD SWAP1 POP PUSH2 0x1218 JUMP JUMPDEST POP DUP3 SWAP8 POP DUP8 SWAP6 POP POP POP POP POP POP SWAP3 SWAP2 POP POP JUMP JUMPDEST PUSH0 PUSH1 0x20 DUP3 ADD SWAP1 POP DUP2 DUP2 SUB PUSH0 DUP4 ADD MSTORE PUSH2 0x127A DUP2 DUP5 PUSH2 0x11EF JUMP JUMPDEST SWAP1 POP SWAP3 SWAP2 POP POP JUMP JUMPDEST PUSH2 0x128B DUP2 PUSH2 0x1034 JUMP JUMPDEST DUP3 MSTORE POP POP JUMP JUMPDEST PUSH0 PUSH1 0x20 DUP3 ADD SWAP1 POP PUSH2 0x12A4 PUSH0 DUP4 ADD DUP5 PUSH2 0x1282 JUMP JUMPDEST SWAP3 SWAP2 POP POP JUMP JUMPDEST PUSH0 PUSH1 0x40 MLOAD SWAP1 POP SWAP1 JUMP JUMPDEST PUSH0 DUP1 REVERT JUMPDEST PUSH0 DUP1 REVERT JUMPDEST PUSH2 0x12C4 DUP2 PUSH2 0x1034 JUMP JUMPDEST DUP2 EQ PUSH2 0x12CE JUMPI PUSH0 DUP1 REVERT JUMPDEST POP JUMP JUMPDEST PUSH0 DUP2 CALLDATALOAD SWAP1 POP PUSH2 0x12DF DUP2 PUSH2 0x12BB JUMP JUMPDEST SWAP3 SWAP2 POP POP JUMP JUMPDEST PUSH0 PUSH1 0x20 DUP3 DUP5 SUB SLT ISZERO PUSH2 0x12FA JUMPI PUSH2 0x12F9 PUSH2 0x12B3 JUMP JUMPDEST JUMPDEST PUSH0 PUSH2 0x1307 DUP5 DUP3 DUP6 ADD PUSH2 0x12D1 JUMP JUMPDEST SWAP2 POP POP SWAP3 SWAP2 POP POP JUMP JUMPDEST PUSH2 0x1319 DUP2 PUSH2 0x106B JUMP JUMPDEST DUP3 MSTORE POP POP JUMP JUMPDEST PUSH0 DUP3 DUP3 MSTORE PUSH1 0x20 DUP3 ADD SWAP1 POP SWAP3 SWAP2 POP POP JUMP JUMPDEST PUSH0 PUSH2 0x1339 DUP3 PUSH2 0x108B JUMP JUMPDEST PUSH2 0x1343 DUP2 DUP6 PUSH2 0x131F JUMP JUMPDEST SWAP4 POP PUSH2 0x1353 DUP2 DUP6 PUSH1 0x20 DUP7 ADD PUSH2 0x10A5 JUMP JUMPDEST PUSH2 0x135C DUP2 PUSH2 0x10B3 JUMP JUMPDEST DUP5 ADD SWAP2 POP POP SWAP3 SWAP2 POP POP JUMP JUMPDEST PUSH2 0x1370 DUP2 PUSH2 0x10FB JUMP JUMPDEST DUP3 MSTORE POP POP JUMP JUMPDEST PUSH0 PUSH2 0x100 DUP3 ADD SWAP1 POP PUSH2 0x138A PUSH0 DUP4 ADD DUP12 PUSH2 0x1282 JUMP JUMPDEST PUSH2 0x1397 PUSH1 0x20 DUP4 ADD DUP11 PUSH2 0x1310 JUMP JUMPDEST PUSH2 0x13A4 PUSH1 0x40 DUP4 ADD DUP10 PUSH2 0x1310 JUMP JUMPDEST DUP2 DUP2 SUB PUSH1 0x60 DUP4 ADD MSTORE PUSH2 0x13B6 DUP2 DUP9 PUSH2 0x132F JUMP JUMPDEST SWAP1 POP DUP2 DUP2 SUB PUSH1 0x80 DUP4 ADD MSTORE PUSH2 0x13CA DUP2 DUP8 PUSH2 0x132F JUMP JUMPDEST SWAP1 POP DUP2 DUP2 SUB PUSH1 0xA0 DUP4 ADD MSTORE PUSH2 0x13DE DUP2 DUP7 PUSH2 0x132F JUMP JUMPDEST SWAP1 POP PUSH2 0x13ED PUSH1 0xC0 DUP4 ADD DUP6 PUSH2 0x1282 JUMP JUMPDEST PUSH2 0x13FA PUSH1 0xE0 DUP4 ADD DUP5 PUSH2 0x1367 JUMP JUMPDEST SWAP10 SWAP9 POP POP POP POP POP POP POP POP POP JUMP JUMPDEST PUSH0 PUSH2 0x100 DUP4 ADD PUSH0 DUP4 ADD MLOAD PUSH2 0x141D PUSH0 DUP7 ADD DUP3 PUSH2 0x103D JUMP JUMPDEST POP PUSH1 0x20 DUP4 ADD MLOAD PUSH2 0x1430 PUSH1 0x20 DUP7 ADD DUP3 PUSH2 0x107C JUMP JUMPDEST POP PUSH1 0x40 DUP4 ADD MLOAD PUSH2 0x1443 PUSH1 0x40 DUP7 ADD DUP3 PUSH2 0x107C JUMP JUMPDEST POP PUSH1 0x60 DUP4 ADD MLOAD DUP5 DUP3 SUB PUSH1 0x60 DUP7 ADD MSTORE PUSH2 0x145B DUP3 DUP3 PUSH2 0x10C3 JUMP JUMPDEST SWAP2 POP POP PUSH1 0x80 DUP4 ADD MLOAD DUP5 DUP3 SUB PUSH1 0x80 DUP7 ADD MSTORE PUSH2 0x1475 DUP3 DUP3 PUSH2 0x10C3 JUMP JUMPDEST SWAP2 POP POP PUSH1 0xA0 DUP4 ADD MLOAD DUP5 DUP3 SUB PUSH1 0xA0 DUP7 ADD MSTORE PUSH2 0x148F DUP3 DUP3 PUSH2 0x10C3 JUMP JUMPDEST SWAP2 POP POP PUSH1 0xC0 DUP4 ADD MLOAD PUSH2 0x14A4 PUSH1 0xC0 DUP7 ADD DUP3 PUSH2 0x103D JUMP JUMPDEST POP PUSH1 0xE0 DUP4 ADD MLOAD PUSH2 0x14B7 PUSH1 0xE0 DUP7 ADD DUP3 PUSH2 0x1106 JUMP JUMPDEST POP DUP1 SWAP2 POP POP SWAP3 SWAP2 POP POP JUMP JUMPDEST PUSH0 PUSH1 0x20 DUP3 ADD SWAP1 POP DUP2 DUP2 SUB PUSH0 DUP4 ADD MSTORE PUSH2 0x14DA DUP2 DUP5 PUSH2 0x1407 JUMP JUMPDEST SWAP1 POP SWAP3 SWAP2 POP POP JUMP JUMPDEST PUSH0 DUP1 REVERT JUMPDEST PUSH0 DUP1 REVERT JUMPDEST PUSH32 0x4E487B7100000000000000000000000000000000000000000000000000000000 PUSH0 MSTORE PUSH1 0x41 PUSH1 0x4 MSTORE PUSH1 0x24 PUSH0 REVERT JUMPDEST PUSH2 0x1520 DUP3 PUSH2 0x10B3 JUMP JUMPDEST DUP2 ADD DUP2 DUP2 LT PUSH8 0xFFFFFFFFFFFFFFFF DUP3 GT OR ISZERO PUSH2 0x153F JUMPI PUSH2 0x153E PUSH2 0x14EA JUMP JUMPDEST JUMPDEST DUP1 PUSH1 0x40 MSTORE POP POP POP JUMP JUMPDEST PUSH0 PUSH2 0x1551 PUSH2 0x12AA JUMP JUMPDEST SWAP1 POP PUSH2 0x155D DUP3 DUP3 PUSH2 0x1517 JUMP JUMPDEST SWAP2 SWAP1 POP JUMP JUMPDEST PUSH0 PUSH8 0xFFFFFFFFFFFFFFFF DUP3 GT ISZERO PUSH2 0x157C JUMPI PUSH2 0x157B PUSH2 0x14EA JUMP JUMPDEST JUMPDEST PUSH2 0x1585 DUP3 PUSH2 0x10B3 JUMP JUMPDEST SWAP1 POP PUSH1 0x20 DUP2 ADD SWAP1 POP SWAP2 SWAP1 POP JUMP JUMPDEST DUP3 DUP2 DUP4 CALLDATACOPY PUSH0 DUP4 DUP4 ADD MSTORE POP POP POP JUMP JUMPDEST PUSH0 PUSH2 0x15B2 PUSH2 0x15AD DUP5 PUSH2 0x1562 JUMP JUMPDEST PUSH2 0x1548 JUMP JUMPDEST SWAP1 POP DUP3 DUP2 MSTORE PUSH1 0x20 DUP2 ADD DUP5 DUP5 DUP5 ADD GT ISZERO PUSH2 0x15CE JUMPI PUSH2 0x15CD PUSH2 0x14E6 JUMP JUMPDEST JUMPDEST PUSH2 0x15D9 DUP5 DUP3 DUP6 PUSH2 0x1592 JUMP JUMPDEST POP SWAP4 SWAP3 POP POP POP JUMP JUMPDEST PUSH0 DUP3 PUSH1 0x1F DUP4 ADD SLT PUSH2 0x15F5 JUMPI PUSH2 0x15F4 PUSH2 0x14E2 JUMP JUMPDEST JUMPDEST DUP2 CALLDATALOAD PUSH2 0x1605 DUP5 DUP3 PUSH1 0x20 DUP7 ADD PUSH2 0x15A0 JUMP JUMPDEST SWAP2 POP POP SWAP3 SWAP2 POP POP JUMP JUMPDEST PUSH0 DUP1 PUSH0 DUP1 PUSH1 0x80 DUP6 DUP8 SUB SLT ISZERO PUSH2 0x1626 JUMPI PUSH2 0x1625 PUSH2 0x12B3 JUMP JUMPDEST JUMPDEST PUSH0 DUP6 ADD CALLDATALOAD PUSH8 0xFFFFFFFFFFFFFFFF DUP2 GT ISZERO PUSH2 0x1643 JUMPI PUSH2 0x1642 PUSH2 0x12B7 JUMP JUMPDEST JUMPDEST PUSH2 0x164F DUP8 DUP3 DUP9 ADD PUSH2 0x15E1 JUMP JUMPDEST SWAP5 POP POP PUSH1 0x20 DUP6 ADD CALLDATALOAD PUSH8 0xFFFFFFFFFFFFFFFF DUP2 GT ISZERO PUSH2 0x1670 JUMPI PUSH2 0x166F PUSH2 0x12B7 JUMP JUMPDEST JUMPDEST PUSH2 0x167C DUP8 DUP3 DUP9 ADD PUSH2 0x15E1 JUMP JUMPDEST SWAP4 POP POP PUSH1 0x40 DUP6 ADD CALLDATALOAD PUSH8 0xFFFFFFFFFFFFFFFF DUP2 GT ISZERO PUSH2 0x169D JUMPI PUSH2 0x169C PUSH2 0x12B7 JUMP JUMPDEST JUMPDEST PUSH2 0x16A9 DUP8 DUP3 DUP9 ADD PUSH2 0x15E1 JUMP JUMPDEST SWAP3 POP POP PUSH1 0x60 PUSH2 0x16BA DUP8 DUP3 DUP9 ADD PUSH2 0x12D1 JUMP JUMPDEST SWAP2 POP POP SWAP3 SWAP6 SWAP2 SWAP5 POP SWAP3 POP JUMP JUMPDEST PUSH32 0x4E487B7100000000000000000000000000000000000000000000000000000000 PUSH0 MSTORE PUSH1 0x22 PUSH1 0x4 MSTORE PUSH1 0x24 PUSH0 REVERT JUMPDEST PUSH0 PUSH1 0x2 DUP3 DIV SWAP1 POP PUSH1 0x1 DUP3 AND DUP1 PUSH2 0x170A JUMPI PUSH1 0x7F DUP3 AND SWAP2 POP JUMPDEST PUSH1 0x20 DUP3 LT DUP2 SUB PUSH2 0x171D JUMPI PUSH2 0x171C PUSH2 0x16C6 JUMP JUMPDEST JUMPDEST POP SWAP2 SWAP1 POP JUMP JUMPDEST PUSH32 0x4974656D20494420646F6573206E6F7420657869737400000000000000000000 PUSH0 DUP3 ADD MSTORE POP JUMP JUMPDEST PUSH0 PUSH2 0x1757 PUSH1 0x16 DUP4 PUSH2 0x131F JUMP JUMPDEST SWAP2 POP PUSH2 0x1762 DUP3 PUSH2 0x1723 JUMP JUMPDEST PUSH1 0x20 DUP3 ADD SWAP1 POP SWAP2 SWAP1 POP JUMP JUMPDEST PUSH0 PUSH1 0x20 DUP3 ADD SWAP1 POP DUP2 DUP2 SUB PUSH0 DUP4 ADD MSTORE PUSH2 0x1784 DUP2 PUSH2 0x174B JUMP JUMPDEST SWAP1 POP SWAP2 SWAP1 POP JUMP JUMPDEST PUSH32 0x4E487B7100000000000000000000000000000000000000000000000000000000 PUSH0 MSTORE PUSH1 0x32 PUSH1 0x4 MSTORE PUSH1 0x24 PUSH0 REVERT JUMPDEST PUSH32 0x5072696365206D7573742062652067726561746572207468616E207A65726F00 PUSH0 DUP3 ADD MSTORE POP JUMP JUMPDEST PUSH0 PUSH2 0x17EC PUSH1 0x1F DUP4 PUSH2 0x131F JUMP JUMPDEST SWAP2 POP PUSH2 0x17F7 DUP3 PUSH2 0x17B8 JUMP JUMPDEST PUSH1 0x20 DUP3 ADD SWAP1 POP SWAP2 SWAP1 POP JUMP JUMPDEST PUSH0 PUSH1 0x20 DUP3 ADD SWAP1 POP DUP2 DUP2 SUB PUSH0 DUP4 ADD MSTORE PUSH2 0x1819 DUP2 PUSH2 0x17E0 JUMP JUMPDEST SWAP1 POP SWAP2 SWAP1 POP JUMP JUMPDEST PUSH0 DUP2 SWAP1 POP DUP2 PUSH0 MSTORE PUSH1 0x20 PUSH0 KECCAK256 SWAP1 POP SWAP2 SWAP1 POP JUMP JUMPDEST PUSH0 PUSH1 0x20 PUSH1 0x1F DUP4 ADD DIV SWAP1 POP SWAP2 SWAP1 POP JUMP JUMPDEST PUSH0 DUP3 DUP3 SHL SWAP1 POP SWAP3 SWAP2 POP POP JUMP JUMPDEST PUSH0 PUSH1 0x8 DUP4 MUL PUSH2 0x187C PUSH32 0xFFFFFFFFFFFFFFFFFFFFFFFFFFFFFFFFFFFFFFFFFFFFFFFFFFFFFFFFFFFFFFFF DUP3 PUSH2 0x1841 JUMP JUMPDEST PUSH2 0x1886 DUP7 DUP4 PUSH2 0x1841 JUMP JUMPDEST SWAP6 POP DUP1 NOT DUP5 AND SWAP4 POP DUP1 DUP7 AND DUP5 OR SWAP3 POP POP POP SWAP4 SWAP3 POP POP POP JUMP JUMPDEST PUSH0 DUP2 SWAP1 POP SWAP2 SWAP1 POP JUMP JUMPDEST PUSH0 PUSH2 0x18C1 PUSH2 0x18BC PUSH2 0x18B7 DUP5 PUSH2 0x1034 JUMP JUMPDEST PUSH2 0x189E JUMP JUMPDEST PUSH2 0x1034 JUMP JUMPDEST SWAP1 POP SWAP2 SWAP1 POP JUMP JUMPDEST PUSH0 DUP2 SWAP1 POP SWAP2 SWAP1 POP JUMP JUMPDEST PUSH2 0x18DA DUP4 PUSH2 0x18A7 JUMP JUMPDEST PUSH2 0x18EE PUSH2 0x18E6 DUP3 PUSH2 0x18C8 JUMP JUMPDEST DUP5 DUP5 SLOAD PUSH2 0x184D JUMP JUMPDEST DUP3 SSTORE POP POP POP POP JUMP JUMPDEST PUSH0 SWAP1 JUMP JUMPDEST PUSH2 0x1902 PUSH2 0x18F6 JUMP JUMPDEST PUSH2 0x190D DUP2 DUP5 DUP5 PUSH2 0x18D1 JUMP JUMPDEST POP POP POP JUMP JUMPDEST JUMPDEST DUP2 DUP2 LT ISZERO PUSH2 0x1930 JUMPI PUSH2 0x1925 PUSH0 DUP3 PUSH2 0x18FA JUMP JUMPDEST PUSH1 0x1 DUP2 ADD SWAP1 POP PUSH2 0x1913 JUMP JUMPDEST POP POP JUMP JUMPDEST PUSH1 0x1F DUP3 GT ISZERO PUSH2 0x1975 JUMPI PUSH2 0x1946 DUP2 PUSH2 0x1820 JUMP JUMPDEST PUSH2 0x194F DUP5 PUSH2 0x1832 JUMP JUMPDEST DUP2 ADD PUSH1 0x20 DUP6 LT ISZERO PUSH2 0x195E JUMPI DUP2 SWAP1 POP JUMPDEST PUSH2 0x1972 PUSH2 0x196A DUP6 PUSH2 0x1832 JUMP JUMPDEST DUP4 ADD DUP3 PUSH2 0x1912 JUMP JUMPDEST POP POP JUMPDEST POP POP POP JUMP JUMPDEST PUSH0 DUP3 DUP3 SHR SWAP1 POP SWAP3 SWAP2 POP POP JUMP JUMPDEST PUSH0 PUSH2 0x1995 PUSH0 NOT DUP5 PUSH1 0x8 MUL PUSH2 0x197A JUMP JUMPDEST NOT DUP1 DUP4 AND SWAP2 POP POP SWAP3 SWAP2 POP POP JUMP JUMPDEST PUSH0 PUSH2 0x19AD DUP4 DUP4 PUSH2 0x1986 JUMP JUMPDEST SWAP2 POP DUP3 PUSH1 0x2 MUL DUP3 OR SWAP1 POP SWAP3 SWAP2 POP POP JUMP JUMPDEST PUSH2 0x19C6 DUP3 PUSH2 0x108B JUMP JUMPDEST PUSH8 0xFFFFFFFFFFFFFFFF DUP2 GT ISZERO PUSH2 0x19DF JUMPI PUSH2 0x19DE PUSH2 0x14EA JUMP JUMPDEST JUMPDEST PUSH2 0x19E9 DUP3 SLOAD PUSH2 0x16F3 JUMP JUMPDEST PUSH2 0x19F4 DUP3 DUP3 DUP6 PUSH2 0x1934 JUMP JUMPDEST PUSH0 PUSH1 0x20 SWAP1 POP PUSH1 0x1F DUP4 GT PUSH1 0x1 DUP2 EQ PUSH2 0x1A25 JUMPI PUSH0 DUP5 ISZERO PUSH2 0x1A13 JUMPI DUP3 DUP8 ADD MLOAD SWAP1 POP JUMPDEST PUSH2 0x1A1D DUP6 DUP3 PUSH2 0x19A2 JUMP JUMPDEST DUP7 SSTORE POP PUSH2 0x1A84 JUMP JUMPDEST PUSH1 0x1F NOT DUP5 AND PUSH2 0x1A33 DUP7 PUSH2 0x1820 JUMP JUMPDEST PUSH0 JUMPDEST DUP3 DUP2 LT ISZERO PUSH2 0x1A5A JUMPI DUP5 DUP10 ADD MLOAD DUP3 SSTORE PUSH1 0x1 DUP3 ADD SWAP2 POP PUSH1 0x20 DUP6 ADD SWAP5 POP PUSH1 0x20 DUP2 ADD SWAP1 POP PUSH2 0x1A35 JUMP JUMPDEST DUP7 DUP4 LT ISZERO PUSH2 0x1A77 JUMPI DUP5 DUP10 ADD MLOAD PUSH2 0x1A73 PUSH1 0x1F DUP10 AND DUP3 PUSH2 0x1986 JUMP JUMPDEST DUP4 SSTORE POP JUMPDEST PUSH1 0x1 PUSH1 0x2 DUP9 MUL ADD DUP9 SSTORE POP POP POP JUMPDEST POP POP POP POP POP POP JUMP JUMPDEST PUSH0 PUSH1 0x80 DUP3 ADD SWAP1 POP PUSH2 0x1A9F PUSH0 DUP4 ADD DUP8 PUSH2 0x1282 JUMP JUMPDEST DUP2 DUP2 SUB PUSH1 0x20 DUP4 ADD MSTORE PUSH2 0x1AB1 DUP2 DUP7 PUSH2 0x132F JUMP JUMPDEST SWAP1 POP DUP2 DUP2 SUB PUSH1 0x40 DUP4 ADD MSTORE PUSH2 0x1AC5 DUP2 DUP6 PUSH2 0x132F JUMP JUMPDEST SWAP1 POP PUSH2 0x1AD4 PUSH1 0x60 DUP4 ADD DUP5 PUSH2 0x1282 JUMP JUMPDEST SWAP6 SWAP5 POP POP POP POP POP JUMP JUMPDEST PUSH32 0x4E487B7100000000000000000000000000000000000000000000000000000000 PUSH0 MSTORE PUSH1 0x11 PUSH1 0x4 MSTORE PUSH1 0x24 PUSH0 REVERT JUMPDEST PUSH0 PUSH2 0x1B14 DUP3 PUSH2 0x1034 JUMP JUMPDEST SWAP2 POP PUSH32 0xFFFFFFFFFFFFFFFFFFFFFFFFFFFFFFFFFFFFFFFFFFFFFFFFFFFFFFFFFFFFFFFF DUP3 SUB PUSH2 0x1B46 JUMPI PUSH2 0x1B45 PUSH2 0x1ADD JUMP JUMPDEST JUMPDEST PUSH1 0x1 DUP3 ADD SWAP1 POP SWAP2 SWAP1 POP JUMP JUMPDEST PUSH32 0x506C65617365207375626D6974207468652061736B696E672070726963652069 PUSH0 DUP3 ADD MSTORE PUSH32 0x6E206F7264657220746F20636F6D706C65746520746865207075726368617365 PUSH1 0x20 DUP3 ADD MSTORE POP JUMP JUMPDEST PUSH0 PUSH2 0x1BAB PUSH1 0x40 DUP4 PUSH2 0x131F JUMP JUMPDEST SWAP2 POP PUSH2 0x1BB6 DUP3 PUSH2 0x1B51 JUMP JUMPDEST PUSH1 0x40 DUP3 ADD SWAP1 POP SWAP2 SWAP1 POP JUMP JUMPDEST PUSH0 PUSH1 0x20 DUP3 ADD SWAP1 POP DUP2 DUP2 SUB PUSH0 DUP4 ADD MSTORE PUSH2 0x1BD8 DUP2 PUSH2 0x1B9F JUMP JUMPDEST SWAP1 POP SWAP2 SWAP1 POP JUMP JUMPDEST PUSH32 0x54686973206974656D2068617320616C7265616479206265656E20736F6C6400 PUSH0 DUP3 ADD MSTORE POP JUMP JUMPDEST PUSH0 PUSH2 0x1C13 PUSH1 0x1F DUP4 PUSH2 0x131F JUMP JUMPDEST SWAP2 POP PUSH2 0x1C1E DUP3 PUSH2 0x1BDF JUMP JUMPDEST PUSH1 0x20 DUP3 ADD SWAP1 POP SWAP2 SWAP1 POP JUMP JUMPDEST PUSH0 PUSH1 0x20 DUP3 ADD SWAP1 POP DUP2 DUP2 SUB PUSH0 DUP4 ADD MSTORE PUSH2 0x1C40 DUP2 PUSH2 0x1C07 JUMP JUMPDEST SWAP1 POP SWAP2 SWAP1 POP JUMP JUMPDEST PUSH32 0x4F776E65722063616E6E6F7420627579207468656972206F776E206974656D00 PUSH0 DUP3 ADD MSTORE POP JUMP JUMPDEST PUSH0 PUSH2 0x1C7B PUSH1 0x1F DUP4 PUSH2 0x131F JUMP JUMPDEST SWAP2 POP PUSH2 0x1C86 DUP3 PUSH2 0x1C47 JUMP JUMPDEST PUSH1 0x20 DUP3 ADD SWAP1 POP SWAP2 SWAP1 POP JUMP JUMPDEST PUSH0 PUSH1 0x20 DUP3 ADD SWAP1 POP DUP2 DUP2 SUB PUSH0 DUP4 ADD MSTORE PUSH2 0x1CA8 DUP2 PUSH2 0x1C6F JUMP JUMPDEST SWAP1 POP SWAP2 SWAP1 POP JUMP JUMPDEST PUSH0 DUP2 SWAP1 POP SWAP3 SWAP2 POP POP JUMP JUMPDEST POP JUMP JUMPDEST PUSH0 PUSH2 0x1CC7 PUSH0 DUP4 PUSH2 0x1CAF JUMP JUMPDEST SWAP2 POP PUSH2 0x1CD2 DUP3 PUSH2 0x1CB9 JUMP JUMPDEST PUSH0 DUP3 ADD SWAP1 POP SWAP2 SWAP1 POP JUMP JUMPDEST PUSH0 PUSH2 0x1CE6 DUP3 PUSH2 0x1CBC JUMP JUMPDEST SWAP2 POP DUP2 SWAP1 POP SWAP2 SWAP1 POP JUMP JUMPDEST PUSH32 0x4661696C656420746F2073656E64204574686572000000000000000000000000 PUSH0 DUP3 ADD MSTORE POP JUMP JUMPDEST PUSH0 PUSH2 0x1D24 PUSH1 0x14 DUP4 PUSH2 0x131F JUMP JUMPDEST SWAP2 POP PUSH2 0x1D2F DUP3 PUSH2 0x1CF0 JUMP JUMPDEST PUSH1 0x20 DUP3 ADD SWAP1 POP SWAP2 SWAP1 POP JUMP JUMPDEST PUSH0 PUSH1 0x20 DUP3 ADD SWAP1 POP DUP2 DUP2 SUB PUSH0 DUP4 ADD MSTORE PUSH2 0x1D51 DUP2 PUSH2 0x1D18 JUMP JUMPDEST SWAP1 POP SWAP2 SWAP1 POP JUMP JUMPDEST PUSH0 PUSH1 0x40 DUP3 ADD SWAP1 POP PUSH2 0x1D6B PUSH0 DUP4 ADD DUP6 PUSH2 0x1282 JUMP JUMPDEST PUSH2 0x1D78 PUSH1 0x20 DUP4 ADD DUP5 PUSH2 0x1282 JUMP JUMPDEST SWAP4 SWAP3 POP POP POP JUMP INVALID LOG2 PUSH5 0x6970667358 0x22 SLT KECCAK256 DUP1 SWAP10 0xD7 SWAP16 DUP2 0x25 0xCF PUSH12 0x2058C789DDE57172B6597597 0xCB DUP6 TSTORE 0xE9 0xC0 PUSH21 0xA533D753755964736F6C6343000819003300000000 "
	},
	"abi": [
		{
			"inputs": [
				{
					"internalType": "uint256",
					"name": "_id",
					"type": "uint256"
				}
			],
			"name": "buyItem",
			"outputs": [],
			"stateMutability": "payable",
			"type": "function"
		},
		{
			"anonymous": false,
			"inputs": [
				{
					"indexed": false,
					"internalType": "uint256",
					"name": "itemId",
					"type": "uint256"
				},
				{
					"indexed": true,
					"internalType": "address",
					"name": "seller",
					"type": "address"
				},
				{
					"indexed": true,
					"internalType": "address",
					"name": "owner",
					"type": "address"
				},
				{
					"indexed": false,
					"internalType": "string",
					"name": "title",
					"type": "string"
				},
				{
					"indexed": false,
					"internalType": "string",
					"name": "imageHash",
					"type": "string"
				},
				{
					"indexed": false,
					"internalType": "uint256",
					"name": "price",
					"type": "uint256"
				}
			],
			"name": "ItemListed",
			"type": "event"
		},
		{
			"anonymous": false,
			"inputs": [
				{
					"indexed": false,
					"internalType": "uint256",
					"name": "itemId",
					"type": "uint256"
				},
				{
					"indexed": true,
					"internalType": "address",
					"name": "oldOwner",
					"type": "address"
				},
				{
					"indexed": true,
					"internalType": "address",
					"name": "newOwner",
					"type": "address"
				},
				{
					"indexed": false,
					"internalType": "uint256",
					"name": "price",
					"type": "uint256"
				}
			],
			"name": "ItemSold",
			"type": "event"
		},
		{
			"inputs": [
				{
					"internalType": "string",
					"name": "_title",
					"type": "string"
				},
				{
					"internalType": "string",
					"name": "_description",
					"type": "string"
				},
				{
					"internalType": "string",
					"name": "_imageHash",
					"type": "string"
				},
				{
					"internalType": "uint256",
					"name": "_price",
					"type": "uint256"
				}
			],
			"name": "listItem",
			"outputs": [],
			"stateMutability": "nonpayable",
			"type": "function"
		},
		{
			"anonymous": false,
			"inputs": [
				{
					"indexed": true,
					"internalType": "address",
					"name": "from",
					"type": "address"
				},
				{
					"indexed": true,
					"internalType": "address",
					"name": "to",
					"type": "address"
				},
				{
					"indexed": false,
					"internalType": "uint256",
					"name": "amount",
					"type": "uint256"
				}
			],
			"name": "PaymentSent",
			"type": "event"
		},
		{
			"inputs": [],
			"name": "getAllItems",
			"outputs": [
				{
					"components": [
						{
							"internalType": "uint256",
							"name": "id",
							"type": "uint256"
						},
						{
							"internalType": "address payable",
							"name": "seller",
							"type": "address"
						},
						{
							"internalType": "address payable",
							"name": "owner",
							"type": "address"
						},
						{
							"internalType": "string",
							"name": "title",
							"type": "string"
						},
						{
							"internalType": "string",
							"name": "description",
							"type": "string"
						},
						{
							"internalType": "string",
							"name": "imageHash",
							"type": "string"
						},
						{
							"internalType": "uint256",
							"name": "price",
							"type": "uint256"
						},
						{
							"internalType": "bool",
							"name": "sold",
							"type": "bool"
						}
					],
					"internalType": "struct Marketplace.Item[]",
					"name": "",
					"type": "tuple[]"
				}
			],
			"stateMutability": "view",
			"type": "function"
		},
		{
			"inputs": [
				{
					"internalType": "uint256",
					"name": "_id",
					"type": "uint256"
				}
			],
			"name": "getItemById",
			"outputs": [
				{
					"components": [
						{
							"internalType": "uint256",
							"name": "id",
							"type": "uint256"
						},
						{
							"internalType": "address payable",
							"name": "seller",
							"type": "address"
						},
						{
							"internalType": "address payable",
							"name": "owner",
							"type": "address"
						},
						{
							"internalType": "string",
							"name": "title",
							"type": "string"
						},
						{
							"internalType": "string",
							"name": "description",
							"type": "string"
						},
						{
							"internalType": "string",
							"name": "imageHash",
							"type": "string"
						},
						{
							"internalType": "uint256",
							"name": "price",
							"type": "uint256"
						},
						{
							"internalType": "bool",
							"name": "sold",
							"type": "bool"
						}
					],
					"internalType": "struct Marketplace.Item",
					"name": "",
					"type": "tuple"
				}
			],
			"stateMutability": "view",
			"type": "function"
		},
		{
			"inputs": [],
			"name": "itemCount",
			"outputs": [
				{
					"internalType": "uint256",
					"name": "",
					"type": "uint256"
				}
			],
			"stateMutability": "view",
			"type": "function"
		},
		{
			"inputs": [
				{
					"internalType": "uint256",
					"name": "",
					"type": "uint256"
				}
			],
			"name": "items",
			"outputs": [
				{
					"internalType": "uint256",
					"name": "id",
					"type": "uint256"
				},
				{
					"internalType": "address payable",
					"name": "seller",
					"type": "address"
				},
				{
					"internalType": "address payable",
					"name": "owner",
					"type": "address"
				},
				{
					"internalType": "string",
					"name": "title",
					"type": "string"
				},
				{
					"internalType": "string",
					"name": "description",
					"type": "string"
				},
				{
					"internalType": "string",
					"name": "imageHash",
					"type": "string"
				},
				{
					"internalType": "uint256",
					"name": "price",
					"type": "uint256"
				},
				{
					"internalType": "bool",
					"name": "sold",
					"type": "bool"
				}
			],
			"stateMutability": "view",
			"type": "function"
		}
	],
	"storageLayout": {
		"storage": [
			{
				"astId": 22,
				"contract": "update.sol:Marketplace",
				"label": "items",
				"offset": 0,
				"slot": "0",
				"type": "t_array(t_struct(Item)18_storage)dyn_storage"
			},
			{
				"astId": 25,
				"contract": "update.sol:Marketplace",
				"label": "itemCount",
				"offset": 0,
				"slot": "1",
				"type": "t_uint256"
			}
		],
		"types": {
			"t_address_payable": {
				"encoding": "inplace",
				"label": "address payable",
				"numberOfBytes": "20"
			},
			"t_array(t_struct(Item)18_storage)dyn_storage": {
				"base": "t_struct(Item)18_storage",
				"encoding": "dynamic_array",
				"label": "struct Marketplace.Item[]",
				"numberOfBytes": "32"
			},
			"t_bool": {
				"encoding": "inplace",
				"label": "bool",
				"numberOfBytes": "1"
			},
			"t_string_storage": {
				"encoding": "bytes",
				"label": "string",
				"numberOfBytes": "32"
			},
			"t_struct(Item)18_storage": {
				"encoding": "inplace",
				"label": "struct Marketplace.Item",
				"members": [
					{
						"astId": 3,
						"contract": "update.sol:Marketplace",
						"label": "id",
						"offset": 0,
						"slot": "0",
						"type": "t_uint256"
					},
					{
						"astId": 5,
						"contract": "update.sol:Marketplace",
						"label": "seller",
						"offset": 0,
						"slot": "1",
						"type": "t_address_payable"
					},
					{
						"astId": 7,
						"contract": "update.sol:Marketplace",
						"label": "owner",
						"offset": 0,
						"slot": "2",
						"type": "t_address_payable"
					},
					{
						"astId": 9,
						"contract": "update.sol:Marketplace",
						"label": "title",
						"offset": 0,
						"slot": "3",
						"type": "t_string_storage"
					},
					{
						"astId": 11,
						"contract": "update.sol:Marketplace",
						"label": "description",
						"offset": 0,
						"slot": "4",
						"type": "t_string_storage"
					},
					{
						"astId": 13,
						"contract": "update.sol:Marketplace",
						"label": "imageHash",
						"offset": 0,
						"slot": "5",
						"type": "t_string_storage"
					},
					{
						"astId": 15,
						"contract": "update.sol:Marketplace",
						"label": "price",
						"offset": 0,
						"slot": "6",
						"type": "t_uint256"
					},
					{
						"astId": 17,
						"contract": "update.sol:Marketplace",
						"label": "sold",
						"offset": 0,
						"slot": "7",
						"type": "t_bool"
					}
				],
				"numberOfBytes": "256"
			},
			"t_uint256": {
				"encoding": "inplace",
				"label": "uint256",
				"numberOfBytes": "32"
			}
		}
	},
	"web3Deploy": "var marketplaceContract = new web3.eth.Contract([{\"anonymous\":false,\"inputs\":[{\"indexed\":false,\"internalType\":\"uint256\",\"name\":\"itemId\",\"type\":\"uint256\"},{\"indexed\":true,\"internalType\":\"address\",\"name\":\"seller\",\"type\":\"address\"},{\"indexed\":true,\"internalType\":\"address\",\"name\":\"owner\",\"type\":\"address\"},{\"indexed\":false,\"internalType\":\"string\",\"name\":\"title\",\"type\":\"string\"},{\"indexed\":false,\"internalType\":\"string\",\"name\":\"imageHash\",\"type\":\"string\"},{\"indexed\":false,\"internalType\":\"uint256\",\"name\":\"price\",\"type\":\"uint256\"}],\"name\":\"ItemListed\",\"type\":\"event\"},{\"anonymous\":false,\"inputs\":[{\"indexed\":false,\"internalType\":\"uint256\",\"name\":\"itemId\",\"type\":\"uint256\"},{\"indexed\":true,\"internalType\":\"address\",\"name\":\"oldOwner\",\"type\":\"address\"},{\"indexed\":true,\"internalType\":\"address\",\"name\":\"newOwner\",\"type\":\"address\"},{\"indexed\":false,\"internalType\":\"uint256\",\"name\":\"price\",\"type\":\"uint256\"}],\"name\":\"ItemSold\",\"type\":\"event\"},{\"anonymous\":false,\"inputs\":[{\"indexed\":true,\"internalType\":\"address\",\"name\":\"from\",\"type\":\"address\"},{\"indexed\":true,\"internalType\":\"address\",\"name\":\"to\",\"type\":\"address\"},{\"indexed\":false,\"internalType\":\"uint256\",\"name\":\"amount\",\"type\":\"uint256\"}],\"name\":\"PaymentSent\",\"type\":\"event\"},{\"inputs\":[{\"internalType\":\"uint256\",\"name\":\"_id\",\"type\":\"uint256\"}],\"name\":\"buyItem\",\"outputs\":[],\"stateMutability\":\"payable\",\"type\":\"function\"},{\"inputs\":[],\"name\":\"getAllItems\",\"outputs\":[{\"components\":[{\"internalType\":\"uint256\",\"name\":\"id\",\"type\":\"uint256\"},{\"internalType\":\"address payable\",\"name\":\"seller\",\"type\":\"address\"},{\"internalType\":\"address payable\",\"name\":\"owner\",\"type\":\"address\"},{\"internalType\":\"string\",\"name\":\"title\",\"type\":\"string\"},{\"internalType\":\"string\",\"name\":\"description\",\"type\":\"string\"},{\"internalType\":\"string\",\"name\":\"imageHash\",\"type\":\"string\"},{\"internalType\":\"uint256\",\"name\":\"price\",\"type\":\"uint256\"},{\"internalType\":\"bool\",\"name\":\"sold\",\"type\":\"bool\"}],\"internalType\":\"struct Marketplace.Item[]\",\"name\":\"\",\"type\":\"tuple[]\"}],\"stateMutability\":\"view\",\"type\":\"function\"},{\"inputs\":[{\"internalType\":\"uint256\",\"name\":\"_id\",\"type\":\"uint256\"}],\"name\":\"getItemById\",\"outputs\":[{\"components\":[{\"internalType\":\"uint256\",\"name\":\"id\",\"type\":\"uint256\"},{\"internalType\":\"address payable\",\"name\":\"seller\",\"type\":\"address\"},{\"internalType\":\"address payable\",\"name\":\"owner\",\"type\":\"address\"},{\"internalType\":\"string\",\"name\":\"title\",\"type\":\"string\"},{\"internalType\":\"string\",\"name\":\"description\",\"type\":\"string\"},{\"internalType\":\"string\",\"name\":\"imageHash\",\"type\":\"string\"},{\"internalType\":\"uint256\",\"name\":\"price\",\"type\":\"uint256\"},{\"internalType\":\"bool\",\"name\":\"sold\",\"type\":\"bool\"}],\"internalType\":\"struct Marketplace.Item\",\"name\":\"\",\"type\":\"tuple\"}],\"stateMutability\":\"view\",\"type\":\"function\"},{\"inputs\":[],\"name\":\"itemCount\",\"outputs\":[{\"internalType\":\"uint256\",\"name\":\"\",\"type\":\"uint256\"}],\"stateMutability\":\"view\",\"type\":\"function\"},{\"inputs\":[{\"internalType\":\"uint256\",\"name\":\"\",\"type\":\"uint256\"}],\"name\":\"items\",\"outputs\":[{\"internalType\":\"uint256\",\"name\":\"id\",\"type\":\"uint256\"},{\"internalType\":\"address payable\",\"name\":\"seller\",\"type\":\"address\"},{\"internalType\":\"address payable\",\"name\":\"owner\",\"type\":\"address\"},{\"internalType\":\"string\",\"name\":\"title\",\"type\":\"string\"},{\"internalType\":\"string\",\"name\":\"description\",\"type\":\"string\"},{\"internalType\":\"string\",\"name\":\"imageHash\",\"type\":\"string\"},{\"internalType\":\"uint256\",\"name\":\"price\",\"type\":\"uint256\"},{\"internalType\":\"bool\",\"name\":\"sold\",\"type\":\"bool\"}],\"stateMutability\":\"view\",\"type\":\"function\"},{\"inputs\":[{\"internalType\":\"string\",\"name\":\"_title\",\"type\":\"string\"},{\"internalType\":\"string\",\"name\":\"_description\",\"type\":\"string\"},{\"internalType\":\"string\",\"name\":\"_imageHash\",\"type\":\"string\"},{\"internalType\":\"uint256\",\"name\":\"_price\",\"type\":\"uint256\"}],\"name\":\"listItem\",\"outputs\":[],\"stateMutability\":\"nonpayable\",\"type\":\"function\"}]);\nvar marketplace = marketplaceContract.deploy({\n     data: '0x60806040525f6001553480156012575f80fd5b50611db5806100205f395ff3fe608060405260043610610054575f3560e01c80634ba1d6aa146100585780636bfb0d0114610082578063bfb231d2146100ac578063cd2f0710146100ef578063d65274c91461012b578063e7fb74c714610153575b5f80fd5b348015610063575f80fd5b5061006c61016f565b6040516100799190611262565b60405180910390f35b34801561008d575f80fd5b50610096610452565b6040516100a39190611291565b60405180910390f35b3480156100b7575f80fd5b506100d260048036038101906100cd91906112e5565b610458565b6040516100e6989796959493929190611376565b60405180910390f35b3480156100fa575f80fd5b50610115600480360381019061011091906112e5565b610686565b60405161012291906114c2565b60405180910390f35b348015610136575f80fd5b50610151600480360381019061014c919061160e565b61098b565b005b61016d600480360381019061016891906112e5565b610be9565b005b60605f805480602002602001604051908101604052809291908181526020015f905b82821015610449578382905f5260205f209060080201604051806101000160405290815f8201548152602001600182015f9054906101000a900473ffffffffffffffffffffffffffffffffffffffff1673ffffffffffffffffffffffffffffffffffffffff1673ffffffffffffffffffffffffffffffffffffffff168152602001600282015f9054906101000a900473ffffffffffffffffffffffffffffffffffffffff1673ffffffffffffffffffffffffffffffffffffffff1673ffffffffffffffffffffffffffffffffffffffff168152602001600382018054610276906116f3565b80601f01602080910402602001604051908101604052809291908181526020018280546102a2906116f3565b80156102ed5780601f106102c4576101008083540402835291602001916102ed565b820191905f5260205f20905b8154815290600101906020018083116102d057829003601f168201915b50505050508152602001600482018054610306906116f3565b80601f0160208091040260200160405190810160405280929190818152602001828054610332906116f3565b801561037d5780601f106103545761010080835404028352916020019161037d565b820191905f5260205f20905b81548152906001019060200180831161036057829003601f168201915b50505050508152602001600582018054610396906116f3565b80601f01602080910402602001604051908101604052809291908181526020018280546103c2906116f3565b801561040d5780601f106103e45761010080835404028352916020019161040d565b820191905f5260205f20905b8154815290600101906020018083116103f057829003601f168201915b5050505050815260200160068201548152602001600782015f9054906101000a900460ff16151515158152505081526020019060010190610191565b50505050905090565b60015481565b5f8181548110610466575f80fd5b905f5260205f2090600802015f91509050805f015490806001015f9054906101000a900473ffffffffffffffffffffffffffffffffffffffff1690806002015f9054906101000a900473ffffffffffffffffffffffffffffffffffffffff16908060030180546104d5906116f3565b80601f0160208091040260200160405190810160405280929190818152602001828054610501906116f3565b801561054c5780601f106105235761010080835404028352916020019161054c565b820191905f5260205f20905b81548152906001019060200180831161052f57829003601f168201915b505050505090806004018054610561906116f3565b80601f016020809104026020016040519081016040528092919081815260200182805461058d906116f3565b80156105d85780601f106105af576101008083540402835291602001916105d8565b820191905f5260205f20905b8154815290600101906020018083116105bb57829003601f168201915b5050505050908060050180546105ed906116f3565b80601f0160208091040260200160405190810160405280929190818152602001828054610619906116f3565b80156106645780601f1061063b57610100808354040283529160200191610664565b820191905f5260205f20905b81548152906001019060200180831161064757829003601f168201915b505050505090806006015490806007015f9054906101000a900460ff16905088565b61068e610f9d565b60015482106106d2576040517f08c379a00000000000000000000000000000000000000000000000000000000081526004016106c99061176d565b60405180910390fd5b5f82815481106106e5576106e461178b565b5b905f5260205f209060080201604051806101000160405290815f8201548152602001600182015f9054906101000a900473ffffffffffffffffffffffffffffffffffffffff1673ffffffffffffffffffffffffffffffffffffffff1673ffffffffffffffffffffffffffffffffffffffff168152602001600282015f9054906101000a900473ffffffffffffffffffffffffffffffffffffffff1673ffffffffffffffffffffffffffffffffffffffff1673ffffffffffffffffffffffffffffffffffffffff1681526020016003820180546107c0906116f3565b80601f01602080910402602001604051908101604052809291908181526020018280546107ec906116f3565b80156108375780601f1061080e57610100808354040283529160200191610837565b820191905f5260205f20905b81548152906001019060200180831161081a57829003601f168201915b50505050508152602001600482018054610850906116f3565b80601f016020809104026020016040519081016040528092919081815260200182805461087c906116f3565b80156108c75780601f1061089e576101008083540402835291602001916108c7565b820191905f5260205f20905b8154815290600101906020018083116108aa57829003601f168201915b505050505081526020016005820180546108e0906116f3565b80601f016020809104026020016040519081016040528092919081815260200182805461090c906116f3565b80156109575780601f1061092e57610100808354040283529160200191610957565b820191905f5260205f20905b81548152906001019060200180831161093a57829003601f168201915b5050505050815260200160068201548152602001600782015f9054906101000a900460ff1615151515815250509050919050565b5f81116109cd576040517f08c379a00000000000000000000000000000000000000000000000000000000081526004016109c490611802565b60405180910390fd5b5f60405180610100016040528060015481526020013373ffffffffffffffffffffffffffffffffffffffff1681526020013373ffffffffffffffffffffffffffffffffffffffff1681526020018681526020018581526020018481526020018381526020015f1515815250908060018154018082558091505060019003905f5260205f2090600802015f909190919091505f820151815f01556020820151816001015f6101000a81548173ffffffffffffffffffffffffffffffffffffffff021916908373ffffffffffffffffffffffffffffffffffffffff1602179055506040820151816002015f6101000a81548173ffffffffffffffffffffffffffffffffffffffff021916908373ffffffffffffffffffffffffffffffffffffffff1602179055506060820151816003019081610b0791906119bd565b506080820151816004019081610b1d91906119bd565b5060a0820151816005019081610b3391906119bd565b5060c0820151816006015560e0820151816007015f6101000a81548160ff02191690831515021790555050503373ffffffffffffffffffffffffffffffffffffffff163373ffffffffffffffffffffffffffffffffffffffff167fc8cafa36072a4a4aef47b5164eef855aa92fac71ff751e55217e14982720c7fe600154878686604051610bc49493929190611a8c565b60405180910390a360015f815480929190610bde90611b0a565b919050555050505050565b6001548110610c2d576040517f08c379a0000000000000000000000000000000000000000000000000000000008152600401610c249061176d565b60405180910390fd5b5f808281548110610c4157610c4061178b565b5b905f5260205f209060080201905080600601543414610c95576040517f08c379a0000000000000000000000000000000000000000000000000000000008152600401610c8c90611bc1565b60405180910390fd5b806007015f9054906101000a900460ff1615610ce6576040517f08c379a0000000000000000000000000000000000000000000000000000000008152600401610cdd90611c29565b60405180910390fd5b806002015f9054906101000a900473ffffffffffffffffffffffffffffffffffffffff1673ffffffffffffffffffffffffffffffffffffffff163373ffffffffffffffffffffffffffffffffffffffff1603610d77576040517f08c379a0000000000000000000000000000000000000000000000000000000008152600401610d6e90611c91565b60405180910390fd5b5f816002015f9054906101000a900473ffffffffffffffffffffffffffffffffffffffff1673ffffffffffffffffffffffffffffffffffffffff1634604051610dbf90611cdc565b5f6040518083038185875af1925050503d805f8114610df9576040519150601f19603f3d011682016040523d82523d5f602084013e610dfe565b606091505b5050905080610e42576040517f08c379a0000000000000000000000000000000000000000000000000000000008152600401610e3990611d3a565b60405180910390fd5b5f826002015f9054906101000a900473ffffffffffffffffffffffffffffffffffffffff16905033836002015f6101000a81548173ffffffffffffffffffffffffffffffffffffffff021916908373ffffffffffffffffffffffffffffffffffffffff1602179055506001836007015f6101000a81548160ff0219169083151502179055508073ffffffffffffffffffffffffffffffffffffffff163373ffffffffffffffffffffffffffffffffffffffff167fd52bd61f7c422d441e024604f4517878fd3305d6acf0fe37baef23ed21af6bc934604051610f249190611291565b60405180910390a33373ffffffffffffffffffffffffffffffffffffffff168173ffffffffffffffffffffffffffffffffffffffff167f04ddd54c6b746e69ba87f862311f7670bd1d7276846778ac81cd38747b27a746868660060154604051610f8f929190611d58565b60405180910390a350505050565b6040518061010001604052805f81526020015f73ffffffffffffffffffffffffffffffffffffffff1681526020015f73ffffffffffffffffffffffffffffffffffffffff1681526020016060815260200160608152602001606081526020015f81526020015f151581525090565b5f81519050919050565b5f82825260208201905092915050565b5f819050602082019050919050565b5f819050919050565b61104681611034565b82525050565b5f73ffffffffffffffffffffffffffffffffffffffff82169050919050565b5f6110758261104c565b9050919050565b6110858161106b565b82525050565b5f81519050919050565b5f82825260208201905092915050565b8281835e5f83830152505050565b5f601f19601f8301169050919050565b5f6110cd8261108b565b6110d78185611095565b93506110e78185602086016110a5565b6110f0816110b3565b840191505092915050565b5f8115159050919050565b61110f816110fb565b82525050565b5f61010083015f83015161112b5f86018261103d565b50602083015161113e602086018261107c565b506040830151611151604086018261107c565b506060830151848203606086015261116982826110c3565b9150506080830151848203608086015261118382826110c3565b91505060a083015184820360a086015261119d82826110c3565b91505060c08301516111b260c086018261103d565b5060e08301516111c560e0860182611106565b508091505092915050565b5f6111db8383611115565b905092915050565b5f602082019050919050565b5f6111f98261100b565b6112038185611015565b93508360208202850161121585611025565b805f5b85811015611250578484038952815161123185826111d0565b945061123c836111e3565b925060208a01995050600181019050611218565b50829750879550505050505092915050565b5f6020820190508181035f83015261127a81846111ef565b905092915050565b61128b81611034565b82525050565b5f6020820190506112a45f830184611282565b92915050565b5f604051905090565b5f80fd5b5f80fd5b6112c481611034565b81146112ce575f80fd5b50565b5f813590506112df816112bb565b92915050565b5f602082840312156112fa576112f96112b3565b5b5f611307848285016112d1565b91505092915050565b6113198161106b565b82525050565b5f82825260208201905092915050565b5f6113398261108b565b611343818561131f565b93506113538185602086016110a5565b61135c816110b3565b840191505092915050565b611370816110fb565b82525050565b5f6101008201905061138a5f83018b611282565b611397602083018a611310565b6113a46040830189611310565b81810360608301526113b6818861132f565b905081810360808301526113ca818761132f565b905081810360a08301526113de818661132f565b90506113ed60c0830185611282565b6113fa60e0830184611367565b9998505050505050505050565b5f61010083015f83015161141d5f86018261103d565b506020830151611430602086018261107c565b506040830151611443604086018261107c565b506060830151848203606086015261145b82826110c3565b9150506080830151848203608086015261147582826110c3565b91505060a083015184820360a086015261148f82826110c3565b91505060c08301516114a460c086018261103d565b5060e08301516114b760e0860182611106565b508091505092915050565b5f6020820190508181035f8301526114da8184611407565b905092915050565b5f80fd5b5f80fd5b7f4e487b71000000000000000000000000000000000000000000000000000000005f52604160045260245ffd5b611520826110b3565b810181811067ffffffffffffffff8211171561153f5761153e6114ea565b5b80604052505050565b5f6115516112aa565b905061155d8282611517565b919050565b5f67ffffffffffffffff82111561157c5761157b6114ea565b5b611585826110b3565b9050602081019050919050565b828183375f83830152505050565b5f6115b26115ad84611562565b611548565b9050828152602081018484840111156115ce576115cd6114e6565b5b6115d9848285611592565b509392505050565b5f82601f8301126115f5576115f46114e2565b5b81356116058482602086016115a0565b91505092915050565b5f805f8060808587031215611626576116256112b3565b5b5f85013567ffffffffffffffff811115611643576116426112b7565b5b61164f878288016115e1565b945050602085013567ffffffffffffffff8111156116705761166f6112b7565b5b61167c878288016115e1565b935050604085013567ffffffffffffffff81111561169d5761169c6112b7565b5b6116a9878288016115e1565b92505060606116ba878288016112d1565b91505092959194509250565b7f4e487b71000000000000000000000000000000000000000000000000000000005f52602260045260245ffd5b5f600282049050600182168061170a57607f821691505b60208210810361171d5761171c6116c6565b5b50919050565b7f4974656d20494420646f6573206e6f74206578697374000000000000000000005f82015250565b5f61175760168361131f565b915061176282611723565b602082019050919050565b5f6020820190508181035f8301526117848161174b565b9050919050565b7f4e487b71000000000000000000000000000000000000000000000000000000005f52603260045260245ffd5b7f5072696365206d7573742062652067726561746572207468616e207a65726f005f82015250565b5f6117ec601f8361131f565b91506117f7826117b8565b602082019050919050565b5f6020820190508181035f830152611819816117e0565b9050919050565b5f819050815f5260205f209050919050565b5f6020601f8301049050919050565b5f82821b905092915050565b5f6008830261187c7fffffffffffffffffffffffffffffffffffffffffffffffffffffffffffffffff82611841565b6118868683611841565b95508019841693508086168417925050509392505050565b5f819050919050565b5f6118c16118bc6118b784611034565b61189e565b611034565b9050919050565b5f819050919050565b6118da836118a7565b6118ee6118e6826118c8565b84845461184d565b825550505050565b5f90565b6119026118f6565b61190d8184846118d1565b505050565b5b81811015611930576119255f826118fa565b600181019050611913565b5050565b601f8211156119755761194681611820565b61194f84611832565b8101602085101561195e578190505b61197261196a85611832565b830182611912565b50505b505050565b5f82821c905092915050565b5f6119955f198460080261197a565b1980831691505092915050565b5f6119ad8383611986565b9150826002028217905092915050565b6119c68261108b565b67ffffffffffffffff8111156119df576119de6114ea565b5b6119e982546116f3565b6119f4828285611934565b5f60209050601f831160018114611a25575f8415611a13578287015190505b611a1d85826119a2565b865550611a84565b601f198416611a3386611820565b5f5b82811015611a5a57848901518255600182019150602085019450602081019050611a35565b86831015611a775784890151611a73601f891682611986565b8355505b6001600288020188555050505b505050505050565b5f608082019050611a9f5f830187611282565b8181036020830152611ab1818661132f565b90508181036040830152611ac5818561132f565b9050611ad46060830184611282565b95945050505050565b7f4e487b71000000000000000000000000000000000000000000000000000000005f52601160045260245ffd5b5f611b1482611034565b91507fffffffffffffffffffffffffffffffffffffffffffffffffffffffffffffffff8203611b4657611b45611add565b5b600182019050919050565b7f506c65617365207375626d6974207468652061736b696e6720707269636520695f8201527f6e206f7264657220746f20636f6d706c65746520746865207075726368617365602082015250565b5f611bab60408361131f565b9150611bb682611b51565b604082019050919050565b5f6020820190508181035f830152611bd881611b9f565b9050919050565b7f54686973206974656d2068617320616c7265616479206265656e20736f6c64005f82015250565b5f611c13601f8361131f565b9150611c1e82611bdf565b602082019050919050565b5f6020820190508181035f830152611c4081611c07565b9050919050565b7f4f776e65722063616e6e6f7420627579207468656972206f776e206974656d005f82015250565b5f611c7b601f8361131f565b9150611c8682611c47565b602082019050919050565b5f6020820190508181035f830152611ca881611c6f565b9050919050565b5f81905092915050565b50565b5f611cc75f83611caf565b9150611cd282611cb9565b5f82019050919050565b5f611ce682611cbc565b9150819050919050565b7f4661696c656420746f2073656e642045746865720000000000000000000000005f82015250565b5f611d2460148361131f565b9150611d2f82611cf0565b602082019050919050565b5f6020820190508181035f830152611d5181611d18565b9050919050565b5f604082019050611d6b5f830185611282565b611d786020830184611282565b939250505056fea26469706673582212208099d79f8125cf6b2058c789dde57172b6597597cb855de9c074a533d753755964736f6c63430008190033', \n     arguments: [\n     ]\n}).send({\n     from: web3.eth.accounts[0], \n     gas: '4700000'\n   }, function (e, contract){\n    console.log(e, contract);\n    if (typeof contract.address !== 'undefined') {\n         console.log('Contract mined! address: ' + contract.address + ' transactionHash: ' + contract.transactionHash);\n    }\n })",
	"functionHashes": {
		"e7fb74c7": "buyItem(uint256)",
		"4ba1d6aa": "getAllItems()",
		"cd2f0710": "getItemById(uint256)",
		"6bfb0d01": "itemCount()",
		"bfb231d2": "items(uint256)",
		"d65274c9": "listItem(string,string,string,uint256)"
	},
	"gasEstimates": {
		"Creation": {
			"codeDepositCost": "1521000",
			"executionCost": "6592",
			"totalCost": "1527592"
		},
		"External": {
			"buyItem(uint256)": "infinite",
			"getAllItems()": "infinite",
			"getItemById(uint256)": "infinite",
			"itemCount()": "2425",
			"items(uint256)": "infinite",
			"listItem(string,string,string,uint256)": "infinite"
		}
	},
	"devdoc": {
		"kind": "dev",
		"methods": {},
		"version": 1
	},
	"userdoc": {
		"kind": "user",
		"methods": {},
		"version": 1
	},
	"Runtime Bytecode": {
		"immutableReferences": {},
		"linkReferences": {},
		"object": "608060405260043610610054575f3560e01c80634ba1d6aa146100585780636bfb0d0114610082578063bfb231d2146100ac578063cd2f0710146100ef578063d65274c91461012b578063e7fb74c714610153575b5f80fd5b348015610063575f80fd5b5061006c61016f565b6040516100799190611262565b60405180910390f35b34801561008d575f80fd5b50610096610452565b6040516100a39190611291565b60405180910390f35b3480156100b7575f80fd5b506100d260048036038101906100cd91906112e5565b610458565b6040516100e6989796959493929190611376565b60405180910390f35b3480156100fa575f80fd5b50610115600480360381019061011091906112e5565b610686565b60405161012291906114c2565b60405180910390f35b348015610136575f80fd5b50610151600480360381019061014c919061160e565b61098b565b005b61016d600480360381019061016891906112e5565b610be9565b005b60605f805480602002602001604051908101604052809291908181526020015f905b82821015610449578382905f5260205f209060080201604051806101000160405290815f8201548152602001600182015f9054906101000a900473ffffffffffffffffffffffffffffffffffffffff1673ffffffffffffffffffffffffffffffffffffffff1673ffffffffffffffffffffffffffffffffffffffff168152602001600282015f9054906101000a900473ffffffffffffffffffffffffffffffffffffffff1673ffffffffffffffffffffffffffffffffffffffff1673ffffffffffffffffffffffffffffffffffffffff168152602001600382018054610276906116f3565b80601f01602080910402602001604051908101604052809291908181526020018280546102a2906116f3565b80156102ed5780601f106102c4576101008083540402835291602001916102ed565b820191905f5260205f20905b8154815290600101906020018083116102d057829003601f168201915b50505050508152602001600482018054610306906116f3565b80601f0160208091040260200160405190810160405280929190818152602001828054610332906116f3565b801561037d5780601f106103545761010080835404028352916020019161037d565b820191905f5260205f20905b81548152906001019060200180831161036057829003601f168201915b50505050508152602001600582018054610396906116f3565b80601f01602080910402602001604051908101604052809291908181526020018280546103c2906116f3565b801561040d5780601f106103e45761010080835404028352916020019161040d565b820191905f5260205f20905b8154815290600101906020018083116103f057829003601f168201915b5050505050815260200160068201548152602001600782015f9054906101000a900460ff16151515158152505081526020019060010190610191565b50505050905090565b60015481565b5f8181548110610466575f80fd5b905f5260205f2090600802015f91509050805f015490806001015f9054906101000a900473ffffffffffffffffffffffffffffffffffffffff1690806002015f9054906101000a900473ffffffffffffffffffffffffffffffffffffffff16908060030180546104d5906116f3565b80601f0160208091040260200160405190810160405280929190818152602001828054610501906116f3565b801561054c5780601f106105235761010080835404028352916020019161054c565b820191905f5260205f20905b81548152906001019060200180831161052f57829003601f168201915b505050505090806004018054610561906116f3565b80601f016020809104026020016040519081016040528092919081815260200182805461058d906116f3565b80156105d85780601f106105af576101008083540402835291602001916105d8565b820191905f5260205f20905b8154815290600101906020018083116105bb57829003601f168201915b5050505050908060050180546105ed906116f3565b80601f0160208091040260200160405190810160405280929190818152602001828054610619906116f3565b80156106645780601f1061063b57610100808354040283529160200191610664565b820191905f5260205f20905b81548152906001019060200180831161064757829003601f168201915b505050505090806006015490806007015f9054906101000a900460ff16905088565b61068e610f9d565b60015482106106d2576040517f08c379a00000000000000000000000000000000000000000000000000000000081526004016106c99061176d565b60405180910390fd5b5f82815481106106e5576106e461178b565b5b905f5260205f209060080201604051806101000160405290815f8201548152602001600182015f9054906101000a900473ffffffffffffffffffffffffffffffffffffffff1673ffffffffffffffffffffffffffffffffffffffff1673ffffffffffffffffffffffffffffffffffffffff168152602001600282015f9054906101000a900473ffffffffffffffffffffffffffffffffffffffff1673ffffffffffffffffffffffffffffffffffffffff1673ffffffffffffffffffffffffffffffffffffffff1681526020016003820180546107c0906116f3565b80601f01602080910402602001604051908101604052809291908181526020018280546107ec906116f3565b80156108375780601f1061080e57610100808354040283529160200191610837565b820191905f5260205f20905b81548152906001019060200180831161081a57829003601f168201915b50505050508152602001600482018054610850906116f3565b80601f016020809104026020016040519081016040528092919081815260200182805461087c906116f3565b80156108c75780601f1061089e576101008083540402835291602001916108c7565b820191905f5260205f20905b8154815290600101906020018083116108aa57829003601f168201915b505050505081526020016005820180546108e0906116f3565b80601f016020809104026020016040519081016040528092919081815260200182805461090c906116f3565b80156109575780601f1061092e57610100808354040283529160200191610957565b820191905f5260205f20905b81548152906001019060200180831161093a57829003601f168201915b5050505050815260200160068201548152602001600782015f9054906101000a900460ff1615151515815250509050919050565b5f81116109cd576040517f08c379a00000000000000000000000000000000000000000000000000000000081526004016109c490611802565b60405180910390fd5b5f60405180610100016040528060015481526020013373ffffffffffffffffffffffffffffffffffffffff1681526020013373ffffffffffffffffffffffffffffffffffffffff1681526020018681526020018581526020018481526020018381526020015f1515815250908060018154018082558091505060019003905f5260205f2090600802015f909190919091505f820151815f01556020820151816001015f6101000a81548173ffffffffffffffffffffffffffffffffffffffff021916908373ffffffffffffffffffffffffffffffffffffffff1602179055506040820151816002015f6101000a81548173ffffffffffffffffffffffffffffffffffffffff021916908373ffffffffffffffffffffffffffffffffffffffff1602179055506060820151816003019081610b0791906119bd565b506080820151816004019081610b1d91906119bd565b5060a0820151816005019081610b3391906119bd565b5060c0820151816006015560e0820151816007015f6101000a81548160ff02191690831515021790555050503373ffffffffffffffffffffffffffffffffffffffff163373ffffffffffffffffffffffffffffffffffffffff167fc8cafa36072a4a4aef47b5164eef855aa92fac71ff751e55217e14982720c7fe600154878686604051610bc49493929190611a8c565b60405180910390a360015f815480929190610bde90611b0a565b919050555050505050565b6001548110610c2d576040517f08c379a0000000000000000000000000000000000000000000000000000000008152600401610c249061176d565b60405180910390fd5b5f808281548110610c4157610c4061178b565b5b905f5260205f209060080201905080600601543414610c95576040517f08c379a0000000000000000000000000000000000000000000000000000000008152600401610c8c90611bc1565b60405180910390fd5b806007015f9054906101000a900460ff1615610ce6576040517f08c379a0000000000000000000000000000000000000000000000000000000008152600401610cdd90611c29565b60405180910390fd5b806002015f9054906101000a900473ffffffffffffffffffffffffffffffffffffffff1673ffffffffffffffffffffffffffffffffffffffff163373ffffffffffffffffffffffffffffffffffffffff1603610d77576040517f08c379a0000000000000000000000000000000000000000000000000000000008152600401610d6e90611c91565b60405180910390fd5b5f816002015f9054906101000a900473ffffffffffffffffffffffffffffffffffffffff1673ffffffffffffffffffffffffffffffffffffffff1634604051610dbf90611cdc565b5f6040518083038185875af1925050503d805f8114610df9576040519150601f19603f3d011682016040523d82523d5f602084013e610dfe565b606091505b5050905080610e42576040517f08c379a0000000000000000000000000000000000000000000000000000000008152600401610e3990611d3a565b60405180910390fd5b5f826002015f9054906101000a900473ffffffffffffffffffffffffffffffffffffffff16905033836002015f6101000a81548173ffffffffffffffffffffffffffffffffffffffff021916908373ffffffffffffffffffffffffffffffffffffffff1602179055506001836007015f6101000a81548160ff0219169083151502179055508073ffffffffffffffffffffffffffffffffffffffff163373ffffffffffffffffffffffffffffffffffffffff167fd52bd61f7c422d441e024604f4517878fd3305d6acf0fe37baef23ed21af6bc934604051610f249190611291565b60405180910390a33373ffffffffffffffffffffffffffffffffffffffff168173ffffffffffffffffffffffffffffffffffffffff167f04ddd54c6b746e69ba87f862311f7670bd1d7276846778ac81cd38747b27a746868660060154604051610f8f929190611d58565b60405180910390a350505050565b6040518061010001604052805f81526020015f73ffffffffffffffffffffffffffffffffffffffff1681526020015f73ffffffffffffffffffffffffffffffffffffffff1681526020016060815260200160608152602001606081526020015f81526020015f151581525090565b5f81519050919050565b5f82825260208201905092915050565b5f819050602082019050919050565b5f819050919050565b61104681611034565b82525050565b5f73ffffffffffffffffffffffffffffffffffffffff82169050919050565b5f6110758261104c565b9050919050565b6110858161106b565b82525050565b5f81519050919050565b5f82825260208201905092915050565b8281835e5f83830152505050565b5f601f19601f8301169050919050565b5f6110cd8261108b565b6110d78185611095565b93506110e78185602086016110a5565b6110f0816110b3565b840191505092915050565b5f8115159050919050565b61110f816110fb565b82525050565b5f61010083015f83015161112b5f86018261103d565b50602083015161113e602086018261107c565b506040830151611151604086018261107c565b506060830151848203606086015261116982826110c3565b9150506080830151848203608086015261118382826110c3565b91505060a083015184820360a086015261119d82826110c3565b91505060c08301516111b260c086018261103d565b5060e08301516111c560e0860182611106565b508091505092915050565b5f6111db8383611115565b905092915050565b5f602082019050919050565b5f6111f98261100b565b6112038185611015565b93508360208202850161121585611025565b805f5b85811015611250578484038952815161123185826111d0565b945061123c836111e3565b925060208a01995050600181019050611218565b50829750879550505050505092915050565b5f6020820190508181035f83015261127a81846111ef565b905092915050565b61128b81611034565b82525050565b5f6020820190506112a45f830184611282565b92915050565b5f604051905090565b5f80fd5b5f80fd5b6112c481611034565b81146112ce575f80fd5b50565b5f813590506112df816112bb565b92915050565b5f602082840312156112fa576112f96112b3565b5b5f611307848285016112d1565b91505092915050565b6113198161106b565b82525050565b5f82825260208201905092915050565b5f6113398261108b565b611343818561131f565b93506113538185602086016110a5565b61135c816110b3565b840191505092915050565b611370816110fb565b82525050565b5f6101008201905061138a5f83018b611282565b611397602083018a611310565b6113a46040830189611310565b81810360608301526113b6818861132f565b905081810360808301526113ca818761132f565b905081810360a08301526113de818661132f565b90506113ed60c0830185611282565b6113fa60e0830184611367565b9998505050505050505050565b5f61010083015f83015161141d5f86018261103d565b506020830151611430602086018261107c565b506040830151611443604086018261107c565b506060830151848203606086015261145b82826110c3565b9150506080830151848203608086015261147582826110c3565b91505060a083015184820360a086015261148f82826110c3565b91505060c08301516114a460c086018261103d565b5060e08301516114b760e0860182611106565b508091505092915050565b5f6020820190508181035f8301526114da8184611407565b905092915050565b5f80fd5b5f80fd5b7f4e487b71000000000000000000000000000000000000000000000000000000005f52604160045260245ffd5b611520826110b3565b810181811067ffffffffffffffff8211171561153f5761153e6114ea565b5b80604052505050565b5f6115516112aa565b905061155d8282611517565b919050565b5f67ffffffffffffffff82111561157c5761157b6114ea565b5b611585826110b3565b9050602081019050919050565b828183375f83830152505050565b5f6115b26115ad84611562565b611548565b9050828152602081018484840111156115ce576115cd6114e6565b5b6115d9848285611592565b509392505050565b5f82601f8301126115f5576115f46114e2565b5b81356116058482602086016115a0565b91505092915050565b5f805f8060808587031215611626576116256112b3565b5b5f85013567ffffffffffffffff811115611643576116426112b7565b5b61164f878288016115e1565b945050602085013567ffffffffffffffff8111156116705761166f6112b7565b5b61167c878288016115e1565b935050604085013567ffffffffffffffff81111561169d5761169c6112b7565b5b6116a9878288016115e1565b92505060606116ba878288016112d1565b91505092959194509250565b7f4e487b71000000000000000000000000000000000000000000000000000000005f52602260045260245ffd5b5f600282049050600182168061170a57607f821691505b60208210810361171d5761171c6116c6565b5b50919050565b7f4974656d20494420646f6573206e6f74206578697374000000000000000000005f82015250565b5f61175760168361131f565b915061176282611723565b602082019050919050565b5f6020820190508181035f8301526117848161174b565b9050919050565b7f4e487b71000000000000000000000000000000000000000000000000000000005f52603260045260245ffd5b7f5072696365206d7573742062652067726561746572207468616e207a65726f005f82015250565b5f6117ec601f8361131f565b91506117f7826117b8565b602082019050919050565b5f6020820190508181035f830152611819816117e0565b9050919050565b5f819050815f5260205f209050919050565b5f6020601f8301049050919050565b5f82821b905092915050565b5f6008830261187c7fffffffffffffffffffffffffffffffffffffffffffffffffffffffffffffffff82611841565b6118868683611841565b95508019841693508086168417925050509392505050565b5f819050919050565b5f6118c16118bc6118b784611034565b61189e565b611034565b9050919050565b5f819050919050565b6118da836118a7565b6118ee6118e6826118c8565b84845461184d565b825550505050565b5f90565b6119026118f6565b61190d8184846118d1565b505050565b5b81811015611930576119255f826118fa565b600181019050611913565b5050565b601f8211156119755761194681611820565b61194f84611832565b8101602085101561195e578190505b61197261196a85611832565b830182611912565b50505b505050565b5f82821c905092915050565b5f6119955f198460080261197a565b1980831691505092915050565b5f6119ad8383611986565b9150826002028217905092915050565b6119c68261108b565b67ffffffffffffffff8111156119df576119de6114ea565b5b6119e982546116f3565b6119f4828285611934565b5f60209050601f831160018114611a25575f8415611a13578287015190505b611a1d85826119a2565b865550611a84565b601f198416611a3386611820565b5f5b82811015611a5a57848901518255600182019150602085019450602081019050611a35565b86831015611a775784890151611a73601f891682611986565b8355505b6001600288020188555050505b505050505050565b5f608082019050611a9f5f830187611282565b8181036020830152611ab1818661132f565b90508181036040830152611ac5818561132f565b9050611ad46060830184611282565b95945050505050565b7f4e487b71000000000000000000000000000000000000000000000000000000005f52601160045260245ffd5b5f611b1482611034565b91507fffffffffffffffffffffffffffffffffffffffffffffffffffffffffffffffff8203611b4657611b45611add565b5b600182019050919050565b7f506c65617365207375626d6974207468652061736b696e6720707269636520695f8201527f6e206f7264657220746f20636f6d706c65746520746865207075726368617365602082015250565b5f611bab60408361131f565b9150611bb682611b51565b604082019050919050565b5f6020820190508181035f830152611bd881611b9f565b9050919050565b7f54686973206974656d2068617320616c7265616479206265656e20736f6c64005f82015250565b5f611c13601f8361131f565b9150611c1e82611bdf565b602082019050919050565b5f6020820190508181035f830152611c4081611c07565b9050919050565b7f4f776e65722063616e6e6f7420627579207468656972206f776e206974656d005f82015250565b5f611c7b601f8361131f565b9150611c8682611c47565b602082019050919050565b5f6020820190508181035f830152611ca881611c6f565b9050919050565b5f81905092915050565b50565b5f611cc75f83611caf565b9150611cd282611cb9565b5f82019050919050565b5f611ce682611cbc565b9150819050919050565b7f4661696c656420746f2073656e642045746865720000000000000000000000005f82015250565b5f611d2460148361131f565b9150611d2f82611cf0565b602082019050919050565b5f6020820190508181035f830152611d5181611d18565b9050919050565b5f604082019050611d6b5f830185611282565b611d786020830184611282565b939250505056fea26469706673582212208099d79f8125cf6b2058c789dde57172b6597597cb855de9c074a533d753755964736f6c63430008190033",
		"opcodes": "PUSH1 0x80 PUSH1 0x40 MSTORE PUSH1 0x4 CALLDATASIZE LT PUSH2 0x54 JUMPI PUSH0 CALLDATALOAD PUSH1 0xE0 SHR DUP1 PUSH4 0x4BA1D6AA EQ PUSH2 0x58 JUMPI DUP1 PUSH4 0x6BFB0D01 EQ PUSH2 0x82 JUMPI DUP1 PUSH4 0xBFB231D2 EQ PUSH2 0xAC JUMPI DUP1 PUSH4 0xCD2F0710 EQ PUSH2 0xEF JUMPI DUP1 PUSH4 0xD65274C9 EQ PUSH2 0x12B JUMPI DUP1 PUSH4 0xE7FB74C7 EQ PUSH2 0x153 JUMPI JUMPDEST PUSH0 DUP1 REVERT JUMPDEST CALLVALUE DUP1 ISZERO PUSH2 0x63 JUMPI PUSH0 DUP1 REVERT JUMPDEST POP PUSH2 0x6C PUSH2 0x16F JUMP JUMPDEST PUSH1 0x40 MLOAD PUSH2 0x79 SWAP2 SWAP1 PUSH2 0x1262 JUMP JUMPDEST PUSH1 0x40 MLOAD DUP1 SWAP2 SUB SWAP1 RETURN JUMPDEST CALLVALUE DUP1 ISZERO PUSH2 0x8D JUMPI PUSH0 DUP1 REVERT JUMPDEST POP PUSH2 0x96 PUSH2 0x452 JUMP JUMPDEST PUSH1 0x40 MLOAD PUSH2 0xA3 SWAP2 SWAP1 PUSH2 0x1291 JUMP JUMPDEST PUSH1 0x40 MLOAD DUP1 SWAP2 SUB SWAP1 RETURN JUMPDEST CALLVALUE DUP1 ISZERO PUSH2 0xB7 JUMPI PUSH0 DUP1 REVERT JUMPDEST POP PUSH2 0xD2 PUSH1 0x4 DUP1 CALLDATASIZE SUB DUP2 ADD SWAP1 PUSH2 0xCD SWAP2 SWAP1 PUSH2 0x12E5 JUMP JUMPDEST PUSH2 0x458 JUMP JUMPDEST PUSH1 0x40 MLOAD PUSH2 0xE6 SWAP9 SWAP8 SWAP7 SWAP6 SWAP5 SWAP4 SWAP3 SWAP2 SWAP1 PUSH2 0x1376 JUMP JUMPDEST PUSH1 0x40 MLOAD DUP1 SWAP2 SUB SWAP1 RETURN JUMPDEST CALLVALUE DUP1 ISZERO PUSH2 0xFA JUMPI PUSH0 DUP1 REVERT JUMPDEST POP PUSH2 0x115 PUSH1 0x4 DUP1 CALLDATASIZE SUB DUP2 ADD SWAP1 PUSH2 0x110 SWAP2 SWAP1 PUSH2 0x12E5 JUMP JUMPDEST PUSH2 0x686 JUMP JUMPDEST PUSH1 0x40 MLOAD PUSH2 0x122 SWAP2 SWAP1 PUSH2 0x14C2 JUMP JUMPDEST PUSH1 0x40 MLOAD DUP1 SWAP2 SUB SWAP1 RETURN JUMPDEST CALLVALUE DUP1 ISZERO PUSH2 0x136 JUMPI PUSH0 DUP1 REVERT JUMPDEST POP PUSH2 0x151 PUSH1 0x4 DUP1 CALLDATASIZE SUB DUP2 ADD SWAP1 PUSH2 0x14C SWAP2 SWAP1 PUSH2 0x160E JUMP JUMPDEST PUSH2 0x98B JUMP JUMPDEST STOP JUMPDEST PUSH2 0x16D PUSH1 0x4 DUP1 CALLDATASIZE SUB DUP2 ADD SWAP1 PUSH2 0x168 SWAP2 SWAP1 PUSH2 0x12E5 JUMP JUMPDEST PUSH2 0xBE9 JUMP JUMPDEST STOP JUMPDEST PUSH1 0x60 PUSH0 DUP1 SLOAD DUP1 PUSH1 0x20 MUL PUSH1 0x20 ADD PUSH1 0x40 MLOAD SWAP1 DUP2 ADD PUSH1 0x40 MSTORE DUP1 SWAP3 SWAP2 SWAP1 DUP2 DUP2 MSTORE PUSH1 0x20 ADD PUSH0 SWAP1 JUMPDEST DUP3 DUP3 LT ISZERO PUSH2 0x449 JUMPI DUP4 DUP3 SWAP1 PUSH0 MSTORE PUSH1 0x20 PUSH0 KECCAK256 SWAP1 PUSH1 0x8 MUL ADD PUSH1 0x40 MLOAD DUP1 PUSH2 0x100 ADD PUSH1 0x40 MSTORE SWAP1 DUP2 PUSH0 DUP3 ADD SLOAD DUP2 MSTORE PUSH1 0x20 ADD PUSH1 0x1 DUP3 ADD PUSH0 SWAP1 SLOAD SWAP1 PUSH2 0x100 EXP SWAP1 DIV PUSH20 0xFFFFFFFFFFFFFFFFFFFFFFFFFFFFFFFFFFFFFFFF AND PUSH20 0xFFFFFFFFFFFFFFFFFFFFFFFFFFFFFFFFFFFFFFFF AND PUSH20 0xFFFFFFFFFFFFFFFFFFFFFFFFFFFFFFFFFFFFFFFF AND DUP2 MSTORE PUSH1 0x20 ADD PUSH1 0x2 DUP3 ADD PUSH0 SWAP1 SLOAD SWAP1 PUSH2 0x100 EXP SWAP1 DIV PUSH20 0xFFFFFFFFFFFFFFFFFFFFFFFFFFFFFFFFFFFFFFFF AND PUSH20 0xFFFFFFFFFFFFFFFFFFFFFFFFFFFFFFFFFFFFFFFF AND PUSH20 0xFFFFFFFFFFFFFFFFFFFFFFFFFFFFFFFFFFFFFFFF AND DUP2 MSTORE PUSH1 0x20 ADD PUSH1 0x3 DUP3 ADD DUP1 SLOAD PUSH2 0x276 SWAP1 PUSH2 0x16F3 JUMP JUMPDEST DUP1 PUSH1 0x1F ADD PUSH1 0x20 DUP1 SWAP2 DIV MUL PUSH1 0x20 ADD PUSH1 0x40 MLOAD SWAP1 DUP2 ADD PUSH1 0x40 MSTORE DUP1 SWAP3 SWAP2 SWAP1 DUP2 DUP2 MSTORE PUSH1 0x20 ADD DUP3 DUP1 SLOAD PUSH2 0x2A2 SWAP1 PUSH2 0x16F3 JUMP JUMPDEST DUP1 ISZERO PUSH2 0x2ED JUMPI DUP1 PUSH1 0x1F LT PUSH2 0x2C4 JUMPI PUSH2 0x100 DUP1 DUP4 SLOAD DIV MUL DUP4 MSTORE SWAP2 PUSH1 0x20 ADD SWAP2 PUSH2 0x2ED JUMP JUMPDEST DUP3 ADD SWAP2 SWAP1 PUSH0 MSTORE PUSH1 0x20 PUSH0 KECCAK256 SWAP1 JUMPDEST DUP2 SLOAD DUP2 MSTORE SWAP1 PUSH1 0x1 ADD SWAP1 PUSH1 0x20 ADD DUP1 DUP4 GT PUSH2 0x2D0 JUMPI DUP3 SWAP1 SUB PUSH1 0x1F AND DUP3 ADD SWAP2 JUMPDEST POP POP POP POP POP DUP2 MSTORE PUSH1 0x20 ADD PUSH1 0x4 DUP3 ADD DUP1 SLOAD PUSH2 0x306 SWAP1 PUSH2 0x16F3 JUMP JUMPDEST DUP1 PUSH1 0x1F ADD PUSH1 0x20 DUP1 SWAP2 DIV MUL PUSH1 0x20 ADD PUSH1 0x40 MLOAD SWAP1 DUP2 ADD PUSH1 0x40 MSTORE DUP1 SWAP3 SWAP2 SWAP1 DUP2 DUP2 MSTORE PUSH1 0x20 ADD DUP3 DUP1 SLOAD PUSH2 0x332 SWAP1 PUSH2 0x16F3 JUMP JUMPDEST DUP1 ISZERO PUSH2 0x37D JUMPI DUP1 PUSH1 0x1F LT PUSH2 0x354 JUMPI PUSH2 0x100 DUP1 DUP4 SLOAD DIV MUL DUP4 MSTORE SWAP2 PUSH1 0x20 ADD SWAP2 PUSH2 0x37D JUMP JUMPDEST DUP3 ADD SWAP2 SWAP1 PUSH0 MSTORE PUSH1 0x20 PUSH0 KECCAK256 SWAP1 JUMPDEST DUP2 SLOAD DUP2 MSTORE SWAP1 PUSH1 0x1 ADD SWAP1 PUSH1 0x20 ADD DUP1 DUP4 GT PUSH2 0x360 JUMPI DUP3 SWAP1 SUB PUSH1 0x1F AND DUP3 ADD SWAP2 JUMPDEST POP POP POP POP POP DUP2 MSTORE PUSH1 0x20 ADD PUSH1 0x5 DUP3 ADD DUP1 SLOAD PUSH2 0x396 SWAP1 PUSH2 0x16F3 JUMP JUMPDEST DUP1 PUSH1 0x1F ADD PUSH1 0x20 DUP1 SWAP2 DIV MUL PUSH1 0x20 ADD PUSH1 0x40 MLOAD SWAP1 DUP2 ADD PUSH1 0x40 MSTORE DUP1 SWAP3 SWAP2 SWAP1 DUP2 DUP2 MSTORE PUSH1 0x20 ADD DUP3 DUP1 SLOAD PUSH2 0x3C2 SWAP1 PUSH2 0x16F3 JUMP JUMPDEST DUP1 ISZERO PUSH2 0x40D JUMPI DUP1 PUSH1 0x1F LT PUSH2 0x3E4 JUMPI PUSH2 0x100 DUP1 DUP4 SLOAD DIV MUL DUP4 MSTORE SWAP2 PUSH1 0x20 ADD SWAP2 PUSH2 0x40D JUMP JUMPDEST DUP3 ADD SWAP2 SWAP1 PUSH0 MSTORE PUSH1 0x20 PUSH0 KECCAK256 SWAP1 JUMPDEST DUP2 SLOAD DUP2 MSTORE SWAP1 PUSH1 0x1 ADD SWAP1 PUSH1 0x20 ADD DUP1 DUP4 GT PUSH2 0x3F0 JUMPI DUP3 SWAP1 SUB PUSH1 0x1F AND DUP3 ADD SWAP2 JUMPDEST POP POP POP POP POP DUP2 MSTORE PUSH1 0x20 ADD PUSH1 0x6 DUP3 ADD SLOAD DUP2 MSTORE PUSH1 0x20 ADD PUSH1 0x7 DUP3 ADD PUSH0 SWAP1 SLOAD SWAP1 PUSH2 0x100 EXP SWAP1 DIV PUSH1 0xFF AND ISZERO ISZERO ISZERO ISZERO DUP2 MSTORE POP POP DUP2 MSTORE PUSH1 0x20 ADD SWAP1 PUSH1 0x1 ADD SWAP1 PUSH2 0x191 JUMP JUMPDEST POP POP POP POP SWAP1 POP SWAP1 JUMP JUMPDEST PUSH1 0x1 SLOAD DUP2 JUMP JUMPDEST PUSH0 DUP2 DUP2 SLOAD DUP2 LT PUSH2 0x466 JUMPI PUSH0 DUP1 REVERT JUMPDEST SWAP1 PUSH0 MSTORE PUSH1 0x20 PUSH0 KECCAK256 SWAP1 PUSH1 0x8 MUL ADD PUSH0 SWAP2 POP SWAP1 POP DUP1 PUSH0 ADD SLOAD SWAP1 DUP1 PUSH1 0x1 ADD PUSH0 SWAP1 SLOAD SWAP1 PUSH2 0x100 EXP SWAP1 DIV PUSH20 0xFFFFFFFFFFFFFFFFFFFFFFFFFFFFFFFFFFFFFFFF AND SWAP1 DUP1 PUSH1 0x2 ADD PUSH0 SWAP1 SLOAD SWAP1 PUSH2 0x100 EXP SWAP1 DIV PUSH20 0xFFFFFFFFFFFFFFFFFFFFFFFFFFFFFFFFFFFFFFFF AND SWAP1 DUP1 PUSH1 0x3 ADD DUP1 SLOAD PUSH2 0x4D5 SWAP1 PUSH2 0x16F3 JUMP JUMPDEST DUP1 PUSH1 0x1F ADD PUSH1 0x20 DUP1 SWAP2 DIV MUL PUSH1 0x20 ADD PUSH1 0x40 MLOAD SWAP1 DUP2 ADD PUSH1 0x40 MSTORE DUP1 SWAP3 SWAP2 SWAP1 DUP2 DUP2 MSTORE PUSH1 0x20 ADD DUP3 DUP1 SLOAD PUSH2 0x501 SWAP1 PUSH2 0x16F3 JUMP JUMPDEST DUP1 ISZERO PUSH2 0x54C JUMPI DUP1 PUSH1 0x1F LT PUSH2 0x523 JUMPI PUSH2 0x100 DUP1 DUP4 SLOAD DIV MUL DUP4 MSTORE SWAP2 PUSH1 0x20 ADD SWAP2 PUSH2 0x54C JUMP JUMPDEST DUP3 ADD SWAP2 SWAP1 PUSH0 MSTORE PUSH1 0x20 PUSH0 KECCAK256 SWAP1 JUMPDEST DUP2 SLOAD DUP2 MSTORE SWAP1 PUSH1 0x1 ADD SWAP1 PUSH1 0x20 ADD DUP1 DUP4 GT PUSH2 0x52F JUMPI DUP3 SWAP1 SUB PUSH1 0x1F AND DUP3 ADD SWAP2 JUMPDEST POP POP POP POP POP SWAP1 DUP1 PUSH1 0x4 ADD DUP1 SLOAD PUSH2 0x561 SWAP1 PUSH2 0x16F3 JUMP JUMPDEST DUP1 PUSH1 0x1F ADD PUSH1 0x20 DUP1 SWAP2 DIV MUL PUSH1 0x20 ADD PUSH1 0x40 MLOAD SWAP1 DUP2 ADD PUSH1 0x40 MSTORE DUP1 SWAP3 SWAP2 SWAP1 DUP2 DUP2 MSTORE PUSH1 0x20 ADD DUP3 DUP1 SLOAD PUSH2 0x58D SWAP1 PUSH2 0x16F3 JUMP JUMPDEST DUP1 ISZERO PUSH2 0x5D8 JUMPI DUP1 PUSH1 0x1F LT PUSH2 0x5AF JUMPI PUSH2 0x100 DUP1 DUP4 SLOAD DIV MUL DUP4 MSTORE SWAP2 PUSH1 0x20 ADD SWAP2 PUSH2 0x5D8 JUMP JUMPDEST DUP3 ADD SWAP2 SWAP1 PUSH0 MSTORE PUSH1 0x20 PUSH0 KECCAK256 SWAP1 JUMPDEST DUP2 SLOAD DUP2 MSTORE SWAP1 PUSH1 0x1 ADD SWAP1 PUSH1 0x20 ADD DUP1 DUP4 GT PUSH2 0x5BB JUMPI DUP3 SWAP1 SUB PUSH1 0x1F AND DUP3 ADD SWAP2 JUMPDEST POP POP POP POP POP SWAP1 DUP1 PUSH1 0x5 ADD DUP1 SLOAD PUSH2 0x5ED SWAP1 PUSH2 0x16F3 JUMP JUMPDEST DUP1 PUSH1 0x1F ADD PUSH1 0x20 DUP1 SWAP2 DIV MUL PUSH1 0x20 ADD PUSH1 0x40 MLOAD SWAP1 DUP2 ADD PUSH1 0x40 MSTORE DUP1 SWAP3 SWAP2 SWAP1 DUP2 DUP2 MSTORE PUSH1 0x20 ADD DUP3 DUP1 SLOAD PUSH2 0x619 SWAP1 PUSH2 0x16F3 JUMP JUMPDEST DUP1 ISZERO PUSH2 0x664 JUMPI DUP1 PUSH1 0x1F LT PUSH2 0x63B JUMPI PUSH2 0x100 DUP1 DUP4 SLOAD DIV MUL DUP4 MSTORE SWAP2 PUSH1 0x20 ADD SWAP2 PUSH2 0x664 JUMP JUMPDEST DUP3 ADD SWAP2 SWAP1 PUSH0 MSTORE PUSH1 0x20 PUSH0 KECCAK256 SWAP1 JUMPDEST DUP2 SLOAD DUP2 MSTORE SWAP1 PUSH1 0x1 ADD SWAP1 PUSH1 0x20 ADD DUP1 DUP4 GT PUSH2 0x647 JUMPI DUP3 SWAP1 SUB PUSH1 0x1F AND DUP3 ADD SWAP2 JUMPDEST POP POP POP POP POP SWAP1 DUP1 PUSH1 0x6 ADD SLOAD SWAP1 DUP1 PUSH1 0x7 ADD PUSH0 SWAP1 SLOAD SWAP1 PUSH2 0x100 EXP SWAP1 DIV PUSH1 0xFF AND SWAP1 POP DUP9 JUMP JUMPDEST PUSH2 0x68E PUSH2 0xF9D JUMP JUMPDEST PUSH1 0x1 SLOAD DUP3 LT PUSH2 0x6D2 JUMPI PUSH1 0x40 MLOAD PUSH32 0x8C379A000000000000000000000000000000000000000000000000000000000 DUP2 MSTORE PUSH1 0x4 ADD PUSH2 0x6C9 SWAP1 PUSH2 0x176D JUMP JUMPDEST PUSH1 0x40 MLOAD DUP1 SWAP2 SUB SWAP1 REVERT JUMPDEST PUSH0 DUP3 DUP2 SLOAD DUP2 LT PUSH2 0x6E5 JUMPI PUSH2 0x6E4 PUSH2 0x178B JUMP JUMPDEST JUMPDEST SWAP1 PUSH0 MSTORE PUSH1 0x20 PUSH0 KECCAK256 SWAP1 PUSH1 0x8 MUL ADD PUSH1 0x40 MLOAD DUP1 PUSH2 0x100 ADD PUSH1 0x40 MSTORE SWAP1 DUP2 PUSH0 DUP3 ADD SLOAD DUP2 MSTORE PUSH1 0x20 ADD PUSH1 0x1 DUP3 ADD PUSH0 SWAP1 SLOAD SWAP1 PUSH2 0x100 EXP SWAP1 DIV PUSH20 0xFFFFFFFFFFFFFFFFFFFFFFFFFFFFFFFFFFFFFFFF AND PUSH20 0xFFFFFFFFFFFFFFFFFFFFFFFFFFFFFFFFFFFFFFFF AND PUSH20 0xFFFFFFFFFFFFFFFFFFFFFFFFFFFFFFFFFFFFFFFF AND DUP2 MSTORE PUSH1 0x20 ADD PUSH1 0x2 DUP3 ADD PUSH0 SWAP1 SLOAD SWAP1 PUSH2 0x100 EXP SWAP1 DIV PUSH20 0xFFFFFFFFFFFFFFFFFFFFFFFFFFFFFFFFFFFFFFFF AND PUSH20 0xFFFFFFFFFFFFFFFFFFFFFFFFFFFFFFFFFFFFFFFF AND PUSH20 0xFFFFFFFFFFFFFFFFFFFFFFFFFFFFFFFFFFFFFFFF AND DUP2 MSTORE PUSH1 0x20 ADD PUSH1 0x3 DUP3 ADD DUP1 SLOAD PUSH2 0x7C0 SWAP1 PUSH2 0x16F3 JUMP JUMPDEST DUP1 PUSH1 0x1F ADD PUSH1 0x20 DUP1 SWAP2 DIV MUL PUSH1 0x20 ADD PUSH1 0x40 MLOAD SWAP1 DUP2 ADD PUSH1 0x40 MSTORE DUP1 SWAP3 SWAP2 SWAP1 DUP2 DUP2 MSTORE PUSH1 0x20 ADD DUP3 DUP1 SLOAD PUSH2 0x7EC SWAP1 PUSH2 0x16F3 JUMP JUMPDEST DUP1 ISZERO PUSH2 0x837 JUMPI DUP1 PUSH1 0x1F LT PUSH2 0x80E JUMPI PUSH2 0x100 DUP1 DUP4 SLOAD DIV MUL DUP4 MSTORE SWAP2 PUSH1 0x20 ADD SWAP2 PUSH2 0x837 JUMP JUMPDEST DUP3 ADD SWAP2 SWAP1 PUSH0 MSTORE PUSH1 0x20 PUSH0 KECCAK256 SWAP1 JUMPDEST DUP2 SLOAD DUP2 MSTORE SWAP1 PUSH1 0x1 ADD SWAP1 PUSH1 0x20 ADD DUP1 DUP4 GT PUSH2 0x81A JUMPI DUP3 SWAP1 SUB PUSH1 0x1F AND DUP3 ADD SWAP2 JUMPDEST POP POP POP POP POP DUP2 MSTORE PUSH1 0x20 ADD PUSH1 0x4 DUP3 ADD DUP1 SLOAD PUSH2 0x850 SWAP1 PUSH2 0x16F3 JUMP JUMPDEST DUP1 PUSH1 0x1F ADD PUSH1 0x20 DUP1 SWAP2 DIV MUL PUSH1 0x20 ADD PUSH1 0x40 MLOAD SWAP1 DUP2 ADD PUSH1 0x40 MSTORE DUP1 SWAP3 SWAP2 SWAP1 DUP2 DUP2 MSTORE PUSH1 0x20 ADD DUP3 DUP1 SLOAD PUSH2 0x87C SWAP1 PUSH2 0x16F3 JUMP JUMPDEST DUP1 ISZERO PUSH2 0x8C7 JUMPI DUP1 PUSH1 0x1F LT PUSH2 0x89E JUMPI PUSH2 0x100 DUP1 DUP4 SLOAD DIV MUL DUP4 MSTORE SWAP2 PUSH1 0x20 ADD SWAP2 PUSH2 0x8C7 JUMP JUMPDEST DUP3 ADD SWAP2 SWAP1 PUSH0 MSTORE PUSH1 0x20 PUSH0 KECCAK256 SWAP1 JUMPDEST DUP2 SLOAD DUP2 MSTORE SWAP1 PUSH1 0x1 ADD SWAP1 PUSH1 0x20 ADD DUP1 DUP4 GT PUSH2 0x8AA JUMPI DUP3 SWAP1 SUB PUSH1 0x1F AND DUP3 ADD SWAP2 JUMPDEST POP POP POP POP POP DUP2 MSTORE PUSH1 0x20 ADD PUSH1 0x5 DUP3 ADD DUP1 SLOAD PUSH2 0x8E0 SWAP1 PUSH2 0x16F3 JUMP JUMPDEST DUP1 PUSH1 0x1F ADD PUSH1 0x20 DUP1 SWAP2 DIV MUL PUSH1 0x20 ADD PUSH1 0x40 MLOAD SWAP1 DUP2 ADD PUSH1 0x40 MSTORE DUP1 SWAP3 SWAP2 SWAP1 DUP2 DUP2 MSTORE PUSH1 0x20 ADD DUP3 DUP1 SLOAD PUSH2 0x90C SWAP1 PUSH2 0x16F3 JUMP JUMPDEST DUP1 ISZERO PUSH2 0x957 JUMPI DUP1 PUSH1 0x1F LT PUSH2 0x92E JUMPI PUSH2 0x100 DUP1 DUP4 SLOAD DIV MUL DUP4 MSTORE SWAP2 PUSH1 0x20 ADD SWAP2 PUSH2 0x957 JUMP JUMPDEST DUP3 ADD SWAP2 SWAP1 PUSH0 MSTORE PUSH1 0x20 PUSH0 KECCAK256 SWAP1 JUMPDEST DUP2 SLOAD DUP2 MSTORE SWAP1 PUSH1 0x1 ADD SWAP1 PUSH1 0x20 ADD DUP1 DUP4 GT PUSH2 0x93A JUMPI DUP3 SWAP1 SUB PUSH1 0x1F AND DUP3 ADD SWAP2 JUMPDEST POP POP POP POP POP DUP2 MSTORE PUSH1 0x20 ADD PUSH1 0x6 DUP3 ADD SLOAD DUP2 MSTORE PUSH1 0x20 ADD PUSH1 0x7 DUP3 ADD PUSH0 SWAP1 SLOAD SWAP1 PUSH2 0x100 EXP SWAP1 DIV PUSH1 0xFF AND ISZERO ISZERO ISZERO ISZERO DUP2 MSTORE POP POP SWAP1 POP SWAP2 SWAP1 POP JUMP JUMPDEST PUSH0 DUP2 GT PUSH2 0x9CD JUMPI PUSH1 0x40 MLOAD PUSH32 0x8C379A000000000000000000000000000000000000000000000000000000000 DUP2 MSTORE PUSH1 0x4 ADD PUSH2 0x9C4 SWAP1 PUSH2 0x1802 JUMP JUMPDEST PUSH1 0x40 MLOAD DUP1 SWAP2 SUB SWAP1 REVERT JUMPDEST PUSH0 PUSH1 0x40 MLOAD DUP1 PUSH2 0x100 ADD PUSH1 0x40 MSTORE DUP1 PUSH1 0x1 SLOAD DUP2 MSTORE PUSH1 0x20 ADD CALLER PUSH20 0xFFFFFFFFFFFFFFFFFFFFFFFFFFFFFFFFFFFFFFFF AND DUP2 MSTORE PUSH1 0x20 ADD CALLER PUSH20 0xFFFFFFFFFFFFFFFFFFFFFFFFFFFFFFFFFFFFFFFF AND DUP2 MSTORE PUSH1 0x20 ADD DUP7 DUP2 MSTORE PUSH1 0x20 ADD DUP6 DUP2 MSTORE PUSH1 0x20 ADD DUP5 DUP2 MSTORE PUSH1 0x20 ADD DUP4 DUP2 MSTORE PUSH1 0x20 ADD PUSH0 ISZERO ISZERO DUP2 MSTORE POP SWAP1 DUP1 PUSH1 0x1 DUP2 SLOAD ADD DUP1 DUP3 SSTORE DUP1 SWAP2 POP POP PUSH1 0x1 SWAP1 SUB SWAP1 PUSH0 MSTORE PUSH1 0x20 PUSH0 KECCAK256 SWAP1 PUSH1 0x8 MUL ADD PUSH0 SWAP1 SWAP2 SWAP1 SWAP2 SWAP1 SWAP2 POP PUSH0 DUP3 ADD MLOAD DUP2 PUSH0 ADD SSTORE PUSH1 0x20 DUP3 ADD MLOAD DUP2 PUSH1 0x1 ADD PUSH0 PUSH2 0x100 EXP DUP2 SLOAD DUP2 PUSH20 0xFFFFFFFFFFFFFFFFFFFFFFFFFFFFFFFFFFFFFFFF MUL NOT AND SWAP1 DUP4 PUSH20 0xFFFFFFFFFFFFFFFFFFFFFFFFFFFFFFFFFFFFFFFF AND MUL OR SWAP1 SSTORE POP PUSH1 0x40 DUP3 ADD MLOAD DUP2 PUSH1 0x2 ADD PUSH0 PUSH2 0x100 EXP DUP2 SLOAD DUP2 PUSH20 0xFFFFFFFFFFFFFFFFFFFFFFFFFFFFFFFFFFFFFFFF MUL NOT AND SWAP1 DUP4 PUSH20 0xFFFFFFFFFFFFFFFFFFFFFFFFFFFFFFFFFFFFFFFF AND MUL OR SWAP1 SSTORE POP PUSH1 0x60 DUP3 ADD MLOAD DUP2 PUSH1 0x3 ADD SWAP1 DUP2 PUSH2 0xB07 SWAP2 SWAP1 PUSH2 0x19BD JUMP JUMPDEST POP PUSH1 0x80 DUP3 ADD MLOAD DUP2 PUSH1 0x4 ADD SWAP1 DUP2 PUSH2 0xB1D SWAP2 SWAP1 PUSH2 0x19BD JUMP JUMPDEST POP PUSH1 0xA0 DUP3 ADD MLOAD DUP2 PUSH1 0x5 ADD SWAP1 DUP2 PUSH2 0xB33 SWAP2 SWAP1 PUSH2 0x19BD JUMP JUMPDEST POP PUSH1 0xC0 DUP3 ADD MLOAD DUP2 PUSH1 0x6 ADD SSTORE PUSH1 0xE0 DUP3 ADD MLOAD DUP2 PUSH1 0x7 ADD PUSH0 PUSH2 0x100 EXP DUP2 SLOAD DUP2 PUSH1 0xFF MUL NOT AND SWAP1 DUP4 ISZERO ISZERO MUL OR SWAP1 SSTORE POP POP POP CALLER PUSH20 0xFFFFFFFFFFFFFFFFFFFFFFFFFFFFFFFFFFFFFFFF AND CALLER PUSH20 0xFFFFFFFFFFFFFFFFFFFFFFFFFFFFFFFFFFFFFFFF AND PUSH32 0xC8CAFA36072A4A4AEF47B5164EEF855AA92FAC71FF751E55217E14982720C7FE PUSH1 0x1 SLOAD DUP8 DUP7 DUP7 PUSH1 0x40 MLOAD PUSH2 0xBC4 SWAP5 SWAP4 SWAP3 SWAP2 SWAP1 PUSH2 0x1A8C JUMP JUMPDEST PUSH1 0x40 MLOAD DUP1 SWAP2 SUB SWAP1 LOG3 PUSH1 0x1 PUSH0 DUP2 SLOAD DUP1 SWAP3 SWAP2 SWAP1 PUSH2 0xBDE SWAP1 PUSH2 0x1B0A JUMP JUMPDEST SWAP2 SWAP1 POP SSTORE POP POP POP POP POP JUMP JUMPDEST PUSH1 0x1 SLOAD DUP2 LT PUSH2 0xC2D JUMPI PUSH1 0x40 MLOAD PUSH32 0x8C379A000000000000000000000000000000000000000000000000000000000 DUP2 MSTORE PUSH1 0x4 ADD PUSH2 0xC24 SWAP1 PUSH2 0x176D JUMP JUMPDEST PUSH1 0x40 MLOAD DUP1 SWAP2 SUB SWAP1 REVERT JUMPDEST PUSH0 DUP1 DUP3 DUP2 SLOAD DUP2 LT PUSH2 0xC41 JUMPI PUSH2 0xC40 PUSH2 0x178B JUMP JUMPDEST JUMPDEST SWAP1 PUSH0 MSTORE PUSH1 0x20 PUSH0 KECCAK256 SWAP1 PUSH1 0x8 MUL ADD SWAP1 POP DUP1 PUSH1 0x6 ADD SLOAD CALLVALUE EQ PUSH2 0xC95 JUMPI PUSH1 0x40 MLOAD PUSH32 0x8C379A000000000000000000000000000000000000000000000000000000000 DUP2 MSTORE PUSH1 0x4 ADD PUSH2 0xC8C SWAP1 PUSH2 0x1BC1 JUMP JUMPDEST PUSH1 0x40 MLOAD DUP1 SWAP2 SUB SWAP1 REVERT JUMPDEST DUP1 PUSH1 0x7 ADD PUSH0 SWAP1 SLOAD SWAP1 PUSH2 0x100 EXP SWAP1 DIV PUSH1 0xFF AND ISZERO PUSH2 0xCE6 JUMPI PUSH1 0x40 MLOAD PUSH32 0x8C379A000000000000000000000000000000000000000000000000000000000 DUP2 MSTORE PUSH1 0x4 ADD PUSH2 0xCDD SWAP1 PUSH2 0x1C29 JUMP JUMPDEST PUSH1 0x40 MLOAD DUP1 SWAP2 SUB SWAP1 REVERT JUMPDEST DUP1 PUSH1 0x2 ADD PUSH0 SWAP1 SLOAD SWAP1 PUSH2 0x100 EXP SWAP1 DIV PUSH20 0xFFFFFFFFFFFFFFFFFFFFFFFFFFFFFFFFFFFFFFFF AND PUSH20 0xFFFFFFFFFFFFFFFFFFFFFFFFFFFFFFFFFFFFFFFF AND CALLER PUSH20 0xFFFFFFFFFFFFFFFFFFFFFFFFFFFFFFFFFFFFFFFF AND SUB PUSH2 0xD77 JUMPI PUSH1 0x40 MLOAD PUSH32 0x8C379A000000000000000000000000000000000000000000000000000000000 DUP2 MSTORE PUSH1 0x4 ADD PUSH2 0xD6E SWAP1 PUSH2 0x1C91 JUMP JUMPDEST PUSH1 0x40 MLOAD DUP1 SWAP2 SUB SWAP1 REVERT JUMPDEST PUSH0 DUP2 PUSH1 0x2 ADD PUSH0 SWAP1 SLOAD SWAP1 PUSH2 0x100 EXP SWAP1 DIV PUSH20 0xFFFFFFFFFFFFFFFFFFFFFFFFFFFFFFFFFFFFFFFF AND PUSH20 0xFFFFFFFFFFFFFFFFFFFFFFFFFFFFFFFFFFFFFFFF AND CALLVALUE PUSH1 0x40 MLOAD PUSH2 0xDBF SWAP1 PUSH2 0x1CDC JUMP JUMPDEST PUSH0 PUSH1 0x40 MLOAD DUP1 DUP4 SUB DUP2 DUP6 DUP8 GAS CALL SWAP3 POP POP POP RETURNDATASIZE DUP1 PUSH0 DUP2 EQ PUSH2 0xDF9 JUMPI PUSH1 0x40 MLOAD SWAP2 POP PUSH1 0x1F NOT PUSH1 0x3F RETURNDATASIZE ADD AND DUP3 ADD PUSH1 0x40 MSTORE RETURNDATASIZE DUP3 MSTORE RETURNDATASIZE PUSH0 PUSH1 0x20 DUP5 ADD RETURNDATACOPY PUSH2 0xDFE JUMP JUMPDEST PUSH1 0x60 SWAP2 POP JUMPDEST POP POP SWAP1 POP DUP1 PUSH2 0xE42 JUMPI PUSH1 0x40 MLOAD PUSH32 0x8C379A000000000000000000000000000000000000000000000000000000000 DUP2 MSTORE PUSH1 0x4 ADD PUSH2 0xE39 SWAP1 PUSH2 0x1D3A JUMP JUMPDEST PUSH1 0x40 MLOAD DUP1 SWAP2 SUB SWAP1 REVERT JUMPDEST PUSH0 DUP3 PUSH1 0x2 ADD PUSH0 SWAP1 SLOAD SWAP1 PUSH2 0x100 EXP SWAP1 DIV PUSH20 0xFFFFFFFFFFFFFFFFFFFFFFFFFFFFFFFFFFFFFFFF AND SWAP1 POP CALLER DUP4 PUSH1 0x2 ADD PUSH0 PUSH2 0x100 EXP DUP2 SLOAD DUP2 PUSH20 0xFFFFFFFFFFFFFFFFFFFFFFFFFFFFFFFFFFFFFFFF MUL NOT AND SWAP1 DUP4 PUSH20 0xFFFFFFFFFFFFFFFFFFFFFFFFFFFFFFFFFFFFFFFF AND MUL OR SWAP1 SSTORE POP PUSH1 0x1 DUP4 PUSH1 0x7 ADD PUSH0 PUSH2 0x100 EXP DUP2 SLOAD DUP2 PUSH1 0xFF MUL NOT AND SWAP1 DUP4 ISZERO ISZERO MUL OR SWAP1 SSTORE POP DUP1 PUSH20 0xFFFFFFFFFFFFFFFFFFFFFFFFFFFFFFFFFFFFFFFF AND CALLER PUSH20 0xFFFFFFFFFFFFFFFFFFFFFFFFFFFFFFFFFFFFFFFF AND PUSH32 0xD52BD61F7C422D441E024604F4517878FD3305D6ACF0FE37BAEF23ED21AF6BC9 CALLVALUE PUSH1 0x40 MLOAD PUSH2 0xF24 SWAP2 SWAP1 PUSH2 0x1291 JUMP JUMPDEST PUSH1 0x40 MLOAD DUP1 SWAP2 SUB SWAP1 LOG3 CALLER PUSH20 0xFFFFFFFFFFFFFFFFFFFFFFFFFFFFFFFFFFFFFFFF AND DUP2 PUSH20 0xFFFFFFFFFFFFFFFFFFFFFFFFFFFFFFFFFFFFFFFF AND PUSH32 0x4DDD54C6B746E69BA87F862311F7670BD1D7276846778AC81CD38747B27A746 DUP7 DUP7 PUSH1 0x6 ADD SLOAD PUSH1 0x40 MLOAD PUSH2 0xF8F SWAP3 SWAP2 SWAP1 PUSH2 0x1D58 JUMP JUMPDEST PUSH1 0x40 MLOAD DUP1 SWAP2 SUB SWAP1 LOG3 POP POP POP POP JUMP JUMPDEST PUSH1 0x40 MLOAD DUP1 PUSH2 0x100 ADD PUSH1 0x40 MSTORE DUP1 PUSH0 DUP2 MSTORE PUSH1 0x20 ADD PUSH0 PUSH20 0xFFFFFFFFFFFFFFFFFFFFFFFFFFFFFFFFFFFFFFFF AND DUP2 MSTORE PUSH1 0x20 ADD PUSH0 PUSH20 0xFFFFFFFFFFFFFFFFFFFFFFFFFFFFFFFFFFFFFFFF AND DUP2 MSTORE PUSH1 0x20 ADD PUSH1 0x60 DUP2 MSTORE PUSH1 0x20 ADD PUSH1 0x60 DUP2 MSTORE PUSH1 0x20 ADD PUSH1 0x60 DUP2 MSTORE PUSH1 0x20 ADD PUSH0 DUP2 MSTORE PUSH1 0x20 ADD PUSH0 ISZERO ISZERO DUP2 MSTORE POP SWAP1 JUMP JUMPDEST PUSH0 DUP2 MLOAD SWAP1 POP SWAP2 SWAP1 POP JUMP JUMPDEST PUSH0 DUP3 DUP3 MSTORE PUSH1 0x20 DUP3 ADD SWAP1 POP SWAP3 SWAP2 POP POP JUMP JUMPDEST PUSH0 DUP2 SWAP1 POP PUSH1 0x20 DUP3 ADD SWAP1 POP SWAP2 SWAP1 POP JUMP JUMPDEST PUSH0 DUP2 SWAP1 POP SWAP2 SWAP1 POP JUMP JUMPDEST PUSH2 0x1046 DUP2 PUSH2 0x1034 JUMP JUMPDEST DUP3 MSTORE POP POP JUMP JUMPDEST PUSH0 PUSH20 0xFFFFFFFFFFFFFFFFFFFFFFFFFFFFFFFFFFFFFFFF DUP3 AND SWAP1 POP SWAP2 SWAP1 POP JUMP JUMPDEST PUSH0 PUSH2 0x1075 DUP3 PUSH2 0x104C JUMP JUMPDEST SWAP1 POP SWAP2 SWAP1 POP JUMP JUMPDEST PUSH2 0x1085 DUP2 PUSH2 0x106B JUMP JUMPDEST DUP3 MSTORE POP POP JUMP JUMPDEST PUSH0 DUP2 MLOAD SWAP1 POP SWAP2 SWAP1 POP JUMP JUMPDEST PUSH0 DUP3 DUP3 MSTORE PUSH1 0x20 DUP3 ADD SWAP1 POP SWAP3 SWAP2 POP POP JUMP JUMPDEST DUP3 DUP2 DUP4 MCOPY PUSH0 DUP4 DUP4 ADD MSTORE POP POP POP JUMP JUMPDEST PUSH0 PUSH1 0x1F NOT PUSH1 0x1F DUP4 ADD AND SWAP1 POP SWAP2 SWAP1 POP JUMP JUMPDEST PUSH0 PUSH2 0x10CD DUP3 PUSH2 0x108B JUMP JUMPDEST PUSH2 0x10D7 DUP2 DUP6 PUSH2 0x1095 JUMP JUMPDEST SWAP4 POP PUSH2 0x10E7 DUP2 DUP6 PUSH1 0x20 DUP7 ADD PUSH2 0x10A5 JUMP JUMPDEST PUSH2 0x10F0 DUP2 PUSH2 0x10B3 JUMP JUMPDEST DUP5 ADD SWAP2 POP POP SWAP3 SWAP2 POP POP JUMP JUMPDEST PUSH0 DUP2 ISZERO ISZERO SWAP1 POP SWAP2 SWAP1 POP JUMP JUMPDEST PUSH2 0x110F DUP2 PUSH2 0x10FB JUMP JUMPDEST DUP3 MSTORE POP POP JUMP JUMPDEST PUSH0 PUSH2 0x100 DUP4 ADD PUSH0 DUP4 ADD MLOAD PUSH2 0x112B PUSH0 DUP7 ADD DUP3 PUSH2 0x103D JUMP JUMPDEST POP PUSH1 0x20 DUP4 ADD MLOAD PUSH2 0x113E PUSH1 0x20 DUP7 ADD DUP3 PUSH2 0x107C JUMP JUMPDEST POP PUSH1 0x40 DUP4 ADD MLOAD PUSH2 0x1151 PUSH1 0x40 DUP7 ADD DUP3 PUSH2 0x107C JUMP JUMPDEST POP PUSH1 0x60 DUP4 ADD MLOAD DUP5 DUP3 SUB PUSH1 0x60 DUP7 ADD MSTORE PUSH2 0x1169 DUP3 DUP3 PUSH2 0x10C3 JUMP JUMPDEST SWAP2 POP POP PUSH1 0x80 DUP4 ADD MLOAD DUP5 DUP3 SUB PUSH1 0x80 DUP7 ADD MSTORE PUSH2 0x1183 DUP3 DUP3 PUSH2 0x10C3 JUMP JUMPDEST SWAP2 POP POP PUSH1 0xA0 DUP4 ADD MLOAD DUP5 DUP3 SUB PUSH1 0xA0 DUP7 ADD MSTORE PUSH2 0x119D DUP3 DUP3 PUSH2 0x10C3 JUMP JUMPDEST SWAP2 POP POP PUSH1 0xC0 DUP4 ADD MLOAD PUSH2 0x11B2 PUSH1 0xC0 DUP7 ADD DUP3 PUSH2 0x103D JUMP JUMPDEST POP PUSH1 0xE0 DUP4 ADD MLOAD PUSH2 0x11C5 PUSH1 0xE0 DUP7 ADD DUP3 PUSH2 0x1106 JUMP JUMPDEST POP DUP1 SWAP2 POP POP SWAP3 SWAP2 POP POP JUMP JUMPDEST PUSH0 PUSH2 0x11DB DUP4 DUP4 PUSH2 0x1115 JUMP JUMPDEST SWAP1 POP SWAP3 SWAP2 POP POP JUMP JUMPDEST PUSH0 PUSH1 0x20 DUP3 ADD SWAP1 POP SWAP2 SWAP1 POP JUMP JUMPDEST PUSH0 PUSH2 0x11F9 DUP3 PUSH2 0x100B JUMP JUMPDEST PUSH2 0x1203 DUP2 DUP6 PUSH2 0x1015 JUMP JUMPDEST SWAP4 POP DUP4 PUSH1 0x20 DUP3 MUL DUP6 ADD PUSH2 0x1215 DUP6 PUSH2 0x1025 JUMP JUMPDEST DUP1 PUSH0 JUMPDEST DUP6 DUP2 LT ISZERO PUSH2 0x1250 JUMPI DUP5 DUP5 SUB DUP10 MSTORE DUP2 MLOAD PUSH2 0x1231 DUP6 DUP3 PUSH2 0x11D0 JUMP JUMPDEST SWAP5 POP PUSH2 0x123C DUP4 PUSH2 0x11E3 JUMP JUMPDEST SWAP3 POP PUSH1 0x20 DUP11 ADD SWAP10 POP POP PUSH1 0x1 DUP2 ADD SWAP1 POP PUSH2 0x1218 JUMP JUMPDEST POP DUP3 SWAP8 POP DUP8 SWAP6 POP POP POP POP POP POP SWAP3 SWAP2 POP POP JUMP JUMPDEST PUSH0 PUSH1 0x20 DUP3 ADD SWAP1 POP DUP2 DUP2 SUB PUSH0 DUP4 ADD MSTORE PUSH2 0x127A DUP2 DUP5 PUSH2 0x11EF JUMP JUMPDEST SWAP1 POP SWAP3 SWAP2 POP POP JUMP JUMPDEST PUSH2 0x128B DUP2 PUSH2 0x1034 JUMP JUMPDEST DUP3 MSTORE POP POP JUMP JUMPDEST PUSH0 PUSH1 0x20 DUP3 ADD SWAP1 POP PUSH2 0x12A4 PUSH0 DUP4 ADD DUP5 PUSH2 0x1282 JUMP JUMPDEST SWAP3 SWAP2 POP POP JUMP JUMPDEST PUSH0 PUSH1 0x40 MLOAD SWAP1 POP SWAP1 JUMP JUMPDEST PUSH0 DUP1 REVERT JUMPDEST PUSH0 DUP1 REVERT JUMPDEST PUSH2 0x12C4 DUP2 PUSH2 0x1034 JUMP JUMPDEST DUP2 EQ PUSH2 0x12CE JUMPI PUSH0 DUP1 REVERT JUMPDEST POP JUMP JUMPDEST PUSH0 DUP2 CALLDATALOAD SWAP1 POP PUSH2 0x12DF DUP2 PUSH2 0x12BB JUMP JUMPDEST SWAP3 SWAP2 POP POP JUMP JUMPDEST PUSH0 PUSH1 0x20 DUP3 DUP5 SUB SLT ISZERO PUSH2 0x12FA JUMPI PUSH2 0x12F9 PUSH2 0x12B3 JUMP JUMPDEST JUMPDEST PUSH0 PUSH2 0x1307 DUP5 DUP3 DUP6 ADD PUSH2 0x12D1 JUMP JUMPDEST SWAP2 POP POP SWAP3 SWAP2 POP POP JUMP JUMPDEST PUSH2 0x1319 DUP2 PUSH2 0x106B JUMP JUMPDEST DUP3 MSTORE POP POP JUMP JUMPDEST PUSH0 DUP3 DUP3 MSTORE PUSH1 0x20 DUP3 ADD SWAP1 POP SWAP3 SWAP2 POP POP JUMP JUMPDEST PUSH0 PUSH2 0x1339 DUP3 PUSH2 0x108B JUMP JUMPDEST PUSH2 0x1343 DUP2 DUP6 PUSH2 0x131F JUMP JUMPDEST SWAP4 POP PUSH2 0x1353 DUP2 DUP6 PUSH1 0x20 DUP7 ADD PUSH2 0x10A5 JUMP JUMPDEST PUSH2 0x135C DUP2 PUSH2 0x10B3 JUMP JUMPDEST DUP5 ADD SWAP2 POP POP SWAP3 SWAP2 POP POP JUMP JUMPDEST PUSH2 0x1370 DUP2 PUSH2 0x10FB JUMP JUMPDEST DUP3 MSTORE POP POP JUMP JUMPDEST PUSH0 PUSH2 0x100 DUP3 ADD SWAP1 POP PUSH2 0x138A PUSH0 DUP4 ADD DUP12 PUSH2 0x1282 JUMP JUMPDEST PUSH2 0x1397 PUSH1 0x20 DUP4 ADD DUP11 PUSH2 0x1310 JUMP JUMPDEST PUSH2 0x13A4 PUSH1 0x40 DUP4 ADD DUP10 PUSH2 0x1310 JUMP JUMPDEST DUP2 DUP2 SUB PUSH1 0x60 DUP4 ADD MSTORE PUSH2 0x13B6 DUP2 DUP9 PUSH2 0x132F JUMP JUMPDEST SWAP1 POP DUP2 DUP2 SUB PUSH1 0x80 DUP4 ADD MSTORE PUSH2 0x13CA DUP2 DUP8 PUSH2 0x132F JUMP JUMPDEST SWAP1 POP DUP2 DUP2 SUB PUSH1 0xA0 DUP4 ADD MSTORE PUSH2 0x13DE DUP2 DUP7 PUSH2 0x132F JUMP JUMPDEST SWAP1 POP PUSH2 0x13ED PUSH1 0xC0 DUP4 ADD DUP6 PUSH2 0x1282 JUMP JUMPDEST PUSH2 0x13FA PUSH1 0xE0 DUP4 ADD DUP5 PUSH2 0x1367 JUMP JUMPDEST SWAP10 SWAP9 POP POP POP POP POP POP POP POP POP JUMP JUMPDEST PUSH0 PUSH2 0x100 DUP4 ADD PUSH0 DUP4 ADD MLOAD PUSH2 0x141D PUSH0 DUP7 ADD DUP3 PUSH2 0x103D JUMP JUMPDEST POP PUSH1 0x20 DUP4 ADD MLOAD PUSH2 0x1430 PUSH1 0x20 DUP7 ADD DUP3 PUSH2 0x107C JUMP JUMPDEST POP PUSH1 0x40 DUP4 ADD MLOAD PUSH2 0x1443 PUSH1 0x40 DUP7 ADD DUP3 PUSH2 0x107C JUMP JUMPDEST POP PUSH1 0x60 DUP4 ADD MLOAD DUP5 DUP3 SUB PUSH1 0x60 DUP7 ADD MSTORE PUSH2 0x145B DUP3 DUP3 PUSH2 0x10C3 JUMP JUMPDEST SWAP2 POP POP PUSH1 0x80 DUP4 ADD MLOAD DUP5 DUP3 SUB PUSH1 0x80 DUP7 ADD MSTORE PUSH2 0x1475 DUP3 DUP3 PUSH2 0x10C3 JUMP JUMPDEST SWAP2 POP POP PUSH1 0xA0 DUP4 ADD MLOAD DUP5 DUP3 SUB PUSH1 0xA0 DUP7 ADD MSTORE PUSH2 0x148F DUP3 DUP3 PUSH2 0x10C3 JUMP JUMPDEST SWAP2 POP POP PUSH1 0xC0 DUP4 ADD MLOAD PUSH2 0x14A4 PUSH1 0xC0 DUP7 ADD DUP3 PUSH2 0x103D JUMP JUMPDEST POP PUSH1 0xE0 DUP4 ADD MLOAD PUSH2 0x14B7 PUSH1 0xE0 DUP7 ADD DUP3 PUSH2 0x1106 JUMP JUMPDEST POP DUP1 SWAP2 POP POP SWAP3 SWAP2 POP POP JUMP JUMPDEST PUSH0 PUSH1 0x20 DUP3 ADD SWAP1 POP DUP2 DUP2 SUB PUSH0 DUP4 ADD MSTORE PUSH2 0x14DA DUP2 DUP5 PUSH2 0x1407 JUMP JUMPDEST SWAP1 POP SWAP3 SWAP2 POP POP JUMP JUMPDEST PUSH0 DUP1 REVERT JUMPDEST PUSH0 DUP1 REVERT JUMPDEST PUSH32 0x4E487B7100000000000000000000000000000000000000000000000000000000 PUSH0 MSTORE PUSH1 0x41 PUSH1 0x4 MSTORE PUSH1 0x24 PUSH0 REVERT JUMPDEST PUSH2 0x1520 DUP3 PUSH2 0x10B3 JUMP JUMPDEST DUP2 ADD DUP2 DUP2 LT PUSH8 0xFFFFFFFFFFFFFFFF DUP3 GT OR ISZERO PUSH2 0x153F JUMPI PUSH2 0x153E PUSH2 0x14EA JUMP JUMPDEST JUMPDEST DUP1 PUSH1 0x40 MSTORE POP POP POP JUMP JUMPDEST PUSH0 PUSH2 0x1551 PUSH2 0x12AA JUMP JUMPDEST SWAP1 POP PUSH2 0x155D DUP3 DUP3 PUSH2 0x1517 JUMP JUMPDEST SWAP2 SWAP1 POP JUMP JUMPDEST PUSH0 PUSH8 0xFFFFFFFFFFFFFFFF DUP3 GT ISZERO PUSH2 0x157C JUMPI PUSH2 0x157B PUSH2 0x14EA JUMP JUMPDEST JUMPDEST PUSH2 0x1585 DUP3 PUSH2 0x10B3 JUMP JUMPDEST SWAP1 POP PUSH1 0x20 DUP2 ADD SWAP1 POP SWAP2 SWAP1 POP JUMP JUMPDEST DUP3 DUP2 DUP4 CALLDATACOPY PUSH0 DUP4 DUP4 ADD MSTORE POP POP POP JUMP JUMPDEST PUSH0 PUSH2 0x15B2 PUSH2 0x15AD DUP5 PUSH2 0x1562 JUMP JUMPDEST PUSH2 0x1548 JUMP JUMPDEST SWAP1 POP DUP3 DUP2 MSTORE PUSH1 0x20 DUP2 ADD DUP5 DUP5 DUP5 ADD GT ISZERO PUSH2 0x15CE JUMPI PUSH2 0x15CD PUSH2 0x14E6 JUMP JUMPDEST JUMPDEST PUSH2 0x15D9 DUP5 DUP3 DUP6 PUSH2 0x1592 JUMP JUMPDEST POP SWAP4 SWAP3 POP POP POP JUMP JUMPDEST PUSH0 DUP3 PUSH1 0x1F DUP4 ADD SLT PUSH2 0x15F5 JUMPI PUSH2 0x15F4 PUSH2 0x14E2 JUMP JUMPDEST JUMPDEST DUP2 CALLDATALOAD PUSH2 0x1605 DUP5 DUP3 PUSH1 0x20 DUP7 ADD PUSH2 0x15A0 JUMP JUMPDEST SWAP2 POP POP SWAP3 SWAP2 POP POP JUMP JUMPDEST PUSH0 DUP1 PUSH0 DUP1 PUSH1 0x80 DUP6 DUP8 SUB SLT ISZERO PUSH2 0x1626 JUMPI PUSH2 0x1625 PUSH2 0x12B3 JUMP JUMPDEST JUMPDEST PUSH0 DUP6 ADD CALLDATALOAD PUSH8 0xFFFFFFFFFFFFFFFF DUP2 GT ISZERO PUSH2 0x1643 JUMPI PUSH2 0x1642 PUSH2 0x12B7 JUMP JUMPDEST JUMPDEST PUSH2 0x164F DUP8 DUP3 DUP9 ADD PUSH2 0x15E1 JUMP JUMPDEST SWAP5 POP POP PUSH1 0x20 DUP6 ADD CALLDATALOAD PUSH8 0xFFFFFFFFFFFFFFFF DUP2 GT ISZERO PUSH2 0x1670 JUMPI PUSH2 0x166F PUSH2 0x12B7 JUMP JUMPDEST JUMPDEST PUSH2 0x167C DUP8 DUP3 DUP9 ADD PUSH2 0x15E1 JUMP JUMPDEST SWAP4 POP POP PUSH1 0x40 DUP6 ADD CALLDATALOAD PUSH8 0xFFFFFFFFFFFFFFFF DUP2 GT ISZERO PUSH2 0x169D JUMPI PUSH2 0x169C PUSH2 0x12B7 JUMP JUMPDEST JUMPDEST PUSH2 0x16A9 DUP8 DUP3 DUP9 ADD PUSH2 0x15E1 JUMP JUMPDEST SWAP3 POP POP PUSH1 0x60 PUSH2 0x16BA DUP8 DUP3 DUP9 ADD PUSH2 0x12D1 JUMP JUMPDEST SWAP2 POP POP SWAP3 SWAP6 SWAP2 SWAP5 POP SWAP3 POP JUMP JUMPDEST PUSH32 0x4E487B7100000000000000000000000000000000000000000000000000000000 PUSH0 MSTORE PUSH1 0x22 PUSH1 0x4 MSTORE PUSH1 0x24 PUSH0 REVERT JUMPDEST PUSH0 PUSH1 0x2 DUP3 DIV SWAP1 POP PUSH1 0x1 DUP3 AND DUP1 PUSH2 0x170A JUMPI PUSH1 0x7F DUP3 AND SWAP2 POP JUMPDEST PUSH1 0x20 DUP3 LT DUP2 SUB PUSH2 0x171D JUMPI PUSH2 0x171C PUSH2 0x16C6 JUMP JUMPDEST JUMPDEST POP SWAP2 SWAP1 POP JUMP JUMPDEST PUSH32 0x4974656D20494420646F6573206E6F7420657869737400000000000000000000 PUSH0 DUP3 ADD MSTORE POP JUMP JUMPDEST PUSH0 PUSH2 0x1757 PUSH1 0x16 DUP4 PUSH2 0x131F JUMP JUMPDEST SWAP2 POP PUSH2 0x1762 DUP3 PUSH2 0x1723 JUMP JUMPDEST PUSH1 0x20 DUP3 ADD SWAP1 POP SWAP2 SWAP1 POP JUMP JUMPDEST PUSH0 PUSH1 0x20 DUP3 ADD SWAP1 POP DUP2 DUP2 SUB PUSH0 DUP4 ADD MSTORE PUSH2 0x1784 DUP2 PUSH2 0x174B JUMP JUMPDEST SWAP1 POP SWAP2 SWAP1 POP JUMP JUMPDEST PUSH32 0x4E487B7100000000000000000000000000000000000000000000000000000000 PUSH0 MSTORE PUSH1 0x32 PUSH1 0x4 MSTORE PUSH1 0x24 PUSH0 REVERT JUMPDEST PUSH32 0x5072696365206D7573742062652067726561746572207468616E207A65726F00 PUSH0 DUP3 ADD MSTORE POP JUMP JUMPDEST PUSH0 PUSH2 0x17EC PUSH1 0x1F DUP4 PUSH2 0x131F JUMP JUMPDEST SWAP2 POP PUSH2 0x17F7 DUP3 PUSH2 0x17B8 JUMP JUMPDEST PUSH1 0x20 DUP3 ADD SWAP1 POP SWAP2 SWAP1 POP JUMP JUMPDEST PUSH0 PUSH1 0x20 DUP3 ADD SWAP1 POP DUP2 DUP2 SUB PUSH0 DUP4 ADD MSTORE PUSH2 0x1819 DUP2 PUSH2 0x17E0 JUMP JUMPDEST SWAP1 POP SWAP2 SWAP1 POP JUMP JUMPDEST PUSH0 DUP2 SWAP1 POP DUP2 PUSH0 MSTORE PUSH1 0x20 PUSH0 KECCAK256 SWAP1 POP SWAP2 SWAP1 POP JUMP JUMPDEST PUSH0 PUSH1 0x20 PUSH1 0x1F DUP4 ADD DIV SWAP1 POP SWAP2 SWAP1 POP JUMP JUMPDEST PUSH0 DUP3 DUP3 SHL SWAP1 POP SWAP3 SWAP2 POP POP JUMP JUMPDEST PUSH0 PUSH1 0x8 DUP4 MUL PUSH2 0x187C PUSH32 0xFFFFFFFFFFFFFFFFFFFFFFFFFFFFFFFFFFFFFFFFFFFFFFFFFFFFFFFFFFFFFFFF DUP3 PUSH2 0x1841 JUMP JUMPDEST PUSH2 0x1886 DUP7 DUP4 PUSH2 0x1841 JUMP JUMPDEST SWAP6 POP DUP1 NOT DUP5 AND SWAP4 POP DUP1 DUP7 AND DUP5 OR SWAP3 POP POP POP SWAP4 SWAP3 POP POP POP JUMP JUMPDEST PUSH0 DUP2 SWAP1 POP SWAP2 SWAP1 POP JUMP JUMPDEST PUSH0 PUSH2 0x18C1 PUSH2 0x18BC PUSH2 0x18B7 DUP5 PUSH2 0x1034 JUMP JUMPDEST PUSH2 0x189E JUMP JUMPDEST PUSH2 0x1034 JUMP JUMPDEST SWAP1 POP SWAP2 SWAP1 POP JUMP JUMPDEST PUSH0 DUP2 SWAP1 POP SWAP2 SWAP1 POP JUMP JUMPDEST PUSH2 0x18DA DUP4 PUSH2 0x18A7 JUMP JUMPDEST PUSH2 0x18EE PUSH2 0x18E6 DUP3 PUSH2 0x18C8 JUMP JUMPDEST DUP5 DUP5 SLOAD PUSH2 0x184D JUMP JUMPDEST DUP3 SSTORE POP POP POP POP JUMP JUMPDEST PUSH0 SWAP1 JUMP JUMPDEST PUSH2 0x1902 PUSH2 0x18F6 JUMP JUMPDEST PUSH2 0x190D DUP2 DUP5 DUP5 PUSH2 0x18D1 JUMP JUMPDEST POP POP POP JUMP JUMPDEST JUMPDEST DUP2 DUP2 LT ISZERO PUSH2 0x1930 JUMPI PUSH2 0x1925 PUSH0 DUP3 PUSH2 0x18FA JUMP JUMPDEST PUSH1 0x1 DUP2 ADD SWAP1 POP PUSH2 0x1913 JUMP JUMPDEST POP POP JUMP JUMPDEST PUSH1 0x1F DUP3 GT ISZERO PUSH2 0x1975 JUMPI PUSH2 0x1946 DUP2 PUSH2 0x1820 JUMP JUMPDEST PUSH2 0x194F DUP5 PUSH2 0x1832 JUMP JUMPDEST DUP2 ADD PUSH1 0x20 DUP6 LT ISZERO PUSH2 0x195E JUMPI DUP2 SWAP1 POP JUMPDEST PUSH2 0x1972 PUSH2 0x196A DUP6 PUSH2 0x1832 JUMP JUMPDEST DUP4 ADD DUP3 PUSH2 0x1912 JUMP JUMPDEST POP POP JUMPDEST POP POP POP JUMP JUMPDEST PUSH0 DUP3 DUP3 SHR SWAP1 POP SWAP3 SWAP2 POP POP JUMP JUMPDEST PUSH0 PUSH2 0x1995 PUSH0 NOT DUP5 PUSH1 0x8 MUL PUSH2 0x197A JUMP JUMPDEST NOT DUP1 DUP4 AND SWAP2 POP POP SWAP3 SWAP2 POP POP JUMP JUMPDEST PUSH0 PUSH2 0x19AD DUP4 DUP4 PUSH2 0x1986 JUMP JUMPDEST SWAP2 POP DUP3 PUSH1 0x2 MUL DUP3 OR SWAP1 POP SWAP3 SWAP2 POP POP JUMP JUMPDEST PUSH2 0x19C6 DUP3 PUSH2 0x108B JUMP JUMPDEST PUSH8 0xFFFFFFFFFFFFFFFF DUP2 GT ISZERO PUSH2 0x19DF JUMPI PUSH2 0x19DE PUSH2 0x14EA JUMP JUMPDEST JUMPDEST PUSH2 0x19E9 DUP3 SLOAD PUSH2 0x16F3 JUMP JUMPDEST PUSH2 0x19F4 DUP3 DUP3 DUP6 PUSH2 0x1934 JUMP JUMPDEST PUSH0 PUSH1 0x20 SWAP1 POP PUSH1 0x1F DUP4 GT PUSH1 0x1 DUP2 EQ PUSH2 0x1A25 JUMPI PUSH0 DUP5 ISZERO PUSH2 0x1A13 JUMPI DUP3 DUP8 ADD MLOAD SWAP1 POP JUMPDEST PUSH2 0x1A1D DUP6 DUP3 PUSH2 0x19A2 JUMP JUMPDEST DUP7 SSTORE POP PUSH2 0x1A84 JUMP JUMPDEST PUSH1 0x1F NOT DUP5 AND PUSH2 0x1A33 DUP7 PUSH2 0x1820 JUMP JUMPDEST PUSH0 JUMPDEST DUP3 DUP2 LT ISZERO PUSH2 0x1A5A JUMPI DUP5 DUP10 ADD MLOAD DUP3 SSTORE PUSH1 0x1 DUP3 ADD SWAP2 POP PUSH1 0x20 DUP6 ADD SWAP5 POP PUSH1 0x20 DUP2 ADD SWAP1 POP PUSH2 0x1A35 JUMP JUMPDEST DUP7 DUP4 LT ISZERO PUSH2 0x1A77 JUMPI DUP5 DUP10 ADD MLOAD PUSH2 0x1A73 PUSH1 0x1F DUP10 AND DUP3 PUSH2 0x1986 JUMP JUMPDEST DUP4 SSTORE POP JUMPDEST PUSH1 0x1 PUSH1 0x2 DUP9 MUL ADD DUP9 SSTORE POP POP POP JUMPDEST POP POP POP POP POP POP JUMP JUMPDEST PUSH0 PUSH1 0x80 DUP3 ADD SWAP1 POP PUSH2 0x1A9F PUSH0 DUP4 ADD DUP8 PUSH2 0x1282 JUMP JUMPDEST DUP2 DUP2 SUB PUSH1 0x20 DUP4 ADD MSTORE PUSH2 0x1AB1 DUP2 DUP7 PUSH2 0x132F JUMP JUMPDEST SWAP1 POP DUP2 DUP2 SUB PUSH1 0x40 DUP4 ADD MSTORE PUSH2 0x1AC5 DUP2 DUP6 PUSH2 0x132F JUMP JUMPDEST SWAP1 POP PUSH2 0x1AD4 PUSH1 0x60 DUP4 ADD DUP5 PUSH2 0x1282 JUMP JUMPDEST SWAP6 SWAP5 POP POP POP POP POP JUMP JUMPDEST PUSH32 0x4E487B7100000000000000000000000000000000000000000000000000000000 PUSH0 MSTORE PUSH1 0x11 PUSH1 0x4 MSTORE PUSH1 0x24 PUSH0 REVERT JUMPDEST PUSH0 PUSH2 0x1B14 DUP3 PUSH2 0x1034 JUMP JUMPDEST SWAP2 POP PUSH32 0xFFFFFFFFFFFFFFFFFFFFFFFFFFFFFFFFFFFFFFFFFFFFFFFFFFFFFFFFFFFFFFFF DUP3 SUB PUSH2 0x1B46 JUMPI PUSH2 0x1B45 PUSH2 0x1ADD JUMP JUMPDEST JUMPDEST PUSH1 0x1 DUP3 ADD SWAP1 POP SWAP2 SWAP1 POP JUMP JUMPDEST PUSH32 0x506C65617365207375626D6974207468652061736B696E672070726963652069 PUSH0 DUP3 ADD MSTORE PUSH32 0x6E206F7264657220746F20636F6D706C65746520746865207075726368617365 PUSH1 0x20 DUP3 ADD MSTORE POP JUMP JUMPDEST PUSH0 PUSH2 0x1BAB PUSH1 0x40 DUP4 PUSH2 0x131F JUMP JUMPDEST SWAP2 POP PUSH2 0x1BB6 DUP3 PUSH2 0x1B51 JUMP JUMPDEST PUSH1 0x40 DUP3 ADD SWAP1 POP SWAP2 SWAP1 POP JUMP JUMPDEST PUSH0 PUSH1 0x20 DUP3 ADD SWAP1 POP DUP2 DUP2 SUB PUSH0 DUP4 ADD MSTORE PUSH2 0x1BD8 DUP2 PUSH2 0x1B9F JUMP JUMPDEST SWAP1 POP SWAP2 SWAP1 POP JUMP JUMPDEST PUSH32 0x54686973206974656D2068617320616C7265616479206265656E20736F6C6400 PUSH0 DUP3 ADD MSTORE POP JUMP JUMPDEST PUSH0 PUSH2 0x1C13 PUSH1 0x1F DUP4 PUSH2 0x131F JUMP JUMPDEST SWAP2 POP PUSH2 0x1C1E DUP3 PUSH2 0x1BDF JUMP JUMPDEST PUSH1 0x20 DUP3 ADD SWAP1 POP SWAP2 SWAP1 POP JUMP JUMPDEST PUSH0 PUSH1 0x20 DUP3 ADD SWAP1 POP DUP2 DUP2 SUB PUSH0 DUP4 ADD MSTORE PUSH2 0x1C40 DUP2 PUSH2 0x1C07 JUMP JUMPDEST SWAP1 POP SWAP2 SWAP1 POP JUMP JUMPDEST PUSH32 0x4F776E65722063616E6E6F7420627579207468656972206F776E206974656D00 PUSH0 DUP3 ADD MSTORE POP JUMP JUMPDEST PUSH0 PUSH2 0x1C7B PUSH1 0x1F DUP4 PUSH2 0x131F JUMP JUMPDEST SWAP2 POP PUSH2 0x1C86 DUP3 PUSH2 0x1C47 JUMP JUMPDEST PUSH1 0x20 DUP3 ADD SWAP1 POP SWAP2 SWAP1 POP JUMP JUMPDEST PUSH0 PUSH1 0x20 DUP3 ADD SWAP1 POP DUP2 DUP2 SUB PUSH0 DUP4 ADD MSTORE PUSH2 0x1CA8 DUP2 PUSH2 0x1C6F JUMP JUMPDEST SWAP1 POP SWAP2 SWAP1 POP JUMP JUMPDEST PUSH0 DUP2 SWAP1 POP SWAP3 SWAP2 POP POP JUMP JUMPDEST POP JUMP JUMPDEST PUSH0 PUSH2 0x1CC7 PUSH0 DUP4 PUSH2 0x1CAF JUMP JUMPDEST SWAP2 POP PUSH2 0x1CD2 DUP3 PUSH2 0x1CB9 JUMP JUMPDEST PUSH0 DUP3 ADD SWAP1 POP SWAP2 SWAP1 POP JUMP JUMPDEST PUSH0 PUSH2 0x1CE6 DUP3 PUSH2 0x1CBC JUMP JUMPDEST SWAP2 POP DUP2 SWAP1 POP SWAP2 SWAP1 POP JUMP JUMPDEST PUSH32 0x4661696C656420746F2073656E64204574686572000000000000000000000000 PUSH0 DUP3 ADD MSTORE POP JUMP JUMPDEST PUSH0 PUSH2 0x1D24 PUSH1 0x14 DUP4 PUSH2 0x131F JUMP JUMPDEST SWAP2 POP PUSH2 0x1D2F DUP3 PUSH2 0x1CF0 JUMP JUMPDEST PUSH1 0x20 DUP3 ADD SWAP1 POP SWAP2 SWAP1 POP JUMP JUMPDEST PUSH0 PUSH1 0x20 DUP3 ADD SWAP1 POP DUP2 DUP2 SUB PUSH0 DUP4 ADD MSTORE PUSH2 0x1D51 DUP2 PUSH2 0x1D18 JUMP JUMPDEST SWAP1 POP SWAP2 SWAP1 POP JUMP JUMPDEST PUSH0 PUSH1 0x40 DUP3 ADD SWAP1 POP PUSH2 0x1D6B PUSH0 DUP4 ADD DUP6 PUSH2 0x1282 JUMP JUMPDEST PUSH2 0x1D78 PUSH1 0x20 DUP4 ADD DUP5 PUSH2 0x1282 JUMP JUMPDEST SWAP4 SWAP3 POP POP POP JUMP INVALID LOG2 PUSH5 0x6970667358 0x22 SLT KECCAK256 DUP1 SWAP10 0xD7 SWAP16 DUP2 0x25 0xCF PUSH12 0x2058C789DDE57172B6597597 0xCB DUP6 TSTORE 0xE9 0xC0 PUSH21 0xA533D753755964736F6C6343000819003300000000 "
	},
	"Assembly": ".code\n  PUSH 80\t\t\tcontract Marketplace {\\r\\n    ...\n  PUSH 40\t\t\tcontract Marketplace {\\r\\n    ...\n  MSTORE \t\t\tcontract Marketplace {\\r\\n    ...\n  PUSH 0\t\t\t0\n  PUSH 1\t\t\tuint public itemCount = 0\n  SSTORE \t\t\tuint public itemCount = 0\n  CALLVALUE \t\t\tcontract Marketplace {\\r\\n    ...\n  DUP1 \t\t\tcontract Marketplace {\\r\\n    ...\n  ISZERO \t\t\tcontract Marketplace {\\r\\n    ...\n  PUSH [tag] 1\t\t\tcontract Marketplace {\\r\\n    ...\n  JUMPI \t\t\tcontract Marketplace {\\r\\n    ...\n  PUSH 0\t\t\tcontract Marketplace {\\r\\n    ...\n  DUP1 \t\t\tcontract Marketplace {\\r\\n    ...\n  REVERT \t\t\tcontract Marketplace {\\r\\n    ...\ntag 1\t\t\tcontract Marketplace {\\r\\n    ...\n  JUMPDEST \t\t\tcontract Marketplace {\\r\\n    ...\n  POP \t\t\tcontract Marketplace {\\r\\n    ...\n  PUSH #[$] 0000000000000000000000000000000000000000000000000000000000000000\t\t\tcontract Marketplace {\\r\\n    ...\n  DUP1 \t\t\tcontract Marketplace {\\r\\n    ...\n  PUSH [$] 0000000000000000000000000000000000000000000000000000000000000000\t\t\tcontract Marketplace {\\r\\n    ...\n  PUSH 0\t\t\tcontract Marketplace {\\r\\n    ...\n  CODECOPY \t\t\tcontract Marketplace {\\r\\n    ...\n  PUSH 0\t\t\tcontract Marketplace {\\r\\n    ...\n  RETURN \t\t\tcontract Marketplace {\\r\\n    ...\n.data\n  0:\n    .code\n      PUSH 80\t\t\tcontract Marketplace {\\r\\n    ...\n      PUSH 40\t\t\tcontract Marketplace {\\r\\n    ...\n      MSTORE \t\t\tcontract Marketplace {\\r\\n    ...\n      PUSH 4\t\t\tcontract Marketplace {\\r\\n    ...\n      CALLDATASIZE \t\t\tcontract Marketplace {\\r\\n    ...\n      LT \t\t\tcontract Marketplace {\\r\\n    ...\n      PUSH [tag] 1\t\t\tcontract Marketplace {\\r\\n    ...\n      JUMPI \t\t\tcontract Marketplace {\\r\\n    ...\n      PUSH 0\t\t\tcontract Marketplace {\\r\\n    ...\n      CALLDATALOAD \t\t\tcontract Marketplace {\\r\\n    ...\n      PUSH E0\t\t\tcontract Marketplace {\\r\\n    ...\n      SHR \t\t\tcontract Marketplace {\\r\\n    ...\n      DUP1 \t\t\tcontract Marketplace {\\r\\n    ...\n      PUSH 4BA1D6AA\t\t\tcontract Marketplace {\\r\\n    ...\n      EQ \t\t\tcontract Marketplace {\\r\\n    ...\n      PUSH [tag] 2\t\t\tcontract Marketplace {\\r\\n    ...\n      JUMPI \t\t\tcontract Marketplace {\\r\\n    ...\n      DUP1 \t\t\tcontract Marketplace {\\r\\n    ...\n      PUSH 6BFB0D01\t\t\tcontract Marketplace {\\r\\n    ...\n      EQ \t\t\tcontract Marketplace {\\r\\n    ...\n      PUSH [tag] 3\t\t\tcontract Marketplace {\\r\\n    ...\n      JUMPI \t\t\tcontract Marketplace {\\r\\n    ...\n      DUP1 \t\t\tcontract Marketplace {\\r\\n    ...\n      PUSH BFB231D2\t\t\tcontract Marketplace {\\r\\n    ...\n      EQ \t\t\tcontract Marketplace {\\r\\n    ...\n      PUSH [tag] 4\t\t\tcontract Marketplace {\\r\\n    ...\n      JUMPI \t\t\tcontract Marketplace {\\r\\n    ...\n      DUP1 \t\t\tcontract Marketplace {\\r\\n    ...\n      PUSH CD2F0710\t\t\tcontract Marketplace {\\r\\n    ...\n      EQ \t\t\tcontract Marketplace {\\r\\n    ...\n      PUSH [tag] 5\t\t\tcontract Marketplace {\\r\\n    ...\n      JUMPI \t\t\tcontract Marketplace {\\r\\n    ...\n      DUP1 \t\t\tcontract Marketplace {\\r\\n    ...\n      PUSH D65274C9\t\t\tcontract Marketplace {\\r\\n    ...\n      EQ \t\t\tcontract Marketplace {\\r\\n    ...\n      PUSH [tag] 6\t\t\tcontract Marketplace {\\r\\n    ...\n      JUMPI \t\t\tcontract Marketplace {\\r\\n    ...\n      DUP1 \t\t\tcontract Marketplace {\\r\\n    ...\n      PUSH E7FB74C7\t\t\tcontract Marketplace {\\r\\n    ...\n      EQ \t\t\tcontract Marketplace {\\r\\n    ...\n      PUSH [tag] 7\t\t\tcontract Marketplace {\\r\\n    ...\n      JUMPI \t\t\tcontract Marketplace {\\r\\n    ...\n    tag 1\t\t\tcontract Marketplace {\\r\\n    ...\n      JUMPDEST \t\t\tcontract Marketplace {\\r\\n    ...\n      PUSH 0\t\t\tcontract Marketplace {\\r\\n    ...\n      DUP1 \t\t\tcontract Marketplace {\\r\\n    ...\n      REVERT \t\t\tcontract Marketplace {\\r\\n    ...\n    tag 2\t\t\tfunction getAllItems() public ...\n      JUMPDEST \t\t\tfunction getAllItems() public ...\n      CALLVALUE \t\t\tfunction getAllItems() public ...\n      DUP1 \t\t\tfunction getAllItems() public ...\n      ISZERO \t\t\tfunction getAllItems() public ...\n      PUSH [tag] 8\t\t\tfunction getAllItems() public ...\n      JUMPI \t\t\tfunction getAllItems() public ...\n      PUSH 0\t\t\tfunction getAllItems() public ...\n      DUP1 \t\t\tfunction getAllItems() public ...\n      REVERT \t\t\tfunction getAllItems() public ...\n    tag 8\t\t\tfunction getAllItems() public ...\n      JUMPDEST \t\t\tfunction getAllItems() public ...\n      POP \t\t\tfunction getAllItems() public ...\n      PUSH [tag] 9\t\t\tfunction getAllItems() public ...\n      PUSH [tag] 10\t\t\tfunction getAllItems() public ...\n      JUMP \t\t\tfunction getAllItems() public ...\n    tag 9\t\t\tfunction getAllItems() public ...\n      JUMPDEST \t\t\tfunction getAllItems() public ...\n      PUSH 40\t\t\tfunction getAllItems() public ...\n      MLOAD \t\t\tfunction getAllItems() public ...\n      PUSH [tag] 11\t\t\tfunction getAllItems() public ...\n      SWAP2 \t\t\tfunction getAllItems() public ...\n      SWAP1 \t\t\tfunction getAllItems() public ...\n      PUSH [tag] 12\t\t\tfunction getAllItems() public ...\n      JUMP \t\t\tfunction getAllItems() public ...\n    tag 11\t\t\tfunction getAllItems() public ...\n      JUMPDEST \t\t\tfunction getAllItems() public ...\n      PUSH 40\t\t\tfunction getAllItems() public ...\n      MLOAD \t\t\tfunction getAllItems() public ...\n      DUP1 \t\t\tfunction getAllItems() public ...\n      SWAP2 \t\t\tfunction getAllItems() public ...\n      SUB \t\t\tfunction getAllItems() public ...\n      SWAP1 \t\t\tfunction getAllItems() public ...\n      RETURN \t\t\tfunction getAllItems() public ...\n    tag 3\t\t\tuint public itemCount = 0\n      JUMPDEST \t\t\tuint public itemCount = 0\n      CALLVALUE \t\t\tuint public itemCount = 0\n      DUP1 \t\t\tuint public itemCount = 0\n      ISZERO \t\t\tuint public itemCount = 0\n      PUSH [tag] 13\t\t\tuint public itemCount = 0\n      JUMPI \t\t\tuint public itemCount = 0\n      PUSH 0\t\t\tuint public itemCount = 0\n      DUP1 \t\t\tuint public itemCount = 0\n      REVERT \t\t\tuint public itemCount = 0\n    tag 13\t\t\tuint public itemCount = 0\n      JUMPDEST \t\t\tuint public itemCount = 0\n      POP \t\t\tuint public itemCount = 0\n      PUSH [tag] 14\t\t\tuint public itemCount = 0\n      PUSH [tag] 15\t\t\tuint public itemCount = 0\n      JUMP \t\t\tuint public itemCount = 0\n    tag 14\t\t\tuint public itemCount = 0\n      JUMPDEST \t\t\tuint public itemCount = 0\n      PUSH 40\t\t\tuint public itemCount = 0\n      MLOAD \t\t\tuint public itemCount = 0\n      PUSH [tag] 16\t\t\tuint public itemCount = 0\n      SWAP2 \t\t\tuint public itemCount = 0\n      SWAP1 \t\t\tuint public itemCount = 0\n      PUSH [tag] 17\t\t\tuint public itemCount = 0\n      JUMP \t\t\tuint public itemCount = 0\n    tag 16\t\t\tuint public itemCount = 0\n      JUMPDEST \t\t\tuint public itemCount = 0\n      PUSH 40\t\t\tuint public itemCount = 0\n      MLOAD \t\t\tuint public itemCount = 0\n      DUP1 \t\t\tuint public itemCount = 0\n      SWAP2 \t\t\tuint public itemCount = 0\n      SUB \t\t\tuint public itemCount = 0\n      SWAP1 \t\t\tuint public itemCount = 0\n      RETURN \t\t\tuint public itemCount = 0\n    tag 4\t\t\tItem[] public items\n      JUMPDEST \t\t\tItem[] public items\n      CALLVALUE \t\t\tItem[] public items\n      DUP1 \t\t\tItem[] public items\n      ISZERO \t\t\tItem[] public items\n      PUSH [tag] 18\t\t\tItem[] public items\n      JUMPI \t\t\tItem[] public items\n      PUSH 0\t\t\tItem[] public items\n      DUP1 \t\t\tItem[] public items\n      REVERT \t\t\tItem[] public items\n    tag 18\t\t\tItem[] public items\n      JUMPDEST \t\t\tItem[] public items\n      POP \t\t\tItem[] public items\n      PUSH [tag] 19\t\t\tItem[] public items\n      PUSH 4\t\t\tItem[] public items\n      DUP1 \t\t\tItem[] public items\n      CALLDATASIZE \t\t\tItem[] public items\n      SUB \t\t\tItem[] public items\n      DUP2 \t\t\tItem[] public items\n      ADD \t\t\tItem[] public items\n      SWAP1 \t\t\tItem[] public items\n      PUSH [tag] 20\t\t\tItem[] public items\n      SWAP2 \t\t\tItem[] public items\n      SWAP1 \t\t\tItem[] public items\n      PUSH [tag] 21\t\t\tItem[] public items\n      JUMP \t\t\tItem[] public items\n    tag 20\t\t\tItem[] public items\n      JUMPDEST \t\t\tItem[] public items\n      PUSH [tag] 22\t\t\tItem[] public items\n      JUMP \t\t\tItem[] public items\n    tag 19\t\t\tItem[] public items\n      JUMPDEST \t\t\tItem[] public items\n      PUSH 40\t\t\tItem[] public items\n      MLOAD \t\t\tItem[] public items\n      PUSH [tag] 23\t\t\tItem[] public items\n      SWAP9 \t\t\tItem[] public items\n      SWAP8 \t\t\tItem[] public items\n      SWAP7 \t\t\tItem[] public items\n      SWAP6 \t\t\tItem[] public items\n      SWAP5 \t\t\tItem[] public items\n      SWAP4 \t\t\tItem[] public items\n      SWAP3 \t\t\tItem[] public items\n      SWAP2 \t\t\tItem[] public items\n      SWAP1 \t\t\tItem[] public items\n      PUSH [tag] 24\t\t\tItem[] public items\n      JUMP \t\t\tItem[] public items\n    tag 23\t\t\tItem[] public items\n      JUMPDEST \t\t\tItem[] public items\n      PUSH 40\t\t\tItem[] public items\n      MLOAD \t\t\tItem[] public items\n      DUP1 \t\t\tItem[] public items\n      SWAP2 \t\t\tItem[] public items\n      SUB \t\t\tItem[] public items\n      SWAP1 \t\t\tItem[] public items\n      RETURN \t\t\tItem[] public items\n    tag 5\t\t\tfunction getItemById(uint _id)...\n      JUMPDEST \t\t\tfunction getItemById(uint _id)...\n      CALLVALUE \t\t\tfunction getItemById(uint _id)...\n      DUP1 \t\t\tfunction getItemById(uint _id)...\n      ISZERO \t\t\tfunction getItemById(uint _id)...\n      PUSH [tag] 25\t\t\tfunction getItemById(uint _id)...\n      JUMPI \t\t\tfunction getItemById(uint _id)...\n      PUSH 0\t\t\tfunction getItemById(uint _id)...\n      DUP1 \t\t\tfunction getItemById(uint _id)...\n      REVERT \t\t\tfunction getItemById(uint _id)...\n    tag 25\t\t\tfunction getItemById(uint _id)...\n      JUMPDEST \t\t\tfunction getItemById(uint _id)...\n      POP \t\t\tfunction getItemById(uint _id)...\n      PUSH [tag] 26\t\t\tfunction getItemById(uint _id)...\n      PUSH 4\t\t\tfunction getItemById(uint _id)...\n      DUP1 \t\t\tfunction getItemById(uint _id)...\n      CALLDATASIZE \t\t\tfunction getItemById(uint _id)...\n      SUB \t\t\tfunction getItemById(uint _id)...\n      DUP2 \t\t\tfunction getItemById(uint _id)...\n      ADD \t\t\tfunction getItemById(uint _id)...\n      SWAP1 \t\t\tfunction getItemById(uint _id)...\n      PUSH [tag] 27\t\t\tfunction getItemById(uint _id)...\n      SWAP2 \t\t\tfunction getItemById(uint _id)...\n      SWAP1 \t\t\tfunction getItemById(uint _id)...\n      PUSH [tag] 21\t\t\tfunction getItemById(uint _id)...\n      JUMP \t\t\tfunction getItemById(uint _id)...\n    tag 27\t\t\tfunction getItemById(uint _id)...\n      JUMPDEST \t\t\tfunction getItemById(uint _id)...\n      PUSH [tag] 28\t\t\tfunction getItemById(uint _id)...\n      JUMP \t\t\tfunction getItemById(uint _id)...\n    tag 26\t\t\tfunction getItemById(uint _id)...\n      JUMPDEST \t\t\tfunction getItemById(uint _id)...\n      PUSH 40\t\t\tfunction getItemById(uint _id)...\n      MLOAD \t\t\tfunction getItemById(uint _id)...\n      PUSH [tag] 29\t\t\tfunction getItemById(uint _id)...\n      SWAP2 \t\t\tfunction getItemById(uint _id)...\n      SWAP1 \t\t\tfunction getItemById(uint _id)...\n      PUSH [tag] 30\t\t\tfunction getItemById(uint _id)...\n      JUMP \t\t\tfunction getItemById(uint _id)...\n    tag 29\t\t\tfunction getItemById(uint _id)...\n      JUMPDEST \t\t\tfunction getItemById(uint _id)...\n      PUSH 40\t\t\tfunction getItemById(uint _id)...\n      MLOAD \t\t\tfunction getItemById(uint _id)...\n      DUP1 \t\t\tfunction getItemById(uint _id)...\n      SWAP2 \t\t\tfunction getItemById(uint _id)...\n      SUB \t\t\tfunction getItemById(uint _id)...\n      SWAP1 \t\t\tfunction getItemById(uint _id)...\n      RETURN \t\t\tfunction getItemById(uint _id)...\n    tag 6\t\t\tfunction listItem(string memor...\n      JUMPDEST \t\t\tfunction listItem(string memor...\n      CALLVALUE \t\t\tfunction listItem(string memor...\n      DUP1 \t\t\tfunction listItem(string memor...\n      ISZERO \t\t\tfunction listItem(string memor...\n      PUSH [tag] 31\t\t\tfunction listItem(string memor...\n      JUMPI \t\t\tfunction listItem(string memor...\n      PUSH 0\t\t\tfunction listItem(string memor...\n      DUP1 \t\t\tfunction listItem(string memor...\n      REVERT \t\t\tfunction listItem(string memor...\n    tag 31\t\t\tfunction listItem(string memor...\n      JUMPDEST \t\t\tfunction listItem(string memor...\n      POP \t\t\tfunction listItem(string memor...\n      PUSH [tag] 32\t\t\tfunction listItem(string memor...\n      PUSH 4\t\t\tfunction listItem(string memor...\n      DUP1 \t\t\tfunction listItem(string memor...\n      CALLDATASIZE \t\t\tfunction listItem(string memor...\n      SUB \t\t\tfunction listItem(string memor...\n      DUP2 \t\t\tfunction listItem(string memor...\n      ADD \t\t\tfunction listItem(string memor...\n      SWAP1 \t\t\tfunction listItem(string memor...\n      PUSH [tag] 33\t\t\tfunction listItem(string memor...\n      SWAP2 \t\t\tfunction listItem(string memor...\n      SWAP1 \t\t\tfunction listItem(string memor...\n      PUSH [tag] 34\t\t\tfunction listItem(string memor...\n      JUMP \t\t\tfunction listItem(string memor...\n    tag 33\t\t\tfunction listItem(string memor...\n      JUMPDEST \t\t\tfunction listItem(string memor...\n      PUSH [tag] 35\t\t\tfunction listItem(string memor...\n      JUMP \t\t\tfunction listItem(string memor...\n    tag 32\t\t\tfunction listItem(string memor...\n      JUMPDEST \t\t\tfunction listItem(string memor...\n      STOP \t\t\tfunction listItem(string memor...\n    tag 7\t\t\tfunction buyItem(uint _id) pub...\n      JUMPDEST \t\t\tfunction buyItem(uint _id) pub...\n      PUSH [tag] 36\t\t\tfunction buyItem(uint _id) pub...\n      PUSH 4\t\t\tfunction buyItem(uint _id) pub...\n      DUP1 \t\t\tfunction buyItem(uint _id) pub...\n      CALLDATASIZE \t\t\tfunction buyItem(uint _id) pub...\n      SUB \t\t\tfunction buyItem(uint _id) pub...\n      DUP2 \t\t\tfunction buyItem(uint _id) pub...\n      ADD \t\t\tfunction buyItem(uint _id) pub...\n      SWAP1 \t\t\tfunction buyItem(uint _id) pub...\n      PUSH [tag] 37\t\t\tfunction buyItem(uint _id) pub...\n      SWAP2 \t\t\tfunction buyItem(uint _id) pub...\n      SWAP1 \t\t\tfunction buyItem(uint _id) pub...\n      PUSH [tag] 21\t\t\tfunction buyItem(uint _id) pub...\n      JUMP \t\t\tfunction buyItem(uint _id) pub...\n    tag 37\t\t\tfunction buyItem(uint _id) pub...\n      JUMPDEST \t\t\tfunction buyItem(uint _id) pub...\n      PUSH [tag] 38\t\t\tfunction buyItem(uint _id) pub...\n      JUMP \t\t\tfunction buyItem(uint _id) pub...\n    tag 36\t\t\tfunction buyItem(uint _id) pub...\n      JUMPDEST \t\t\tfunction buyItem(uint _id) pub...\n      STOP \t\t\tfunction buyItem(uint _id) pub...\n    tag 10\t\t\tfunction getAllItems() public ...\n      JUMPDEST \t\t\tfunction getAllItems() public ...\n      PUSH 60\t\t\tItem[] memory\n      PUSH 0\t\t\titems\n      DUP1 \t\t\treturn items\n      SLOAD \t\t\treturn items\n      DUP1 \t\t\treturn items\n      PUSH 20\t\t\treturn items\n      MUL \t\t\treturn items\n      PUSH 20\t\t\treturn items\n      ADD \t\t\treturn items\n      PUSH 40\t\t\treturn items\n      MLOAD \t\t\treturn items\n      SWAP1 \t\t\treturn items\n      DUP2 \t\t\treturn items\n      ADD \t\t\treturn items\n      PUSH 40\t\t\treturn items\n      MSTORE \t\t\treturn items\n      DUP1 \t\t\treturn items\n      SWAP3 \t\t\treturn items\n      SWAP2 \t\t\treturn items\n      SWAP1 \t\t\treturn items\n      DUP2 \t\t\treturn items\n      DUP2 \t\t\treturn items\n      MSTORE \t\t\treturn items\n      PUSH 20\t\t\treturn items\n      ADD \t\t\treturn items\n      PUSH 0\t\t\treturn items\n      SWAP1 \t\t\treturn items\n    tag 40\t\t\treturn items\n      JUMPDEST \t\t\treturn items\n      DUP3 \t\t\treturn items\n      DUP3 \t\t\treturn items\n      LT \t\t\treturn items\n      ISZERO \t\t\treturn items\n      PUSH [tag] 41\t\t\treturn items\n      JUMPI \t\t\treturn items\n      DUP4 \t\t\treturn items\n      DUP3 \t\t\treturn items\n      SWAP1 \t\t\treturn items\n      PUSH 0\t\t\treturn items\n      MSTORE \t\t\treturn items\n      PUSH 20\t\t\treturn items\n      PUSH 0\t\t\treturn items\n      KECCAK256 \t\t\treturn items\n      SWAP1 \t\t\treturn items\n      PUSH 8\t\t\treturn items\n      MUL \t\t\treturn items\n      ADD \t\t\treturn items\n      PUSH 40\t\t\treturn items\n      MLOAD \t\t\treturn items\n      DUP1 \t\t\treturn items\n      PUSH 100\t\t\treturn items\n      ADD \t\t\treturn items\n      PUSH 40\t\t\treturn items\n      MSTORE \t\t\treturn items\n      SWAP1 \t\t\treturn items\n      DUP2 \t\t\treturn items\n      PUSH 0\t\t\treturn items\n      DUP3 \t\t\treturn items\n      ADD \t\t\treturn items\n      SLOAD \t\t\treturn items\n      DUP2 \t\t\treturn items\n      MSTORE \t\t\treturn items\n      PUSH 20\t\t\treturn items\n      ADD \t\t\treturn items\n      PUSH 1\t\t\treturn items\n      DUP3 \t\t\treturn items\n      ADD \t\t\treturn items\n      PUSH 0\t\t\treturn items\n      SWAP1 \t\t\treturn items\n      SLOAD \t\t\treturn items\n      SWAP1 \t\t\treturn items\n      PUSH 100\t\t\treturn items\n      EXP \t\t\treturn items\n      SWAP1 \t\t\treturn items\n      DIV \t\t\treturn items\n      PUSH FFFFFFFFFFFFFFFFFFFFFFFFFFFFFFFFFFFFFFFF\t\t\treturn items\n      AND \t\t\treturn items\n      PUSH FFFFFFFFFFFFFFFFFFFFFFFFFFFFFFFFFFFFFFFF\t\t\treturn items\n      AND \t\t\treturn items\n      PUSH FFFFFFFFFFFFFFFFFFFFFFFFFFFFFFFFFFFFFFFF\t\t\treturn items\n      AND \t\t\treturn items\n      DUP2 \t\t\treturn items\n      MSTORE \t\t\treturn items\n      PUSH 20\t\t\treturn items\n      ADD \t\t\treturn items\n      PUSH 2\t\t\treturn items\n      DUP3 \t\t\treturn items\n      ADD \t\t\treturn items\n      PUSH 0\t\t\treturn items\n      SWAP1 \t\t\treturn items\n      SLOAD \t\t\treturn items\n      SWAP1 \t\t\treturn items\n      PUSH 100\t\t\treturn items\n      EXP \t\t\treturn items\n      SWAP1 \t\t\treturn items\n      DIV \t\t\treturn items\n      PUSH FFFFFFFFFFFFFFFFFFFFFFFFFFFFFFFFFFFFFFFF\t\t\treturn items\n      AND \t\t\treturn items\n      PUSH FFFFFFFFFFFFFFFFFFFFFFFFFFFFFFFFFFFFFFFF\t\t\treturn items\n      AND \t\t\treturn items\n      PUSH FFFFFFFFFFFFFFFFFFFFFFFFFFFFFFFFFFFFFFFF\t\t\treturn items\n      AND \t\t\treturn items\n      DUP2 \t\t\treturn items\n      MSTORE \t\t\treturn items\n      PUSH 20\t\t\treturn items\n      ADD \t\t\treturn items\n      PUSH 3\t\t\treturn items\n      DUP3 \t\t\treturn items\n      ADD \t\t\treturn items\n      DUP1 \t\t\treturn items\n      SLOAD \t\t\treturn items\n      PUSH [tag] 43\t\t\treturn items\n      SWAP1 \t\t\treturn items\n      PUSH [tag] 44\t\t\treturn items\n      JUMP \t\t\treturn items\n    tag 43\t\t\treturn items\n      JUMPDEST \t\t\treturn items\n      DUP1 \t\t\treturn items\n      PUSH 1F\t\t\treturn items\n      ADD \t\t\treturn items\n      PUSH 20\t\t\treturn items\n      DUP1 \t\t\treturn items\n      SWAP2 \t\t\treturn items\n      DIV \t\t\treturn items\n      MUL \t\t\treturn items\n      PUSH 20\t\t\treturn items\n      ADD \t\t\treturn items\n      PUSH 40\t\t\treturn items\n      MLOAD \t\t\treturn items\n      SWAP1 \t\t\treturn items\n      DUP2 \t\t\treturn items\n      ADD \t\t\treturn items\n      PUSH 40\t\t\treturn items\n      MSTORE \t\t\treturn items\n      DUP1 \t\t\treturn items\n      SWAP3 \t\t\treturn items\n      SWAP2 \t\t\treturn items\n      SWAP1 \t\t\treturn items\n      DUP2 \t\t\treturn items\n      DUP2 \t\t\treturn items\n      MSTORE \t\t\treturn items\n      PUSH 20\t\t\treturn items\n      ADD \t\t\treturn items\n      DUP3 \t\t\treturn items\n      DUP1 \t\t\treturn items\n      SLOAD \t\t\treturn items\n      PUSH [tag] 45\t\t\treturn items\n      SWAP1 \t\t\treturn items\n      PUSH [tag] 44\t\t\treturn items\n      JUMP \t\t\treturn items\n    tag 45\t\t\treturn items\n      JUMPDEST \t\t\treturn items\n      DUP1 \t\t\treturn items\n      ISZERO \t\t\treturn items\n      PUSH [tag] 46\t\t\treturn items\n      JUMPI \t\t\treturn items\n      DUP1 \t\t\treturn items\n      PUSH 1F\t\t\treturn items\n      LT \t\t\treturn items\n      PUSH [tag] 47\t\t\treturn items\n      JUMPI \t\t\treturn items\n      PUSH 100\t\t\treturn items\n      DUP1 \t\t\treturn items\n      DUP4 \t\t\treturn items\n      SLOAD \t\t\treturn items\n      DIV \t\t\treturn items\n      MUL \t\t\treturn items\n      DUP4 \t\t\treturn items\n      MSTORE \t\t\treturn items\n      SWAP2 \t\t\treturn items\n      PUSH 20\t\t\treturn items\n      ADD \t\t\treturn items\n      SWAP2 \t\t\treturn items\n      PUSH [tag] 46\t\t\treturn items\n      JUMP \t\t\treturn items\n    tag 47\t\t\treturn items\n      JUMPDEST \t\t\treturn items\n      DUP3 \t\t\treturn items\n      ADD \t\t\treturn items\n      SWAP2 \t\t\treturn items\n      SWAP1 \t\t\treturn items\n      PUSH 0\t\t\treturn items\n      MSTORE \t\t\treturn items\n      PUSH 20\t\t\treturn items\n      PUSH 0\t\t\treturn items\n      KECCAK256 \t\t\treturn items\n      SWAP1 \t\t\treturn items\n    tag 48\t\t\treturn items\n      JUMPDEST \t\t\treturn items\n      DUP2 \t\t\treturn items\n      SLOAD \t\t\treturn items\n      DUP2 \t\t\treturn items\n      MSTORE \t\t\treturn items\n      SWAP1 \t\t\treturn items\n      PUSH 1\t\t\treturn items\n      ADD \t\t\treturn items\n      SWAP1 \t\t\treturn items\n      PUSH 20\t\t\treturn items\n      ADD \t\t\treturn items\n      DUP1 \t\t\treturn items\n      DUP4 \t\t\treturn items\n      GT \t\t\treturn items\n      PUSH [tag] 48\t\t\treturn items\n      JUMPI \t\t\treturn items\n      DUP3 \t\t\treturn items\n      SWAP1 \t\t\treturn items\n      SUB \t\t\treturn items\n      PUSH 1F\t\t\treturn items\n      AND \t\t\treturn items\n      DUP3 \t\t\treturn items\n      ADD \t\t\treturn items\n      SWAP2 \t\t\treturn items\n    tag 46\t\t\treturn items\n      JUMPDEST \t\t\treturn items\n      POP \t\t\treturn items\n      POP \t\t\treturn items\n      POP \t\t\treturn items\n      POP \t\t\treturn items\n      POP \t\t\treturn items\n      DUP2 \t\t\treturn items\n      MSTORE \t\t\treturn items\n      PUSH 20\t\t\treturn items\n      ADD \t\t\treturn items\n      PUSH 4\t\t\treturn items\n      DUP3 \t\t\treturn items\n      ADD \t\t\treturn items\n      DUP1 \t\t\treturn items\n      SLOAD \t\t\treturn items\n      PUSH [tag] 49\t\t\treturn items\n      SWAP1 \t\t\treturn items\n      PUSH [tag] 44\t\t\treturn items\n      JUMP \t\t\treturn items\n    tag 49\t\t\treturn items\n      JUMPDEST \t\t\treturn items\n      DUP1 \t\t\treturn items\n      PUSH 1F\t\t\treturn items\n      ADD \t\t\treturn items\n      PUSH 20\t\t\treturn items\n      DUP1 \t\t\treturn items\n      SWAP2 \t\t\treturn items\n      DIV \t\t\treturn items\n      MUL \t\t\treturn items\n      PUSH 20\t\t\treturn items\n      ADD \t\t\treturn items\n      PUSH 40\t\t\treturn items\n      MLOAD \t\t\treturn items\n      SWAP1 \t\t\treturn items\n      DUP2 \t\t\treturn items\n      ADD \t\t\treturn items\n      PUSH 40\t\t\treturn items\n      MSTORE \t\t\treturn items\n      DUP1 \t\t\treturn items\n      SWAP3 \t\t\treturn items\n      SWAP2 \t\t\treturn items\n      SWAP1 \t\t\treturn items\n      DUP2 \t\t\treturn items\n      DUP2 \t\t\treturn items\n      MSTORE \t\t\treturn items\n      PUSH 20\t\t\treturn items\n      ADD \t\t\treturn items\n      DUP3 \t\t\treturn items\n      DUP1 \t\t\treturn items\n      SLOAD \t\t\treturn items\n      PUSH [tag] 50\t\t\treturn items\n      SWAP1 \t\t\treturn items\n      PUSH [tag] 44\t\t\treturn items\n      JUMP \t\t\treturn items\n    tag 50\t\t\treturn items\n      JUMPDEST \t\t\treturn items\n      DUP1 \t\t\treturn items\n      ISZERO \t\t\treturn items\n      PUSH [tag] 51\t\t\treturn items\n      JUMPI \t\t\treturn items\n      DUP1 \t\t\treturn items\n      PUSH 1F\t\t\treturn items\n      LT \t\t\treturn items\n      PUSH [tag] 52\t\t\treturn items\n      JUMPI \t\t\treturn items\n      PUSH 100\t\t\treturn items\n      DUP1 \t\t\treturn items\n      DUP4 \t\t\treturn items\n      SLOAD \t\t\treturn items\n      DIV \t\t\treturn items\n      MUL \t\t\treturn items\n      DUP4 \t\t\treturn items\n      MSTORE \t\t\treturn items\n      SWAP2 \t\t\treturn items\n      PUSH 20\t\t\treturn items\n      ADD \t\t\treturn items\n      SWAP2 \t\t\treturn items\n      PUSH [tag] 51\t\t\treturn items\n      JUMP \t\t\treturn items\n    tag 52\t\t\treturn items\n      JUMPDEST \t\t\treturn items\n      DUP3 \t\t\treturn items\n      ADD \t\t\treturn items\n      SWAP2 \t\t\treturn items\n      SWAP1 \t\t\treturn items\n      PUSH 0\t\t\treturn items\n      MSTORE \t\t\treturn items\n      PUSH 20\t\t\treturn items\n      PUSH 0\t\t\treturn items\n      KECCAK256 \t\t\treturn items\n      SWAP1 \t\t\treturn items\n    tag 53\t\t\treturn items\n      JUMPDEST \t\t\treturn items\n      DUP2 \t\t\treturn items\n      SLOAD \t\t\treturn items\n      DUP2 \t\t\treturn items\n      MSTORE \t\t\treturn items\n      SWAP1 \t\t\treturn items\n      PUSH 1\t\t\treturn items\n      ADD \t\t\treturn items\n      SWAP1 \t\t\treturn items\n      PUSH 20\t\t\treturn items\n      ADD \t\t\treturn items\n      DUP1 \t\t\treturn items\n      DUP4 \t\t\treturn items\n      GT \t\t\treturn items\n      PUSH [tag] 53\t\t\treturn items\n      JUMPI \t\t\treturn items\n      DUP3 \t\t\treturn items\n      SWAP1 \t\t\treturn items\n      SUB \t\t\treturn items\n      PUSH 1F\t\t\treturn items\n      AND \t\t\treturn items\n      DUP3 \t\t\treturn items\n      ADD \t\t\treturn items\n      SWAP2 \t\t\treturn items\n    tag 51\t\t\treturn items\n      JUMPDEST \t\t\treturn items\n      POP \t\t\treturn items\n      POP \t\t\treturn items\n      POP \t\t\treturn items\n      POP \t\t\treturn items\n      POP \t\t\treturn items\n      DUP2 \t\t\treturn items\n      MSTORE \t\t\treturn items\n      PUSH 20\t\t\treturn items\n      ADD \t\t\treturn items\n      PUSH 5\t\t\treturn items\n      DUP3 \t\t\treturn items\n      ADD \t\t\treturn items\n      DUP1 \t\t\treturn items\n      SLOAD \t\t\treturn items\n      PUSH [tag] 54\t\t\treturn items\n      SWAP1 \t\t\treturn items\n      PUSH [tag] 44\t\t\treturn items\n      JUMP \t\t\treturn items\n    tag 54\t\t\treturn items\n      JUMPDEST \t\t\treturn items\n      DUP1 \t\t\treturn items\n      PUSH 1F\t\t\treturn items\n      ADD \t\t\treturn items\n      PUSH 20\t\t\treturn items\n      DUP1 \t\t\treturn items\n      SWAP2 \t\t\treturn items\n      DIV \t\t\treturn items\n      MUL \t\t\treturn items\n      PUSH 20\t\t\treturn items\n      ADD \t\t\treturn items\n      PUSH 40\t\t\treturn items\n      MLOAD \t\t\treturn items\n      SWAP1 \t\t\treturn items\n      DUP2 \t\t\treturn items\n      ADD \t\t\treturn items\n      PUSH 40\t\t\treturn items\n      MSTORE \t\t\treturn items\n      DUP1 \t\t\treturn items\n      SWAP3 \t\t\treturn items\n      SWAP2 \t\t\treturn items\n      SWAP1 \t\t\treturn items\n      DUP2 \t\t\treturn items\n      DUP2 \t\t\treturn items\n      MSTORE \t\t\treturn items\n      PUSH 20\t\t\treturn items\n      ADD \t\t\treturn items\n      DUP3 \t\t\treturn items\n      DUP1 \t\t\treturn items\n      SLOAD \t\t\treturn items\n      PUSH [tag] 55\t\t\treturn items\n      SWAP1 \t\t\treturn items\n      PUSH [tag] 44\t\t\treturn items\n      JUMP \t\t\treturn items\n    tag 55\t\t\treturn items\n      JUMPDEST \t\t\treturn items\n      DUP1 \t\t\treturn items\n      ISZERO \t\t\treturn items\n      PUSH [tag] 56\t\t\treturn items\n      JUMPI \t\t\treturn items\n      DUP1 \t\t\treturn items\n      PUSH 1F\t\t\treturn items\n      LT \t\t\treturn items\n      PUSH [tag] 57\t\t\treturn items\n      JUMPI \t\t\treturn items\n      PUSH 100\t\t\treturn items\n      DUP1 \t\t\treturn items\n      DUP4 \t\t\treturn items\n      SLOAD \t\t\treturn items\n      DIV \t\t\treturn items\n      MUL \t\t\treturn items\n      DUP4 \t\t\treturn items\n      MSTORE \t\t\treturn items\n      SWAP2 \t\t\treturn items\n      PUSH 20\t\t\treturn items\n      ADD \t\t\treturn items\n      SWAP2 \t\t\treturn items\n      PUSH [tag] 56\t\t\treturn items\n      JUMP \t\t\treturn items\n    tag 57\t\t\treturn items\n      JUMPDEST \t\t\treturn items\n      DUP3 \t\t\treturn items\n      ADD \t\t\treturn items\n      SWAP2 \t\t\treturn items\n      SWAP1 \t\t\treturn items\n      PUSH 0\t\t\treturn items\n      MSTORE \t\t\treturn items\n      PUSH 20\t\t\treturn items\n      PUSH 0\t\t\treturn items\n      KECCAK256 \t\t\treturn items\n      SWAP1 \t\t\treturn items\n    tag 58\t\t\treturn items\n      JUMPDEST \t\t\treturn items\n      DUP2 \t\t\treturn items\n      SLOAD \t\t\treturn items\n      DUP2 \t\t\treturn items\n      MSTORE \t\t\treturn items\n      SWAP1 \t\t\treturn items\n      PUSH 1\t\t\treturn items\n      ADD \t\t\treturn items\n      SWAP1 \t\t\treturn items\n      PUSH 20\t\t\treturn items\n      ADD \t\t\treturn items\n      DUP1 \t\t\treturn items\n      DUP4 \t\t\treturn items\n      GT \t\t\treturn items\n      PUSH [tag] 58\t\t\treturn items\n      JUMPI \t\t\treturn items\n      DUP3 \t\t\treturn items\n      SWAP1 \t\t\treturn items\n      SUB \t\t\treturn items\n      PUSH 1F\t\t\treturn items\n      AND \t\t\treturn items\n      DUP3 \t\t\treturn items\n      ADD \t\t\treturn items\n      SWAP2 \t\t\treturn items\n    tag 56\t\t\treturn items\n      JUMPDEST \t\t\treturn items\n      POP \t\t\treturn items\n      POP \t\t\treturn items\n      POP \t\t\treturn items\n      POP \t\t\treturn items\n      POP \t\t\treturn items\n      DUP2 \t\t\treturn items\n      MSTORE \t\t\treturn items\n      PUSH 20\t\t\treturn items\n      ADD \t\t\treturn items\n      PUSH 6\t\t\treturn items\n      DUP3 \t\t\treturn items\n      ADD \t\t\treturn items\n      SLOAD \t\t\treturn items\n      DUP2 \t\t\treturn items\n      MSTORE \t\t\treturn items\n      PUSH 20\t\t\treturn items\n      ADD \t\t\treturn items\n      PUSH 7\t\t\treturn items\n      DUP3 \t\t\treturn items\n      ADD \t\t\treturn items\n      PUSH 0\t\t\treturn items\n      SWAP1 \t\t\treturn items\n      SLOAD \t\t\treturn items\n      SWAP1 \t\t\treturn items\n      PUSH 100\t\t\treturn items\n      EXP \t\t\treturn items\n      SWAP1 \t\t\treturn items\n      DIV \t\t\treturn items\n      PUSH FF\t\t\treturn items\n      AND \t\t\treturn items\n      ISZERO \t\t\treturn items\n      ISZERO \t\t\treturn items\n      ISZERO \t\t\treturn items\n      ISZERO \t\t\treturn items\n      DUP2 \t\t\treturn items\n      MSTORE \t\t\treturn items\n      POP \t\t\treturn items\n      POP \t\t\treturn items\n      DUP2 \t\t\treturn items\n      MSTORE \t\t\treturn items\n      PUSH 20\t\t\treturn items\n      ADD \t\t\treturn items\n      SWAP1 \t\t\treturn items\n      PUSH 1\t\t\treturn items\n      ADD \t\t\treturn items\n      SWAP1 \t\t\treturn items\n      PUSH [tag] 40\t\t\treturn items\n      JUMP \t\t\treturn items\n    tag 41\t\t\treturn items\n      JUMPDEST \t\t\treturn items\n      POP \t\t\treturn items\n      POP \t\t\treturn items\n      POP \t\t\treturn items\n      POP \t\t\treturn items\n      SWAP1 \t\t\treturn items\n      POP \t\t\treturn items\n      SWAP1 \t\t\tfunction getAllItems() public ...\n      JUMP \t\t\tfunction getAllItems() public ...\n    tag 15\t\t\tuint public itemCount = 0\n      JUMPDEST \t\t\tuint public itemCount = 0\n      PUSH 1\t\t\tuint public itemCount = 0\n      SLOAD \t\t\tuint public itemCount = 0\n      DUP2 \t\t\tuint public itemCount = 0\n      JUMP \t\t\tuint public itemCount = 0\n    tag 22\t\t\tItem[] public items\n      JUMPDEST \t\t\tItem[] public items\n      PUSH 0\t\t\tItem[] public items\n      DUP2 \t\t\tItem[] public items\n      DUP2 \t\t\tItem[] public items\n      SLOAD \t\t\tItem[] public items\n      DUP2 \t\t\tItem[] public items\n      LT \t\t\tItem[] public items\n      PUSH [tag] 59\t\t\tItem[] public items\n      JUMPI \t\t\tItem[] public items\n      PUSH 0\t\t\tItem[] public items\n      DUP1 \t\t\tItem[] public items\n      REVERT \t\t\tItem[] public items\n    tag 59\t\t\tItem[] public items\n      JUMPDEST \t\t\tItem[] public items\n      SWAP1 \t\t\tItem[] public items\n      PUSH 0\t\t\tItem[] public items\n      MSTORE \t\t\tItem[] public items\n      PUSH 20\t\t\tItem[] public items\n      PUSH 0\t\t\tItem[] public items\n      KECCAK256 \t\t\tItem[] public items\n      SWAP1 \t\t\tItem[] public items\n      PUSH 8\t\t\tItem[] public items\n      MUL \t\t\tItem[] public items\n      ADD \t\t\tItem[] public items\n      PUSH 0\t\t\tItem[] public items\n      SWAP2 \t\t\tItem[] public items\n      POP \t\t\tItem[] public items\n      SWAP1 \t\t\tItem[] public items\n      POP \t\t\tItem[] public items\n      DUP1 \t\t\tItem[] public items\n      PUSH 0\t\t\tItem[] public items\n      ADD \t\t\tItem[] public items\n      SLOAD \t\t\tItem[] public items\n      SWAP1 \t\t\tItem[] public items\n      DUP1 \t\t\tItem[] public items\n      PUSH 1\t\t\tItem[] public items\n      ADD \t\t\tItem[] public items\n      PUSH 0\t\t\tItem[] public items\n      SWAP1 \t\t\tItem[] public items\n      SLOAD \t\t\tItem[] public items\n      SWAP1 \t\t\tItem[] public items\n      PUSH 100\t\t\tItem[] public items\n      EXP \t\t\tItem[] public items\n      SWAP1 \t\t\tItem[] public items\n      DIV \t\t\tItem[] public items\n      PUSH FFFFFFFFFFFFFFFFFFFFFFFFFFFFFFFFFFFFFFFF\t\t\tItem[] public items\n      AND \t\t\tItem[] public items\n      SWAP1 \t\t\tItem[] public items\n      DUP1 \t\t\tItem[] public items\n      PUSH 2\t\t\tItem[] public items\n      ADD \t\t\tItem[] public items\n      PUSH 0\t\t\tItem[] public items\n      SWAP1 \t\t\tItem[] public items\n      SLOAD \t\t\tItem[] public items\n      SWAP1 \t\t\tItem[] public items\n      PUSH 100\t\t\tItem[] public items\n      EXP \t\t\tItem[] public items\n      SWAP1 \t\t\tItem[] public items\n      DIV \t\t\tItem[] public items\n      PUSH FFFFFFFFFFFFFFFFFFFFFFFFFFFFFFFFFFFFFFFF\t\t\tItem[] public items\n      AND \t\t\tItem[] public items\n      SWAP1 \t\t\tItem[] public items\n      DUP1 \t\t\tItem[] public items\n      PUSH 3\t\t\tItem[] public items\n      ADD \t\t\tItem[] public items\n      DUP1 \t\t\tItem[] public items\n      SLOAD \t\t\tItem[] public items\n      PUSH [tag] 61\t\t\tItem[] public items\n      SWAP1 \t\t\tItem[] public items\n      PUSH [tag] 44\t\t\tItem[] public items\n      JUMP \t\t\tItem[] public items\n    tag 61\t\t\tItem[] public items\n      JUMPDEST \t\t\tItem[] public items\n      DUP1 \t\t\tItem[] public items\n      PUSH 1F\t\t\tItem[] public items\n      ADD \t\t\tItem[] public items\n      PUSH 20\t\t\tItem[] public items\n      DUP1 \t\t\tItem[] public items\n      SWAP2 \t\t\tItem[] public items\n      DIV \t\t\tItem[] public items\n      MUL \t\t\tItem[] public items\n      PUSH 20\t\t\tItem[] public items\n      ADD \t\t\tItem[] public items\n      PUSH 40\t\t\tItem[] public items\n      MLOAD \t\t\tItem[] public items\n      SWAP1 \t\t\tItem[] public items\n      DUP2 \t\t\tItem[] public items\n      ADD \t\t\tItem[] public items\n      PUSH 40\t\t\tItem[] public items\n      MSTORE \t\t\tItem[] public items\n      DUP1 \t\t\tItem[] public items\n      SWAP3 \t\t\tItem[] public items\n      SWAP2 \t\t\tItem[] public items\n      SWAP1 \t\t\tItem[] public items\n      DUP2 \t\t\tItem[] public items\n      DUP2 \t\t\tItem[] public items\n      MSTORE \t\t\tItem[] public items\n      PUSH 20\t\t\tItem[] public items\n      ADD \t\t\tItem[] public items\n      DUP3 \t\t\tItem[] public items\n      DUP1 \t\t\tItem[] public items\n      SLOAD \t\t\tItem[] public items\n      PUSH [tag] 62\t\t\tItem[] public items\n      SWAP1 \t\t\tItem[] public items\n      PUSH [tag] 44\t\t\tItem[] public items\n      JUMP \t\t\tItem[] public items\n    tag 62\t\t\tItem[] public items\n      JUMPDEST \t\t\tItem[] public items\n      DUP1 \t\t\tItem[] public items\n      ISZERO \t\t\tItem[] public items\n      PUSH [tag] 63\t\t\tItem[] public items\n      JUMPI \t\t\tItem[] public items\n      DUP1 \t\t\tItem[] public items\n      PUSH 1F\t\t\tItem[] public items\n      LT \t\t\tItem[] public items\n      PUSH [tag] 64\t\t\tItem[] public items\n      JUMPI \t\t\tItem[] public items\n      PUSH 100\t\t\tItem[] public items\n      DUP1 \t\t\tItem[] public items\n      DUP4 \t\t\tItem[] public items\n      SLOAD \t\t\tItem[] public items\n      DIV \t\t\tItem[] public items\n      MUL \t\t\tItem[] public items\n      DUP4 \t\t\tItem[] public items\n      MSTORE \t\t\tItem[] public items\n      SWAP2 \t\t\tItem[] public items\n      PUSH 20\t\t\tItem[] public items\n      ADD \t\t\tItem[] public items\n      SWAP2 \t\t\tItem[] public items\n      PUSH [tag] 63\t\t\tItem[] public items\n      JUMP \t\t\tItem[] public items\n    tag 64\t\t\tItem[] public items\n      JUMPDEST \t\t\tItem[] public items\n      DUP3 \t\t\tItem[] public items\n      ADD \t\t\tItem[] public items\n      SWAP2 \t\t\tItem[] public items\n      SWAP1 \t\t\tItem[] public items\n      PUSH 0\t\t\tItem[] public items\n      MSTORE \t\t\tItem[] public items\n      PUSH 20\t\t\tItem[] public items\n      PUSH 0\t\t\tItem[] public items\n      KECCAK256 \t\t\tItem[] public items\n      SWAP1 \t\t\tItem[] public items\n    tag 65\t\t\tItem[] public items\n      JUMPDEST \t\t\tItem[] public items\n      DUP2 \t\t\tItem[] public items\n      SLOAD \t\t\tItem[] public items\n      DUP2 \t\t\tItem[] public items\n      MSTORE \t\t\tItem[] public items\n      SWAP1 \t\t\tItem[] public items\n      PUSH 1\t\t\tItem[] public items\n      ADD \t\t\tItem[] public items\n      SWAP1 \t\t\tItem[] public items\n      PUSH 20\t\t\tItem[] public items\n      ADD \t\t\tItem[] public items\n      DUP1 \t\t\tItem[] public items\n      DUP4 \t\t\tItem[] public items\n      GT \t\t\tItem[] public items\n      PUSH [tag] 65\t\t\tItem[] public items\n      JUMPI \t\t\tItem[] public items\n      DUP3 \t\t\tItem[] public items\n      SWAP1 \t\t\tItem[] public items\n      SUB \t\t\tItem[] public items\n      PUSH 1F\t\t\tItem[] public items\n      AND \t\t\tItem[] public items\n      DUP3 \t\t\tItem[] public items\n      ADD \t\t\tItem[] public items\n      SWAP2 \t\t\tItem[] public items\n    tag 63\t\t\tItem[] public items\n      JUMPDEST \t\t\tItem[] public items\n      POP \t\t\tItem[] public items\n      POP \t\t\tItem[] public items\n      POP \t\t\tItem[] public items\n      POP \t\t\tItem[] public items\n      POP \t\t\tItem[] public items\n      SWAP1 \t\t\tItem[] public items\n      DUP1 \t\t\tItem[] public items\n      PUSH 4\t\t\tItem[] public items\n      ADD \t\t\tItem[] public items\n      DUP1 \t\t\tItem[] public items\n      SLOAD \t\t\tItem[] public items\n      PUSH [tag] 66\t\t\tItem[] public items\n      SWAP1 \t\t\tItem[] public items\n      PUSH [tag] 44\t\t\tItem[] public items\n      JUMP \t\t\tItem[] public items\n    tag 66\t\t\tItem[] public items\n      JUMPDEST \t\t\tItem[] public items\n      DUP1 \t\t\tItem[] public items\n      PUSH 1F\t\t\tItem[] public items\n      ADD \t\t\tItem[] public items\n      PUSH 20\t\t\tItem[] public items\n      DUP1 \t\t\tItem[] public items\n      SWAP2 \t\t\tItem[] public items\n      DIV \t\t\tItem[] public items\n      MUL \t\t\tItem[] public items\n      PUSH 20\t\t\tItem[] public items\n      ADD \t\t\tItem[] public items\n      PUSH 40\t\t\tItem[] public items\n      MLOAD \t\t\tItem[] public items\n      SWAP1 \t\t\tItem[] public items\n      DUP2 \t\t\tItem[] public items\n      ADD \t\t\tItem[] public items\n      PUSH 40\t\t\tItem[] public items\n      MSTORE \t\t\tItem[] public items\n      DUP1 \t\t\tItem[] public items\n      SWAP3 \t\t\tItem[] public items\n      SWAP2 \t\t\tItem[] public items\n      SWAP1 \t\t\tItem[] public items\n      DUP2 \t\t\tItem[] public items\n      DUP2 \t\t\tItem[] public items\n      MSTORE \t\t\tItem[] public items\n      PUSH 20\t\t\tItem[] public items\n      ADD \t\t\tItem[] public items\n      DUP3 \t\t\tItem[] public items\n      DUP1 \t\t\tItem[] public items\n      SLOAD \t\t\tItem[] public items\n      PUSH [tag] 67\t\t\tItem[] public items\n      SWAP1 \t\t\tItem[] public items\n      PUSH [tag] 44\t\t\tItem[] public items\n      JUMP \t\t\tItem[] public items\n    tag 67\t\t\tItem[] public items\n      JUMPDEST \t\t\tItem[] public items\n      DUP1 \t\t\tItem[] public items\n      ISZERO \t\t\tItem[] public items\n      PUSH [tag] 68\t\t\tItem[] public items\n      JUMPI \t\t\tItem[] public items\n      DUP1 \t\t\tItem[] public items\n      PUSH 1F\t\t\tItem[] public items\n      LT \t\t\tItem[] public items\n      PUSH [tag] 69\t\t\tItem[] public items\n      JUMPI \t\t\tItem[] public items\n      PUSH 100\t\t\tItem[] public items\n      DUP1 \t\t\tItem[] public items\n      DUP4 \t\t\tItem[] public items\n      SLOAD \t\t\tItem[] public items\n      DIV \t\t\tItem[] public items\n      MUL \t\t\tItem[] public items\n      DUP4 \t\t\tItem[] public items\n      MSTORE \t\t\tItem[] public items\n      SWAP2 \t\t\tItem[] public items\n      PUSH 20\t\t\tItem[] public items\n      ADD \t\t\tItem[] public items\n      SWAP2 \t\t\tItem[] public items\n      PUSH [tag] 68\t\t\tItem[] public items\n      JUMP \t\t\tItem[] public items\n    tag 69\t\t\tItem[] public items\n      JUMPDEST \t\t\tItem[] public items\n      DUP3 \t\t\tItem[] public items\n      ADD \t\t\tItem[] public items\n      SWAP2 \t\t\tItem[] public items\n      SWAP1 \t\t\tItem[] public items\n      PUSH 0\t\t\tItem[] public items\n      MSTORE \t\t\tItem[] public items\n      PUSH 20\t\t\tItem[] public items\n      PUSH 0\t\t\tItem[] public items\n      KECCAK256 \t\t\tItem[] public items\n      SWAP1 \t\t\tItem[] public items\n    tag 70\t\t\tItem[] public items\n      JUMPDEST \t\t\tItem[] public items\n      DUP2 \t\t\tItem[] public items\n      SLOAD \t\t\tItem[] public items\n      DUP2 \t\t\tItem[] public items\n      MSTORE \t\t\tItem[] public items\n      SWAP1 \t\t\tItem[] public items\n      PUSH 1\t\t\tItem[] public items\n      ADD \t\t\tItem[] public items\n      SWAP1 \t\t\tItem[] public items\n      PUSH 20\t\t\tItem[] public items\n      ADD \t\t\tItem[] public items\n      DUP1 \t\t\tItem[] public items\n      DUP4 \t\t\tItem[] public items\n      GT \t\t\tItem[] public items\n      PUSH [tag] 70\t\t\tItem[] public items\n      JUMPI \t\t\tItem[] public items\n      DUP3 \t\t\tItem[] public items\n      SWAP1 \t\t\tItem[] public items\n      SUB \t\t\tItem[] public items\n      PUSH 1F\t\t\tItem[] public items\n      AND \t\t\tItem[] public items\n      DUP3 \t\t\tItem[] public items\n      ADD \t\t\tItem[] public items\n      SWAP2 \t\t\tItem[] public items\n    tag 68\t\t\tItem[] public items\n      JUMPDEST \t\t\tItem[] public items\n      POP \t\t\tItem[] public items\n      POP \t\t\tItem[] public items\n      POP \t\t\tItem[] public items\n      POP \t\t\tItem[] public items\n      POP \t\t\tItem[] public items\n      SWAP1 \t\t\tItem[] public items\n      DUP1 \t\t\tItem[] public items\n      PUSH 5\t\t\tItem[] public items\n      ADD \t\t\tItem[] public items\n      DUP1 \t\t\tItem[] public items\n      SLOAD \t\t\tItem[] public items\n      PUSH [tag] 71\t\t\tItem[] public items\n      SWAP1 \t\t\tItem[] public items\n      PUSH [tag] 44\t\t\tItem[] public items\n      JUMP \t\t\tItem[] public items\n    tag 71\t\t\tItem[] public items\n      JUMPDEST \t\t\tItem[] public items\n      DUP1 \t\t\tItem[] public items\n      PUSH 1F\t\t\tItem[] public items\n      ADD \t\t\tItem[] public items\n      PUSH 20\t\t\tItem[] public items\n      DUP1 \t\t\tItem[] public items\n      SWAP2 \t\t\tItem[] public items\n      DIV \t\t\tItem[] public items\n      MUL \t\t\tItem[] public items\n      PUSH 20\t\t\tItem[] public items\n      ADD \t\t\tItem[] public items\n      PUSH 40\t\t\tItem[] public items\n      MLOAD \t\t\tItem[] public items\n      SWAP1 \t\t\tItem[] public items\n      DUP2 \t\t\tItem[] public items\n      ADD \t\t\tItem[] public items\n      PUSH 40\t\t\tItem[] public items\n      MSTORE \t\t\tItem[] public items\n      DUP1 \t\t\tItem[] public items\n      SWAP3 \t\t\tItem[] public items\n      SWAP2 \t\t\tItem[] public items\n      SWAP1 \t\t\tItem[] public items\n      DUP2 \t\t\tItem[] public items\n      DUP2 \t\t\tItem[] public items\n      MSTORE \t\t\tItem[] public items\n      PUSH 20\t\t\tItem[] public items\n      ADD \t\t\tItem[] public items\n      DUP3 \t\t\tItem[] public items\n      DUP1 \t\t\tItem[] public items\n      SLOAD \t\t\tItem[] public items\n      PUSH [tag] 72\t\t\tItem[] public items\n      SWAP1 \t\t\tItem[] public items\n      PUSH [tag] 44\t\t\tItem[] public items\n      JUMP \t\t\tItem[] public items\n    tag 72\t\t\tItem[] public items\n      JUMPDEST \t\t\tItem[] public items\n      DUP1 \t\t\tItem[] public items\n      ISZERO \t\t\tItem[] public items\n      PUSH [tag] 73\t\t\tItem[] public items\n      JUMPI \t\t\tItem[] public items\n      DUP1 \t\t\tItem[] public items\n      PUSH 1F\t\t\tItem[] public items\n      LT \t\t\tItem[] public items\n      PUSH [tag] 74\t\t\tItem[] public items\n      JUMPI \t\t\tItem[] public items\n      PUSH 100\t\t\tItem[] public items\n      DUP1 \t\t\tItem[] public items\n      DUP4 \t\t\tItem[] public items\n      SLOAD \t\t\tItem[] public items\n      DIV \t\t\tItem[] public items\n      MUL \t\t\tItem[] public items\n      DUP4 \t\t\tItem[] public items\n      MSTORE \t\t\tItem[] public items\n      SWAP2 \t\t\tItem[] public items\n      PUSH 20\t\t\tItem[] public items\n      ADD \t\t\tItem[] public items\n      SWAP2 \t\t\tItem[] public items\n      PUSH [tag] 73\t\t\tItem[] public items\n      JUMP \t\t\tItem[] public items\n    tag 74\t\t\tItem[] public items\n      JUMPDEST \t\t\tItem[] public items\n      DUP3 \t\t\tItem[] public items\n      ADD \t\t\tItem[] public items\n      SWAP2 \t\t\tItem[] public items\n      SWAP1 \t\t\tItem[] public items\n      PUSH 0\t\t\tItem[] public items\n      MSTORE \t\t\tItem[] public items\n      PUSH 20\t\t\tItem[] public items\n      PUSH 0\t\t\tItem[] public items\n      KECCAK256 \t\t\tItem[] public items\n      SWAP1 \t\t\tItem[] public items\n    tag 75\t\t\tItem[] public items\n      JUMPDEST \t\t\tItem[] public items\n      DUP2 \t\t\tItem[] public items\n      SLOAD \t\t\tItem[] public items\n      DUP2 \t\t\tItem[] public items\n      MSTORE \t\t\tItem[] public items\n      SWAP1 \t\t\tItem[] public items\n      PUSH 1\t\t\tItem[] public items\n      ADD \t\t\tItem[] public items\n      SWAP1 \t\t\tItem[] public items\n      PUSH 20\t\t\tItem[] public items\n      ADD \t\t\tItem[] public items\n      DUP1 \t\t\tItem[] public items\n      DUP4 \t\t\tItem[] public items\n      GT \t\t\tItem[] public items\n      PUSH [tag] 75\t\t\tItem[] public items\n      JUMPI \t\t\tItem[] public items\n      DUP3 \t\t\tItem[] public items\n      SWAP1 \t\t\tItem[] public items\n      SUB \t\t\tItem[] public items\n      PUSH 1F\t\t\tItem[] public items\n      AND \t\t\tItem[] public items\n      DUP3 \t\t\tItem[] public items\n      ADD \t\t\tItem[] public items\n      SWAP2 \t\t\tItem[] public items\n    tag 73\t\t\tItem[] public items\n      JUMPDEST \t\t\tItem[] public items\n      POP \t\t\tItem[] public items\n      POP \t\t\tItem[] public items\n      POP \t\t\tItem[] public items\n      POP \t\t\tItem[] public items\n      POP \t\t\tItem[] public items\n      SWAP1 \t\t\tItem[] public items\n      DUP1 \t\t\tItem[] public items\n      PUSH 6\t\t\tItem[] public items\n      ADD \t\t\tItem[] public items\n      SLOAD \t\t\tItem[] public items\n      SWAP1 \t\t\tItem[] public items\n      DUP1 \t\t\tItem[] public items\n      PUSH 7\t\t\tItem[] public items\n      ADD \t\t\tItem[] public items\n      PUSH 0\t\t\tItem[] public items\n      SWAP1 \t\t\tItem[] public items\n      SLOAD \t\t\tItem[] public items\n      SWAP1 \t\t\tItem[] public items\n      PUSH 100\t\t\tItem[] public items\n      EXP \t\t\tItem[] public items\n      SWAP1 \t\t\tItem[] public items\n      DIV \t\t\tItem[] public items\n      PUSH FF\t\t\tItem[] public items\n      AND \t\t\tItem[] public items\n      SWAP1 \t\t\tItem[] public items\n      POP \t\t\tItem[] public items\n      DUP9 \t\t\tItem[] public items\n      JUMP \t\t\tItem[] public items\n    tag 28\t\t\tfunction getItemById(uint _id)...\n      JUMPDEST \t\t\tfunction getItemById(uint _id)...\n      PUSH [tag] 76\t\t\tItem memory\n      PUSH [tag] 77\t\t\tItem memory\n      JUMP \t\t\tItem memory\n    tag 76\t\t\tItem memory\n      JUMPDEST \t\t\tItem memory\n      PUSH 1\t\t\titemCount\n      SLOAD \t\t\titemCount\n      DUP3 \t\t\t_id\n      LT \t\t\t_id < itemCount\n      PUSH [tag] 79\t\t\trequire(_id < itemCount, \"Item...\n      JUMPI \t\t\trequire(_id < itemCount, \"Item...\n      PUSH 40\t\t\trequire(_id < itemCount, \"Item...\n      MLOAD \t\t\trequire(_id < itemCount, \"Item...\n      PUSH 8C379A000000000000000000000000000000000000000000000000000000000\t\t\trequire(_id < itemCount, \"Item...\n      DUP2 \t\t\trequire(_id < itemCount, \"Item...\n      MSTORE \t\t\trequire(_id < itemCount, \"Item...\n      PUSH 4\t\t\trequire(_id < itemCount, \"Item...\n      ADD \t\t\trequire(_id < itemCount, \"Item...\n      PUSH [tag] 80\t\t\trequire(_id < itemCount, \"Item...\n      SWAP1 \t\t\trequire(_id < itemCount, \"Item...\n      PUSH [tag] 81\t\t\trequire(_id < itemCount, \"Item...\n      JUMP \t\t\trequire(_id < itemCount, \"Item...\n    tag 80\t\t\trequire(_id < itemCount, \"Item...\n      JUMPDEST \t\t\trequire(_id < itemCount, \"Item...\n      PUSH 40\t\t\trequire(_id < itemCount, \"Item...\n      MLOAD \t\t\trequire(_id < itemCount, \"Item...\n      DUP1 \t\t\trequire(_id < itemCount, \"Item...\n      SWAP2 \t\t\trequire(_id < itemCount, \"Item...\n      SUB \t\t\trequire(_id < itemCount, \"Item...\n      SWAP1 \t\t\trequire(_id < itemCount, \"Item...\n      REVERT \t\t\trequire(_id < itemCount, \"Item...\n    tag 79\t\t\trequire(_id < itemCount, \"Item...\n      JUMPDEST \t\t\trequire(_id < itemCount, \"Item...\n      PUSH 0\t\t\titems\n      DUP3 \t\t\t_id\n      DUP2 \t\t\titems[_id]\n      SLOAD \t\t\titems[_id]\n      DUP2 \t\t\titems[_id]\n      LT \t\t\titems[_id]\n      PUSH [tag] 82\t\t\titems[_id]\n      JUMPI \t\t\titems[_id]\n      PUSH [tag] 83\t\t\titems[_id]\n      PUSH [tag] 84\t\t\titems[_id]\n      JUMP \t\t\titems[_id]\n    tag 83\t\t\titems[_id]\n      JUMPDEST \t\t\titems[_id]\n    tag 82\t\t\titems[_id]\n      JUMPDEST \t\t\titems[_id]\n      SWAP1 \t\t\titems[_id]\n      PUSH 0\t\t\titems[_id]\n      MSTORE \t\t\titems[_id]\n      PUSH 20\t\t\titems[_id]\n      PUSH 0\t\t\titems[_id]\n      KECCAK256 \t\t\titems[_id]\n      SWAP1 \t\t\titems[_id]\n      PUSH 8\t\t\titems[_id]\n      MUL \t\t\titems[_id]\n      ADD \t\t\titems[_id]\n      PUSH 40\t\t\treturn items[_id]\n      MLOAD \t\t\treturn items[_id]\n      DUP1 \t\t\treturn items[_id]\n      PUSH 100\t\t\treturn items[_id]\n      ADD \t\t\treturn items[_id]\n      PUSH 40\t\t\treturn items[_id]\n      MSTORE \t\t\treturn items[_id]\n      SWAP1 \t\t\treturn items[_id]\n      DUP2 \t\t\treturn items[_id]\n      PUSH 0\t\t\treturn items[_id]\n      DUP3 \t\t\treturn items[_id]\n      ADD \t\t\treturn items[_id]\n      SLOAD \t\t\treturn items[_id]\n      DUP2 \t\t\treturn items[_id]\n      MSTORE \t\t\treturn items[_id]\n      PUSH 20\t\t\treturn items[_id]\n      ADD \t\t\treturn items[_id]\n      PUSH 1\t\t\treturn items[_id]\n      DUP3 \t\t\treturn items[_id]\n      ADD \t\t\treturn items[_id]\n      PUSH 0\t\t\treturn items[_id]\n      SWAP1 \t\t\treturn items[_id]\n      SLOAD \t\t\treturn items[_id]\n      SWAP1 \t\t\treturn items[_id]\n      PUSH 100\t\t\treturn items[_id]\n      EXP \t\t\treturn items[_id]\n      SWAP1 \t\t\treturn items[_id]\n      DIV \t\t\treturn items[_id]\n      PUSH FFFFFFFFFFFFFFFFFFFFFFFFFFFFFFFFFFFFFFFF\t\t\treturn items[_id]\n      AND \t\t\treturn items[_id]\n      PUSH FFFFFFFFFFFFFFFFFFFFFFFFFFFFFFFFFFFFFFFF\t\t\treturn items[_id]\n      AND \t\t\treturn items[_id]\n      PUSH FFFFFFFFFFFFFFFFFFFFFFFFFFFFFFFFFFFFFFFF\t\t\treturn items[_id]\n      AND \t\t\treturn items[_id]\n      DUP2 \t\t\treturn items[_id]\n      MSTORE \t\t\treturn items[_id]\n      PUSH 20\t\t\treturn items[_id]\n      ADD \t\t\treturn items[_id]\n      PUSH 2\t\t\treturn items[_id]\n      DUP3 \t\t\treturn items[_id]\n      ADD \t\t\treturn items[_id]\n      PUSH 0\t\t\treturn items[_id]\n      SWAP1 \t\t\treturn items[_id]\n      SLOAD \t\t\treturn items[_id]\n      SWAP1 \t\t\treturn items[_id]\n      PUSH 100\t\t\treturn items[_id]\n      EXP \t\t\treturn items[_id]\n      SWAP1 \t\t\treturn items[_id]\n      DIV \t\t\treturn items[_id]\n      PUSH FFFFFFFFFFFFFFFFFFFFFFFFFFFFFFFFFFFFFFFF\t\t\treturn items[_id]\n      AND \t\t\treturn items[_id]\n      PUSH FFFFFFFFFFFFFFFFFFFFFFFFFFFFFFFFFFFFFFFF\t\t\treturn items[_id]\n      AND \t\t\treturn items[_id]\n      PUSH FFFFFFFFFFFFFFFFFFFFFFFFFFFFFFFFFFFFFFFF\t\t\treturn items[_id]\n      AND \t\t\treturn items[_id]\n      DUP2 \t\t\treturn items[_id]\n      MSTORE \t\t\treturn items[_id]\n      PUSH 20\t\t\treturn items[_id]\n      ADD \t\t\treturn items[_id]\n      PUSH 3\t\t\treturn items[_id]\n      DUP3 \t\t\treturn items[_id]\n      ADD \t\t\treturn items[_id]\n      DUP1 \t\t\treturn items[_id]\n      SLOAD \t\t\treturn items[_id]\n      PUSH [tag] 86\t\t\treturn items[_id]\n      SWAP1 \t\t\treturn items[_id]\n      PUSH [tag] 44\t\t\treturn items[_id]\n      JUMP \t\t\treturn items[_id]\n    tag 86\t\t\treturn items[_id]\n      JUMPDEST \t\t\treturn items[_id]\n      DUP1 \t\t\treturn items[_id]\n      PUSH 1F\t\t\treturn items[_id]\n      ADD \t\t\treturn items[_id]\n      PUSH 20\t\t\treturn items[_id]\n      DUP1 \t\t\treturn items[_id]\n      SWAP2 \t\t\treturn items[_id]\n      DIV \t\t\treturn items[_id]\n      MUL \t\t\treturn items[_id]\n      PUSH 20\t\t\treturn items[_id]\n      ADD \t\t\treturn items[_id]\n      PUSH 40\t\t\treturn items[_id]\n      MLOAD \t\t\treturn items[_id]\n      SWAP1 \t\t\treturn items[_id]\n      DUP2 \t\t\treturn items[_id]\n      ADD \t\t\treturn items[_id]\n      PUSH 40\t\t\treturn items[_id]\n      MSTORE \t\t\treturn items[_id]\n      DUP1 \t\t\treturn items[_id]\n      SWAP3 \t\t\treturn items[_id]\n      SWAP2 \t\t\treturn items[_id]\n      SWAP1 \t\t\treturn items[_id]\n      DUP2 \t\t\treturn items[_id]\n      DUP2 \t\t\treturn items[_id]\n      MSTORE \t\t\treturn items[_id]\n      PUSH 20\t\t\treturn items[_id]\n      ADD \t\t\treturn items[_id]\n      DUP3 \t\t\treturn items[_id]\n      DUP1 \t\t\treturn items[_id]\n      SLOAD \t\t\treturn items[_id]\n      PUSH [tag] 87\t\t\treturn items[_id]\n      SWAP1 \t\t\treturn items[_id]\n      PUSH [tag] 44\t\t\treturn items[_id]\n      JUMP \t\t\treturn items[_id]\n    tag 87\t\t\treturn items[_id]\n      JUMPDEST \t\t\treturn items[_id]\n      DUP1 \t\t\treturn items[_id]\n      ISZERO \t\t\treturn items[_id]\n      PUSH [tag] 88\t\t\treturn items[_id]\n      JUMPI \t\t\treturn items[_id]\n      DUP1 \t\t\treturn items[_id]\n      PUSH 1F\t\t\treturn items[_id]\n      LT \t\t\treturn items[_id]\n      PUSH [tag] 89\t\t\treturn items[_id]\n      JUMPI \t\t\treturn items[_id]\n      PUSH 100\t\t\treturn items[_id]\n      DUP1 \t\t\treturn items[_id]\n      DUP4 \t\t\treturn items[_id]\n      SLOAD \t\t\treturn items[_id]\n      DIV \t\t\treturn items[_id]\n      MUL \t\t\treturn items[_id]\n      DUP4 \t\t\treturn items[_id]\n      MSTORE \t\t\treturn items[_id]\n      SWAP2 \t\t\treturn items[_id]\n      PUSH 20\t\t\treturn items[_id]\n      ADD \t\t\treturn items[_id]\n      SWAP2 \t\t\treturn items[_id]\n      PUSH [tag] 88\t\t\treturn items[_id]\n      JUMP \t\t\treturn items[_id]\n    tag 89\t\t\treturn items[_id]\n      JUMPDEST \t\t\treturn items[_id]\n      DUP3 \t\t\treturn items[_id]\n      ADD \t\t\treturn items[_id]\n      SWAP2 \t\t\treturn items[_id]\n      SWAP1 \t\t\treturn items[_id]\n      PUSH 0\t\t\treturn items[_id]\n      MSTORE \t\t\treturn items[_id]\n      PUSH 20\t\t\treturn items[_id]\n      PUSH 0\t\t\treturn items[_id]\n      KECCAK256 \t\t\treturn items[_id]\n      SWAP1 \t\t\treturn items[_id]\n    tag 90\t\t\treturn items[_id]\n      JUMPDEST \t\t\treturn items[_id]\n      DUP2 \t\t\treturn items[_id]\n      SLOAD \t\t\treturn items[_id]\n      DUP2 \t\t\treturn items[_id]\n      MSTORE \t\t\treturn items[_id]\n      SWAP1 \t\t\treturn items[_id]\n      PUSH 1\t\t\treturn items[_id]\n      ADD \t\t\treturn items[_id]\n      SWAP1 \t\t\treturn items[_id]\n      PUSH 20\t\t\treturn items[_id]\n      ADD \t\t\treturn items[_id]\n      DUP1 \t\t\treturn items[_id]\n      DUP4 \t\t\treturn items[_id]\n      GT \t\t\treturn items[_id]\n      PUSH [tag] 90\t\t\treturn items[_id]\n      JUMPI \t\t\treturn items[_id]\n      DUP3 \t\t\treturn items[_id]\n      SWAP1 \t\t\treturn items[_id]\n      SUB \t\t\treturn items[_id]\n      PUSH 1F\t\t\treturn items[_id]\n      AND \t\t\treturn items[_id]\n      DUP3 \t\t\treturn items[_id]\n      ADD \t\t\treturn items[_id]\n      SWAP2 \t\t\treturn items[_id]\n    tag 88\t\t\treturn items[_id]\n      JUMPDEST \t\t\treturn items[_id]\n      POP \t\t\treturn items[_id]\n      POP \t\t\treturn items[_id]\n      POP \t\t\treturn items[_id]\n      POP \t\t\treturn items[_id]\n      POP \t\t\treturn items[_id]\n      DUP2 \t\t\treturn items[_id]\n      MSTORE \t\t\treturn items[_id]\n      PUSH 20\t\t\treturn items[_id]\n      ADD \t\t\treturn items[_id]\n      PUSH 4\t\t\treturn items[_id]\n      DUP3 \t\t\treturn items[_id]\n      ADD \t\t\treturn items[_id]\n      DUP1 \t\t\treturn items[_id]\n      SLOAD \t\t\treturn items[_id]\n      PUSH [tag] 91\t\t\treturn items[_id]\n      SWAP1 \t\t\treturn items[_id]\n      PUSH [tag] 44\t\t\treturn items[_id]\n      JUMP \t\t\treturn items[_id]\n    tag 91\t\t\treturn items[_id]\n      JUMPDEST \t\t\treturn items[_id]\n      DUP1 \t\t\treturn items[_id]\n      PUSH 1F\t\t\treturn items[_id]\n      ADD \t\t\treturn items[_id]\n      PUSH 20\t\t\treturn items[_id]\n      DUP1 \t\t\treturn items[_id]\n      SWAP2 \t\t\treturn items[_id]\n      DIV \t\t\treturn items[_id]\n      MUL \t\t\treturn items[_id]\n      PUSH 20\t\t\treturn items[_id]\n      ADD \t\t\treturn items[_id]\n      PUSH 40\t\t\treturn items[_id]\n      MLOAD \t\t\treturn items[_id]\n      SWAP1 \t\t\treturn items[_id]\n      DUP2 \t\t\treturn items[_id]\n      ADD \t\t\treturn items[_id]\n      PUSH 40\t\t\treturn items[_id]\n      MSTORE \t\t\treturn items[_id]\n      DUP1 \t\t\treturn items[_id]\n      SWAP3 \t\t\treturn items[_id]\n      SWAP2 \t\t\treturn items[_id]\n      SWAP1 \t\t\treturn items[_id]\n      DUP2 \t\t\treturn items[_id]\n      DUP2 \t\t\treturn items[_id]\n      MSTORE \t\t\treturn items[_id]\n      PUSH 20\t\t\treturn items[_id]\n      ADD \t\t\treturn items[_id]\n      DUP3 \t\t\treturn items[_id]\n      DUP1 \t\t\treturn items[_id]\n      SLOAD \t\t\treturn items[_id]\n      PUSH [tag] 92\t\t\treturn items[_id]\n      SWAP1 \t\t\treturn items[_id]\n      PUSH [tag] 44\t\t\treturn items[_id]\n      JUMP \t\t\treturn items[_id]\n    tag 92\t\t\treturn items[_id]\n      JUMPDEST \t\t\treturn items[_id]\n      DUP1 \t\t\treturn items[_id]\n      ISZERO \t\t\treturn items[_id]\n      PUSH [tag] 93\t\t\treturn items[_id]\n      JUMPI \t\t\treturn items[_id]\n      DUP1 \t\t\treturn items[_id]\n      PUSH 1F\t\t\treturn items[_id]\n      LT \t\t\treturn items[_id]\n      PUSH [tag] 94\t\t\treturn items[_id]\n      JUMPI \t\t\treturn items[_id]\n      PUSH 100\t\t\treturn items[_id]\n      DUP1 \t\t\treturn items[_id]\n      DUP4 \t\t\treturn items[_id]\n      SLOAD \t\t\treturn items[_id]\n      DIV \t\t\treturn items[_id]\n      MUL \t\t\treturn items[_id]\n      DUP4 \t\t\treturn items[_id]\n      MSTORE \t\t\treturn items[_id]\n      SWAP2 \t\t\treturn items[_id]\n      PUSH 20\t\t\treturn items[_id]\n      ADD \t\t\treturn items[_id]\n      SWAP2 \t\t\treturn items[_id]\n      PUSH [tag] 93\t\t\treturn items[_id]\n      JUMP \t\t\treturn items[_id]\n    tag 94\t\t\treturn items[_id]\n      JUMPDEST \t\t\treturn items[_id]\n      DUP3 \t\t\treturn items[_id]\n      ADD \t\t\treturn items[_id]\n      SWAP2 \t\t\treturn items[_id]\n      SWAP1 \t\t\treturn items[_id]\n      PUSH 0\t\t\treturn items[_id]\n      MSTORE \t\t\treturn items[_id]\n      PUSH 20\t\t\treturn items[_id]\n      PUSH 0\t\t\treturn items[_id]\n      KECCAK256 \t\t\treturn items[_id]\n      SWAP1 \t\t\treturn items[_id]\n    tag 95\t\t\treturn items[_id]\n      JUMPDEST \t\t\treturn items[_id]\n      DUP2 \t\t\treturn items[_id]\n      SLOAD \t\t\treturn items[_id]\n      DUP2 \t\t\treturn items[_id]\n      MSTORE \t\t\treturn items[_id]\n      SWAP1 \t\t\treturn items[_id]\n      PUSH 1\t\t\treturn items[_id]\n      ADD \t\t\treturn items[_id]\n      SWAP1 \t\t\treturn items[_id]\n      PUSH 20\t\t\treturn items[_id]\n      ADD \t\t\treturn items[_id]\n      DUP1 \t\t\treturn items[_id]\n      DUP4 \t\t\treturn items[_id]\n      GT \t\t\treturn items[_id]\n      PUSH [tag] 95\t\t\treturn items[_id]\n      JUMPI \t\t\treturn items[_id]\n      DUP3 \t\t\treturn items[_id]\n      SWAP1 \t\t\treturn items[_id]\n      SUB \t\t\treturn items[_id]\n      PUSH 1F\t\t\treturn items[_id]\n      AND \t\t\treturn items[_id]\n      DUP3 \t\t\treturn items[_id]\n      ADD \t\t\treturn items[_id]\n      SWAP2 \t\t\treturn items[_id]\n    tag 93\t\t\treturn items[_id]\n      JUMPDEST \t\t\treturn items[_id]\n      POP \t\t\treturn items[_id]\n      POP \t\t\treturn items[_id]\n      POP \t\t\treturn items[_id]\n      POP \t\t\treturn items[_id]\n      POP \t\t\treturn items[_id]\n      DUP2 \t\t\treturn items[_id]\n      MSTORE \t\t\treturn items[_id]\n      PUSH 20\t\t\treturn items[_id]\n      ADD \t\t\treturn items[_id]\n      PUSH 5\t\t\treturn items[_id]\n      DUP3 \t\t\treturn items[_id]\n      ADD \t\t\treturn items[_id]\n      DUP1 \t\t\treturn items[_id]\n      SLOAD \t\t\treturn items[_id]\n      PUSH [tag] 96\t\t\treturn items[_id]\n      SWAP1 \t\t\treturn items[_id]\n      PUSH [tag] 44\t\t\treturn items[_id]\n      JUMP \t\t\treturn items[_id]\n    tag 96\t\t\treturn items[_id]\n      JUMPDEST \t\t\treturn items[_id]\n      DUP1 \t\t\treturn items[_id]\n      PUSH 1F\t\t\treturn items[_id]\n      ADD \t\t\treturn items[_id]\n      PUSH 20\t\t\treturn items[_id]\n      DUP1 \t\t\treturn items[_id]\n      SWAP2 \t\t\treturn items[_id]\n      DIV \t\t\treturn items[_id]\n      MUL \t\t\treturn items[_id]\n      PUSH 20\t\t\treturn items[_id]\n      ADD \t\t\treturn items[_id]\n      PUSH 40\t\t\treturn items[_id]\n      MLOAD \t\t\treturn items[_id]\n      SWAP1 \t\t\treturn items[_id]\n      DUP2 \t\t\treturn items[_id]\n      ADD \t\t\treturn items[_id]\n      PUSH 40\t\t\treturn items[_id]\n      MSTORE \t\t\treturn items[_id]\n      DUP1 \t\t\treturn items[_id]\n      SWAP3 \t\t\treturn items[_id]\n      SWAP2 \t\t\treturn items[_id]\n      SWAP1 \t\t\treturn items[_id]\n      DUP2 \t\t\treturn items[_id]\n      DUP2 \t\t\treturn items[_id]\n      MSTORE \t\t\treturn items[_id]\n      PUSH 20\t\t\treturn items[_id]\n      ADD \t\t\treturn items[_id]\n      DUP3 \t\t\treturn items[_id]\n      DUP1 \t\t\treturn items[_id]\n      SLOAD \t\t\treturn items[_id]\n      PUSH [tag] 97\t\t\treturn items[_id]\n      SWAP1 \t\t\treturn items[_id]\n      PUSH [tag] 44\t\t\treturn items[_id]\n      JUMP \t\t\treturn items[_id]\n    tag 97\t\t\treturn items[_id]\n      JUMPDEST \t\t\treturn items[_id]\n      DUP1 \t\t\treturn items[_id]\n      ISZERO \t\t\treturn items[_id]\n      PUSH [tag] 98\t\t\treturn items[_id]\n      JUMPI \t\t\treturn items[_id]\n      DUP1 \t\t\treturn items[_id]\n      PUSH 1F\t\t\treturn items[_id]\n      LT \t\t\treturn items[_id]\n      PUSH [tag] 99\t\t\treturn items[_id]\n      JUMPI \t\t\treturn items[_id]\n      PUSH 100\t\t\treturn items[_id]\n      DUP1 \t\t\treturn items[_id]\n      DUP4 \t\t\treturn items[_id]\n      SLOAD \t\t\treturn items[_id]\n      DIV \t\t\treturn items[_id]\n      MUL \t\t\treturn items[_id]\n      DUP4 \t\t\treturn items[_id]\n      MSTORE \t\t\treturn items[_id]\n      SWAP2 \t\t\treturn items[_id]\n      PUSH 20\t\t\treturn items[_id]\n      ADD \t\t\treturn items[_id]\n      SWAP2 \t\t\treturn items[_id]\n      PUSH [tag] 98\t\t\treturn items[_id]\n      JUMP \t\t\treturn items[_id]\n    tag 99\t\t\treturn items[_id]\n      JUMPDEST \t\t\treturn items[_id]\n      DUP3 \t\t\treturn items[_id]\n      ADD \t\t\treturn items[_id]\n      SWAP2 \t\t\treturn items[_id]\n      SWAP1 \t\t\treturn items[_id]\n      PUSH 0\t\t\treturn items[_id]\n      MSTORE \t\t\treturn items[_id]\n      PUSH 20\t\t\treturn items[_id]\n      PUSH 0\t\t\treturn items[_id]\n      KECCAK256 \t\t\treturn items[_id]\n      SWAP1 \t\t\treturn items[_id]\n    tag 100\t\t\treturn items[_id]\n      JUMPDEST \t\t\treturn items[_id]\n      DUP2 \t\t\treturn items[_id]\n      SLOAD \t\t\treturn items[_id]\n      DUP2 \t\t\treturn items[_id]\n      MSTORE \t\t\treturn items[_id]\n      SWAP1 \t\t\treturn items[_id]\n      PUSH 1\t\t\treturn items[_id]\n      ADD \t\t\treturn items[_id]\n      SWAP1 \t\t\treturn items[_id]\n      PUSH 20\t\t\treturn items[_id]\n      ADD \t\t\treturn items[_id]\n      DUP1 \t\t\treturn items[_id]\n      DUP4 \t\t\treturn items[_id]\n      GT \t\t\treturn items[_id]\n      PUSH [tag] 100\t\t\treturn items[_id]\n      JUMPI \t\t\treturn items[_id]\n      DUP3 \t\t\treturn items[_id]\n      SWAP1 \t\t\treturn items[_id]\n      SUB \t\t\treturn items[_id]\n      PUSH 1F\t\t\treturn items[_id]\n      AND \t\t\treturn items[_id]\n      DUP3 \t\t\treturn items[_id]\n      ADD \t\t\treturn items[_id]\n      SWAP2 \t\t\treturn items[_id]\n    tag 98\t\t\treturn items[_id]\n      JUMPDEST \t\t\treturn items[_id]\n      POP \t\t\treturn items[_id]\n      POP \t\t\treturn items[_id]\n      POP \t\t\treturn items[_id]\n      POP \t\t\treturn items[_id]\n      POP \t\t\treturn items[_id]\n      DUP2 \t\t\treturn items[_id]\n      MSTORE \t\t\treturn items[_id]\n      PUSH 20\t\t\treturn items[_id]\n      ADD \t\t\treturn items[_id]\n      PUSH 6\t\t\treturn items[_id]\n      DUP3 \t\t\treturn items[_id]\n      ADD \t\t\treturn items[_id]\n      SLOAD \t\t\treturn items[_id]\n      DUP2 \t\t\treturn items[_id]\n      MSTORE \t\t\treturn items[_id]\n      PUSH 20\t\t\treturn items[_id]\n      ADD \t\t\treturn items[_id]\n      PUSH 7\t\t\treturn items[_id]\n      DUP3 \t\t\treturn items[_id]\n      ADD \t\t\treturn items[_id]\n      PUSH 0\t\t\treturn items[_id]\n      SWAP1 \t\t\treturn items[_id]\n      SLOAD \t\t\treturn items[_id]\n      SWAP1 \t\t\treturn items[_id]\n      PUSH 100\t\t\treturn items[_id]\n      EXP \t\t\treturn items[_id]\n      SWAP1 \t\t\treturn items[_id]\n      DIV \t\t\treturn items[_id]\n      PUSH FF\t\t\treturn items[_id]\n      AND \t\t\treturn items[_id]\n      ISZERO \t\t\treturn items[_id]\n      ISZERO \t\t\treturn items[_id]\n      ISZERO \t\t\treturn items[_id]\n      ISZERO \t\t\treturn items[_id]\n      DUP2 \t\t\treturn items[_id]\n      MSTORE \t\t\treturn items[_id]\n      POP \t\t\treturn items[_id]\n      POP \t\t\treturn items[_id]\n      SWAP1 \t\t\treturn items[_id]\n      POP \t\t\treturn items[_id]\n      SWAP2 \t\t\tfunction getItemById(uint _id)...\n      SWAP1 \t\t\tfunction getItemById(uint _id)...\n      POP \t\t\tfunction getItemById(uint _id)...\n      JUMP \t\t\tfunction getItemById(uint _id)...\n    tag 35\t\t\tfunction listItem(string memor...\n      JUMPDEST \t\t\tfunction listItem(string memor...\n      PUSH 0\t\t\t0\n      DUP2 \t\t\t_price\n      GT \t\t\t_price > 0\n      PUSH [tag] 102\t\t\trequire(_price > 0, \"Price mus...\n      JUMPI \t\t\trequire(_price > 0, \"Price mus...\n      PUSH 40\t\t\trequire(_price > 0, \"Price mus...\n      MLOAD \t\t\trequire(_price > 0, \"Price mus...\n      PUSH 8C379A000000000000000000000000000000000000000000000000000000000\t\t\trequire(_price > 0, \"Price mus...\n      DUP2 \t\t\trequire(_price > 0, \"Price mus...\n      MSTORE \t\t\trequire(_price > 0, \"Price mus...\n      PUSH 4\t\t\trequire(_price > 0, \"Price mus...\n      ADD \t\t\trequire(_price > 0, \"Price mus...\n      PUSH [tag] 103\t\t\trequire(_price > 0, \"Price mus...\n      SWAP1 \t\t\trequire(_price > 0, \"Price mus...\n      PUSH [tag] 104\t\t\trequire(_price > 0, \"Price mus...\n      JUMP \t\t\trequire(_price > 0, \"Price mus...\n    tag 103\t\t\trequire(_price > 0, \"Price mus...\n      JUMPDEST \t\t\trequire(_price > 0, \"Price mus...\n      PUSH 40\t\t\trequire(_price > 0, \"Price mus...\n      MLOAD \t\t\trequire(_price > 0, \"Price mus...\n      DUP1 \t\t\trequire(_price > 0, \"Price mus...\n      SWAP2 \t\t\trequire(_price > 0, \"Price mus...\n      SUB \t\t\trequire(_price > 0, \"Price mus...\n      SWAP1 \t\t\trequire(_price > 0, \"Price mus...\n      REVERT \t\t\trequire(_price > 0, \"Price mus...\n    tag 102\t\t\trequire(_price > 0, \"Price mus...\n      JUMPDEST \t\t\trequire(_price > 0, \"Price mus...\n      PUSH 0\t\t\titems\n      PUSH 40\t\t\tItem({\\r\\n            id: item...\n      MLOAD \t\t\tItem({\\r\\n            id: item...\n      DUP1 \t\t\tItem({\\r\\n            id: item...\n      PUSH 100\t\t\tItem({\\r\\n            id: item...\n      ADD \t\t\tItem({\\r\\n            id: item...\n      PUSH 40\t\t\tItem({\\r\\n            id: item...\n      MSTORE \t\t\tItem({\\r\\n            id: item...\n      DUP1 \t\t\tItem({\\r\\n            id: item...\n      PUSH 1\t\t\titemCount\n      SLOAD \t\t\titemCount\n      DUP2 \t\t\tItem({\\r\\n            id: item...\n      MSTORE \t\t\tItem({\\r\\n            id: item...\n      PUSH 20\t\t\tItem({\\r\\n            id: item...\n      ADD \t\t\tItem({\\r\\n            id: item...\n      CALLER \t\t\tmsg.sender\n      PUSH FFFFFFFFFFFFFFFFFFFFFFFFFFFFFFFFFFFFFFFF\t\t\tItem({\\r\\n            id: item...\n      AND \t\t\tItem({\\r\\n            id: item...\n      DUP2 \t\t\tItem({\\r\\n            id: item...\n      MSTORE \t\t\tItem({\\r\\n            id: item...\n      PUSH 20\t\t\tItem({\\r\\n            id: item...\n      ADD \t\t\tItem({\\r\\n            id: item...\n      CALLER \t\t\tmsg.sender\n      PUSH FFFFFFFFFFFFFFFFFFFFFFFFFFFFFFFFFFFFFFFF\t\t\tItem({\\r\\n            id: item...\n      AND \t\t\tItem({\\r\\n            id: item...\n      DUP2 \t\t\tItem({\\r\\n            id: item...\n      MSTORE \t\t\tItem({\\r\\n            id: item...\n      PUSH 20\t\t\tItem({\\r\\n            id: item...\n      ADD \t\t\tItem({\\r\\n            id: item...\n      DUP7 \t\t\t_title\n      DUP2 \t\t\tItem({\\r\\n            id: item...\n      MSTORE \t\t\tItem({\\r\\n            id: item...\n      PUSH 20\t\t\tItem({\\r\\n            id: item...\n      ADD \t\t\tItem({\\r\\n            id: item...\n      DUP6 \t\t\t_description\n      DUP2 \t\t\tItem({\\r\\n            id: item...\n      MSTORE \t\t\tItem({\\r\\n            id: item...\n      PUSH 20\t\t\tItem({\\r\\n            id: item...\n      ADD \t\t\tItem({\\r\\n            id: item...\n      DUP5 \t\t\t_imageHash\n      DUP2 \t\t\tItem({\\r\\n            id: item...\n      MSTORE \t\t\tItem({\\r\\n            id: item...\n      PUSH 20\t\t\tItem({\\r\\n            id: item...\n      ADD \t\t\tItem({\\r\\n            id: item...\n      DUP4 \t\t\t_price\n      DUP2 \t\t\tItem({\\r\\n            id: item...\n      MSTORE \t\t\tItem({\\r\\n            id: item...\n      PUSH 20\t\t\tItem({\\r\\n            id: item...\n      ADD \t\t\tItem({\\r\\n            id: item...\n      PUSH 0\t\t\tfalse\n      ISZERO \t\t\tItem({\\r\\n            id: item...\n      ISZERO \t\t\tItem({\\r\\n            id: item...\n      DUP2 \t\t\tItem({\\r\\n            id: item...\n      MSTORE \t\t\tItem({\\r\\n            id: item...\n      POP \t\t\tItem({\\r\\n            id: item...\n      SWAP1 \t\t\titems.push(Item({\\r\\n         ...\n      DUP1 \t\t\titems.push(Item({\\r\\n         ...\n      PUSH 1\t\t\titems.push(Item({\\r\\n         ...\n      DUP2 \t\t\titems.push(Item({\\r\\n         ...\n      SLOAD \t\t\titems.push(Item({\\r\\n         ...\n      ADD \t\t\titems.push(Item({\\r\\n         ...\n      DUP1 \t\t\titems.push(Item({\\r\\n         ...\n      DUP3 \t\t\titems.push(Item({\\r\\n         ...\n      SSTORE \t\t\titems.push(Item({\\r\\n         ...\n      DUP1 \t\t\titems.push(Item({\\r\\n         ...\n      SWAP2 \t\t\titems.push(Item({\\r\\n         ...\n      POP \t\t\titems.push(Item({\\r\\n         ...\n      POP \t\t\titems.push(Item({\\r\\n         ...\n      PUSH 1\t\t\titems.push(Item({\\r\\n         ...\n      SWAP1 \t\t\titems.push(Item({\\r\\n         ...\n      SUB \t\t\titems.push(Item({\\r\\n         ...\n      SWAP1 \t\t\titems.push(Item({\\r\\n         ...\n      PUSH 0\t\t\titems.push(Item({\\r\\n         ...\n      MSTORE \t\t\titems.push(Item({\\r\\n         ...\n      PUSH 20\t\t\titems.push(Item({\\r\\n         ...\n      PUSH 0\t\t\titems.push(Item({\\r\\n         ...\n      KECCAK256 \t\t\titems.push(Item({\\r\\n         ...\n      SWAP1 \t\t\titems.push(Item({\\r\\n         ...\n      PUSH 8\t\t\titems.push(Item({\\r\\n         ...\n      MUL \t\t\titems.push(Item({\\r\\n         ...\n      ADD \t\t\titems.push(Item({\\r\\n         ...\n      PUSH 0\t\t\titems.push(Item({\\r\\n         ...\n      SWAP1 \t\t\titems.push(Item({\\r\\n         ...\n      SWAP2 \t\t\titems.push(Item({\\r\\n         ...\n      SWAP1 \t\t\titems.push(Item({\\r\\n         ...\n      SWAP2 \t\t\titems.push(Item({\\r\\n         ...\n      SWAP1 \t\t\titems.push(Item({\\r\\n         ...\n      SWAP2 \t\t\titems.push(Item({\\r\\n         ...\n      POP \t\t\titems.push(Item({\\r\\n         ...\n      PUSH 0\t\t\titems.push(Item({\\r\\n         ...\n      DUP3 \t\t\titems.push(Item({\\r\\n         ...\n      ADD \t\t\titems.push(Item({\\r\\n         ...\n      MLOAD \t\t\titems.push(Item({\\r\\n         ...\n      DUP2 \t\t\titems.push(Item({\\r\\n         ...\n      PUSH 0\t\t\titems.push(Item({\\r\\n         ...\n      ADD \t\t\titems.push(Item({\\r\\n         ...\n      SSTORE \t\t\titems.push(Item({\\r\\n         ...\n      PUSH 20\t\t\titems.push(Item({\\r\\n         ...\n      DUP3 \t\t\titems.push(Item({\\r\\n         ...\n      ADD \t\t\titems.push(Item({\\r\\n         ...\n      MLOAD \t\t\titems.push(Item({\\r\\n         ...\n      DUP2 \t\t\titems.push(Item({\\r\\n         ...\n      PUSH 1\t\t\titems.push(Item({\\r\\n         ...\n      ADD \t\t\titems.push(Item({\\r\\n         ...\n      PUSH 0\t\t\titems.push(Item({\\r\\n         ...\n      PUSH 100\t\t\titems.push(Item({\\r\\n         ...\n      EXP \t\t\titems.push(Item({\\r\\n         ...\n      DUP2 \t\t\titems.push(Item({\\r\\n         ...\n      SLOAD \t\t\titems.push(Item({\\r\\n         ...\n      DUP2 \t\t\titems.push(Item({\\r\\n         ...\n      PUSH FFFFFFFFFFFFFFFFFFFFFFFFFFFFFFFFFFFFFFFF\t\t\titems.push(Item({\\r\\n         ...\n      MUL \t\t\titems.push(Item({\\r\\n         ...\n      NOT \t\t\titems.push(Item({\\r\\n         ...\n      AND \t\t\titems.push(Item({\\r\\n         ...\n      SWAP1 \t\t\titems.push(Item({\\r\\n         ...\n      DUP4 \t\t\titems.push(Item({\\r\\n         ...\n      PUSH FFFFFFFFFFFFFFFFFFFFFFFFFFFFFFFFFFFFFFFF\t\t\titems.push(Item({\\r\\n         ...\n      AND \t\t\titems.push(Item({\\r\\n         ...\n      MUL \t\t\titems.push(Item({\\r\\n         ...\n      OR \t\t\titems.push(Item({\\r\\n         ...\n      SWAP1 \t\t\titems.push(Item({\\r\\n         ...\n      SSTORE \t\t\titems.push(Item({\\r\\n         ...\n      POP \t\t\titems.push(Item({\\r\\n         ...\n      PUSH 40\t\t\titems.push(Item({\\r\\n         ...\n      DUP3 \t\t\titems.push(Item({\\r\\n         ...\n      ADD \t\t\titems.push(Item({\\r\\n         ...\n      MLOAD \t\t\titems.push(Item({\\r\\n         ...\n      DUP2 \t\t\titems.push(Item({\\r\\n         ...\n      PUSH 2\t\t\titems.push(Item({\\r\\n         ...\n      ADD \t\t\titems.push(Item({\\r\\n         ...\n      PUSH 0\t\t\titems.push(Item({\\r\\n         ...\n      PUSH 100\t\t\titems.push(Item({\\r\\n         ...\n      EXP \t\t\titems.push(Item({\\r\\n         ...\n      DUP2 \t\t\titems.push(Item({\\r\\n         ...\n      SLOAD \t\t\titems.push(Item({\\r\\n         ...\n      DUP2 \t\t\titems.push(Item({\\r\\n         ...\n      PUSH FFFFFFFFFFFFFFFFFFFFFFFFFFFFFFFFFFFFFFFF\t\t\titems.push(Item({\\r\\n         ...\n      MUL \t\t\titems.push(Item({\\r\\n         ...\n      NOT \t\t\titems.push(Item({\\r\\n         ...\n      AND \t\t\titems.push(Item({\\r\\n         ...\n      SWAP1 \t\t\titems.push(Item({\\r\\n         ...\n      DUP4 \t\t\titems.push(Item({\\r\\n         ...\n      PUSH FFFFFFFFFFFFFFFFFFFFFFFFFFFFFFFFFFFFFFFF\t\t\titems.push(Item({\\r\\n         ...\n      AND \t\t\titems.push(Item({\\r\\n         ...\n      MUL \t\t\titems.push(Item({\\r\\n         ...\n      OR \t\t\titems.push(Item({\\r\\n         ...\n      SWAP1 \t\t\titems.push(Item({\\r\\n         ...\n      SSTORE \t\t\titems.push(Item({\\r\\n         ...\n      POP \t\t\titems.push(Item({\\r\\n         ...\n      PUSH 60\t\t\titems.push(Item({\\r\\n         ...\n      DUP3 \t\t\titems.push(Item({\\r\\n         ...\n      ADD \t\t\titems.push(Item({\\r\\n         ...\n      MLOAD \t\t\titems.push(Item({\\r\\n         ...\n      DUP2 \t\t\titems.push(Item({\\r\\n         ...\n      PUSH 3\t\t\titems.push(Item({\\r\\n         ...\n      ADD \t\t\titems.push(Item({\\r\\n         ...\n      SWAP1 \t\t\titems.push(Item({\\r\\n         ...\n      DUP2 \t\t\titems.push(Item({\\r\\n         ...\n      PUSH [tag] 106\t\t\titems.push(Item({\\r\\n         ...\n      SWAP2 \t\t\titems.push(Item({\\r\\n         ...\n      SWAP1 \t\t\titems.push(Item({\\r\\n         ...\n      PUSH [tag] 107\t\t\titems.push(Item({\\r\\n         ...\n      JUMP \t\t\titems.push(Item({\\r\\n         ...\n    tag 106\t\t\titems.push(Item({\\r\\n         ...\n      JUMPDEST \t\t\titems.push(Item({\\r\\n         ...\n      POP \t\t\titems.push(Item({\\r\\n         ...\n      PUSH 80\t\t\titems.push(Item({\\r\\n         ...\n      DUP3 \t\t\titems.push(Item({\\r\\n         ...\n      ADD \t\t\titems.push(Item({\\r\\n         ...\n      MLOAD \t\t\titems.push(Item({\\r\\n         ...\n      DUP2 \t\t\titems.push(Item({\\r\\n         ...\n      PUSH 4\t\t\titems.push(Item({\\r\\n         ...\n      ADD \t\t\titems.push(Item({\\r\\n         ...\n      SWAP1 \t\t\titems.push(Item({\\r\\n         ...\n      DUP2 \t\t\titems.push(Item({\\r\\n         ...\n      PUSH [tag] 108\t\t\titems.push(Item({\\r\\n         ...\n      SWAP2 \t\t\titems.push(Item({\\r\\n         ...\n      SWAP1 \t\t\titems.push(Item({\\r\\n         ...\n      PUSH [tag] 107\t\t\titems.push(Item({\\r\\n         ...\n      JUMP \t\t\titems.push(Item({\\r\\n         ...\n    tag 108\t\t\titems.push(Item({\\r\\n         ...\n      JUMPDEST \t\t\titems.push(Item({\\r\\n         ...\n      POP \t\t\titems.push(Item({\\r\\n         ...\n      PUSH A0\t\t\titems.push(Item({\\r\\n         ...\n      DUP3 \t\t\titems.push(Item({\\r\\n         ...\n      ADD \t\t\titems.push(Item({\\r\\n         ...\n      MLOAD \t\t\titems.push(Item({\\r\\n         ...\n      DUP2 \t\t\titems.push(Item({\\r\\n         ...\n      PUSH 5\t\t\titems.push(Item({\\r\\n         ...\n      ADD \t\t\titems.push(Item({\\r\\n         ...\n      SWAP1 \t\t\titems.push(Item({\\r\\n         ...\n      DUP2 \t\t\titems.push(Item({\\r\\n         ...\n      PUSH [tag] 109\t\t\titems.push(Item({\\r\\n         ...\n      SWAP2 \t\t\titems.push(Item({\\r\\n         ...\n      SWAP1 \t\t\titems.push(Item({\\r\\n         ...\n      PUSH [tag] 107\t\t\titems.push(Item({\\r\\n         ...\n      JUMP \t\t\titems.push(Item({\\r\\n         ...\n    tag 109\t\t\titems.push(Item({\\r\\n         ...\n      JUMPDEST \t\t\titems.push(Item({\\r\\n         ...\n      POP \t\t\titems.push(Item({\\r\\n         ...\n      PUSH C0\t\t\titems.push(Item({\\r\\n         ...\n      DUP3 \t\t\titems.push(Item({\\r\\n         ...\n      ADD \t\t\titems.push(Item({\\r\\n         ...\n      MLOAD \t\t\titems.push(Item({\\r\\n         ...\n      DUP2 \t\t\titems.push(Item({\\r\\n         ...\n      PUSH 6\t\t\titems.push(Item({\\r\\n         ...\n      ADD \t\t\titems.push(Item({\\r\\n         ...\n      SSTORE \t\t\titems.push(Item({\\r\\n         ...\n      PUSH E0\t\t\titems.push(Item({\\r\\n         ...\n      DUP3 \t\t\titems.push(Item({\\r\\n         ...\n      ADD \t\t\titems.push(Item({\\r\\n         ...\n      MLOAD \t\t\titems.push(Item({\\r\\n         ...\n      DUP2 \t\t\titems.push(Item({\\r\\n         ...\n      PUSH 7\t\t\titems.push(Item({\\r\\n         ...\n      ADD \t\t\titems.push(Item({\\r\\n         ...\n      PUSH 0\t\t\titems.push(Item({\\r\\n         ...\n      PUSH 100\t\t\titems.push(Item({\\r\\n         ...\n      EXP \t\t\titems.push(Item({\\r\\n         ...\n      DUP2 \t\t\titems.push(Item({\\r\\n         ...\n      SLOAD \t\t\titems.push(Item({\\r\\n         ...\n      DUP2 \t\t\titems.push(Item({\\r\\n         ...\n      PUSH FF\t\t\titems.push(Item({\\r\\n         ...\n      MUL \t\t\titems.push(Item({\\r\\n         ...\n      NOT \t\t\titems.push(Item({\\r\\n         ...\n      AND \t\t\titems.push(Item({\\r\\n         ...\n      SWAP1 \t\t\titems.push(Item({\\r\\n         ...\n      DUP4 \t\t\titems.push(Item({\\r\\n         ...\n      ISZERO \t\t\titems.push(Item({\\r\\n         ...\n      ISZERO \t\t\titems.push(Item({\\r\\n         ...\n      MUL \t\t\titems.push(Item({\\r\\n         ...\n      OR \t\t\titems.push(Item({\\r\\n         ...\n      SWAP1 \t\t\titems.push(Item({\\r\\n         ...\n      SSTORE \t\t\titems.push(Item({\\r\\n         ...\n      POP \t\t\titems.push(Item({\\r\\n         ...\n      POP \t\t\titems.push(Item({\\r\\n         ...\n      POP \t\t\titems.push(Item({\\r\\n         ...\n      CALLER \t\t\tmsg.sender\n      PUSH FFFFFFFFFFFFFFFFFFFFFFFFFFFFFFFFFFFFFFFF\t\t\tItemListed(itemCount, msg.send...\n      AND \t\t\tItemListed(itemCount, msg.send...\n      CALLER \t\t\tmsg.sender\n      PUSH FFFFFFFFFFFFFFFFFFFFFFFFFFFFFFFFFFFFFFFF\t\t\tItemListed(itemCount, msg.send...\n      AND \t\t\tItemListed(itemCount, msg.send...\n      PUSH C8CAFA36072A4A4AEF47B5164EEF855AA92FAC71FF751E55217E14982720C7FE\t\t\tItemListed(itemCount, msg.send...\n      PUSH 1\t\t\titemCount\n      SLOAD \t\t\titemCount\n      DUP8 \t\t\t_title\n      DUP7 \t\t\t_imageHash\n      DUP7 \t\t\t_price\n      PUSH 40\t\t\tItemListed(itemCount, msg.send...\n      MLOAD \t\t\tItemListed(itemCount, msg.send...\n      PUSH [tag] 110\t\t\tItemListed(itemCount, msg.send...\n      SWAP5 \t\t\tItemListed(itemCount, msg.send...\n      SWAP4 \t\t\tItemListed(itemCount, msg.send...\n      SWAP3 \t\t\tItemListed(itemCount, msg.send...\n      SWAP2 \t\t\tItemListed(itemCount, msg.send...\n      SWAP1 \t\t\tItemListed(itemCount, msg.send...\n      PUSH [tag] 111\t\t\tItemListed(itemCount, msg.send...\n      JUMP \t\t\tItemListed(itemCount, msg.send...\n    tag 110\t\t\tItemListed(itemCount, msg.send...\n      JUMPDEST \t\t\tItemListed(itemCount, msg.send...\n      PUSH 40\t\t\tItemListed(itemCount, msg.send...\n      MLOAD \t\t\tItemListed(itemCount, msg.send...\n      DUP1 \t\t\tItemListed(itemCount, msg.send...\n      SWAP2 \t\t\tItemListed(itemCount, msg.send...\n      SUB \t\t\tItemListed(itemCount, msg.send...\n      SWAP1 \t\t\tItemListed(itemCount, msg.send...\n      LOG3 \t\t\tItemListed(itemCount, msg.send...\n      PUSH 1\t\t\titemCount\n      PUSH 0\t\t\titemCount\n      DUP2 \t\t\titemCount++\n      SLOAD \t\t\titemCount++\n      DUP1 \t\t\titemCount++\n      SWAP3 \t\t\titemCount++\n      SWAP2 \t\t\titemCount++\n      SWAP1 \t\t\titemCount++\n      PUSH [tag] 112\t\t\titemCount++\n      SWAP1 \t\t\titemCount++\n      PUSH [tag] 113\t\t\titemCount++\n      JUMP \t\t\titemCount++\n    tag 112\t\t\titemCount++\n      JUMPDEST \t\t\titemCount++\n      SWAP2 \t\t\titemCount++\n      SWAP1 \t\t\titemCount++\n      POP \t\t\titemCount++\n      SSTORE \t\t\titemCount++\n      POP \t\t\titemCount++\n      POP \t\t\tfunction listItem(string memor...\n      POP \t\t\tfunction listItem(string memor...\n      POP \t\t\tfunction listItem(string memor...\n      POP \t\t\tfunction listItem(string memor...\n      JUMP \t\t\tfunction listItem(string memor...\n    tag 38\t\t\tfunction buyItem(uint _id) pub...\n      JUMPDEST \t\t\tfunction buyItem(uint _id) pub...\n      PUSH 1\t\t\titemCount\n      SLOAD \t\t\titemCount\n      DUP2 \t\t\t_id\n      LT \t\t\t_id < itemCount\n      PUSH [tag] 115\t\t\trequire(_id < itemCount, \"Item...\n      JUMPI \t\t\trequire(_id < itemCount, \"Item...\n      PUSH 40\t\t\trequire(_id < itemCount, \"Item...\n      MLOAD \t\t\trequire(_id < itemCount, \"Item...\n      PUSH 8C379A000000000000000000000000000000000000000000000000000000000\t\t\trequire(_id < itemCount, \"Item...\n      DUP2 \t\t\trequire(_id < itemCount, \"Item...\n      MSTORE \t\t\trequire(_id < itemCount, \"Item...\n      PUSH 4\t\t\trequire(_id < itemCount, \"Item...\n      ADD \t\t\trequire(_id < itemCount, \"Item...\n      PUSH [tag] 116\t\t\trequire(_id < itemCount, \"Item...\n      SWAP1 \t\t\trequire(_id < itemCount, \"Item...\n      PUSH [tag] 81\t\t\trequire(_id < itemCount, \"Item...\n      JUMP \t\t\trequire(_id < itemCount, \"Item...\n    tag 116\t\t\trequire(_id < itemCount, \"Item...\n      JUMPDEST \t\t\trequire(_id < itemCount, \"Item...\n      PUSH 40\t\t\trequire(_id < itemCount, \"Item...\n      MLOAD \t\t\trequire(_id < itemCount, \"Item...\n      DUP1 \t\t\trequire(_id < itemCount, \"Item...\n      SWAP2 \t\t\trequire(_id < itemCount, \"Item...\n      SUB \t\t\trequire(_id < itemCount, \"Item...\n      SWAP1 \t\t\trequire(_id < itemCount, \"Item...\n      REVERT \t\t\trequire(_id < itemCount, \"Item...\n    tag 115\t\t\trequire(_id < itemCount, \"Item...\n      JUMPDEST \t\t\trequire(_id < itemCount, \"Item...\n      PUSH 0\t\t\tItem storage item\n      DUP1 \t\t\titems\n      DUP3 \t\t\t_id\n      DUP2 \t\t\titems[_id]\n      SLOAD \t\t\titems[_id]\n      DUP2 \t\t\titems[_id]\n      LT \t\t\titems[_id]\n      PUSH [tag] 117\t\t\titems[_id]\n      JUMPI \t\t\titems[_id]\n      PUSH [tag] 118\t\t\titems[_id]\n      PUSH [tag] 84\t\t\titems[_id]\n      JUMP \t\t\titems[_id]\n    tag 118\t\t\titems[_id]\n      JUMPDEST \t\t\titems[_id]\n    tag 117\t\t\titems[_id]\n      JUMPDEST \t\t\titems[_id]\n      SWAP1 \t\t\titems[_id]\n      PUSH 0\t\t\titems[_id]\n      MSTORE \t\t\titems[_id]\n      PUSH 20\t\t\titems[_id]\n      PUSH 0\t\t\titems[_id]\n      KECCAK256 \t\t\titems[_id]\n      SWAP1 \t\t\titems[_id]\n      PUSH 8\t\t\titems[_id]\n      MUL \t\t\titems[_id]\n      ADD \t\t\titems[_id]\n      SWAP1 \t\t\tItem storage item = items[_id]\n      POP \t\t\tItem storage item = items[_id]\n      DUP1 \t\t\titem\n      PUSH 6\t\t\titem.price\n      ADD \t\t\titem.price\n      SLOAD \t\t\titem.price\n      CALLVALUE \t\t\tmsg.value\n      EQ \t\t\tmsg.value == item.price\n      PUSH [tag] 120\t\t\trequire(msg.value == item.pric...\n      JUMPI \t\t\trequire(msg.value == item.pric...\n      PUSH 40\t\t\trequire(msg.value == item.pric...\n      MLOAD \t\t\trequire(msg.value == item.pric...\n      PUSH 8C379A000000000000000000000000000000000000000000000000000000000\t\t\trequire(msg.value == item.pric...\n      DUP2 \t\t\trequire(msg.value == item.pric...\n      MSTORE \t\t\trequire(msg.value == item.pric...\n      PUSH 4\t\t\trequire(msg.value == item.pric...\n      ADD \t\t\trequire(msg.value == item.pric...\n      PUSH [tag] 121\t\t\trequire(msg.value == item.pric...\n      SWAP1 \t\t\trequire(msg.value == item.pric...\n      PUSH [tag] 122\t\t\trequire(msg.value == item.pric...\n      JUMP \t\t\trequire(msg.value == item.pric...\n    tag 121\t\t\trequire(msg.value == item.pric...\n      JUMPDEST \t\t\trequire(msg.value == item.pric...\n      PUSH 40\t\t\trequire(msg.value == item.pric...\n      MLOAD \t\t\trequire(msg.value == item.pric...\n      DUP1 \t\t\trequire(msg.value == item.pric...\n      SWAP2 \t\t\trequire(msg.value == item.pric...\n      SUB \t\t\trequire(msg.value == item.pric...\n      SWAP1 \t\t\trequire(msg.value == item.pric...\n      REVERT \t\t\trequire(msg.value == item.pric...\n    tag 120\t\t\trequire(msg.value == item.pric...\n      JUMPDEST \t\t\trequire(msg.value == item.pric...\n      DUP1 \t\t\titem\n      PUSH 7\t\t\titem.sold\n      ADD \t\t\titem.sold\n      PUSH 0\t\t\titem.sold\n      SWAP1 \t\t\titem.sold\n      SLOAD \t\t\titem.sold\n      SWAP1 \t\t\titem.sold\n      PUSH 100\t\t\titem.sold\n      EXP \t\t\titem.sold\n      SWAP1 \t\t\titem.sold\n      DIV \t\t\titem.sold\n      PUSH FF\t\t\titem.sold\n      AND \t\t\titem.sold\n      ISZERO \t\t\t!item.sold\n      PUSH [tag] 123\t\t\trequire(!item.sold, \"This item...\n      JUMPI \t\t\trequire(!item.sold, \"This item...\n      PUSH 40\t\t\trequire(!item.sold, \"This item...\n      MLOAD \t\t\trequire(!item.sold, \"This item...\n      PUSH 8C379A000000000000000000000000000000000000000000000000000000000\t\t\trequire(!item.sold, \"This item...\n      DUP2 \t\t\trequire(!item.sold, \"This item...\n      MSTORE \t\t\trequire(!item.sold, \"This item...\n      PUSH 4\t\t\trequire(!item.sold, \"This item...\n      ADD \t\t\trequire(!item.sold, \"This item...\n      PUSH [tag] 124\t\t\trequire(!item.sold, \"This item...\n      SWAP1 \t\t\trequire(!item.sold, \"This item...\n      PUSH [tag] 125\t\t\trequire(!item.sold, \"This item...\n      JUMP \t\t\trequire(!item.sold, \"This item...\n    tag 124\t\t\trequire(!item.sold, \"This item...\n      JUMPDEST \t\t\trequire(!item.sold, \"This item...\n      PUSH 40\t\t\trequire(!item.sold, \"This item...\n      MLOAD \t\t\trequire(!item.sold, \"This item...\n      DUP1 \t\t\trequire(!item.sold, \"This item...\n      SWAP2 \t\t\trequire(!item.sold, \"This item...\n      SUB \t\t\trequire(!item.sold, \"This item...\n      SWAP1 \t\t\trequire(!item.sold, \"This item...\n      REVERT \t\t\trequire(!item.sold, \"This item...\n    tag 123\t\t\trequire(!item.sold, \"This item...\n      JUMPDEST \t\t\trequire(!item.sold, \"This item...\n      DUP1 \t\t\titem\n      PUSH 2\t\t\titem.owner\n      ADD \t\t\titem.owner\n      PUSH 0\t\t\titem.owner\n      SWAP1 \t\t\titem.owner\n      SLOAD \t\t\titem.owner\n      SWAP1 \t\t\titem.owner\n      PUSH 100\t\t\titem.owner\n      EXP \t\t\titem.owner\n      SWAP1 \t\t\titem.owner\n      DIV \t\t\titem.owner\n      PUSH FFFFFFFFFFFFFFFFFFFFFFFFFFFFFFFFFFFFFFFF\t\t\titem.owner\n      AND \t\t\titem.owner\n      PUSH FFFFFFFFFFFFFFFFFFFFFFFFFFFFFFFFFFFFFFFF\t\t\tmsg.sender != item.owner\n      AND \t\t\tmsg.sender != item.owner\n      CALLER \t\t\tmsg.sender\n      PUSH FFFFFFFFFFFFFFFFFFFFFFFFFFFFFFFFFFFFFFFF\t\t\tmsg.sender != item.owner\n      AND \t\t\tmsg.sender != item.owner\n      SUB \t\t\tmsg.sender != item.owner\n      PUSH [tag] 126\t\t\trequire(msg.sender != item.own...\n      JUMPI \t\t\trequire(msg.sender != item.own...\n      PUSH 40\t\t\trequire(msg.sender != item.own...\n      MLOAD \t\t\trequire(msg.sender != item.own...\n      PUSH 8C379A000000000000000000000000000000000000000000000000000000000\t\t\trequire(msg.sender != item.own...\n      DUP2 \t\t\trequire(msg.sender != item.own...\n      MSTORE \t\t\trequire(msg.sender != item.own...\n      PUSH 4\t\t\trequire(msg.sender != item.own...\n      ADD \t\t\trequire(msg.sender != item.own...\n      PUSH [tag] 127\t\t\trequire(msg.sender != item.own...\n      SWAP1 \t\t\trequire(msg.sender != item.own...\n      PUSH [tag] 128\t\t\trequire(msg.sender != item.own...\n      JUMP \t\t\trequire(msg.sender != item.own...\n    tag 127\t\t\trequire(msg.sender != item.own...\n      JUMPDEST \t\t\trequire(msg.sender != item.own...\n      PUSH 40\t\t\trequire(msg.sender != item.own...\n      MLOAD \t\t\trequire(msg.sender != item.own...\n      DUP1 \t\t\trequire(msg.sender != item.own...\n      SWAP2 \t\t\trequire(msg.sender != item.own...\n      SUB \t\t\trequire(msg.sender != item.own...\n      SWAP1 \t\t\trequire(msg.sender != item.own...\n      REVERT \t\t\trequire(msg.sender != item.own...\n    tag 126\t\t\trequire(msg.sender != item.own...\n      JUMPDEST \t\t\trequire(msg.sender != item.own...\n      PUSH 0\t\t\tbool success\n      DUP2 \t\t\titem\n      PUSH 2\t\t\titem.owner\n      ADD \t\t\titem.owner\n      PUSH 0\t\t\titem.owner\n      SWAP1 \t\t\titem.owner\n      SLOAD \t\t\titem.owner\n      SWAP1 \t\t\titem.owner\n      PUSH 100\t\t\titem.owner\n      EXP \t\t\titem.owner\n      SWAP1 \t\t\titem.owner\n      DIV \t\t\titem.owner\n      PUSH FFFFFFFFFFFFFFFFFFFFFFFFFFFFFFFFFFFFFFFF\t\t\titem.owner\n      AND \t\t\titem.owner\n      PUSH FFFFFFFFFFFFFFFFFFFFFFFFFFFFFFFFFFFFFFFF\t\t\titem.owner.call\n      AND \t\t\titem.owner.call\n      CALLVALUE \t\t\tmsg.value\n      PUSH 40\t\t\titem.owner.call{value: msg.val...\n      MLOAD \t\t\titem.owner.call{value: msg.val...\n      PUSH [tag] 129\t\t\titem.owner.call{value: msg.val...\n      SWAP1 \t\t\titem.owner.call{value: msg.val...\n      PUSH [tag] 130\t\t\titem.owner.call{value: msg.val...\n      JUMP \t\t\titem.owner.call{value: msg.val...\n    tag 129\t\t\titem.owner.call{value: msg.val...\n      JUMPDEST \t\t\titem.owner.call{value: msg.val...\n      PUSH 0\t\t\titem.owner.call{value: msg.val...\n      PUSH 40\t\t\titem.owner.call{value: msg.val...\n      MLOAD \t\t\titem.owner.call{value: msg.val...\n      DUP1 \t\t\titem.owner.call{value: msg.val...\n      DUP4 \t\t\titem.owner.call{value: msg.val...\n      SUB \t\t\titem.owner.call{value: msg.val...\n      DUP2 \t\t\titem.owner.call{value: msg.val...\n      DUP6 \t\t\titem.owner.call{value: msg.val...\n      DUP8 \t\t\titem.owner.call{value: msg.val...\n      GAS \t\t\titem.owner.call{value: msg.val...\n      CALL \t\t\titem.owner.call{value: msg.val...\n      SWAP3 \t\t\titem.owner.call{value: msg.val...\n      POP \t\t\titem.owner.call{value: msg.val...\n      POP \t\t\titem.owner.call{value: msg.val...\n      POP \t\t\titem.owner.call{value: msg.val...\n      RETURNDATASIZE \t\t\titem.owner.call{value: msg.val...\n      DUP1 \t\t\titem.owner.call{value: msg.val...\n      PUSH 0\t\t\titem.owner.call{value: msg.val...\n      DUP2 \t\t\titem.owner.call{value: msg.val...\n      EQ \t\t\titem.owner.call{value: msg.val...\n      PUSH [tag] 133\t\t\titem.owner.call{value: msg.val...\n      JUMPI \t\t\titem.owner.call{value: msg.val...\n      PUSH 40\t\t\titem.owner.call{value: msg.val...\n      MLOAD \t\t\titem.owner.call{value: msg.val...\n      SWAP2 \t\t\titem.owner.call{value: msg.val...\n      POP \t\t\titem.owner.call{value: msg.val...\n      PUSH 1F\t\t\titem.owner.call{value: msg.val...\n      NOT \t\t\titem.owner.call{value: msg.val...\n      PUSH 3F\t\t\titem.owner.call{value: msg.val...\n      RETURNDATASIZE \t\t\titem.owner.call{value: msg.val...\n      ADD \t\t\titem.owner.call{value: msg.val...\n      AND \t\t\titem.owner.call{value: msg.val...\n      DUP3 \t\t\titem.owner.call{value: msg.val...\n      ADD \t\t\titem.owner.call{value: msg.val...\n      PUSH 40\t\t\titem.owner.call{value: msg.val...\n      MSTORE \t\t\titem.owner.call{value: msg.val...\n      RETURNDATASIZE \t\t\titem.owner.call{value: msg.val...\n      DUP3 \t\t\titem.owner.call{value: msg.val...\n      MSTORE \t\t\titem.owner.call{value: msg.val...\n      RETURNDATASIZE \t\t\titem.owner.call{value: msg.val...\n      PUSH 0\t\t\titem.owner.call{value: msg.val...\n      PUSH 20\t\t\titem.owner.call{value: msg.val...\n      DUP5 \t\t\titem.owner.call{value: msg.val...\n      ADD \t\t\titem.owner.call{value: msg.val...\n      RETURNDATACOPY \t\t\titem.owner.call{value: msg.val...\n      PUSH [tag] 132\t\t\titem.owner.call{value: msg.val...\n      JUMP \t\t\titem.owner.call{value: msg.val...\n    tag 133\t\t\titem.owner.call{value: msg.val...\n      JUMPDEST \t\t\titem.owner.call{value: msg.val...\n      PUSH 60\t\t\titem.owner.call{value: msg.val...\n      SWAP2 \t\t\titem.owner.call{value: msg.val...\n      POP \t\t\titem.owner.call{value: msg.val...\n    tag 132\t\t\titem.owner.call{value: msg.val...\n      JUMPDEST \t\t\titem.owner.call{value: msg.val...\n      POP \t\t\titem.owner.call{value: msg.val...\n      POP \t\t\t(bool success, ) = item.owner....\n      SWAP1 \t\t\t(bool success, ) = item.owner....\n      POP \t\t\t(bool success, ) = item.owner....\n      DUP1 \t\t\tsuccess\n      PUSH [tag] 134\t\t\trequire(success, \"Failed to se...\n      JUMPI \t\t\trequire(success, \"Failed to se...\n      PUSH 40\t\t\trequire(success, \"Failed to se...\n      MLOAD \t\t\trequire(success, \"Failed to se...\n      PUSH 8C379A000000000000000000000000000000000000000000000000000000000\t\t\trequire(success, \"Failed to se...\n      DUP2 \t\t\trequire(success, \"Failed to se...\n      MSTORE \t\t\trequire(success, \"Failed to se...\n      PUSH 4\t\t\trequire(success, \"Failed to se...\n      ADD \t\t\trequire(success, \"Failed to se...\n      PUSH [tag] 135\t\t\trequire(success, \"Failed to se...\n      SWAP1 \t\t\trequire(success, \"Failed to se...\n      PUSH [tag] 136\t\t\trequire(success, \"Failed to se...\n      JUMP \t\t\trequire(success, \"Failed to se...\n    tag 135\t\t\trequire(success, \"Failed to se...\n      JUMPDEST \t\t\trequire(success, \"Failed to se...\n      PUSH 40\t\t\trequire(success, \"Failed to se...\n      MLOAD \t\t\trequire(success, \"Failed to se...\n      DUP1 \t\t\trequire(success, \"Failed to se...\n      SWAP2 \t\t\trequire(success, \"Failed to se...\n      SUB \t\t\trequire(success, \"Failed to se...\n      SWAP1 \t\t\trequire(success, \"Failed to se...\n      REVERT \t\t\trequire(success, \"Failed to se...\n    tag 134\t\t\trequire(success, \"Failed to se...\n      JUMPDEST \t\t\trequire(success, \"Failed to se...\n      PUSH 0\t\t\taddress prevOwner\n      DUP3 \t\t\titem\n      PUSH 2\t\t\titem.owner\n      ADD \t\t\titem.owner\n      PUSH 0\t\t\titem.owner\n      SWAP1 \t\t\titem.owner\n      SLOAD \t\t\titem.owner\n      SWAP1 \t\t\titem.owner\n      PUSH 100\t\t\titem.owner\n      EXP \t\t\titem.owner\n      SWAP1 \t\t\titem.owner\n      DIV \t\t\titem.owner\n      PUSH FFFFFFFFFFFFFFFFFFFFFFFFFFFFFFFFFFFFFFFF\t\t\titem.owner\n      AND \t\t\titem.owner\n      SWAP1 \t\t\taddress prevOwner = item.owner\n      POP \t\t\taddress prevOwner = item.owner\n      CALLER \t\t\tmsg.sender\n      DUP4 \t\t\titem\n      PUSH 2\t\t\titem.owner\n      ADD \t\t\titem.owner\n      PUSH 0\t\t\titem.owner\n      PUSH 100\t\t\titem.owner = payable(msg.sende...\n      EXP \t\t\titem.owner = payable(msg.sende...\n      DUP2 \t\t\titem.owner = payable(msg.sende...\n      SLOAD \t\t\titem.owner = payable(msg.sende...\n      DUP2 \t\t\titem.owner = payable(msg.sende...\n      PUSH FFFFFFFFFFFFFFFFFFFFFFFFFFFFFFFFFFFFFFFF\t\t\titem.owner = payable(msg.sende...\n      MUL \t\t\titem.owner = payable(msg.sende...\n      NOT \t\t\titem.owner = payable(msg.sende...\n      AND \t\t\titem.owner = payable(msg.sende...\n      SWAP1 \t\t\titem.owner = payable(msg.sende...\n      DUP4 \t\t\titem.owner = payable(msg.sende...\n      PUSH FFFFFFFFFFFFFFFFFFFFFFFFFFFFFFFFFFFFFFFF\t\t\titem.owner = payable(msg.sende...\n      AND \t\t\titem.owner = payable(msg.sende...\n      MUL \t\t\titem.owner = payable(msg.sende...\n      OR \t\t\titem.owner = payable(msg.sende...\n      SWAP1 \t\t\titem.owner = payable(msg.sende...\n      SSTORE \t\t\titem.owner = payable(msg.sende...\n      POP \t\t\titem.owner = payable(msg.sende...\n      PUSH 1\t\t\ttrue\n      DUP4 \t\t\titem\n      PUSH 7\t\t\titem.sold\n      ADD \t\t\titem.sold\n      PUSH 0\t\t\titem.sold\n      PUSH 100\t\t\titem.sold = true\n      EXP \t\t\titem.sold = true\n      DUP2 \t\t\titem.sold = true\n      SLOAD \t\t\titem.sold = true\n      DUP2 \t\t\titem.sold = true\n      PUSH FF\t\t\titem.sold = true\n      MUL \t\t\titem.sold = true\n      NOT \t\t\titem.sold = true\n      AND \t\t\titem.sold = true\n      SWAP1 \t\t\titem.sold = true\n      DUP4 \t\t\titem.sold = true\n      ISZERO \t\t\titem.sold = true\n      ISZERO \t\t\titem.sold = true\n      MUL \t\t\titem.sold = true\n      OR \t\t\titem.sold = true\n      SWAP1 \t\t\titem.sold = true\n      SSTORE \t\t\titem.sold = true\n      POP \t\t\titem.sold = true\n      DUP1 \t\t\tprevOwner\n      PUSH FFFFFFFFFFFFFFFFFFFFFFFFFFFFFFFFFFFFFFFF\t\t\tPaymentSent(msg.sender, prevOw...\n      AND \t\t\tPaymentSent(msg.sender, prevOw...\n      CALLER \t\t\tmsg.sender\n      PUSH FFFFFFFFFFFFFFFFFFFFFFFFFFFFFFFFFFFFFFFF\t\t\tPaymentSent(msg.sender, prevOw...\n      AND \t\t\tPaymentSent(msg.sender, prevOw...\n      PUSH D52BD61F7C422D441E024604F4517878FD3305D6ACF0FE37BAEF23ED21AF6BC9\t\t\tPaymentSent(msg.sender, prevOw...\n      CALLVALUE \t\t\tmsg.value\n      PUSH 40\t\t\tPaymentSent(msg.sender, prevOw...\n      MLOAD \t\t\tPaymentSent(msg.sender, prevOw...\n      PUSH [tag] 137\t\t\tPaymentSent(msg.sender, prevOw...\n      SWAP2 \t\t\tPaymentSent(msg.sender, prevOw...\n      SWAP1 \t\t\tPaymentSent(msg.sender, prevOw...\n      PUSH [tag] 17\t\t\tPaymentSent(msg.sender, prevOw...\n      JUMP \t\t\tPaymentSent(msg.sender, prevOw...\n    tag 137\t\t\tPaymentSent(msg.sender, prevOw...\n      JUMPDEST \t\t\tPaymentSent(msg.sender, prevOw...\n      PUSH 40\t\t\tPaymentSent(msg.sender, prevOw...\n      MLOAD \t\t\tPaymentSent(msg.sender, prevOw...\n      DUP1 \t\t\tPaymentSent(msg.sender, prevOw...\n      SWAP2 \t\t\tPaymentSent(msg.sender, prevOw...\n      SUB \t\t\tPaymentSent(msg.sender, prevOw...\n      SWAP1 \t\t\tPaymentSent(msg.sender, prevOw...\n      LOG3 \t\t\tPaymentSent(msg.sender, prevOw...\n      CALLER \t\t\tmsg.sender\n      PUSH FFFFFFFFFFFFFFFFFFFFFFFFFFFFFFFFFFFFFFFF\t\t\tItemSold(_id, prevOwner, msg.s...\n      AND \t\t\tItemSold(_id, prevOwner, msg.s...\n      DUP2 \t\t\tprevOwner\n      PUSH FFFFFFFFFFFFFFFFFFFFFFFFFFFFFFFFFFFFFFFF\t\t\tItemSold(_id, prevOwner, msg.s...\n      AND \t\t\tItemSold(_id, prevOwner, msg.s...\n      PUSH 4DDD54C6B746E69BA87F862311F7670BD1D7276846778AC81CD38747B27A746\t\t\tItemSold(_id, prevOwner, msg.s...\n      DUP7 \t\t\t_id\n      DUP7 \t\t\titem\n      PUSH 6\t\t\titem.price\n      ADD \t\t\titem.price\n      SLOAD \t\t\titem.price\n      PUSH 40\t\t\tItemSold(_id, prevOwner, msg.s...\n      MLOAD \t\t\tItemSold(_id, prevOwner, msg.s...\n      PUSH [tag] 138\t\t\tItemSold(_id, prevOwner, msg.s...\n      SWAP3 \t\t\tItemSold(_id, prevOwner, msg.s...\n      SWAP2 \t\t\tItemSold(_id, prevOwner, msg.s...\n      SWAP1 \t\t\tItemSold(_id, prevOwner, msg.s...\n      PUSH [tag] 139\t\t\tItemSold(_id, prevOwner, msg.s...\n      JUMP \t\t\tItemSold(_id, prevOwner, msg.s...\n    tag 138\t\t\tItemSold(_id, prevOwner, msg.s...\n      JUMPDEST \t\t\tItemSold(_id, prevOwner, msg.s...\n      PUSH 40\t\t\tItemSold(_id, prevOwner, msg.s...\n      MLOAD \t\t\tItemSold(_id, prevOwner, msg.s...\n      DUP1 \t\t\tItemSold(_id, prevOwner, msg.s...\n      SWAP2 \t\t\tItemSold(_id, prevOwner, msg.s...\n      SUB \t\t\tItemSold(_id, prevOwner, msg.s...\n      SWAP1 \t\t\tItemSold(_id, prevOwner, msg.s...\n      LOG3 \t\t\tItemSold(_id, prevOwner, msg.s...\n      POP \t\t\t{\\r\\n        require(_id < ite...\n      POP \t\t\t{\\r\\n        require(_id < ite...\n      POP \t\t\t{\\r\\n        require(_id < ite...\n      POP \t\t\tfunction buyItem(uint _id) pub...\n      JUMP \t\t\tfunction buyItem(uint _id) pub...\n    tag 77\t\t\t\n      JUMPDEST \t\t\t\n      PUSH 40\t\t\t\n      MLOAD \t\t\t\n      DUP1 \t\t\t\n      PUSH 100\t\t\t\n      ADD \t\t\t\n      PUSH 40\t\t\t\n      MSTORE \t\t\t\n      DUP1 \t\t\t\n      PUSH 0\t\t\t\n      DUP2 \t\t\t\n      MSTORE \t\t\t\n      PUSH 20\t\t\t\n      ADD \t\t\t\n      PUSH 0\t\t\t\n      PUSH FFFFFFFFFFFFFFFFFFFFFFFFFFFFFFFFFFFFFFFF\t\t\t\n      AND \t\t\t\n      DUP2 \t\t\t\n      MSTORE \t\t\t\n      PUSH 20\t\t\t\n      ADD \t\t\t\n      PUSH 0\t\t\t\n      PUSH FFFFFFFFFFFFFFFFFFFFFFFFFFFFFFFFFFFFFFFF\t\t\t\n      AND \t\t\t\n      DUP2 \t\t\t\n      MSTORE \t\t\t\n      PUSH 20\t\t\t\n      ADD \t\t\t\n      PUSH 60\t\t\t\n      DUP2 \t\t\t\n      MSTORE \t\t\t\n      PUSH 20\t\t\t\n      ADD \t\t\t\n      PUSH 60\t\t\t\n      DUP2 \t\t\t\n      MSTORE \t\t\t\n      PUSH 20\t\t\t\n      ADD \t\t\t\n      PUSH 60\t\t\t\n      DUP2 \t\t\t\n      MSTORE \t\t\t\n      PUSH 20\t\t\t\n      ADD \t\t\t\n      PUSH 0\t\t\t\n      DUP2 \t\t\t\n      MSTORE \t\t\t\n      PUSH 20\t\t\t\n      ADD \t\t\t\n      PUSH 0\t\t\t\n      ISZERO \t\t\t\n      ISZERO \t\t\t\n      DUP2 \t\t\t\n      MSTORE \t\t\t\n      POP \t\t\t\n      SWAP1 \t\t\t\n      JUMP \t\t\t\n    tag 140\t\t\t-License-Identifier: MIT\\r\\npr...\n      JUMPDEST \t\t\t-License-Identifier: MIT\\r\\npr...\n      PUSH 0\t\t\t Item \n      DUP2 \t\t\t addr\n      MLOAD \t\t\t       addre\n      SWAP1 \t\t\tint id;\\r\\n        addre\n      POP \t\t\tint id;\\r\\n        addre\n      SWAP2 \t\t\t-License-Identifier: MIT\\r\\npr...\n      SWAP1 \t\t\t-License-Identifier: MIT\\r\\npr...\n      POP \t\t\t-License-Identifier: MIT\\r\\npr...\n      JUMP \t\t\t-License-Identifier: MIT\\r\\npr...\n    tag 141\t\t\tller;\\r\\n        address payab...\n      JUMPDEST \t\t\tller;\\r\\n        address payab...\n      PUSH 0\t\t\t IPFS hash \n      DUP3 \t\t\tint pr\n      DUP3 \t\t\t   \n      MSTORE \t\t\te\\r\\n        uint pri\n      PUSH 20\t\t\t\\n   \n      DUP3 \t\t\t }\\r\n      ADD \t\t\t\\n    }\\r\\n\\r\\n    \n      SWAP1 \t\t\t    bool sold;\\r\\n    }\\r\\n\\r\\...\n      POP \t\t\t    bool sold;\\r\\n    }\\r\\n\\r\\...\n      SWAP3 \t\t\tller;\\r\\n        address payab...\n      SWAP2 \t\t\tller;\\r\\n        address payab...\n      POP \t\t\tller;\\r\\n        address payab...\n      POP \t\t\tller;\\r\\n        address payab...\n      JUMP \t\t\tller;\\r\\n        address payab...\n    tag 142\t\t\tc items;\\r\\n    uint public it...\n      JUMPDEST \t\t\tc items;\\r\\n    uint public it...\n      PUSH 0\t\t\tndex\n      DUP2 \t\t\tind\n      SWAP1 \t\t\taddress ind\n      POP \t\t\taddress ind\n      PUSH 20\t\t\ttrin\n      DUP3 \t\t\tle,\n      ADD \t\t\t title, string\n      SWAP1 \t\t\t, string title, string\n      POP \t\t\t, string title, string\n      SWAP2 \t\t\tc items;\\r\\n    uint public it...\n      SWAP1 \t\t\tc items;\\r\\n    uint public it...\n      POP \t\t\tc items;\\r\\n    uint public it...\n      JUMP \t\t\tc items;\\r\\n    uint public it...\n    tag 143\t\t\tint price);\\r\\n    event ItemS...\n      JUMPDEST \t\t\tint price);\\r\\n    event ItemS...\n      PUSH 0\t\t\titemId,\n      DUP2 \t\t\tner, \n      SWAP1 \t\t\tdexed oldOwner, \n      POP \t\t\tdexed oldOwner, \n      SWAP2 \t\t\tint price);\\r\\n    event ItemS...\n      SWAP1 \t\t\tint price);\\r\\n    event ItemS...\n      POP \t\t\tint price);\\r\\n    event ItemS...\n      JUMP \t\t\tint price);\\r\\n    event ItemS...\n    tag 144\t\t\txed newOwner, uint price);\\r\\n...\n      JUMPDEST \t\t\txed newOwner, uint price);\\r\\n...\n      PUSH [tag] 217\t\t\tss indexed to, uint256 a\n      DUP2 \t\t\tt256 \n      PUSH [tag] 143\t\t\tss indexed to, uint256 a\n      JUMP \t\t\tss indexed to, uint256 a\n    tag 217\t\t\tss indexed to, uint256 a\n      JUMPDEST \t\t\tss indexed to, uint256 a\n      DUP3 \t\t\tadd\n      MSTORE \t\t\t from, address indexed to, uin...\n      POP \t\t\txed newOwner, uint price);\\r\\n...\n      POP \t\t\txed newOwner, uint price);\\r\\n...\n      JUMP \t\t\txed newOwner, uint price);\\r\\n...\n    tag 145\t\t\t  function listItem(string mem...\n      JUMPDEST \t\t\t  function listItem(string mem...\n      PUSH 0\t\t\ttle, st\n      PUSH FFFFFFFFFFFFFFFFFFFFFFFFFFFFFFFFFFFFFFFF\t\t\tmemory _imageHash, uint _price...\n      DUP3 \t\t\tstrin\n      AND \t\t\ton, string memory _imageHash, ...\n      SWAP1 \t\t\t _description, string memory _...\n      POP \t\t\t _description, string memory _...\n      SWAP2 \t\t\t  function listItem(string mem...\n      SWAP1 \t\t\t  function listItem(string mem...\n      POP \t\t\t  function listItem(string mem...\n      JUMP \t\t\t  function listItem(string mem...\n    tag 146\t\t\tre(_price > 0, \"Price must be ...\n      JUMPDEST \t\t\tre(_price > 0, \"Price must be ...\n      PUSH 0\t\t\tro\");\\r\\n\n      PUSH [tag] 220\t\t\ts.push(Item({\\r\\n         \n      DUP3 \t\t\t     \n      PUSH [tag] 145\t\t\ts.push(Item({\\r\\n         \n      JUMP \t\t\ts.push(Item({\\r\\n         \n    tag 220\t\t\ts.push(Item({\\r\\n         \n      JUMPDEST \t\t\ts.push(Item({\\r\\n         \n      SWAP1 \t\t\t       items.push(Item({\\r\\n  ...\n      POP \t\t\t       items.push(Item({\\r\\n  ...\n      SWAP2 \t\t\tre(_price > 0, \"Price must be ...\n      SWAP1 \t\t\tre(_price > 0, \"Price must be ...\n      POP \t\t\tre(_price > 0, \"Price must be ...\n      JUMP \t\t\tre(_price > 0, \"Price must be ...\n    tag 147\t\t\tount,\\r\\n            seller: p...\n      JUMPDEST \t\t\tount,\\r\\n            seller: p...\n      PUSH [tag] 222\t\t\twner set as the seller initial...\n      DUP2 \t\t\ttiall\n      PUSH [tag] 146\t\t\twner set as the seller initial...\n      JUMP \t\t\twner set as the seller initial...\n    tag 222\t\t\twner set as the seller initial...\n      JUMPDEST \t\t\twner set as the seller initial...\n      DUP3 \t\t\t //\n      MSTORE \t\t\tender), // Owner set as the se...\n      POP \t\t\tount,\\r\\n            seller: p...\n      POP \t\t\tount,\\r\\n            seller: p...\n      JUMP \t\t\tount,\\r\\n            seller: p...\n    tag 148\t\t\t title: _title,\\r\\n           ...\n      JUMPDEST \t\t\t title: _title,\\r\\n           ...\n      PUSH 0\t\t\ton,\\r\\n \n      DUP2 \t\t\tHash,\n      MLOAD \t\t\t_imageHash,\\r\n      SWAP1 \t\t\tmageHash: _imageHash,\\r\n      POP \t\t\tmageHash: _imageHash,\\r\n      SWAP2 \t\t\t title: _title,\\r\\n           ...\n      SWAP1 \t\t\t title: _title,\\r\\n           ...\n      POP \t\t\t title: _title,\\r\\n           ...\n      JUMP \t\t\t title: _title,\\r\\n           ...\n    tag 149\t\t\tprice: _price,\\r\\n            ...\n      JUMPDEST \t\t\tprice: _price,\\r\\n            ...\n      PUSH 0\t\t\tmit ItemLis\n      DUP3 \t\t\ter, ms\n      DUP3 \t\t\t.se\n      MSTORE \t\t\tnt, msg.sender, msg\n      PUSH 20\t\t\tce);\n      DUP3 \t\t\t _p\n      ADD \t\t\tash, _price);\\r\n      SWAP1 \t\t\t_title, _imageHash, _price);\\r\n      POP \t\t\t_title, _imageHash, _price);\\r\n      SWAP3 \t\t\tprice: _price,\\r\\n            ...\n      SWAP2 \t\t\tprice: _price,\\r\\n            ...\n      POP \t\t\tprice: _price,\\r\\n            ...\n      POP \t\t\tprice: _price,\\r\\n            ...\n      JUMP \t\t\tprice: _price,\\r\\n            ...\n    tag 150\t\t\tmCount++;\\r\\n    }\\r\\n\\r\\n    ...\n      JUMPDEST \t\t\tmCount++;\\r\\n    }\\r\\n\\r\\n    ...\n      DUP3 \t\t\t< item\n      DUP2 \t\t\t(_i\n      DUP4 \t\t\tqui\n      MCOPY \t\t\t    require(_id < itemC\n      PUSH 0\t\t\t \n      DUP4 \t\t\txist\")\n      DUP4 \t\t\tnot\n      ADD \t\t\toes not exist\");\n      MSTORE \t\t\tem ID does not exist\");\\r\\n  \n      POP \t\t\tmCount++;\\r\\n    }\\r\\n\\r\\n    ...\n      POP \t\t\tmCount++;\\r\\n    }\\r\\n\\r\\n    ...\n      POP \t\t\tmCount++;\\r\\n    }\\r\\n\\r\\n    ...\n      JUMP \t\t\tmCount++;\\r\\n    }\\r\\n\\r\\n    ...\n    tag 151\t\t\torage item = items[_id];\\r\\n  ...\n      JUMPDEST \t\t\torage item = items[_id];\\r\\n  ...\n      PUSH 0\t\t\t(msg.v\n      PUSH 1F\t\t\t p\n      NOT \t\t\tking pr\n      PUSH 1F\t\t\the\n      DUP4 \t\t\tubmit\n      ADD \t\t\tse submit the \n      AND \t\t\tPlease submit the asking pri\n      SWAP1 \t\t\tm.price, \"Please submit the as...\n      POP \t\t\tm.price, \"Please submit the as...\n      SWAP2 \t\t\torage item = items[_id];\\r\\n  ...\n      SWAP1 \t\t\torage item = items[_id];\\r\\n  ...\n      POP \t\t\torage item = items[_id];\\r\\n  ...\n      JUMP \t\t\torage item = items[_id];\\r\\n  ...\n    tag 152\t\t\tto complete the purchase\");\\r\\...\n      JUMPDEST \t\t\tto complete the purchase\");\\r\\...\n      PUSH 0\t\t\ty b\n      PUSH [tag] 228\t\t\tire(msg.sender != item.owner, ...\n      DUP3 \t\t\tner c\n      PUSH [tag] 148\t\t\tire(msg.sender != item.owner, ...\n      JUMP \t\t\tire(msg.sender != item.owner, ...\n    tag 228\t\t\tire(msg.sender != item.owner, ...\n      JUMPDEST \t\t\tire(msg.sender != item.owner, ...\n      PUSH [tag] 229\t\t\twn item\");\\r\\n\\r\\n        // S...\n      DUP2 \t\t\ts usin\n      DUP6 \t\t\t fu\n      PUSH [tag] 149\t\t\twn item\");\\r\\n\\r\\n        // S...\n      JUMP \t\t\twn item\");\\r\\n\\r\\n        // S...\n    tag 229\t\t\twn item\");\\r\\n\\r\\n        // S...\n      JUMPDEST \t\t\twn item\");\\r\\n\\r\\n        // S...\n      SWAP4 \t\t\ttheir own item\");\\r\\n\\r\\n     ...\n      POP \t\t\ttheir own item\");\\r\\n\\r\\n     ...\n      PUSH [tag] 230\t\t\t      (bool success, ) = item....\n      DUP2 \t\t\t(\"\");\\r\n      DUP6 \t\t\talu\n      PUSH 20\t\t\t: ms\n      DUP7 \t\t\tl{val\n      ADD \t\t\t.call{value: msg\n      PUSH [tag] 150\t\t\t      (bool success, ) = item....\n      JUMP \t\t\t      (bool success, ) = item....\n    tag 230\t\t\t      (bool success, ) = item....\n      JUMPDEST \t\t\t      (bool success, ) = item....\n      PUSH [tag] 231\t\t\t\"Failed to send Ether\");\\r\\n\\r...\n      DUP2 \t\t\t);\\r\\n\\r\\n\n      PUSH [tag] 151\t\t\t\"Failed to send Ether\");\\r\\n\\r...\n      JUMP \t\t\t\"Failed to send Ether\");\\r\\n\\r...\n    tag 231\t\t\t\"Failed to send Ether\");\\r\\n\\r...\n      JUMPDEST \t\t\t\"Failed to send Ether\");\\r\\n\\r...\n      DUP5 \t\t\tess\n      ADD \t\t\tsuccess, \"Failed to send Ether...\n      SWAP2 \t\t\tequire(success, \"Failed to sen...\n      POP \t\t\tequire(success, \"Failed to sen...\n      POP \t\t\ten sold\");\\r\\n        require(...\n      SWAP3 \t\t\tto complete the purchase\");\\r\\...\n      SWAP2 \t\t\tto complete the purchase\");\\r\\...\n      POP \t\t\tto complete the purchase\");\\r\\...\n      POP \t\t\tto complete the purchase\");\\r\\...\n      JUMP \t\t\tto complete the purchase\");\\r\\...\n    tag 153\t\t\ts prevOwner = item.owner; // T...\n      JUMPDEST \t\t\ts prevOwner = item.owner; // T...\n      PUSH 0\t\t\t previo\n      DUP2 \t\t\ter = \n      ISZERO \t\t\ttem.owner = p\n      ISZERO \t\t\t      item.owner = pa\n      SWAP1 \t\t\tr event\\r\\n        item.owner ...\n      POP \t\t\tr event\\r\\n        item.owner ...\n      SWAP2 \t\t\ts prevOwner = item.owner; // T...\n      SWAP1 \t\t\ts prevOwner = item.owner; // T...\n      POP \t\t\ts prevOwner = item.owner; // T...\n      JUMP \t\t\ts prevOwner = item.owner; // T...\n    tag 154\t\t\tnder); // Update owner to the ...\n      JUMPDEST \t\t\tnder); // Update owner to the ...\n      PUSH [tag] 234\t\t\t       emit PaymentSe\n      DUP2 \t\t\tmentS\n      PUSH [tag] 153\t\t\t       emit PaymentSe\n      JUMP \t\t\t       emit PaymentSe\n    tag 234\t\t\t       emit PaymentSe\n      JUMPDEST \t\t\t       emit PaymentSe\n      DUP3 \t\t\t\\r\\n\\r\n      MSTORE \t\t\t= true;\\r\\n\\r\\n        emit Pa...\n      POP \t\t\tnder); // Update owner to the ...\n      POP \t\t\tnder); // Update owner to the ...\n      JUMP \t\t\tnder); // Update owner to the ...\n    tag 155\t\t\twner, msg.sender, item.price);...\n      JUMPDEST \t\t\twner, msg.sender, item.price);...\n      PUSH 0\t\t\tory\n      PUSH 100\t\t\t\\r\\n\\r\\n  \n      DUP4 \t\t\t   \n      ADD \t\t\ts;\\r\\n    }\\r\\n\\r\\n   \n      PUSH 0\t\t\tuire\n      DUP4 \t\t\t    r\n      ADD \t\t\t        require(\n      MLOAD \t\t\ty) {\\r\\n        require(_\n      PUSH [tag] 236\t\t\tt, \"Item ID does not exist\");\\...\n      PUSH 0\t\t\t}\\r\\n}\n      DUP7 \t\t\t_id\n      ADD \t\t\tems[_id];}\\r\\n}\\r\n      DUP3 \t\t\t     return \n      PUSH [tag] 144\t\t\tt, \"Item ID does not exist\");\\...\n      JUMP \t\t\tt, \"Item ID does not exist\");\\...\n    tag 236\t\t\tt, \"Item ID does not exist\");\\...\n      JUMPDEST \t\t\tt, \"Item ID does not exist\");\\...\n      POP \t\t\tgetItemById(uint _id) public v...\n      PUSH 20\t\t\t\n      DUP4 \t\t\t\n      ADD \t\t\t\n      MLOAD \t\t\t\n      PUSH [tag] 237\t\t\t\n      PUSH 20\t\t\t\n      DUP7 \t\t\t\n      ADD \t\t\t\n      DUP3 \t\t\t\n      PUSH [tag] 147\t\t\t\n      JUMP \t\t\t\n    tag 237\t\t\t\n      JUMPDEST \t\t\t\n      POP \t\t\t\n      PUSH 40\t\t\t\n      DUP4 \t\t\t\n      ADD \t\t\t\n      MLOAD \t\t\t\n      PUSH [tag] 238\t\t\t\n      PUSH 40\t\t\t\n      DUP7 \t\t\t\n      ADD \t\t\t\n      DUP3 \t\t\t\n      PUSH [tag] 147\t\t\t\n      JUMP \t\t\t\n    tag 238\t\t\t\n      JUMPDEST \t\t\t\n      POP \t\t\t\n      PUSH 60\t\t\t\n      DUP4 \t\t\t\n      ADD \t\t\t\n      MLOAD \t\t\t\n      DUP5 \t\t\t\n      DUP3 \t\t\t\n      SUB \t\t\t\n      PUSH 60\t\t\t\n      DUP7 \t\t\t\n      ADD \t\t\t\n      MSTORE \t\t\t\n      PUSH [tag] 239\t\t\t\n      DUP3 \t\t\t\n      DUP3 \t\t\t\n      PUSH [tag] 152\t\t\t\n      JUMP \t\t\t\n    tag 239\t\t\t\n      JUMPDEST \t\t\t\n      SWAP2 \t\t\t\n      POP \t\t\t\n      POP \t\t\t\n      PUSH 80\t\t\t\n      DUP4 \t\t\t\n      ADD \t\t\t\n      MLOAD \t\t\t\n      DUP5 \t\t\t\n      DUP3 \t\t\t\n      SUB \t\t\t\n      PUSH 80\t\t\t\n      DUP7 \t\t\t\n      ADD \t\t\t\n      MSTORE \t\t\t\n      PUSH [tag] 240\t\t\t\n      DUP3 \t\t\t\n      DUP3 \t\t\t\n      PUSH [tag] 152\t\t\t\n      JUMP \t\t\t\n    tag 240\t\t\t\n      JUMPDEST \t\t\t\n      SWAP2 \t\t\t\n      POP \t\t\t\n      POP \t\t\t\n      PUSH A0\t\t\t\n      DUP4 \t\t\t\n      ADD \t\t\t\n      MLOAD \t\t\t\n      DUP5 \t\t\t\n      DUP3 \t\t\t\n      SUB \t\t\t\n      PUSH A0\t\t\t\n      DUP7 \t\t\t\n      ADD \t\t\t\n      MSTORE \t\t\t\n      PUSH [tag] 241\t\t\t\n      DUP3 \t\t\t\n      DUP3 \t\t\t\n      PUSH [tag] 152\t\t\t\n      JUMP \t\t\t\n    tag 241\t\t\t\n      JUMPDEST \t\t\t\n      SWAP2 \t\t\t\n      POP \t\t\t\n      POP \t\t\t\n      PUSH C0\t\t\t\n      DUP4 \t\t\t\n      ADD \t\t\t\n      MLOAD \t\t\t\n      PUSH [tag] 242\t\t\t\n      PUSH C0\t\t\t\n      DUP7 \t\t\t\n      ADD \t\t\t\n      DUP3 \t\t\t\n      PUSH [tag] 144\t\t\t\n      JUMP \t\t\t\n    tag 242\t\t\t\n      JUMPDEST \t\t\t\n      POP \t\t\t\n      PUSH E0\t\t\t\n      DUP4 \t\t\t\n      ADD \t\t\t\n      MLOAD \t\t\t\n      PUSH [tag] 243\t\t\t\n      PUSH E0\t\t\t\n      DUP7 \t\t\t\n      ADD \t\t\t\n      DUP3 \t\t\t\n      PUSH [tag] 154\t\t\t\n      JUMP \t\t\t\n    tag 243\t\t\t\n      JUMPDEST \t\t\t\n      POP \t\t\t\n      DUP1 \t\t\t\n      SWAP2 \t\t\t\n      POP \t\t\t\n      POP \t\t\t{\\r\\n        return items;\\r\\n...\n      SWAP3 \t\t\twner, msg.sender, item.price);...\n      SWAP2 \t\t\twner, msg.sender, item.price);...\n      POP \t\t\twner, msg.sender, item.price);...\n      POP \t\t\twner, msg.sender, item.price);...\n      JUMP \t\t\twner, msg.sender, item.price);...\n    tag 156\t\t\t\n      JUMPDEST \t\t\t\n      PUSH 0\t\t\t\n      PUSH [tag] 245\t\t\t\n      DUP4 \t\t\t\n      DUP4 \t\t\t\n      PUSH [tag] 155\t\t\t\n      JUMP \t\t\t\n    tag 245\t\t\t\n      JUMPDEST \t\t\t\n      SWAP1 \t\t\t\n      POP \t\t\t\n      SWAP3 \t\t\t\n      SWAP2 \t\t\t\n      POP \t\t\t\n      POP \t\t\t\n      JUMP \t\t\t\n    tag 157\t\t\t\n      JUMPDEST \t\t\t\n      PUSH 0\t\t\t\n      PUSH 20\t\t\t\n      DUP3 \t\t\t\n      ADD \t\t\t\n      SWAP1 \t\t\t\n      POP \t\t\t\n      SWAP2 \t\t\t\n      SWAP1 \t\t\t\n      POP \t\t\t\n      JUMP \t\t\t\n    tag 158\t\t\t\n      JUMPDEST \t\t\t\n      PUSH 0\t\t\t\n      PUSH [tag] 248\t\t\t\n      DUP3 \t\t\t\n      PUSH [tag] 140\t\t\t\n      JUMP \t\t\t\n    tag 248\t\t\t\n      JUMPDEST \t\t\t\n      PUSH [tag] 249\t\t\t\n      DUP2 \t\t\t\n      DUP6 \t\t\t\n      PUSH [tag] 141\t\t\t\n      JUMP \t\t\t\n    tag 249\t\t\t\n      JUMPDEST \t\t\t\n      SWAP4 \t\t\t\n      POP \t\t\t\n      DUP4 \t\t\t\n      PUSH 20\t\t\t\n      DUP3 \t\t\t\n      MUL \t\t\t\n      DUP6 \t\t\t\n      ADD \t\t\t\n      PUSH [tag] 250\t\t\t\n      DUP6 \t\t\t\n      PUSH [tag] 142\t\t\t\n      JUMP \t\t\t\n    tag 250\t\t\t\n      JUMPDEST \t\t\t\n      DUP1 \t\t\t\n      PUSH 0\t\t\t\n    tag 251\t\t\t\n      JUMPDEST \t\t\t\n      DUP6 \t\t\t\n      DUP2 \t\t\t\n      LT \t\t\t\n      ISZERO \t\t\t\n      PUSH [tag] 253\t\t\t\n      JUMPI \t\t\t\n      DUP5 \t\t\t\n      DUP5 \t\t\t\n      SUB \t\t\t\n      DUP10 \t\t\t\n      MSTORE \t\t\t\n      DUP2 \t\t\t\n      MLOAD \t\t\t\n      PUSH [tag] 254\t\t\t\n      DUP6 \t\t\t\n      DUP3 \t\t\t\n      PUSH [tag] 156\t\t\t\n      JUMP \t\t\t\n    tag 254\t\t\t\n      JUMPDEST \t\t\t\n      SWAP5 \t\t\t\n      POP \t\t\t\n      PUSH [tag] 255\t\t\t\n      DUP4 \t\t\t\n      PUSH [tag] 157\t\t\t\n      JUMP \t\t\t\n    tag 255\t\t\t\n      JUMPDEST \t\t\t\n      SWAP3 \t\t\t\n      POP \t\t\t\n      PUSH 20\t\t\t\n      DUP11 \t\t\t\n      ADD \t\t\t\n      SWAP10 \t\t\t\n      POP \t\t\t\n      POP \t\t\t\n      PUSH 1\t\t\t\n      DUP2 \t\t\t\n      ADD \t\t\t\n      SWAP1 \t\t\t\n      POP \t\t\t\n      PUSH [tag] 251\t\t\t\n      JUMP \t\t\t\n    tag 253\t\t\t\n      JUMPDEST \t\t\t\n      POP \t\t\t\n      DUP3 \t\t\t\n      SWAP8 \t\t\t\n      POP \t\t\t\n      DUP8 \t\t\t\n      SWAP6 \t\t\t\n      POP \t\t\t\n      POP \t\t\t\n      POP \t\t\t\n      POP \t\t\t\n      POP \t\t\t\n      POP \t\t\t\n      SWAP3 \t\t\t\n      SWAP2 \t\t\t\n      POP \t\t\t\n      POP \t\t\t\n      JUMP \t\t\t\n    tag 12\t\t\t\n      JUMPDEST \t\t\t\n      PUSH 0\t\t\t\n      PUSH 20\t\t\t\n      DUP3 \t\t\t\n      ADD \t\t\t\n      SWAP1 \t\t\t\n      POP \t\t\t\n      DUP2 \t\t\t\n      DUP2 \t\t\t\n      SUB \t\t\t\n      PUSH 0\t\t\t\n      DUP4 \t\t\t\n      ADD \t\t\t\n      MSTORE \t\t\t\n      PUSH [tag] 257\t\t\t\n      DUP2 \t\t\t\n      DUP5 \t\t\t\n      PUSH [tag] 158\t\t\t\n      JUMP \t\t\t\n    tag 257\t\t\t\n      JUMPDEST \t\t\t\n      SWAP1 \t\t\t\n      POP \t\t\t\n      SWAP3 \t\t\t\n      SWAP2 \t\t\t\n      POP \t\t\t\n      POP \t\t\t\n      JUMP \t\t\t\n    tag 159\t\t\t\n      JUMPDEST \t\t\t\n      PUSH [tag] 259\t\t\t\n      DUP2 \t\t\t\n      PUSH [tag] 143\t\t\t\n      JUMP \t\t\t\n    tag 259\t\t\t\n      JUMPDEST \t\t\t\n      DUP3 \t\t\t\n      MSTORE \t\t\t\n      POP \t\t\t\n      POP \t\t\t\n      JUMP \t\t\t\n    tag 17\t\t\t\n      JUMPDEST \t\t\t\n      PUSH 0\t\t\t\n      PUSH 20\t\t\t\n      DUP3 \t\t\t\n      ADD \t\t\t\n      SWAP1 \t\t\t\n      POP \t\t\t\n      PUSH [tag] 261\t\t\t\n      PUSH 0\t\t\t\n      DUP4 \t\t\t\n      ADD \t\t\t\n      DUP5 \t\t\t\n      PUSH [tag] 159\t\t\t\n      JUMP \t\t\t\n    tag 261\t\t\t\n      JUMPDEST \t\t\t\n      SWAP3 \t\t\t\n      SWAP2 \t\t\t\n      POP \t\t\t\n      POP \t\t\t\n      JUMP \t\t\t\n    tag 160\t\t\t\n      JUMPDEST \t\t\t\n      PUSH 0\t\t\t\n      PUSH 40\t\t\t\n      MLOAD \t\t\t\n      SWAP1 \t\t\t\n      POP \t\t\t\n      SWAP1 \t\t\t\n      JUMP \t\t\t\n    tag 161\t\t\t\n      JUMPDEST \t\t\t\n      PUSH 0\t\t\t\n      DUP1 \t\t\t\n      REVERT \t\t\t\n    tag 162\t\t\t\n      JUMPDEST \t\t\t\n      PUSH 0\t\t\t\n      DUP1 \t\t\t\n      REVERT \t\t\t\n    tag 163\t\t\t\n      JUMPDEST \t\t\t\n      PUSH [tag] 266\t\t\t\n      DUP2 \t\t\t\n      PUSH [tag] 143\t\t\t\n      JUMP \t\t\t\n    tag 266\t\t\t\n      JUMPDEST \t\t\t\n      DUP2 \t\t\t\n      EQ \t\t\t\n      PUSH [tag] 267\t\t\t\n      JUMPI \t\t\t\n      PUSH 0\t\t\t\n      DUP1 \t\t\t\n      REVERT \t\t\t\n    tag 267\t\t\t\n      JUMPDEST \t\t\t\n      POP \t\t\t\n      JUMP \t\t\t\n    tag 164\t\t\t\n      JUMPDEST \t\t\t\n      PUSH 0\t\t\t\n      DUP2 \t\t\t\n      CALLDATALOAD \t\t\t\n      SWAP1 \t\t\t\n      POP \t\t\t\n      PUSH [tag] 269\t\t\t\n      DUP2 \t\t\t\n      PUSH [tag] 163\t\t\t\n      JUMP \t\t\t\n    tag 269\t\t\t\n      JUMPDEST \t\t\t\n      SWAP3 \t\t\t\n      SWAP2 \t\t\t\n      POP \t\t\t\n      POP \t\t\t\n      JUMP \t\t\t\n    tag 21\t\t\t\n      JUMPDEST \t\t\t\n      PUSH 0\t\t\t\n      PUSH 20\t\t\t\n      DUP3 \t\t\t\n      DUP5 \t\t\t\n      SUB \t\t\t\n      SLT \t\t\t\n      ISZERO \t\t\t\n      PUSH [tag] 271\t\t\t\n      JUMPI \t\t\t\n      PUSH [tag] 272\t\t\t\n      PUSH [tag] 161\t\t\t\n      JUMP \t\t\t\n    tag 272\t\t\t\n      JUMPDEST \t\t\t\n    tag 271\t\t\t\n      JUMPDEST \t\t\t\n      PUSH 0\t\t\t\n      PUSH [tag] 273\t\t\t\n      DUP5 \t\t\t\n      DUP3 \t\t\t\n      DUP6 \t\t\t\n      ADD \t\t\t\n      PUSH [tag] 164\t\t\t\n      JUMP \t\t\t\n    tag 273\t\t\t\n      JUMPDEST \t\t\t\n      SWAP2 \t\t\t\n      POP \t\t\t\n      POP \t\t\t\n      SWAP3 \t\t\t\n      SWAP2 \t\t\t\n      POP \t\t\t\n      POP \t\t\t\n      JUMP \t\t\t\n    tag 165\t\t\t\n      JUMPDEST \t\t\t\n      PUSH [tag] 275\t\t\t\n      DUP2 \t\t\t\n      PUSH [tag] 146\t\t\t\n      JUMP \t\t\t\n    tag 275\t\t\t\n      JUMPDEST \t\t\t\n      DUP3 \t\t\t\n      MSTORE \t\t\t\n      POP \t\t\t\n      POP \t\t\t\n      JUMP \t\t\t\n    tag 166\t\t\t\n      JUMPDEST \t\t\t\n      PUSH 0\t\t\t\n      DUP3 \t\t\t\n      DUP3 \t\t\t\n      MSTORE \t\t\t\n      PUSH 20\t\t\t\n      DUP3 \t\t\t\n      ADD \t\t\t\n      SWAP1 \t\t\t\n      POP \t\t\t\n      SWAP3 \t\t\t\n      SWAP2 \t\t\t\n      POP \t\t\t\n      POP \t\t\t\n      JUMP \t\t\t\n    tag 167\t\t\t\n      JUMPDEST \t\t\t\n      PUSH 0\t\t\t\n      PUSH [tag] 278\t\t\t\n      DUP3 \t\t\t\n      PUSH [tag] 148\t\t\t\n      JUMP \t\t\t\n    tag 278\t\t\t\n      JUMPDEST \t\t\t\n      PUSH [tag] 279\t\t\t\n      DUP2 \t\t\t\n      DUP6 \t\t\t\n      PUSH [tag] 166\t\t\t\n      JUMP \t\t\t\n    tag 279\t\t\t\n      JUMPDEST \t\t\t\n      SWAP4 \t\t\t\n      POP \t\t\t\n      PUSH [tag] 280\t\t\t\n      DUP2 \t\t\t\n      DUP6 \t\t\t\n      PUSH 20\t\t\t\n      DUP7 \t\t\t\n      ADD \t\t\t\n      PUSH [tag] 150\t\t\t\n      JUMP \t\t\t\n    tag 280\t\t\t\n      JUMPDEST \t\t\t\n      PUSH [tag] 281\t\t\t\n      DUP2 \t\t\t\n      PUSH [tag] 151\t\t\t\n      JUMP \t\t\t\n    tag 281\t\t\t\n      JUMPDEST \t\t\t\n      DUP5 \t\t\t\n      ADD \t\t\t\n      SWAP2 \t\t\t\n      POP \t\t\t\n      POP \t\t\t\n      SWAP3 \t\t\t\n      SWAP2 \t\t\t\n      POP \t\t\t\n      POP \t\t\t\n      JUMP \t\t\t\n    tag 168\t\t\t\n      JUMPDEST \t\t\t\n      PUSH [tag] 283\t\t\t\n      DUP2 \t\t\t\n      PUSH [tag] 153\t\t\t\n      JUMP \t\t\t\n    tag 283\t\t\t\n      JUMPDEST \t\t\t\n      DUP3 \t\t\t\n      MSTORE \t\t\t\n      POP \t\t\t\n      POP \t\t\t\n      JUMP \t\t\t\n    tag 24\t\t\t\n      JUMPDEST \t\t\t\n      PUSH 0\t\t\t\n      PUSH 100\t\t\t\n      DUP3 \t\t\t\n      ADD \t\t\t\n      SWAP1 \t\t\t\n      POP \t\t\t\n      PUSH [tag] 285\t\t\t\n      PUSH 0\t\t\t\n      DUP4 \t\t\t\n      ADD \t\t\t\n      DUP12 \t\t\t\n      PUSH [tag] 159\t\t\t\n      JUMP \t\t\t\n    tag 285\t\t\t\n      JUMPDEST \t\t\t\n      PUSH [tag] 286\t\t\t\n      PUSH 20\t\t\t\n      DUP4 \t\t\t\n      ADD \t\t\t\n      DUP11 \t\t\t\n      PUSH [tag] 165\t\t\t\n      JUMP \t\t\t\n    tag 286\t\t\t\n      JUMPDEST \t\t\t\n      PUSH [tag] 287\t\t\t\n      PUSH 40\t\t\t\n      DUP4 \t\t\t\n      ADD \t\t\t\n      DUP10 \t\t\t\n      PUSH [tag] 165\t\t\t\n      JUMP \t\t\t\n    tag 287\t\t\t\n      JUMPDEST \t\t\t\n      DUP2 \t\t\t\n      DUP2 \t\t\t\n      SUB \t\t\t\n      PUSH 60\t\t\t\n      DUP4 \t\t\t\n      ADD \t\t\t\n      MSTORE \t\t\t\n      PUSH [tag] 288\t\t\t\n      DUP2 \t\t\t\n      DUP9 \t\t\t\n      PUSH [tag] 167\t\t\t\n      JUMP \t\t\t\n    tag 288\t\t\t\n      JUMPDEST \t\t\t\n      SWAP1 \t\t\t\n      POP \t\t\t\n      DUP2 \t\t\t\n      DUP2 \t\t\t\n      SUB \t\t\t\n      PUSH 80\t\t\t\n      DUP4 \t\t\t\n      ADD \t\t\t\n      MSTORE \t\t\t\n      PUSH [tag] 289\t\t\t\n      DUP2 \t\t\t\n      DUP8 \t\t\t\n      PUSH [tag] 167\t\t\t\n      JUMP \t\t\t\n    tag 289\t\t\t\n      JUMPDEST \t\t\t\n      SWAP1 \t\t\t\n      POP \t\t\t\n      DUP2 \t\t\t\n      DUP2 \t\t\t\n      SUB \t\t\t\n      PUSH A0\t\t\t\n      DUP4 \t\t\t\n      ADD \t\t\t\n      MSTORE \t\t\t\n      PUSH [tag] 290\t\t\t\n      DUP2 \t\t\t\n      DUP7 \t\t\t\n      PUSH [tag] 167\t\t\t\n      JUMP \t\t\t\n    tag 290\t\t\t\n      JUMPDEST \t\t\t\n      SWAP1 \t\t\t\n      POP \t\t\t\n      PUSH [tag] 291\t\t\t\n      PUSH C0\t\t\t\n      DUP4 \t\t\t\n      ADD \t\t\t\n      DUP6 \t\t\t\n      PUSH [tag] 159\t\t\t\n      JUMP \t\t\t\n    tag 291\t\t\t\n      JUMPDEST \t\t\t\n      PUSH [tag] 292\t\t\t\n      PUSH E0\t\t\t\n      DUP4 \t\t\t\n      ADD \t\t\t\n      DUP5 \t\t\t\n      PUSH [tag] 168\t\t\t\n      JUMP \t\t\t\n    tag 292\t\t\t\n      JUMPDEST \t\t\t\n      SWAP10 \t\t\t\n      SWAP9 \t\t\t\n      POP \t\t\t\n      POP \t\t\t\n      POP \t\t\t\n      POP \t\t\t\n      POP \t\t\t\n      POP \t\t\t\n      POP \t\t\t\n      POP \t\t\t\n      POP \t\t\t\n      JUMP \t\t\t\n    tag 169\t\t\t\n      JUMPDEST \t\t\t\n      PUSH 0\t\t\t\n      PUSH 100\t\t\t\n      DUP4 \t\t\t\n      ADD \t\t\t\n      PUSH 0\t\t\t\n      DUP4 \t\t\t\n      ADD \t\t\t\n      MLOAD \t\t\t\n      PUSH [tag] 294\t\t\t\n      PUSH 0\t\t\t\n      DUP7 \t\t\t\n      ADD \t\t\t\n      DUP3 \t\t\t\n      PUSH [tag] 144\t\t\t\n      JUMP \t\t\t\n    tag 294\t\t\t\n      JUMPDEST \t\t\t\n      POP \t\t\t\n      PUSH 20\t\t\t\n      DUP4 \t\t\t\n      ADD \t\t\t\n      MLOAD \t\t\t\n      PUSH [tag] 295\t\t\t\n      PUSH 20\t\t\t\n      DUP7 \t\t\t\n      ADD \t\t\t\n      DUP3 \t\t\t\n      PUSH [tag] 147\t\t\t\n      JUMP \t\t\t\n    tag 295\t\t\t\n      JUMPDEST \t\t\t\n      POP \t\t\t\n      PUSH 40\t\t\t\n      DUP4 \t\t\t\n      ADD \t\t\t\n      MLOAD \t\t\t\n      PUSH [tag] 296\t\t\t\n      PUSH 40\t\t\t\n      DUP7 \t\t\t\n      ADD \t\t\t\n      DUP3 \t\t\t\n      PUSH [tag] 147\t\t\t\n      JUMP \t\t\t\n    tag 296\t\t\t\n      JUMPDEST \t\t\t\n      POP \t\t\t\n      PUSH 60\t\t\t\n      DUP4 \t\t\t\n      ADD \t\t\t\n      MLOAD \t\t\t\n      DUP5 \t\t\t\n      DUP3 \t\t\t\n      SUB \t\t\t\n      PUSH 60\t\t\t\n      DUP7 \t\t\t\n      ADD \t\t\t\n      MSTORE \t\t\t\n      PUSH [tag] 297\t\t\t\n      DUP3 \t\t\t\n      DUP3 \t\t\t\n      PUSH [tag] 152\t\t\t\n      JUMP \t\t\t\n    tag 297\t\t\t\n      JUMPDEST \t\t\t\n      SWAP2 \t\t\t\n      POP \t\t\t\n      POP \t\t\t\n      PUSH 80\t\t\t\n      DUP4 \t\t\t\n      ADD \t\t\t\n      MLOAD \t\t\t\n      DUP5 \t\t\t\n      DUP3 \t\t\t\n      SUB \t\t\t\n      PUSH 80\t\t\t\n      DUP7 \t\t\t\n      ADD \t\t\t\n      MSTORE \t\t\t\n      PUSH [tag] 298\t\t\t\n      DUP3 \t\t\t\n      DUP3 \t\t\t\n      PUSH [tag] 152\t\t\t\n      JUMP \t\t\t\n    tag 298\t\t\t\n      JUMPDEST \t\t\t\n      SWAP2 \t\t\t\n      POP \t\t\t\n      POP \t\t\t\n      PUSH A0\t\t\t\n      DUP4 \t\t\t\n      ADD \t\t\t\n      MLOAD \t\t\t\n      DUP5 \t\t\t\n      DUP3 \t\t\t\n      SUB \t\t\t\n      PUSH A0\t\t\t\n      DUP7 \t\t\t\n      ADD \t\t\t\n      MSTORE \t\t\t\n      PUSH [tag] 299\t\t\t\n      DUP3 \t\t\t\n      DUP3 \t\t\t\n      PUSH [tag] 152\t\t\t\n      JUMP \t\t\t\n    tag 299\t\t\t\n      JUMPDEST \t\t\t\n      SWAP2 \t\t\t\n      POP \t\t\t\n      POP \t\t\t\n      PUSH C0\t\t\t\n      DUP4 \t\t\t\n      ADD \t\t\t\n      MLOAD \t\t\t\n      PUSH [tag] 300\t\t\t\n      PUSH C0\t\t\t\n      DUP7 \t\t\t\n      ADD \t\t\t\n      DUP3 \t\t\t\n      PUSH [tag] 144\t\t\t\n      JUMP \t\t\t\n    tag 300\t\t\t\n      JUMPDEST \t\t\t\n      POP \t\t\t\n      PUSH E0\t\t\t\n      DUP4 \t\t\t\n      ADD \t\t\t\n      MLOAD \t\t\t\n      PUSH [tag] 301\t\t\t\n      PUSH E0\t\t\t\n      DUP7 \t\t\t\n      ADD \t\t\t\n      DUP3 \t\t\t\n      PUSH [tag] 154\t\t\t\n      JUMP \t\t\t\n    tag 301\t\t\t\n      JUMPDEST \t\t\t\n      POP \t\t\t\n      DUP1 \t\t\t\n      SWAP2 \t\t\t\n      POP \t\t\t\n      POP \t\t\t\n      SWAP3 \t\t\t\n      SWAP2 \t\t\t\n      POP \t\t\t\n      POP \t\t\t\n      JUMP \t\t\t\n    tag 30\t\t\t\n      JUMPDEST \t\t\t\n      PUSH 0\t\t\t\n      PUSH 20\t\t\t\n      DUP3 \t\t\t\n      ADD \t\t\t\n      SWAP1 \t\t\t\n      POP \t\t\t\n      DUP2 \t\t\t\n      DUP2 \t\t\t\n      SUB \t\t\t\n      PUSH 0\t\t\t\n      DUP4 \t\t\t\n      ADD \t\t\t\n      MSTORE \t\t\t\n      PUSH [tag] 303\t\t\t\n      DUP2 \t\t\t\n      DUP5 \t\t\t\n      PUSH [tag] 169\t\t\t\n      JUMP \t\t\t\n    tag 303\t\t\t\n      JUMPDEST \t\t\t\n      SWAP1 \t\t\t\n      POP \t\t\t\n      SWAP3 \t\t\t\n      SWAP2 \t\t\t\n      POP \t\t\t\n      POP \t\t\t\n      JUMP \t\t\t\n    tag 170\t\t\t\n      JUMPDEST \t\t\t\n      PUSH 0\t\t\t\n      DUP1 \t\t\t\n      REVERT \t\t\t\n    tag 171\t\t\t\n      JUMPDEST \t\t\t\n      PUSH 0\t\t\t\n      DUP1 \t\t\t\n      REVERT \t\t\t\n    tag 172\t\t\t\n      JUMPDEST \t\t\t\n      PUSH 4E487B7100000000000000000000000000000000000000000000000000000000\t\t\t\n      PUSH 0\t\t\t\n      MSTORE \t\t\t\n      PUSH 41\t\t\t\n      PUSH 4\t\t\t\n      MSTORE \t\t\t\n      PUSH 24\t\t\t\n      PUSH 0\t\t\t\n      REVERT \t\t\t\n    tag 173\t\t\t\n      JUMPDEST \t\t\t\n      PUSH [tag] 308\t\t\t\n      DUP3 \t\t\t\n      PUSH [tag] 151\t\t\t\n      JUMP \t\t\t\n    tag 308\t\t\t\n      JUMPDEST \t\t\t\n      DUP2 \t\t\t\n      ADD \t\t\t\n      DUP2 \t\t\t\n      DUP2 \t\t\t\n      LT \t\t\t\n      PUSH FFFFFFFFFFFFFFFF\t\t\t\n      DUP3 \t\t\t\n      GT \t\t\t\n      OR \t\t\t\n      ISZERO \t\t\t\n      PUSH [tag] 309\t\t\t\n      JUMPI \t\t\t\n      PUSH [tag] 310\t\t\t\n      PUSH [tag] 172\t\t\t\n      JUMP \t\t\t\n    tag 310\t\t\t\n      JUMPDEST \t\t\t\n    tag 309\t\t\t\n      JUMPDEST \t\t\t\n      DUP1 \t\t\t\n      PUSH 40\t\t\t\n      MSTORE \t\t\t\n      POP \t\t\t\n      POP \t\t\t\n      POP \t\t\t\n      JUMP \t\t\t\n    tag 174\t\t\t\n      JUMPDEST \t\t\t\n      PUSH 0\t\t\t\n      PUSH [tag] 312\t\t\t\n      PUSH [tag] 160\t\t\t\n      JUMP \t\t\t\n    tag 312\t\t\t\n      JUMPDEST \t\t\t\n      SWAP1 \t\t\t\n      POP \t\t\t\n      PUSH [tag] 313\t\t\t\n      DUP3 \t\t\t\n      DUP3 \t\t\t\n      PUSH [tag] 173\t\t\t\n      JUMP \t\t\t\n    tag 313\t\t\t\n      JUMPDEST \t\t\t\n      SWAP2 \t\t\t\n      SWAP1 \t\t\t\n      POP \t\t\t\n      JUMP \t\t\t\n    tag 175\t\t\t\n      JUMPDEST \t\t\t\n      PUSH 0\t\t\t\n      PUSH FFFFFFFFFFFFFFFF\t\t\t\n      DUP3 \t\t\t\n      GT \t\t\t\n      ISZERO \t\t\t\n      PUSH [tag] 315\t\t\t\n      JUMPI \t\t\t\n      PUSH [tag] 316\t\t\t\n      PUSH [tag] 172\t\t\t\n      JUMP \t\t\t\n    tag 316\t\t\t\n      JUMPDEST \t\t\t\n    tag 315\t\t\t\n      JUMPDEST \t\t\t\n      PUSH [tag] 317\t\t\t\n      DUP3 \t\t\t\n      PUSH [tag] 151\t\t\t\n      JUMP \t\t\t\n    tag 317\t\t\t\n      JUMPDEST \t\t\t\n      SWAP1 \t\t\t\n      POP \t\t\t\n      PUSH 20\t\t\t\n      DUP2 \t\t\t\n      ADD \t\t\t\n      SWAP1 \t\t\t\n      POP \t\t\t\n      SWAP2 \t\t\t\n      SWAP1 \t\t\t\n      POP \t\t\t\n      JUMP \t\t\t\n    tag 176\t\t\t\n      JUMPDEST \t\t\t\n      DUP3 \t\t\t\n      DUP2 \t\t\t\n      DUP4 \t\t\t\n      CALLDATACOPY \t\t\t\n      PUSH 0\t\t\t\n      DUP4 \t\t\t\n      DUP4 \t\t\t\n      ADD \t\t\t\n      MSTORE \t\t\t\n      POP \t\t\t\n      POP \t\t\t\n      POP \t\t\t\n      JUMP \t\t\t\n    tag 177\t\t\t\n      JUMPDEST \t\t\t\n      PUSH 0\t\t\t\n      PUSH [tag] 320\t\t\t\n      PUSH [tag] 321\t\t\t\n      DUP5 \t\t\t\n      PUSH [tag] 175\t\t\t\n      JUMP \t\t\t\n    tag 321\t\t\t\n      JUMPDEST \t\t\t\n      PUSH [tag] 174\t\t\t\n      JUMP \t\t\t\n    tag 320\t\t\t\n      JUMPDEST \t\t\t\n      SWAP1 \t\t\t\n      POP \t\t\t\n      DUP3 \t\t\t\n      DUP2 \t\t\t\n      MSTORE \t\t\t\n      PUSH 20\t\t\t\n      DUP2 \t\t\t\n      ADD \t\t\t\n      DUP5 \t\t\t\n      DUP5 \t\t\t\n      DUP5 \t\t\t\n      ADD \t\t\t\n      GT \t\t\t\n      ISZERO \t\t\t\n      PUSH [tag] 322\t\t\t\n      JUMPI \t\t\t\n      PUSH [tag] 323\t\t\t\n      PUSH [tag] 171\t\t\t\n      JUMP \t\t\t\n    tag 323\t\t\t\n      JUMPDEST \t\t\t\n    tag 322\t\t\t\n      JUMPDEST \t\t\t\n      PUSH [tag] 324\t\t\t\n      DUP5 \t\t\t\n      DUP3 \t\t\t\n      DUP6 \t\t\t\n      PUSH [tag] 176\t\t\t\n      JUMP \t\t\t\n    tag 324\t\t\t\n      JUMPDEST \t\t\t\n      POP \t\t\t\n      SWAP4 \t\t\t\n      SWAP3 \t\t\t\n      POP \t\t\t\n      POP \t\t\t\n      POP \t\t\t\n      JUMP \t\t\t\n    tag 178\t\t\t\n      JUMPDEST \t\t\t\n      PUSH 0\t\t\t\n      DUP3 \t\t\t\n      PUSH 1F\t\t\t\n      DUP4 \t\t\t\n      ADD \t\t\t\n      SLT \t\t\t\n      PUSH [tag] 326\t\t\t\n      JUMPI \t\t\t\n      PUSH [tag] 327\t\t\t\n      PUSH [tag] 170\t\t\t\n      JUMP \t\t\t\n    tag 327\t\t\t\n      JUMPDEST \t\t\t\n    tag 326\t\t\t\n      JUMPDEST \t\t\t\n      DUP2 \t\t\t\n      CALLDATALOAD \t\t\t\n      PUSH [tag] 328\t\t\t\n      DUP5 \t\t\t\n      DUP3 \t\t\t\n      PUSH 20\t\t\t\n      DUP7 \t\t\t\n      ADD \t\t\t\n      PUSH [tag] 177\t\t\t\n      JUMP \t\t\t\n    tag 328\t\t\t\n      JUMPDEST \t\t\t\n      SWAP2 \t\t\t\n      POP \t\t\t\n      POP \t\t\t\n      SWAP3 \t\t\t\n      SWAP2 \t\t\t\n      POP \t\t\t\n      POP \t\t\t\n      JUMP \t\t\t\n    tag 34\t\t\t\n      JUMPDEST \t\t\t\n      PUSH 0\t\t\t\n      DUP1 \t\t\t\n      PUSH 0\t\t\t\n      DUP1 \t\t\t\n      PUSH 80\t\t\t\n      DUP6 \t\t\t\n      DUP8 \t\t\t\n      SUB \t\t\t\n      SLT \t\t\t\n      ISZERO \t\t\t\n      PUSH [tag] 330\t\t\t\n      JUMPI \t\t\t\n      PUSH [tag] 331\t\t\t\n      PUSH [tag] 161\t\t\t\n      JUMP \t\t\t\n    tag 331\t\t\t\n      JUMPDEST \t\t\t\n    tag 330\t\t\t\n      JUMPDEST \t\t\t\n      PUSH 0\t\t\t\n      DUP6 \t\t\t\n      ADD \t\t\t\n      CALLDATALOAD \t\t\t\n      PUSH FFFFFFFFFFFFFFFF\t\t\t\n      DUP2 \t\t\t\n      GT \t\t\t\n      ISZERO \t\t\t\n      PUSH [tag] 332\t\t\t\n      JUMPI \t\t\t\n      PUSH [tag] 333\t\t\t\n      PUSH [tag] 162\t\t\t\n      JUMP \t\t\t\n    tag 333\t\t\t\n      JUMPDEST \t\t\t\n    tag 332\t\t\t\n      JUMPDEST \t\t\t\n      PUSH [tag] 334\t\t\t\n      DUP8 \t\t\t\n      DUP3 \t\t\t\n      DUP9 \t\t\t\n      ADD \t\t\t\n      PUSH [tag] 178\t\t\t\n      JUMP \t\t\t\n    tag 334\t\t\t\n      JUMPDEST \t\t\t\n      SWAP5 \t\t\t\n      POP \t\t\t\n      POP \t\t\t\n      PUSH 20\t\t\t\n      DUP6 \t\t\t\n      ADD \t\t\t\n      CALLDATALOAD \t\t\t\n      PUSH FFFFFFFFFFFFFFFF\t\t\t\n      DUP2 \t\t\t\n      GT \t\t\t\n      ISZERO \t\t\t\n      PUSH [tag] 335\t\t\t\n      JUMPI \t\t\t\n      PUSH [tag] 336\t\t\t\n      PUSH [tag] 162\t\t\t\n      JUMP \t\t\t\n    tag 336\t\t\t\n      JUMPDEST \t\t\t\n    tag 335\t\t\t\n      JUMPDEST \t\t\t\n      PUSH [tag] 337\t\t\t\n      DUP8 \t\t\t\n      DUP3 \t\t\t\n      DUP9 \t\t\t\n      ADD \t\t\t\n      PUSH [tag] 178\t\t\t\n      JUMP \t\t\t\n    tag 337\t\t\t\n      JUMPDEST \t\t\t\n      SWAP4 \t\t\t\n      POP \t\t\t\n      POP \t\t\t\n      PUSH 40\t\t\t\n      DUP6 \t\t\t\n      ADD \t\t\t\n      CALLDATALOAD \t\t\t\n      PUSH FFFFFFFFFFFFFFFF\t\t\t\n      DUP2 \t\t\t\n      GT \t\t\t\n      ISZERO \t\t\t\n      PUSH [tag] 338\t\t\t\n      JUMPI \t\t\t\n      PUSH [tag] 339\t\t\t\n      PUSH [tag] 162\t\t\t\n      JUMP \t\t\t\n    tag 339\t\t\t\n      JUMPDEST \t\t\t\n    tag 338\t\t\t\n      JUMPDEST \t\t\t\n      PUSH [tag] 340\t\t\t\n      DUP8 \t\t\t\n      DUP3 \t\t\t\n      DUP9 \t\t\t\n      ADD \t\t\t\n      PUSH [tag] 178\t\t\t\n      JUMP \t\t\t\n    tag 340\t\t\t\n      JUMPDEST \t\t\t\n      SWAP3 \t\t\t\n      POP \t\t\t\n      POP \t\t\t\n      PUSH 60\t\t\t\n      PUSH [tag] 341\t\t\t\n      DUP8 \t\t\t\n      DUP3 \t\t\t\n      DUP9 \t\t\t\n      ADD \t\t\t\n      PUSH [tag] 164\t\t\t\n      JUMP \t\t\t\n    tag 341\t\t\t\n      JUMPDEST \t\t\t\n      SWAP2 \t\t\t\n      POP \t\t\t\n      POP \t\t\t\n      SWAP3 \t\t\t\n      SWAP6 \t\t\t\n      SWAP2 \t\t\t\n      SWAP5 \t\t\t\n      POP \t\t\t\n      SWAP3 \t\t\t\n      POP \t\t\t\n      JUMP \t\t\t\n    tag 179\t\t\t\n      JUMPDEST \t\t\t\n      PUSH 4E487B7100000000000000000000000000000000000000000000000000000000\t\t\t\n      PUSH 0\t\t\t\n      MSTORE \t\t\t\n      PUSH 22\t\t\t\n      PUSH 4\t\t\t\n      MSTORE \t\t\t\n      PUSH 24\t\t\t\n      PUSH 0\t\t\t\n      REVERT \t\t\t\n    tag 44\t\t\t\n      JUMPDEST \t\t\t\n      PUSH 0\t\t\t\n      PUSH 2\t\t\t\n      DUP3 \t\t\t\n      DIV \t\t\t\n      SWAP1 \t\t\t\n      POP \t\t\t\n      PUSH 1\t\t\t\n      DUP3 \t\t\t\n      AND \t\t\t\n      DUP1 \t\t\t\n      PUSH [tag] 344\t\t\t\n      JUMPI \t\t\t\n      PUSH 7F\t\t\t\n      DUP3 \t\t\t\n      AND \t\t\t\n      SWAP2 \t\t\t\n      POP \t\t\t\n    tag 344\t\t\t\n      JUMPDEST \t\t\t\n      PUSH 20\t\t\t\n      DUP3 \t\t\t\n      LT \t\t\t\n      DUP2 \t\t\t\n      SUB \t\t\t\n      PUSH [tag] 345\t\t\t\n      JUMPI \t\t\t\n      PUSH [tag] 346\t\t\t\n      PUSH [tag] 179\t\t\t\n      JUMP \t\t\t\n    tag 346\t\t\t\n      JUMPDEST \t\t\t\n    tag 345\t\t\t\n      JUMPDEST \t\t\t\n      POP \t\t\t\n      SWAP2 \t\t\t\n      SWAP1 \t\t\t\n      POP \t\t\t\n      JUMP \t\t\t\n    tag 180\t\t\t\n      JUMPDEST \t\t\t\n      PUSH 4974656D20494420646F6573206E6F7420657869737400000000000000000000\t\t\t\n      PUSH 0\t\t\t\n      DUP3 \t\t\t\n      ADD \t\t\t\n      MSTORE \t\t\t\n      POP \t\t\t\n      JUMP \t\t\t\n    tag 181\t\t\t\n      JUMPDEST \t\t\t\n      PUSH 0\t\t\t\n      PUSH [tag] 349\t\t\t\n      PUSH 16\t\t\t\n      DUP4 \t\t\t\n      PUSH [tag] 166\t\t\t\n      JUMP \t\t\t\n    tag 349\t\t\t\n      JUMPDEST \t\t\t\n      SWAP2 \t\t\t\n      POP \t\t\t\n      PUSH [tag] 350\t\t\t\n      DUP3 \t\t\t\n      PUSH [tag] 180\t\t\t\n      JUMP \t\t\t\n    tag 350\t\t\t\n      JUMPDEST \t\t\t\n      PUSH 20\t\t\t\n      DUP3 \t\t\t\n      ADD \t\t\t\n      SWAP1 \t\t\t\n      POP \t\t\t\n      SWAP2 \t\t\t\n      SWAP1 \t\t\t\n      POP \t\t\t\n      JUMP \t\t\t\n    tag 81\t\t\t\n      JUMPDEST \t\t\t\n      PUSH 0\t\t\t\n      PUSH 20\t\t\t\n      DUP3 \t\t\t\n      ADD \t\t\t\n      SWAP1 \t\t\t\n      POP \t\t\t\n      DUP2 \t\t\t\n      DUP2 \t\t\t\n      SUB \t\t\t\n      PUSH 0\t\t\t\n      DUP4 \t\t\t\n      ADD \t\t\t\n      MSTORE \t\t\t\n      PUSH [tag] 352\t\t\t\n      DUP2 \t\t\t\n      PUSH [tag] 181\t\t\t\n      JUMP \t\t\t\n    tag 352\t\t\t\n      JUMPDEST \t\t\t\n      SWAP1 \t\t\t\n      POP \t\t\t\n      SWAP2 \t\t\t\n      SWAP1 \t\t\t\n      POP \t\t\t\n      JUMP \t\t\t\n    tag 84\t\t\t\n      JUMPDEST \t\t\t\n      PUSH 4E487B7100000000000000000000000000000000000000000000000000000000\t\t\t\n      PUSH 0\t\t\t\n      MSTORE \t\t\t\n      PUSH 32\t\t\t\n      PUSH 4\t\t\t\n      MSTORE \t\t\t\n      PUSH 24\t\t\t\n      PUSH 0\t\t\t\n      REVERT \t\t\t\n    tag 182\t\t\t\n      JUMPDEST \t\t\t\n      PUSH 5072696365206D7573742062652067726561746572207468616E207A65726F00\t\t\t\n      PUSH 0\t\t\t\n      DUP3 \t\t\t\n      ADD \t\t\t\n      MSTORE \t\t\t\n      POP \t\t\t\n      JUMP \t\t\t\n    tag 183\t\t\t\n      JUMPDEST \t\t\t\n      PUSH 0\t\t\t\n      PUSH [tag] 356\t\t\t\n      PUSH 1F\t\t\t\n      DUP4 \t\t\t\n      PUSH [tag] 166\t\t\t\n      JUMP \t\t\t\n    tag 356\t\t\t\n      JUMPDEST \t\t\t\n      SWAP2 \t\t\t\n      POP \t\t\t\n      PUSH [tag] 357\t\t\t\n      DUP3 \t\t\t\n      PUSH [tag] 182\t\t\t\n      JUMP \t\t\t\n    tag 357\t\t\t\n      JUMPDEST \t\t\t\n      PUSH 20\t\t\t\n      DUP3 \t\t\t\n      ADD \t\t\t\n      SWAP1 \t\t\t\n      POP \t\t\t\n      SWAP2 \t\t\t\n      SWAP1 \t\t\t\n      POP \t\t\t\n      JUMP \t\t\t\n    tag 104\t\t\t\n      JUMPDEST \t\t\t\n      PUSH 0\t\t\t\n      PUSH 20\t\t\t\n      DUP3 \t\t\t\n      ADD \t\t\t\n      SWAP1 \t\t\t\n      POP \t\t\t\n      DUP2 \t\t\t\n      DUP2 \t\t\t\n      SUB \t\t\t\n      PUSH 0\t\t\t\n      DUP4 \t\t\t\n      ADD \t\t\t\n      MSTORE \t\t\t\n      PUSH [tag] 359\t\t\t\n      DUP2 \t\t\t\n      PUSH [tag] 183\t\t\t\n      JUMP \t\t\t\n    tag 359\t\t\t\n      JUMPDEST \t\t\t\n      SWAP1 \t\t\t\n      POP \t\t\t\n      SWAP2 \t\t\t\n      SWAP1 \t\t\t\n      POP \t\t\t\n      JUMP \t\t\t\n    tag 184\t\t\t\n      JUMPDEST \t\t\t\n      PUSH 0\t\t\t\n      DUP2 \t\t\t\n      SWAP1 \t\t\t\n      POP \t\t\t\n      DUP2 \t\t\t\n      PUSH 0\t\t\t\n      MSTORE \t\t\t\n      PUSH 20\t\t\t\n      PUSH 0\t\t\t\n      KECCAK256 \t\t\t\n      SWAP1 \t\t\t\n      POP \t\t\t\n      SWAP2 \t\t\t\n      SWAP1 \t\t\t\n      POP \t\t\t\n      JUMP \t\t\t\n    tag 185\t\t\t\n      JUMPDEST \t\t\t\n      PUSH 0\t\t\t\n      PUSH 20\t\t\t\n      PUSH 1F\t\t\t\n      DUP4 \t\t\t\n      ADD \t\t\t\n      DIV \t\t\t\n      SWAP1 \t\t\t\n      POP \t\t\t\n      SWAP2 \t\t\t\n      SWAP1 \t\t\t\n      POP \t\t\t\n      JUMP \t\t\t\n    tag 186\t\t\t\n      JUMPDEST \t\t\t\n      PUSH 0\t\t\t\n      DUP3 \t\t\t\n      DUP3 \t\t\t\n      SHL \t\t\t\n      SWAP1 \t\t\t\n      POP \t\t\t\n      SWAP3 \t\t\t\n      SWAP2 \t\t\t\n      POP \t\t\t\n      POP \t\t\t\n      JUMP \t\t\t\n    tag 187\t\t\t\n      JUMPDEST \t\t\t\n      PUSH 0\t\t\t\n      PUSH 8\t\t\t\n      DUP4 \t\t\t\n      MUL \t\t\t\n      PUSH [tag] 364\t\t\t\n      PUSH FFFFFFFFFFFFFFFFFFFFFFFFFFFFFFFFFFFFFFFFFFFFFFFFFFFFFFFFFFFFFFFF\t\t\t\n      DUP3 \t\t\t\n      PUSH [tag] 186\t\t\t\n      JUMP \t\t\t\n    tag 364\t\t\t\n      JUMPDEST \t\t\t\n      PUSH [tag] 365\t\t\t\n      DUP7 \t\t\t\n      DUP4 \t\t\t\n      PUSH [tag] 186\t\t\t\n      JUMP \t\t\t\n    tag 365\t\t\t\n      JUMPDEST \t\t\t\n      SWAP6 \t\t\t\n      POP \t\t\t\n      DUP1 \t\t\t\n      NOT \t\t\t\n      DUP5 \t\t\t\n      AND \t\t\t\n      SWAP4 \t\t\t\n      POP \t\t\t\n      DUP1 \t\t\t\n      DUP7 \t\t\t\n      AND \t\t\t\n      DUP5 \t\t\t\n      OR \t\t\t\n      SWAP3 \t\t\t\n      POP \t\t\t\n      POP \t\t\t\n      POP \t\t\t\n      SWAP4 \t\t\t\n      SWAP3 \t\t\t\n      POP \t\t\t\n      POP \t\t\t\n      POP \t\t\t\n      JUMP \t\t\t\n    tag 188\t\t\t\n      JUMPDEST \t\t\t\n      PUSH 0\t\t\t\n      DUP2 \t\t\t\n      SWAP1 \t\t\t\n      POP \t\t\t\n      SWAP2 \t\t\t\n      SWAP1 \t\t\t\n      POP \t\t\t\n      JUMP \t\t\t\n    tag 189\t\t\t\n      JUMPDEST \t\t\t\n      PUSH 0\t\t\t\n      PUSH [tag] 368\t\t\t\n      PUSH [tag] 369\t\t\t\n      PUSH [tag] 370\t\t\t\n      DUP5 \t\t\t\n      PUSH [tag] 143\t\t\t\n      JUMP \t\t\t\n    tag 370\t\t\t\n      JUMPDEST \t\t\t\n      PUSH [tag] 188\t\t\t\n      JUMP \t\t\t\n    tag 369\t\t\t\n      JUMPDEST \t\t\t\n      PUSH [tag] 143\t\t\t\n      JUMP \t\t\t\n    tag 368\t\t\t\n      JUMPDEST \t\t\t\n      SWAP1 \t\t\t\n      POP \t\t\t\n      SWAP2 \t\t\t\n      SWAP1 \t\t\t\n      POP \t\t\t\n      JUMP \t\t\t\n    tag 190\t\t\t\n      JUMPDEST \t\t\t\n      PUSH 0\t\t\t\n      DUP2 \t\t\t\n      SWAP1 \t\t\t\n      POP \t\t\t\n      SWAP2 \t\t\t\n      SWAP1 \t\t\t\n      POP \t\t\t\n      JUMP \t\t\t\n    tag 191\t\t\t\n      JUMPDEST \t\t\t\n      PUSH [tag] 373\t\t\t\n      DUP4 \t\t\t\n      PUSH [tag] 189\t\t\t\n      JUMP \t\t\t\n    tag 373\t\t\t\n      JUMPDEST \t\t\t\n      PUSH [tag] 374\t\t\t\n      PUSH [tag] 375\t\t\t\n      DUP3 \t\t\t\n      PUSH [tag] 190\t\t\t\n      JUMP \t\t\t\n    tag 375\t\t\t\n      JUMPDEST \t\t\t\n      DUP5 \t\t\t\n      DUP5 \t\t\t\n      SLOAD \t\t\t\n      PUSH [tag] 187\t\t\t\n      JUMP \t\t\t\n    tag 374\t\t\t\n      JUMPDEST \t\t\t\n      DUP3 \t\t\t\n      SSTORE \t\t\t\n      POP \t\t\t\n      POP \t\t\t\n      POP \t\t\t\n      POP \t\t\t\n      JUMP \t\t\t\n    tag 192\t\t\t\n      JUMPDEST \t\t\t\n      PUSH 0\t\t\t\n      SWAP1 \t\t\t\n      JUMP \t\t\t\n    tag 193\t\t\t\n      JUMPDEST \t\t\t\n      PUSH [tag] 378\t\t\t\n      PUSH [tag] 192\t\t\t\n      JUMP \t\t\t\n    tag 378\t\t\t\n      JUMPDEST \t\t\t\n      PUSH [tag] 379\t\t\t\n      DUP2 \t\t\t\n      DUP5 \t\t\t\n      DUP5 \t\t\t\n      PUSH [tag] 191\t\t\t\n      JUMP \t\t\t\n    tag 379\t\t\t\n      JUMPDEST \t\t\t\n      POP \t\t\t\n      POP \t\t\t\n      POP \t\t\t\n      JUMP \t\t\t\n    tag 194\t\t\t\n      JUMPDEST \t\t\t\n    tag 381\t\t\t\n      JUMPDEST \t\t\t\n      DUP2 \t\t\t\n      DUP2 \t\t\t\n      LT \t\t\t\n      ISZERO \t\t\t\n      PUSH [tag] 383\t\t\t\n      JUMPI \t\t\t\n      PUSH [tag] 384\t\t\t\n      PUSH 0\t\t\t\n      DUP3 \t\t\t\n      PUSH [tag] 193\t\t\t\n      JUMP \t\t\t\n    tag 384\t\t\t\n      JUMPDEST \t\t\t\n      PUSH 1\t\t\t\n      DUP2 \t\t\t\n      ADD \t\t\t\n      SWAP1 \t\t\t\n      POP \t\t\t\n      PUSH [tag] 381\t\t\t\n      JUMP \t\t\t\n    tag 383\t\t\t\n      JUMPDEST \t\t\t\n      POP \t\t\t\n      POP \t\t\t\n      JUMP \t\t\t\n    tag 195\t\t\t\n      JUMPDEST \t\t\t\n      PUSH 1F\t\t\t\n      DUP3 \t\t\t\n      GT \t\t\t\n      ISZERO \t\t\t\n      PUSH [tag] 386\t\t\t\n      JUMPI \t\t\t\n      PUSH [tag] 387\t\t\t\n      DUP2 \t\t\t\n      PUSH [tag] 184\t\t\t\n      JUMP \t\t\t\n    tag 387\t\t\t\n      JUMPDEST \t\t\t\n      PUSH [tag] 388\t\t\t\n      DUP5 \t\t\t\n      PUSH [tag] 185\t\t\t\n      JUMP \t\t\t\n    tag 388\t\t\t\n      JUMPDEST \t\t\t\n      DUP2 \t\t\t\n      ADD \t\t\t\n      PUSH 20\t\t\t\n      DUP6 \t\t\t\n      LT \t\t\t\n      ISZERO \t\t\t\n      PUSH [tag] 389\t\t\t\n      JUMPI \t\t\t\n      DUP2 \t\t\t\n      SWAP1 \t\t\t\n      POP \t\t\t\n    tag 389\t\t\t\n      JUMPDEST \t\t\t\n      PUSH [tag] 390\t\t\t\n      PUSH [tag] 391\t\t\t\n      DUP6 \t\t\t\n      PUSH [tag] 185\t\t\t\n      JUMP \t\t\t\n    tag 391\t\t\t\n      JUMPDEST \t\t\t\n      DUP4 \t\t\t\n      ADD \t\t\t\n      DUP3 \t\t\t\n      PUSH [tag] 194\t\t\t\n      JUMP \t\t\t\n    tag 390\t\t\t\n      JUMPDEST \t\t\t\n      POP \t\t\t\n      POP \t\t\t\n    tag 386\t\t\t\n      JUMPDEST \t\t\t\n      POP \t\t\t\n      POP \t\t\t\n      POP \t\t\t\n      JUMP \t\t\t\n    tag 196\t\t\t\n      JUMPDEST \t\t\t\n      PUSH 0\t\t\t\n      DUP3 \t\t\t\n      DUP3 \t\t\t\n      SHR \t\t\t\n      SWAP1 \t\t\t\n      POP \t\t\t\n      SWAP3 \t\t\t\n      SWAP2 \t\t\t\n      POP \t\t\t\n      POP \t\t\t\n      JUMP \t\t\t\n    tag 197\t\t\t\n      JUMPDEST \t\t\t\n      PUSH 0\t\t\t\n      PUSH [tag] 394\t\t\t\n      PUSH 0\t\t\t\n      NOT \t\t\t\n      DUP5 \t\t\t\n      PUSH 8\t\t\t\n      MUL \t\t\t\n      PUSH [tag] 196\t\t\t\n      JUMP \t\t\t\n    tag 394\t\t\t\n      JUMPDEST \t\t\t\n      NOT \t\t\t\n      DUP1 \t\t\t\n      DUP4 \t\t\t\n      AND \t\t\t\n      SWAP2 \t\t\t\n      POP \t\t\t\n      POP \t\t\t\n      SWAP3 \t\t\t\n      SWAP2 \t\t\t\n      POP \t\t\t\n      POP \t\t\t\n      JUMP \t\t\t\n    tag 198\t\t\t\n      JUMPDEST \t\t\t\n      PUSH 0\t\t\t\n      PUSH [tag] 396\t\t\t\n      DUP4 \t\t\t\n      DUP4 \t\t\t\n      PUSH [tag] 197\t\t\t\n      JUMP \t\t\t\n    tag 396\t\t\t\n      JUMPDEST \t\t\t\n      SWAP2 \t\t\t\n      POP \t\t\t\n      DUP3 \t\t\t\n      PUSH 2\t\t\t\n      MUL \t\t\t\n      DUP3 \t\t\t\n      OR \t\t\t\n      SWAP1 \t\t\t\n      POP \t\t\t\n      SWAP3 \t\t\t\n      SWAP2 \t\t\t\n      POP \t\t\t\n      POP \t\t\t\n      JUMP \t\t\t\n    tag 107\t\t\t\n      JUMPDEST \t\t\t\n      PUSH [tag] 398\t\t\t\n      DUP3 \t\t\t\n      PUSH [tag] 148\t\t\t\n      JUMP \t\t\t\n    tag 398\t\t\t\n      JUMPDEST \t\t\t\n      PUSH FFFFFFFFFFFFFFFF\t\t\t\n      DUP2 \t\t\t\n      GT \t\t\t\n      ISZERO \t\t\t\n      PUSH [tag] 399\t\t\t\n      JUMPI \t\t\t\n      PUSH [tag] 400\t\t\t\n      PUSH [tag] 172\t\t\t\n      JUMP \t\t\t\n    tag 400\t\t\t\n      JUMPDEST \t\t\t\n    tag 399\t\t\t\n      JUMPDEST \t\t\t\n      PUSH [tag] 401\t\t\t\n      DUP3 \t\t\t\n      SLOAD \t\t\t\n      PUSH [tag] 44\t\t\t\n      JUMP \t\t\t\n    tag 401\t\t\t\n      JUMPDEST \t\t\t\n      PUSH [tag] 402\t\t\t\n      DUP3 \t\t\t\n      DUP3 \t\t\t\n      DUP6 \t\t\t\n      PUSH [tag] 195\t\t\t\n      JUMP \t\t\t\n    tag 402\t\t\t\n      JUMPDEST \t\t\t\n      PUSH 0\t\t\t\n      PUSH 20\t\t\t\n      SWAP1 \t\t\t\n      POP \t\t\t\n      PUSH 1F\t\t\t\n      DUP4 \t\t\t\n      GT \t\t\t\n      PUSH 1\t\t\t\n      DUP2 \t\t\t\n      EQ \t\t\t\n      PUSH [tag] 404\t\t\t\n      JUMPI \t\t\t\n      PUSH 0\t\t\t\n      DUP5 \t\t\t\n      ISZERO \t\t\t\n      PUSH [tag] 405\t\t\t\n      JUMPI \t\t\t\n      DUP3 \t\t\t\n      DUP8 \t\t\t\n      ADD \t\t\t\n      MLOAD \t\t\t\n      SWAP1 \t\t\t\n      POP \t\t\t\n    tag 405\t\t\t\n      JUMPDEST \t\t\t\n      PUSH [tag] 406\t\t\t\n      DUP6 \t\t\t\n      DUP3 \t\t\t\n      PUSH [tag] 198\t\t\t\n      JUMP \t\t\t\n    tag 406\t\t\t\n      JUMPDEST \t\t\t\n      DUP7 \t\t\t\n      SSTORE \t\t\t\n      POP \t\t\t\n      PUSH [tag] 403\t\t\t\n      JUMP \t\t\t\n    tag 404\t\t\t\n      JUMPDEST \t\t\t\n      PUSH 1F\t\t\t\n      NOT \t\t\t\n      DUP5 \t\t\t\n      AND \t\t\t\n      PUSH [tag] 407\t\t\t\n      DUP7 \t\t\t\n      PUSH [tag] 184\t\t\t\n      JUMP \t\t\t\n    tag 407\t\t\t\n      JUMPDEST \t\t\t\n      PUSH 0\t\t\t\n    tag 408\t\t\t\n      JUMPDEST \t\t\t\n      DUP3 \t\t\t\n      DUP2 \t\t\t\n      LT \t\t\t\n      ISZERO \t\t\t\n      PUSH [tag] 410\t\t\t\n      JUMPI \t\t\t\n      DUP5 \t\t\t\n      DUP10 \t\t\t\n      ADD \t\t\t\n      MLOAD \t\t\t\n      DUP3 \t\t\t\n      SSTORE \t\t\t\n      PUSH 1\t\t\t\n      DUP3 \t\t\t\n      ADD \t\t\t\n      SWAP2 \t\t\t\n      POP \t\t\t\n      PUSH 20\t\t\t\n      DUP6 \t\t\t\n      ADD \t\t\t\n      SWAP5 \t\t\t\n      POP \t\t\t\n      PUSH 20\t\t\t\n      DUP2 \t\t\t\n      ADD \t\t\t\n      SWAP1 \t\t\t\n      POP \t\t\t\n      PUSH [tag] 408\t\t\t\n      JUMP \t\t\t\n    tag 410\t\t\t\n      JUMPDEST \t\t\t\n      DUP7 \t\t\t\n      DUP4 \t\t\t\n      LT \t\t\t\n      ISZERO \t\t\t\n      PUSH [tag] 411\t\t\t\n      JUMPI \t\t\t\n      DUP5 \t\t\t\n      DUP10 \t\t\t\n      ADD \t\t\t\n      MLOAD \t\t\t\n      PUSH [tag] 412\t\t\t\n      PUSH 1F\t\t\t\n      DUP10 \t\t\t\n      AND \t\t\t\n      DUP3 \t\t\t\n      PUSH [tag] 197\t\t\t\n      JUMP \t\t\t\n    tag 412\t\t\t\n      JUMPDEST \t\t\t\n      DUP4 \t\t\t\n      SSTORE \t\t\t\n      POP \t\t\t\n    tag 411\t\t\t\n      JUMPDEST \t\t\t\n      PUSH 1\t\t\t\n      PUSH 2\t\t\t\n      DUP9 \t\t\t\n      MUL \t\t\t\n      ADD \t\t\t\n      DUP9 \t\t\t\n      SSTORE \t\t\t\n      POP \t\t\t\n      POP \t\t\t\n      POP \t\t\t\n    tag 403\t\t\t\n      JUMPDEST \t\t\t\n      POP \t\t\t\n      POP \t\t\t\n      POP \t\t\t\n      POP \t\t\t\n      POP \t\t\t\n      POP \t\t\t\n      JUMP \t\t\t\n    tag 111\t\t\t\n      JUMPDEST \t\t\t\n      PUSH 0\t\t\t\n      PUSH 80\t\t\t\n      DUP3 \t\t\t\n      ADD \t\t\t\n      SWAP1 \t\t\t\n      POP \t\t\t\n      PUSH [tag] 414\t\t\t\n      PUSH 0\t\t\t\n      DUP4 \t\t\t\n      ADD \t\t\t\n      DUP8 \t\t\t\n      PUSH [tag] 159\t\t\t\n      JUMP \t\t\t\n    tag 414\t\t\t\n      JUMPDEST \t\t\t\n      DUP2 \t\t\t\n      DUP2 \t\t\t\n      SUB \t\t\t\n      PUSH 20\t\t\t\n      DUP4 \t\t\t\n      ADD \t\t\t\n      MSTORE \t\t\t\n      PUSH [tag] 415\t\t\t\n      DUP2 \t\t\t\n      DUP7 \t\t\t\n      PUSH [tag] 167\t\t\t\n      JUMP \t\t\t\n    tag 415\t\t\t\n      JUMPDEST \t\t\t\n      SWAP1 \t\t\t\n      POP \t\t\t\n      DUP2 \t\t\t\n      DUP2 \t\t\t\n      SUB \t\t\t\n      PUSH 40\t\t\t\n      DUP4 \t\t\t\n      ADD \t\t\t\n      MSTORE \t\t\t\n      PUSH [tag] 416\t\t\t\n      DUP2 \t\t\t\n      DUP6 \t\t\t\n      PUSH [tag] 167\t\t\t\n      JUMP \t\t\t\n    tag 416\t\t\t\n      JUMPDEST \t\t\t\n      SWAP1 \t\t\t\n      POP \t\t\t\n      PUSH [tag] 417\t\t\t\n      PUSH 60\t\t\t\n      DUP4 \t\t\t\n      ADD \t\t\t\n      DUP5 \t\t\t\n      PUSH [tag] 159\t\t\t\n      JUMP \t\t\t\n    tag 417\t\t\t\n      JUMPDEST \t\t\t\n      SWAP6 \t\t\t\n      SWAP5 \t\t\t\n      POP \t\t\t\n      POP \t\t\t\n      POP \t\t\t\n      POP \t\t\t\n      POP \t\t\t\n      JUMP \t\t\t\n    tag 199\t\t\t\n      JUMPDEST \t\t\t\n      PUSH 4E487B7100000000000000000000000000000000000000000000000000000000\t\t\t\n      PUSH 0\t\t\t\n      MSTORE \t\t\t\n      PUSH 11\t\t\t\n      PUSH 4\t\t\t\n      MSTORE \t\t\t\n      PUSH 24\t\t\t\n      PUSH 0\t\t\t\n      REVERT \t\t\t\n    tag 113\t\t\t\n      JUMPDEST \t\t\t\n      PUSH 0\t\t\t\n      PUSH [tag] 420\t\t\t\n      DUP3 \t\t\t\n      PUSH [tag] 143\t\t\t\n      JUMP \t\t\t\n    tag 420\t\t\t\n      JUMPDEST \t\t\t\n      SWAP2 \t\t\t\n      POP \t\t\t\n      PUSH FFFFFFFFFFFFFFFFFFFFFFFFFFFFFFFFFFFFFFFFFFFFFFFFFFFFFFFFFFFFFFFF\t\t\t\n      DUP3 \t\t\t\n      SUB \t\t\t\n      PUSH [tag] 421\t\t\t\n      JUMPI \t\t\t\n      PUSH [tag] 422\t\t\t\n      PUSH [tag] 199\t\t\t\n      JUMP \t\t\t\n    tag 422\t\t\t\n      JUMPDEST \t\t\t\n    tag 421\t\t\t\n      JUMPDEST \t\t\t\n      PUSH 1\t\t\t\n      DUP3 \t\t\t\n      ADD \t\t\t\n      SWAP1 \t\t\t\n      POP \t\t\t\n      SWAP2 \t\t\t\n      SWAP1 \t\t\t\n      POP \t\t\t\n      JUMP \t\t\t\n    tag 200\t\t\t\n      JUMPDEST \t\t\t\n      PUSH 506C65617365207375626D6974207468652061736B696E672070726963652069\t\t\t\n      PUSH 0\t\t\t\n      DUP3 \t\t\t\n      ADD \t\t\t\n      MSTORE \t\t\t\n      PUSH 6E206F7264657220746F20636F6D706C65746520746865207075726368617365\t\t\t\n      PUSH 20\t\t\t\n      DUP3 \t\t\t\n      ADD \t\t\t\n      MSTORE \t\t\t\n      POP \t\t\t\n      JUMP \t\t\t\n    tag 201\t\t\t\n      JUMPDEST \t\t\t\n      PUSH 0\t\t\t\n      PUSH [tag] 425\t\t\t\n      PUSH 40\t\t\t\n      DUP4 \t\t\t\n      PUSH [tag] 166\t\t\t\n      JUMP \t\t\t\n    tag 425\t\t\t\n      JUMPDEST \t\t\t\n      SWAP2 \t\t\t\n      POP \t\t\t\n      PUSH [tag] 426\t\t\t\n      DUP3 \t\t\t\n      PUSH [tag] 200\t\t\t\n      JUMP \t\t\t\n    tag 426\t\t\t\n      JUMPDEST \t\t\t\n      PUSH 40\t\t\t\n      DUP3 \t\t\t\n      ADD \t\t\t\n      SWAP1 \t\t\t\n      POP \t\t\t\n      SWAP2 \t\t\t\n      SWAP1 \t\t\t\n      POP \t\t\t\n      JUMP \t\t\t\n    tag 122\t\t\t\n      JUMPDEST \t\t\t\n      PUSH 0\t\t\t\n      PUSH 20\t\t\t\n      DUP3 \t\t\t\n      ADD \t\t\t\n      SWAP1 \t\t\t\n      POP \t\t\t\n      DUP2 \t\t\t\n      DUP2 \t\t\t\n      SUB \t\t\t\n      PUSH 0\t\t\t\n      DUP4 \t\t\t\n      ADD \t\t\t\n      MSTORE \t\t\t\n      PUSH [tag] 428\t\t\t\n      DUP2 \t\t\t\n      PUSH [tag] 201\t\t\t\n      JUMP \t\t\t\n    tag 428\t\t\t\n      JUMPDEST \t\t\t\n      SWAP1 \t\t\t\n      POP \t\t\t\n      SWAP2 \t\t\t\n      SWAP1 \t\t\t\n      POP \t\t\t\n      JUMP \t\t\t\n    tag 202\t\t\t\n      JUMPDEST \t\t\t\n      PUSH 54686973206974656D2068617320616C7265616479206265656E20736F6C6400\t\t\t\n      PUSH 0\t\t\t\n      DUP3 \t\t\t\n      ADD \t\t\t\n      MSTORE \t\t\t\n      POP \t\t\t\n      JUMP \t\t\t\n    tag 203\t\t\t\n      JUMPDEST \t\t\t\n      PUSH 0\t\t\t\n      PUSH [tag] 431\t\t\t\n      PUSH 1F\t\t\t\n      DUP4 \t\t\t\n      PUSH [tag] 166\t\t\t\n      JUMP \t\t\t\n    tag 431\t\t\t\n      JUMPDEST \t\t\t\n      SWAP2 \t\t\t\n      POP \t\t\t\n      PUSH [tag] 432\t\t\t\n      DUP3 \t\t\t\n      PUSH [tag] 202\t\t\t\n      JUMP \t\t\t\n    tag 432\t\t\t\n      JUMPDEST \t\t\t\n      PUSH 20\t\t\t\n      DUP3 \t\t\t\n      ADD \t\t\t\n      SWAP1 \t\t\t\n      POP \t\t\t\n      SWAP2 \t\t\t\n      SWAP1 \t\t\t\n      POP \t\t\t\n      JUMP \t\t\t\n    tag 125\t\t\t\n      JUMPDEST \t\t\t\n      PUSH 0\t\t\t\n      PUSH 20\t\t\t\n      DUP3 \t\t\t\n      ADD \t\t\t\n      SWAP1 \t\t\t\n      POP \t\t\t\n      DUP2 \t\t\t\n      DUP2 \t\t\t\n      SUB \t\t\t\n      PUSH 0\t\t\t\n      DUP4 \t\t\t\n      ADD \t\t\t\n      MSTORE \t\t\t\n      PUSH [tag] 434\t\t\t\n      DUP2 \t\t\t\n      PUSH [tag] 203\t\t\t\n      JUMP \t\t\t\n    tag 434\t\t\t\n      JUMPDEST \t\t\t\n      SWAP1 \t\t\t\n      POP \t\t\t\n      SWAP2 \t\t\t\n      SWAP1 \t\t\t\n      POP \t\t\t\n      JUMP \t\t\t\n    tag 204\t\t\t\n      JUMPDEST \t\t\t\n      PUSH 4F776E65722063616E6E6F7420627579207468656972206F776E206974656D00\t\t\t\n      PUSH 0\t\t\t\n      DUP3 \t\t\t\n      ADD \t\t\t\n      MSTORE \t\t\t\n      POP \t\t\t\n      JUMP \t\t\t\n    tag 205\t\t\t\n      JUMPDEST \t\t\t\n      PUSH 0\t\t\t\n      PUSH [tag] 437\t\t\t\n      PUSH 1F\t\t\t\n      DUP4 \t\t\t\n      PUSH [tag] 166\t\t\t\n      JUMP \t\t\t\n    tag 437\t\t\t\n      JUMPDEST \t\t\t\n      SWAP2 \t\t\t\n      POP \t\t\t\n      PUSH [tag] 438\t\t\t\n      DUP3 \t\t\t\n      PUSH [tag] 204\t\t\t\n      JUMP \t\t\t\n    tag 438\t\t\t\n      JUMPDEST \t\t\t\n      PUSH 20\t\t\t\n      DUP3 \t\t\t\n      ADD \t\t\t\n      SWAP1 \t\t\t\n      POP \t\t\t\n      SWAP2 \t\t\t\n      SWAP1 \t\t\t\n      POP \t\t\t\n      JUMP \t\t\t\n    tag 128\t\t\t\n      JUMPDEST \t\t\t\n      PUSH 0\t\t\t\n      PUSH 20\t\t\t\n      DUP3 \t\t\t\n      ADD \t\t\t\n      SWAP1 \t\t\t\n      POP \t\t\t\n      DUP2 \t\t\t\n      DUP2 \t\t\t\n      SUB \t\t\t\n      PUSH 0\t\t\t\n      DUP4 \t\t\t\n      ADD \t\t\t\n      MSTORE \t\t\t\n      PUSH [tag] 440\t\t\t\n      DUP2 \t\t\t\n      PUSH [tag] 205\t\t\t\n      JUMP \t\t\t\n    tag 440\t\t\t\n      JUMPDEST \t\t\t\n      SWAP1 \t\t\t\n      POP \t\t\t\n      SWAP2 \t\t\t\n      SWAP1 \t\t\t\n      POP \t\t\t\n      JUMP \t\t\t\n    tag 206\t\t\t\n      JUMPDEST \t\t\t\n      PUSH 0\t\t\t\n      DUP2 \t\t\t\n      SWAP1 \t\t\t\n      POP \t\t\t\n      SWAP3 \t\t\t\n      SWAP2 \t\t\t\n      POP \t\t\t\n      POP \t\t\t\n      JUMP \t\t\t\n    tag 207\t\t\t\n      JUMPDEST \t\t\t\n      POP \t\t\t\n      JUMP \t\t\t\n    tag 208\t\t\t\n      JUMPDEST \t\t\t\n      PUSH 0\t\t\t\n      PUSH [tag] 444\t\t\t\n      PUSH 0\t\t\t\n      DUP4 \t\t\t\n      PUSH [tag] 206\t\t\t\n      JUMP \t\t\t\n    tag 444\t\t\t\n      JUMPDEST \t\t\t\n      SWAP2 \t\t\t\n      POP \t\t\t\n      PUSH [tag] 445\t\t\t\n      DUP3 \t\t\t\n      PUSH [tag] 207\t\t\t\n      JUMP \t\t\t\n    tag 445\t\t\t\n      JUMPDEST \t\t\t\n      PUSH 0\t\t\t\n      DUP3 \t\t\t\n      ADD \t\t\t\n      SWAP1 \t\t\t\n      POP \t\t\t\n      SWAP2 \t\t\t\n      SWAP1 \t\t\t\n      POP \t\t\t\n      JUMP \t\t\t\n    tag 130\t\t\t\n      JUMPDEST \t\t\t\n      PUSH 0\t\t\t\n      PUSH [tag] 447\t\t\t\n      DUP3 \t\t\t\n      PUSH [tag] 208\t\t\t\n      JUMP \t\t\t\n    tag 447\t\t\t\n      JUMPDEST \t\t\t\n      SWAP2 \t\t\t\n      POP \t\t\t\n      DUP2 \t\t\t\n      SWAP1 \t\t\t\n      POP \t\t\t\n      SWAP2 \t\t\t\n      SWAP1 \t\t\t\n      POP \t\t\t\n      JUMP \t\t\t\n    tag 209\t\t\t\n      JUMPDEST \t\t\t\n      PUSH 4661696C656420746F2073656E64204574686572000000000000000000000000\t\t\t\n      PUSH 0\t\t\t\n      DUP3 \t\t\t\n      ADD \t\t\t\n      MSTORE \t\t\t\n      POP \t\t\t\n      JUMP \t\t\t\n    tag 210\t\t\t\n      JUMPDEST \t\t\t\n      PUSH 0\t\t\t\n      PUSH [tag] 450\t\t\t\n      PUSH 14\t\t\t\n      DUP4 \t\t\t\n      PUSH [tag] 166\t\t\t\n      JUMP \t\t\t\n    tag 450\t\t\t\n      JUMPDEST \t\t\t\n      SWAP2 \t\t\t\n      POP \t\t\t\n      PUSH [tag] 451\t\t\t\n      DUP3 \t\t\t\n      PUSH [tag] 209\t\t\t\n      JUMP \t\t\t\n    tag 451\t\t\t\n      JUMPDEST \t\t\t\n      PUSH 20\t\t\t\n      DUP3 \t\t\t\n      ADD \t\t\t\n      SWAP1 \t\t\t\n      POP \t\t\t\n      SWAP2 \t\t\t\n      SWAP1 \t\t\t\n      POP \t\t\t\n      JUMP \t\t\t\n    tag 136\t\t\t\n      JUMPDEST \t\t\t\n      PUSH 0\t\t\t\n      PUSH 20\t\t\t\n      DUP3 \t\t\t\n      ADD \t\t\t\n      SWAP1 \t\t\t\n      POP \t\t\t\n      DUP2 \t\t\t\n      DUP2 \t\t\t\n      SUB \t\t\t\n      PUSH 0\t\t\t\n      DUP4 \t\t\t\n      ADD \t\t\t\n      MSTORE \t\t\t\n      PUSH [tag] 453\t\t\t\n      DUP2 \t\t\t\n      PUSH [tag] 210\t\t\t\n      JUMP \t\t\t\n    tag 453\t\t\t\n      JUMPDEST \t\t\t\n      SWAP1 \t\t\t\n      POP \t\t\t\n      SWAP2 \t\t\t\n      SWAP1 \t\t\t\n      POP \t\t\t\n      JUMP \t\t\t\n    tag 139\t\t\t\n      JUMPDEST \t\t\t\n      PUSH 0\t\t\t\n      PUSH 40\t\t\t\n      DUP3 \t\t\t\n      ADD \t\t\t\n      SWAP1 \t\t\t\n      POP \t\t\t\n      PUSH [tag] 455\t\t\t\n      PUSH 0\t\t\t\n      DUP4 \t\t\t\n      ADD \t\t\t\n      DUP6 \t\t\t\n      PUSH [tag] 159\t\t\t\n      JUMP \t\t\t\n    tag 455\t\t\t\n      JUMPDEST \t\t\t\n      PUSH [tag] 456\t\t\t\n      PUSH 20\t\t\t\n      DUP4 \t\t\t\n      ADD \t\t\t\n      DUP5 \t\t\t\n      PUSH [tag] 159\t\t\t\n      JUMP \t\t\t\n    tag 456\t\t\t\n      JUMPDEST \t\t\t\n      SWAP4 \t\t\t\n      SWAP3 \t\t\t\n      POP \t\t\t\n      POP \t\t\t\n      POP \t\t\t\n      JUMP \t\t\t\n    .data\n"
}